{
	"src/tokens/stQVEtoken.sol": {
		"stQVEtoken": {
			"abi": [
				{
					"inputs": [],
					"stateMutability": "nonpayable",
					"type": "constructor"
				},
				{
					"anonymous": false,
					"inputs": [
						{
							"indexed": true,
							"internalType": "address",
							"name": "owner",
							"type": "address"
						},
						{
							"indexed": true,
							"internalType": "address",
							"name": "spender",
							"type": "address"
						},
						{
							"indexed": false,
							"internalType": "uint256",
							"name": "value",
							"type": "uint256"
						}
					],
					"name": "Approval",
					"type": "event"
				},
				{
					"anonymous": false,
					"inputs": [
						{
							"indexed": true,
							"internalType": "address",
							"name": "previousOwner",
							"type": "address"
						},
						{
							"indexed": true,
							"internalType": "address",
							"name": "newOwner",
							"type": "address"
						}
					],
					"name": "OwnershipTransferred",
					"type": "event"
				},
				{
					"anonymous": false,
					"inputs": [
						{
							"indexed": true,
							"internalType": "address",
							"name": "from",
							"type": "address"
						},
						{
							"indexed": true,
							"internalType": "address",
							"name": "to",
							"type": "address"
						},
						{
							"indexed": false,
							"internalType": "uint256",
							"name": "value",
							"type": "uint256"
						}
					],
					"name": "Transfer",
					"type": "event"
				},
				{
					"anonymous": false,
					"inputs": [
						{
							"indexed": false,
							"internalType": "address",
							"name": "from",
							"type": "address"
						},
						{
							"indexed": false,
							"internalType": "uint256",
							"name": "amount",
							"type": "uint256"
						},
						{
							"indexed": false,
							"internalType": "uint256",
							"name": "remainedTokenSupply",
							"type": "uint256"
						}
					],
					"name": "stQVEburned",
					"type": "event"
				},
				{
					"anonymous": false,
					"inputs": [
						{
							"indexed": false,
							"internalType": "address",
							"name": "account",
							"type": "address"
						},
						{
							"indexed": false,
							"internalType": "uint256",
							"name": "amount",
							"type": "uint256"
						}
					],
					"name": "stQVEminted",
					"type": "event"
				},
				{
					"anonymous": false,
					"inputs": [
						{
							"indexed": false,
							"internalType": "address",
							"name": "from",
							"type": "address"
						},
						{
							"indexed": false,
							"internalType": "address",
							"name": "target",
							"type": "address"
						},
						{
							"indexed": false,
							"internalType": "uint256",
							"name": "amount",
							"type": "uint256"
						}
					],
					"name": "stQVEtransfered",
					"type": "event"
				},
				{
					"inputs": [
						{
							"internalType": "address",
							"name": "owner",
							"type": "address"
						},
						{
							"internalType": "address",
							"name": "spender",
							"type": "address"
						}
					],
					"name": "allowance",
					"outputs": [
						{
							"internalType": "uint256",
							"name": "",
							"type": "uint256"
						}
					],
					"stateMutability": "view",
					"type": "function"
				},
				{
					"inputs": [
						{
							"internalType": "address",
							"name": "spender",
							"type": "address"
						},
						{
							"internalType": "uint256",
							"name": "amount",
							"type": "uint256"
						}
					],
					"name": "approve",
					"outputs": [
						{
							"internalType": "bool",
							"name": "",
							"type": "bool"
						}
					],
					"stateMutability": "nonpayable",
					"type": "function"
				},
				{
					"inputs": [
						{
							"internalType": "address",
							"name": "account",
							"type": "address"
						}
					],
					"name": "balanceOf",
					"outputs": [
						{
							"internalType": "uint256",
							"name": "",
							"type": "uint256"
						}
					],
					"stateMutability": "view",
					"type": "function"
				},
				{
					"inputs": [
						{
							"internalType": "uint256",
							"name": "amount",
							"type": "uint256"
						}
					],
					"name": "burn",
					"outputs": [],
					"stateMutability": "nonpayable",
					"type": "function"
				},
				{
					"inputs": [
						{
							"internalType": "address",
							"name": "account",
							"type": "address"
						},
						{
							"internalType": "uint256",
							"name": "amount",
							"type": "uint256"
						}
					],
					"name": "burnFrom",
					"outputs": [],
					"stateMutability": "nonpayable",
					"type": "function"
				},
				{
					"inputs": [],
					"name": "decimals",
					"outputs": [
						{
							"internalType": "uint8",
							"name": "",
							"type": "uint8"
						}
					],
					"stateMutability": "view",
					"type": "function"
				},
				{
					"inputs": [
						{
							"internalType": "address",
							"name": "spender",
							"type": "address"
						},
						{
							"internalType": "uint256",
							"name": "subtractedValue",
							"type": "uint256"
						}
					],
					"name": "decreaseAllowance",
					"outputs": [
						{
							"internalType": "bool",
							"name": "",
							"type": "bool"
						}
					],
					"stateMutability": "nonpayable",
					"type": "function"
				},
				{
					"inputs": [
						{
							"internalType": "address",
							"name": "spender",
							"type": "address"
						},
						{
							"internalType": "uint256",
							"name": "addedValue",
							"type": "uint256"
						}
					],
					"name": "increaseAllowance",
					"outputs": [
						{
							"internalType": "bool",
							"name": "",
							"type": "bool"
						}
					],
					"stateMutability": "nonpayable",
					"type": "function"
				},
				{
					"inputs": [],
					"name": "initialSupply",
					"outputs": [
						{
							"internalType": "uint256",
							"name": "",
							"type": "uint256"
						}
					],
					"stateMutability": "view",
					"type": "function"
				},
				{
					"inputs": [],
					"name": "name",
					"outputs": [
						{
							"internalType": "string",
							"name": "",
							"type": "string"
						}
					],
					"stateMutability": "view",
					"type": "function"
				},
				{
					"inputs": [
						{
							"internalType": "address",
							"name": "account",
							"type": "address"
						},
						{
							"internalType": "uint256",
							"name": "amount",
							"type": "uint256"
						}
					],
					"name": "normal_burn",
					"outputs": [
						{
							"internalType": "bool",
							"name": "",
							"type": "bool"
						}
					],
					"stateMutability": "nonpayable",
					"type": "function"
				},
				{
					"inputs": [
						{
							"internalType": "address",
							"name": "account",
							"type": "address"
						},
						{
							"internalType": "uint256",
							"name": "amount",
							"type": "uint256"
						}
					],
					"name": "normal_mint",
					"outputs": [
						{
							"internalType": "bool",
							"name": "",
							"type": "bool"
						}
					],
					"stateMutability": "nonpayable",
					"type": "function"
				},
				{
					"inputs": [
						{
							"internalType": "address",
							"name": "from",
							"type": "address"
						},
						{
							"internalType": "address",
							"name": "target",
							"type": "address"
						},
						{
							"internalType": "uint256",
							"name": "amount",
							"type": "uint256"
						}
					],
					"name": "normal_transfer",
					"outputs": [
						{
							"internalType": "bool",
							"name": "",
							"type": "bool"
						}
					],
					"stateMutability": "nonpayable",
					"type": "function"
				},
				{
					"inputs": [],
					"name": "owner",
					"outputs": [
						{
							"internalType": "address",
							"name": "",
							"type": "address"
						}
					],
					"stateMutability": "view",
					"type": "function"
				},
				{
					"inputs": [],
					"name": "renounceOwnership",
					"outputs": [],
					"stateMutability": "nonpayable",
					"type": "function"
				},
				{
					"inputs": [],
					"name": "symbol",
					"outputs": [
						{
							"internalType": "string",
							"name": "",
							"type": "string"
						}
					],
					"stateMutability": "view",
					"type": "function"
				},
				{
					"inputs": [],
					"name": "totalSupply",
					"outputs": [
						{
							"internalType": "uint256",
							"name": "",
							"type": "uint256"
						}
					],
					"stateMutability": "view",
					"type": "function"
				},
				{
					"inputs": [
						{
							"internalType": "address",
							"name": "to",
							"type": "address"
						},
						{
							"internalType": "uint256",
							"name": "amount",
							"type": "uint256"
						}
					],
					"name": "transfer",
					"outputs": [
						{
							"internalType": "bool",
							"name": "",
							"type": "bool"
						}
					],
					"stateMutability": "nonpayable",
					"type": "function"
				},
				{
					"inputs": [
						{
							"internalType": "address",
							"name": "from",
							"type": "address"
						},
						{
							"internalType": "address",
							"name": "to",
							"type": "address"
						},
						{
							"internalType": "uint256",
							"name": "amount",
							"type": "uint256"
						}
					],
					"name": "transferFrom",
					"outputs": [
						{
							"internalType": "bool",
							"name": "",
							"type": "bool"
						}
					],
					"stateMutability": "nonpayable",
					"type": "function"
				},
				{
					"inputs": [
						{
							"internalType": "address",
							"name": "newOwner",
							"type": "address"
						}
					],
					"name": "transferOwnership",
					"outputs": [],
					"stateMutability": "nonpayable",
					"type": "function"
				},
				{
					"inputs": [
						{
							"internalType": "address",
							"name": "via",
							"type": "address"
						},
						{
							"internalType": "address",
							"name": "owner",
							"type": "address"
						},
						{
							"internalType": "address",
							"name": "to",
							"type": "address"
						},
						{
							"internalType": "uint256",
							"name": "amount",
							"type": "uint256"
						}
					],
					"name": "via_transfer",
					"outputs": [
						{
							"internalType": "bool",
							"name": "",
							"type": "bool"
						}
					],
					"stateMutability": "nonpayable",
					"type": "function"
				}
			],
			"devdoc": {
				"events": {
					"Approval(address,address,uint256)": {
						"details": "Emitted when the allowance of a `spender` for an `owner` is set by a call to {approve}. `value` is the new allowance."
					},
					"Transfer(address,address,uint256)": {
						"details": "Emitted when `value` tokens are moved from one account (`from`) to another (`to`). Note that `value` may be zero."
					}
				},
				"kind": "dev",
				"methods": {
					"allowance(address,address)": {
						"details": "See {IERC20-allowance}."
					},
					"approve(address,uint256)": {
						"details": "See {IERC20-approve}. NOTE: If `amount` is the maximum `uint256`, the allowance is not updated on `transferFrom`. This is semantically equivalent to an infinite approval. Requirements: - `spender` cannot be the zero address."
					},
					"balanceOf(address)": {
						"details": "See {IERC20-balanceOf}."
					},
					"burn(uint256)": {
						"details": "Destroys `amount` tokens from the caller. See {ERC20-_burn}."
					},
					"burnFrom(address,uint256)": {
						"details": "Destroys `amount` tokens from `account`, deducting from the caller's allowance. See {ERC20-_burn} and {ERC20-allowance}. Requirements: - the caller must have allowance for ``accounts``'s tokens of at least `amount`."
					},
					"decimals()": {
						"details": "Returns the number of decimals used to get its user representation. For example, if `decimals` equals `2`, a balance of `505` tokens should be displayed to a user as `5.05` (`505 / 10 ** 2`). Tokens usually opt for a value of 18, imitating the relationship between Ether and Wei. This is the default value returned by this function, unless it's overridden. NOTE: This information is only used for _display_ purposes: it in no way affects any of the arithmetic of the contract, including {IERC20-balanceOf} and {IERC20-transfer}."
					},
					"decreaseAllowance(address,uint256)": {
						"details": "Atomically decreases the allowance granted to `spender` by the caller. This is an alternative to {approve} that can be used as a mitigation for problems described in {IERC20-approve}. Emits an {Approval} event indicating the updated allowance. Requirements: - `spender` cannot be the zero address. - `spender` must have allowance for the caller of at least `subtractedValue`."
					},
					"increaseAllowance(address,uint256)": {
						"details": "Atomically increases the allowance granted to `spender` by the caller. This is an alternative to {approve} that can be used as a mitigation for problems described in {IERC20-approve}. Emits an {Approval} event indicating the updated allowance. Requirements: - `spender` cannot be the zero address."
					},
					"name()": {
						"details": "Returns the name of the token."
					},
					"owner()": {
						"details": "Returns the address of the current owner."
					},
					"renounceOwnership()": {
						"details": "Leaves the contract without owner. It will not be possible to call `onlyOwner` functions. Can only be called by the current owner. NOTE: Renouncing ownership will leave the contract without an owner, thereby disabling any functionality that is only available to the owner."
					},
					"symbol()": {
						"details": "Returns the symbol of the token, usually a shorter version of the name."
					},
					"totalSupply()": {
						"details": "See {IERC20-totalSupply}."
					},
					"transfer(address,uint256)": {
						"details": "See {IERC20-transfer}. Requirements: - `to` cannot be the zero address. - the caller must have a balance of at least `amount`."
					},
					"transferFrom(address,address,uint256)": {
						"details": "See {IERC20-transferFrom}. Emits an {Approval} event indicating the updated allowance. This is not required by the EIP. See the note at the beginning of {ERC20}. NOTE: Does not update the allowance if the current allowance is the maximum `uint256`. Requirements: - `from` and `to` cannot be the zero address. - `from` must have a balance of at least `amount`. - the caller must have allowance for ``from``'s tokens of at least `amount`."
					},
					"transferOwnership(address)": {
						"details": "Transfers ownership of the contract to a new account (`newOwner`). Can only be called by the current owner."
					}
				},
				"version": 1
			},
			"evm": {
				"assembly": "    /* \"src/tokens/stQVEtoken.sol\":276:1723  contract stQVEtoken is ERC20Burnable, Ownable, Security {... */\n  mstore(0x40, 0x80)\n    /* \"src/tokens/stQVEtoken.sol\":682:806  constructor() ERC20(\"stQVE\", \"stQVE\") {... */\n  callvalue\n  dup1\n  iszero\n  tag_1\n  jumpi\n  0x00\n  dup1\n  revert\ntag_1:\n  pop\n    /* \"@openzeppelin/contracts/token/ERC20/ERC20.sol\":1980:2093  constructor(string memory name_, string memory symbol_) {... */\n  mload(0x40)\n  dup1\n  0x40\n  add\n  0x40\n  mstore\n  dup1\n  0x05\n  dup2\n  mstore\n  0x20\n  add\n  0x7374515645000000000000000000000000000000000000000000000000000000\n  dup2\n  mstore\n  pop\n  mload(0x40)\n  dup1\n  0x40\n  add\n  0x40\n  mstore\n  dup1\n  0x05\n  dup2\n  mstore\n  0x20\n  add\n  0x7374515645000000000000000000000000000000000000000000000000000000\n  dup2\n  mstore\n  pop\n    /* \"@openzeppelin/contracts/token/ERC20/ERC20.sol\":2054:2059  name_ */\n  dup2\n    /* \"@openzeppelin/contracts/token/ERC20/ERC20.sol\":2046:2051  _name */\n  0x03\n    /* \"@openzeppelin/contracts/token/ERC20/ERC20.sol\":2046:2059  _name = name_ */\n  swap1\n  dup2\n  tag_6\n  swap2\n  swap1\n  tag_7\n  jump\t// in\ntag_6:\n  pop\n    /* \"@openzeppelin/contracts/token/ERC20/ERC20.sol\":2079:2086  symbol_ */\n  dup1\n    /* \"@openzeppelin/contracts/token/ERC20/ERC20.sol\":2069:2076  _symbol */\n  0x04\n    /* \"@openzeppelin/contracts/token/ERC20/ERC20.sol\":2069:2086  _symbol = symbol_ */\n  swap1\n  dup2\n  tag_8\n  swap2\n  swap1\n  tag_7\n  jump\t// in\ntag_8:\n  pop\n    /* \"@openzeppelin/contracts/token/ERC20/ERC20.sol\":1980:2093  constructor(string memory name_, string memory symbol_) {... */\n  pop\n  pop\n    /* \"@openzeppelin/contracts/access/Ownable.sol\":936:968  _transferOwnership(_msgSender()) */\n  tag_10\n    /* \"@openzeppelin/contracts/access/Ownable.sol\":955:967  _msgSender() */\n  tag_11\n    /* \"@openzeppelin/contracts/access/Ownable.sol\":955:965  _msgSender */\n  shl(0x20, tag_12)\n    /* \"@openzeppelin/contracts/access/Ownable.sol\":955:967  _msgSender() */\n  0x20\n  shr\n  jump\t// in\ntag_11:\n    /* \"@openzeppelin/contracts/access/Ownable.sol\":936:954  _transferOwnership */\n  shl(0x20, tag_13)\n    /* \"@openzeppelin/contracts/access/Ownable.sol\":936:968  _transferOwnership(_msgSender()) */\n  0x20\n  shr\n  jump\t// in\ntag_10:\n    /* \"src/tokens/stQVEtoken.sol\":746:747  0 */\n  0x00\n    /* \"src/tokens/stQVEtoken.sol\":730:743  initialSupply */\n  0x06\n    /* \"src/tokens/stQVEtoken.sol\":730:747  initialSupply = 0 */\n  dup2\n  swap1\n  sstore\n  pop\n    /* \"src/tokens/stQVEtoken.sol\":757:799  _mint(msg.sender, initialSupply.mul(1e18)) */\n  tag_15\n    /* \"src/tokens/stQVEtoken.sol\":763:773  msg.sender */\n  caller\n    /* \"src/tokens/stQVEtoken.sol\":775:798  initialSupply.mul(1e18) */\n  tag_16\n    /* \"src/tokens/stQVEtoken.sol\":793:797  1e18 */\n  0x0de0b6b3a7640000\n    /* \"src/tokens/stQVEtoken.sol\":775:788  initialSupply */\n  sload(0x06)\n    /* \"src/tokens/stQVEtoken.sol\":775:792  initialSupply.mul */\n  or(tag_0_111, shl(0x20, tag_17))\n  swap1\n    /* \"src/tokens/stQVEtoken.sol\":775:798  initialSupply.mul(1e18) */\n  swap2\n  swap1\n  0x20\n  shr\n  jump\t// in\ntag_16:\n    /* \"src/tokens/stQVEtoken.sol\":757:762  _mint */\n  shl(0x20, tag_18)\n    /* \"src/tokens/stQVEtoken.sol\":757:799  _mint(msg.sender, initialSupply.mul(1e18)) */\n  0x20\n  shr\n  jump\t// in\ntag_15:\n    /* \"src/tokens/stQVEtoken.sol\":276:1723  contract stQVEtoken is ERC20Burnable, Ownable, Security {... */\n  jump(tag_19)\n    /* \"@openzeppelin/contracts/utils/Context.sol\":640:736  function _msgSender() internal view virtual returns (address) {... */\ntag_12:\n    /* \"@openzeppelin/contracts/utils/Context.sol\":693:700  address */\n  0x00\n    /* \"@openzeppelin/contracts/utils/Context.sol\":719:729  msg.sender */\n  caller\n    /* \"@openzeppelin/contracts/utils/Context.sol\":712:729  return msg.sender */\n  swap1\n  pop\n    /* \"@openzeppelin/contracts/utils/Context.sol\":640:736  function _msgSender() internal view virtual returns (address) {... */\n  swap1\n  jump\t// out\n    /* \"@openzeppelin/contracts/access/Ownable.sol\":2426:2613  function _transferOwnership(address newOwner) internal virtual {... */\ntag_13:\n    /* \"@openzeppelin/contracts/access/Ownable.sol\":2499:2515  address oldOwner */\n  0x00\n    /* \"@openzeppelin/contracts/access/Ownable.sol\":2518:2524  _owner */\n  0x05\n  0x00\n  swap1\n  sload\n  swap1\n  0x0100\n  exp\n  swap1\n  div\n  0xffffffffffffffffffffffffffffffffffffffff\n  and\n    /* \"@openzeppelin/contracts/access/Ownable.sol\":2499:2524  address oldOwner = _owner */\n  swap1\n  pop\n    /* \"@openzeppelin/contracts/access/Ownable.sol\":2543:2551  newOwner */\n  dup2\n    /* \"@openzeppelin/contracts/access/Ownable.sol\":2534:2540  _owner */\n  0x05\n  0x00\n    /* \"@openzeppelin/contracts/access/Ownable.sol\":2534:2551  _owner = newOwner */\n  0x0100\n  exp\n  dup2\n  sload\n  dup2\n  0xffffffffffffffffffffffffffffffffffffffff\n  mul\n  not\n  and\n  swap1\n  dup4\n  0xffffffffffffffffffffffffffffffffffffffff\n  and\n  mul\n  or\n  swap1\n  sstore\n  pop\n    /* \"@openzeppelin/contracts/access/Ownable.sol\":2597:2605  newOwner */\n  dup2\n    /* \"@openzeppelin/contracts/access/Ownable.sol\":2566:2606  OwnershipTransferred(oldOwner, newOwner) */\n  0xffffffffffffffffffffffffffffffffffffffff\n  and\n    /* \"@openzeppelin/contracts/access/Ownable.sol\":2587:2595  oldOwner */\n  dup2\n    /* \"@openzeppelin/contracts/access/Ownable.sol\":2566:2606  OwnershipTransferred(oldOwner, newOwner) */\n  0xffffffffffffffffffffffffffffffffffffffff\n  and\n  0x8be0079c531659141344cd1fd0a4f28419497f9722a3daafe3b4186f6b6457e0\n  mload(0x40)\n  mload(0x40)\n  dup1\n  swap2\n  sub\n  swap1\n  log3\n    /* \"@openzeppelin/contracts/access/Ownable.sol\":2489:2613  {... */\n  pop\n    /* \"@openzeppelin/contracts/access/Ownable.sol\":2426:2613  function _transferOwnership(address newOwner) internal virtual {... */\n  pop\n  jump\t// out\n    /* \"@openzeppelin/contracts/utils/math/SafeMath.sol\":3465:3561  function mul(uint256 a, uint256 b) internal pure returns (uint256) {... */\ntag_17:\n    /* \"@openzeppelin/contracts/utils/math/SafeMath.sol\":3523:3530  uint256 */\n  0x00\n    /* \"@openzeppelin/contracts/utils/math/SafeMath.sol\":3553:3554  b */\n  dup2\n    /* \"@openzeppelin/contracts/utils/math/SafeMath.sol\":3549:3550  a */\n  dup4\n    /* \"@openzeppelin/contracts/utils/math/SafeMath.sol\":3549:3554  a * b */\n  tag_23\n  swap2\n  swap1\n  tag_24\n  jump\t// in\ntag_23:\n    /* \"@openzeppelin/contracts/utils/math/SafeMath.sol\":3542:3554  return a * b */\n  swap1\n  pop\n    /* \"@openzeppelin/contracts/utils/math/SafeMath.sol\":3465:3561  function mul(uint256 a, uint256 b) internal pure returns (uint256) {... */\n  swap3\n  swap2\n  pop\n  pop\n  jump\t// out\n    /* \"@openzeppelin/contracts/token/ERC20/ERC20.sol\":8520:9055  function _mint(address account, uint256 amount) internal virtual {... */\ntag_18:\n    /* \"@openzeppelin/contracts/token/ERC20/ERC20.sol\":8622:8623  0 */\n  0x00\n    /* \"@openzeppelin/contracts/token/ERC20/ERC20.sol\":8603:8624  account != address(0) */\n  0xffffffffffffffffffffffffffffffffffffffff\n  and\n    /* \"@openzeppelin/contracts/token/ERC20/ERC20.sol\":8603:8610  account */\n  dup3\n    /* \"@openzeppelin/contracts/token/ERC20/ERC20.sol\":8603:8624  account != address(0) */\n  0xffffffffffffffffffffffffffffffffffffffff\n  and\n  sub\n    /* \"@openzeppelin/contracts/token/ERC20/ERC20.sol\":8595:8660  require(account != address(0), \"ERC20: mint to the zero address\") */\n  tag_26\n  jumpi\n  mload(0x40)\n  0x08c379a000000000000000000000000000000000000000000000000000000000\n  dup2\n  mstore\n  0x04\n  add\n  tag_27\n  swap1\n  tag_28\n  jump\t// in\ntag_27:\n  mload(0x40)\n  dup1\n  swap2\n  sub\n  swap1\n  revert\ntag_26:\n    /* \"@openzeppelin/contracts/token/ERC20/ERC20.sol\":8671:8720  _beforeTokenTransfer(address(0), account, amount) */\n  tag_29\n    /* \"@openzeppelin/contracts/token/ERC20/ERC20.sol\":8700:8701  0 */\n  0x00\n    /* \"@openzeppelin/contracts/token/ERC20/ERC20.sol\":8704:8711  account */\n  dup4\n    /* \"@openzeppelin/contracts/token/ERC20/ERC20.sol\":8713:8719  amount */\n  dup4\n    /* \"@openzeppelin/contracts/token/ERC20/ERC20.sol\":8671:8691  _beforeTokenTransfer */\n  shl(0x20, tag_30)\n    /* \"@openzeppelin/contracts/token/ERC20/ERC20.sol\":8671:8720  _beforeTokenTransfer(address(0), account, amount) */\n  0x20\n  shr\n  jump\t// in\ntag_29:\n    /* \"@openzeppelin/contracts/token/ERC20/ERC20.sol\":8747:8753  amount */\n  dup1\n    /* \"@openzeppelin/contracts/token/ERC20/ERC20.sol\":8731:8743  _totalSupply */\n  0x02\n  0x00\n    /* \"@openzeppelin/contracts/token/ERC20/ERC20.sol\":8731:8753  _totalSupply += amount */\n  dup3\n  dup3\n  sload\n  tag_31\n  swap2\n  swap1\n  tag_32\n  jump\t// in\ntag_31:\n  swap3\n  pop\n  pop\n  dup2\n  swap1\n  sstore\n  pop\n    /* \"@openzeppelin/contracts/token/ERC20/ERC20.sol\":8921:8927  amount */\n  dup1\n    /* \"@openzeppelin/contracts/token/ERC20/ERC20.sol\":8899:8908  _balances */\n  0x00\n    /* \"@openzeppelin/contracts/token/ERC20/ERC20.sol\":8899:8917  _balances[account] */\n  dup1\n    /* \"@openzeppelin/contracts/token/ERC20/ERC20.sol\":8909:8916  account */\n  dup5\n    /* \"@openzeppelin/contracts/token/ERC20/ERC20.sol\":8899:8917  _balances[account] */\n  0xffffffffffffffffffffffffffffffffffffffff\n  and\n  0xffffffffffffffffffffffffffffffffffffffff\n  and\n  dup2\n  mstore\n  0x20\n  add\n  swap1\n  dup2\n  mstore\n  0x20\n  add\n  0x00\n  keccak256\n  0x00\n    /* \"@openzeppelin/contracts/token/ERC20/ERC20.sol\":8899:8927  _balances[account] += amount */\n  dup3\n  dup3\n  sload\n  add\n  swap3\n  pop\n  pop\n  dup2\n  swap1\n  sstore\n  pop\n    /* \"@openzeppelin/contracts/token/ERC20/ERC20.sol\":8973:8980  account */\n  dup2\n    /* \"@openzeppelin/contracts/token/ERC20/ERC20.sol\":8952:8989  Transfer(address(0), account, amount) */\n  0xffffffffffffffffffffffffffffffffffffffff\n  and\n    /* \"@openzeppelin/contracts/token/ERC20/ERC20.sol\":8969:8970  0 */\n  0x00\n    /* \"@openzeppelin/contracts/token/ERC20/ERC20.sol\":8952:8989  Transfer(address(0), account, amount) */\n  0xffffffffffffffffffffffffffffffffffffffff\n  and\n  0xddf252ad1be2c89b69c2b068fc378daa952ba7f163c4a11628f55a4df523b3ef\n    /* \"@openzeppelin/contracts/token/ERC20/ERC20.sol\":8982:8988  amount */\n  dup4\n    /* \"@openzeppelin/contracts/token/ERC20/ERC20.sol\":8952:8989  Transfer(address(0), account, amount) */\n  mload(0x40)\n  tag_33\n  swap2\n  swap1\n  tag_34\n  jump\t// in\ntag_33:\n  mload(0x40)\n  dup1\n  swap2\n  sub\n  swap1\n  log3\n    /* \"@openzeppelin/contracts/token/ERC20/ERC20.sol\":9000:9048  _afterTokenTransfer(address(0), account, amount) */\n  tag_35\n    /* \"@openzeppelin/contracts/token/ERC20/ERC20.sol\":9028:9029  0 */\n  0x00\n    /* \"@openzeppelin/contracts/token/ERC20/ERC20.sol\":9032:9039  account */\n  dup4\n    /* \"@openzeppelin/contracts/token/ERC20/ERC20.sol\":9041:9047  amount */\n  dup4\n    /* \"@openzeppelin/contracts/token/ERC20/ERC20.sol\":9000:9019  _afterTokenTransfer */\n  shl(0x20, tag_36)\n    /* \"@openzeppelin/contracts/token/ERC20/ERC20.sol\":9000:9048  _afterTokenTransfer(address(0), account, amount) */\n  0x20\n  shr\n  jump\t// in\ntag_35:\n    /* \"@openzeppelin/contracts/token/ERC20/ERC20.sol\":8520:9055  function _mint(address account, uint256 amount) internal virtual {... */\n  pop\n  pop\n  jump\t// out\n    /* \"@openzeppelin/contracts/token/ERC20/ERC20.sol\":12073:12164  function _beforeTokenTransfer(address from, address to, uint256 amount) internal virtual {} */\ntag_30:\n  pop\n  pop\n  pop\n  jump\t// out\n    /* \"@openzeppelin/contracts/token/ERC20/ERC20.sol\":12752:12842  function _afterTokenTransfer(address from, address to, uint256 amount) internal virtual {} */\ntag_36:\n  pop\n  pop\n  pop\n  jump\t// out\n    /* \"#utility.yul\":7:106   */\ntag_39:\n    /* \"#utility.yul\":59:65   */\n  0x00\n    /* \"#utility.yul\":93:98   */\n  dup2\n    /* \"#utility.yul\":87:99   */\n  mload\n    /* \"#utility.yul\":77:99   */\n  swap1\n  pop\n    /* \"#utility.yul\":7:106   */\n  swap2\n  swap1\n  pop\n  jump\t// out\n    /* \"#utility.yul\":112:292   */\ntag_40:\n    /* \"#utility.yul\":160:237   */\n  0x4e487b7100000000000000000000000000000000000000000000000000000000\n    /* \"#utility.yul\":157:158   */\n  0x00\n    /* \"#utility.yul\":150:238   */\n  mstore\n    /* \"#utility.yul\":257:261   */\n  0x41\n    /* \"#utility.yul\":254:255   */\n  0x04\n    /* \"#utility.yul\":247:262   */\n  mstore\n    /* \"#utility.yul\":281:285   */\n  0x24\n    /* \"#utility.yul\":278:279   */\n  0x00\n    /* \"#utility.yul\":271:286   */\n  revert\n    /* \"#utility.yul\":298:478   */\ntag_41:\n    /* \"#utility.yul\":346:423   */\n  0x4e487b7100000000000000000000000000000000000000000000000000000000\n    /* \"#utility.yul\":343:344   */\n  0x00\n    /* \"#utility.yul\":336:424   */\n  mstore\n    /* \"#utility.yul\":443:447   */\n  0x22\n    /* \"#utility.yul\":440:441   */\n  0x04\n    /* \"#utility.yul\":433:448   */\n  mstore\n    /* \"#utility.yul\":467:471   */\n  0x24\n    /* \"#utility.yul\":464:465   */\n  0x00\n    /* \"#utility.yul\":457:472   */\n  revert\n    /* \"#utility.yul\":484:804   */\ntag_42:\n    /* \"#utility.yul\":528:534   */\n  0x00\n    /* \"#utility.yul\":565:566   */\n  0x02\n    /* \"#utility.yul\":559:563   */\n  dup3\n    /* \"#utility.yul\":555:567   */\n  div\n    /* \"#utility.yul\":545:567   */\n  swap1\n  pop\n    /* \"#utility.yul\":612:613   */\n  0x01\n    /* \"#utility.yul\":606:610   */\n  dup3\n    /* \"#utility.yul\":602:614   */\n  and\n    /* \"#utility.yul\":633:651   */\n  dup1\n    /* \"#utility.yul\":623:704   */\n  tag_69\n  jumpi\n    /* \"#utility.yul\":689:693   */\n  0x7f\n    /* \"#utility.yul\":681:687   */\n  dup3\n    /* \"#utility.yul\":677:694   */\n  and\n    /* \"#utility.yul\":667:694   */\n  swap2\n  pop\n    /* \"#utility.yul\":623:704   */\ntag_69:\n    /* \"#utility.yul\":751:753   */\n  0x20\n    /* \"#utility.yul\":743:749   */\n  dup3\n    /* \"#utility.yul\":740:754   */\n  lt\n    /* \"#utility.yul\":720:738   */\n  dup2\n    /* \"#utility.yul\":717:755   */\n  sub\n    /* \"#utility.yul\":714:798   */\n  tag_70\n  jumpi\n    /* \"#utility.yul\":770:788   */\n  tag_71\n  tag_41\n  jump\t// in\ntag_71:\n    /* \"#utility.yul\":714:798   */\ntag_70:\n    /* \"#utility.yul\":535:804   */\n  pop\n    /* \"#utility.yul\":484:804   */\n  swap2\n  swap1\n  pop\n  jump\t// out\n    /* \"#utility.yul\":810:951   */\ntag_43:\n    /* \"#utility.yul\":859:863   */\n  0x00\n    /* \"#utility.yul\":882:885   */\n  dup2\n    /* \"#utility.yul\":874:885   */\n  swap1\n  pop\n    /* \"#utility.yul\":905:908   */\n  dup2\n    /* \"#utility.yul\":902:903   */\n  0x00\n    /* \"#utility.yul\":895:909   */\n  mstore\n    /* \"#utility.yul\":939:943   */\n  0x20\n    /* \"#utility.yul\":936:937   */\n  0x00\n    /* \"#utility.yul\":926:944   */\n  keccak256\n    /* \"#utility.yul\":918:944   */\n  swap1\n  pop\n    /* \"#utility.yul\":810:951   */\n  swap2\n  swap1\n  pop\n  jump\t// out\n    /* \"#utility.yul\":957:1050   */\ntag_44:\n    /* \"#utility.yul\":994:1000   */\n  0x00\n    /* \"#utility.yul\":1041:1043   */\n  0x20\n    /* \"#utility.yul\":1036:1038   */\n  0x1f\n    /* \"#utility.yul\":1029:1034   */\n  dup4\n    /* \"#utility.yul\":1025:1039   */\n  add\n    /* \"#utility.yul\":1021:1044   */\n  div\n    /* \"#utility.yul\":1011:1044   */\n  swap1\n  pop\n    /* \"#utility.yul\":957:1050   */\n  swap2\n  swap1\n  pop\n  jump\t// out\n    /* \"#utility.yul\":1056:1163   */\ntag_45:\n    /* \"#utility.yul\":1100:1108   */\n  0x00\n    /* \"#utility.yul\":1150:1155   */\n  dup3\n    /* \"#utility.yul\":1144:1148   */\n  dup3\n    /* \"#utility.yul\":1140:1156   */\n  shl\n    /* \"#utility.yul\":1119:1156   */\n  swap1\n  pop\n    /* \"#utility.yul\":1056:1163   */\n  swap3\n  swap2\n  pop\n  pop\n  jump\t// out\n    /* \"#utility.yul\":1169:1562   */\ntag_46:\n    /* \"#utility.yul\":1238:1244   */\n  0x00\n    /* \"#utility.yul\":1288:1289   */\n  0x08\n    /* \"#utility.yul\":1276:1286   */\n  dup4\n    /* \"#utility.yul\":1272:1290   */\n  mul\n    /* \"#utility.yul\":1311:1408   */\n  tag_76\n    /* \"#utility.yul\":1341:1407   */\n  0xffffffffffffffffffffffffffffffffffffffffffffffffffffffffffffffff\n    /* \"#utility.yul\":1330:1339   */\n  dup3\n    /* \"#utility.yul\":1311:1408   */\n  tag_45\n  jump\t// in\ntag_76:\n    /* \"#utility.yul\":1429:1468   */\n  tag_77\n    /* \"#utility.yul\":1459:1467   */\n  dup7\n    /* \"#utility.yul\":1448:1457   */\n  dup4\n    /* \"#utility.yul\":1429:1468   */\n  tag_45\n  jump\t// in\ntag_77:\n    /* \"#utility.yul\":1417:1468   */\n  swap6\n  pop\n    /* \"#utility.yul\":1501:1505   */\n  dup1\n    /* \"#utility.yul\":1497:1506   */\n  not\n    /* \"#utility.yul\":1490:1495   */\n  dup5\n    /* \"#utility.yul\":1486:1507   */\n  and\n    /* \"#utility.yul\":1477:1507   */\n  swap4\n  pop\n    /* \"#utility.yul\":1550:1554   */\n  dup1\n    /* \"#utility.yul\":1540:1548   */\n  dup7\n    /* \"#utility.yul\":1536:1555   */\n  and\n    /* \"#utility.yul\":1529:1534   */\n  dup5\n    /* \"#utility.yul\":1526:1556   */\n  or\n    /* \"#utility.yul\":1516:1556   */\n  swap3\n  pop\n    /* \"#utility.yul\":1245:1562   */\n  pop\n  pop\n    /* \"#utility.yul\":1169:1562   */\n  swap4\n  swap3\n  pop\n  pop\n  pop\n  jump\t// out\n    /* \"#utility.yul\":1568:1645   */\ntag_47:\n    /* \"#utility.yul\":1605:1612   */\n  0x00\n    /* \"#utility.yul\":1634:1639   */\n  dup2\n    /* \"#utility.yul\":1623:1639   */\n  swap1\n  pop\n    /* \"#utility.yul\":1568:1645   */\n  swap2\n  swap1\n  pop\n  jump\t// out\n    /* \"#utility.yul\":1651:1711   */\ntag_48:\n    /* \"#utility.yul\":1679:1682   */\n  0x00\n    /* \"#utility.yul\":1700:1705   */\n  dup2\n    /* \"#utility.yul\":1693:1705   */\n  swap1\n  pop\n    /* \"#utility.yul\":1651:1711   */\n  swap2\n  swap1\n  pop\n  jump\t// out\n    /* \"#utility.yul\":1717:1859   */\ntag_49:\n    /* \"#utility.yul\":1767:1776   */\n  0x00\n    /* \"#utility.yul\":1800:1853   */\n  tag_81\n    /* \"#utility.yul\":1818:1852   */\n  tag_82\n    /* \"#utility.yul\":1827:1851   */\n  tag_83\n    /* \"#utility.yul\":1845:1850   */\n  dup5\n    /* \"#utility.yul\":1827:1851   */\n  tag_47\n  jump\t// in\ntag_83:\n    /* \"#utility.yul\":1818:1852   */\n  tag_48\n  jump\t// in\ntag_82:\n    /* \"#utility.yul\":1800:1853   */\n  tag_47\n  jump\t// in\ntag_81:\n    /* \"#utility.yul\":1787:1853   */\n  swap1\n  pop\n    /* \"#utility.yul\":1717:1859   */\n  swap2\n  swap1\n  pop\n  jump\t// out\n    /* \"#utility.yul\":1865:1940   */\ntag_50:\n    /* \"#utility.yul\":1908:1911   */\n  0x00\n    /* \"#utility.yul\":1929:1934   */\n  dup2\n    /* \"#utility.yul\":1922:1934   */\n  swap1\n  pop\n    /* \"#utility.yul\":1865:1940   */\n  swap2\n  swap1\n  pop\n  jump\t// out\n    /* \"#utility.yul\":1946:2215   */\ntag_51:\n    /* \"#utility.yul\":2056:2095   */\n  tag_86\n    /* \"#utility.yul\":2087:2094   */\n  dup4\n    /* \"#utility.yul\":2056:2095   */\n  tag_49\n  jump\t// in\ntag_86:\n    /* \"#utility.yul\":2117:2208   */\n  tag_87\n    /* \"#utility.yul\":2166:2207   */\n  tag_88\n    /* \"#utility.yul\":2190:2206   */\n  dup3\n    /* \"#utility.yul\":2166:2207   */\n  tag_50\n  jump\t// in\ntag_88:\n    /* \"#utility.yul\":2158:2164   */\n  dup5\n    /* \"#utility.yul\":2151:2155   */\n  dup5\n    /* \"#utility.yul\":2145:2156   */\n  sload\n    /* \"#utility.yul\":2117:2208   */\n  tag_46\n  jump\t// in\ntag_87:\n    /* \"#utility.yul\":2111:2115   */\n  dup3\n    /* \"#utility.yul\":2104:2209   */\n  sstore\n    /* \"#utility.yul\":2022:2215   */\n  pop\n    /* \"#utility.yul\":1946:2215   */\n  pop\n  pop\n  pop\n  jump\t// out\n    /* \"#utility.yul\":2221:2294   */\ntag_52:\n    /* \"#utility.yul\":2266:2269   */\n  0x00\n    /* \"#utility.yul\":2221:2294   */\n  swap1\n  jump\t// out\n    /* \"#utility.yul\":2300:2489   */\ntag_53:\n    /* \"#utility.yul\":2377:2409   */\n  tag_91\n  tag_52\n  jump\t// in\ntag_91:\n    /* \"#utility.yul\":2418:2483   */\n  tag_92\n    /* \"#utility.yul\":2476:2482   */\n  dup2\n    /* \"#utility.yul\":2468:2474   */\n  dup5\n    /* \"#utility.yul\":2462:2466   */\n  dup5\n    /* \"#utility.yul\":2418:2483   */\n  tag_51\n  jump\t// in\ntag_92:\n    /* \"#utility.yul\":2353:2489   */\n  pop\n    /* \"#utility.yul\":2300:2489   */\n  pop\n  pop\n  jump\t// out\n    /* \"#utility.yul\":2495:2681   */\ntag_54:\n    /* \"#utility.yul\":2555:2675   */\ntag_94:\n    /* \"#utility.yul\":2572:2575   */\n  dup2\n    /* \"#utility.yul\":2565:2570   */\n  dup2\n    /* \"#utility.yul\":2562:2576   */\n  lt\n    /* \"#utility.yul\":2555:2675   */\n  iszero\n  tag_96\n  jumpi\n    /* \"#utility.yul\":2626:2665   */\n  tag_97\n    /* \"#utility.yul\":2663:2664   */\n  0x00\n    /* \"#utility.yul\":2656:2661   */\n  dup3\n    /* \"#utility.yul\":2626:2665   */\n  tag_53\n  jump\t// in\ntag_97:\n    /* \"#utility.yul\":2599:2600   */\n  0x01\n    /* \"#utility.yul\":2592:2597   */\n  dup2\n    /* \"#utility.yul\":2588:2601   */\n  add\n    /* \"#utility.yul\":2579:2601   */\n  swap1\n  pop\n    /* \"#utility.yul\":2555:2675   */\n  jump(tag_94)\ntag_96:\n    /* \"#utility.yul\":2495:2681   */\n  pop\n  pop\n  jump\t// out\n    /* \"#utility.yul\":2687:3230   */\ntag_55:\n    /* \"#utility.yul\":2788:2790   */\n  0x1f\n    /* \"#utility.yul\":2783:2786   */\n  dup3\n    /* \"#utility.yul\":2780:2791   */\n  gt\n    /* \"#utility.yul\":2777:3223   */\n  iszero\n  tag_99\n  jumpi\n    /* \"#utility.yul\":2822:2860   */\n  tag_100\n    /* \"#utility.yul\":2854:2859   */\n  dup2\n    /* \"#utility.yul\":2822:2860   */\n  tag_43\n  jump\t// in\ntag_100:\n    /* \"#utility.yul\":2906:2935   */\n  tag_101\n    /* \"#utility.yul\":2924:2934   */\n  dup5\n    /* \"#utility.yul\":2906:2935   */\n  tag_44\n  jump\t// in\ntag_101:\n    /* \"#utility.yul\":2896:2904   */\n  dup2\n    /* \"#utility.yul\":2892:2936   */\n  add\n    /* \"#utility.yul\":3089:3091   */\n  0x20\n    /* \"#utility.yul\":3077:3087   */\n  dup6\n    /* \"#utility.yul\":3074:3092   */\n  lt\n    /* \"#utility.yul\":3071:3120   */\n  iszero\n  tag_102\n  jumpi\n    /* \"#utility.yul\":3110:3118   */\n  dup2\n    /* \"#utility.yul\":3095:3118   */\n  swap1\n  pop\n    /* \"#utility.yul\":3071:3120   */\ntag_102:\n    /* \"#utility.yul\":3133:3213   */\n  tag_103\n    /* \"#utility.yul\":3189:3211   */\n  tag_104\n    /* \"#utility.yul\":3207:3210   */\n  dup6\n    /* \"#utility.yul\":3189:3211   */\n  tag_44\n  jump\t// in\ntag_104:\n    /* \"#utility.yul\":3179:3187   */\n  dup4\n    /* \"#utility.yul\":3175:3212   */\n  add\n    /* \"#utility.yul\":3162:3173   */\n  dup3\n    /* \"#utility.yul\":3133:3213   */\n  tag_54\n  jump\t// in\ntag_103:\n    /* \"#utility.yul\":2792:3223   */\n  pop\n  pop\n    /* \"#utility.yul\":2777:3223   */\ntag_99:\n    /* \"#utility.yul\":2687:3230   */\n  pop\n  pop\n  pop\n  jump\t// out\n    /* \"#utility.yul\":3236:3353   */\ntag_56:\n    /* \"#utility.yul\":3290:3298   */\n  0x00\n    /* \"#utility.yul\":3340:3345   */\n  dup3\n    /* \"#utility.yul\":3334:3338   */\n  dup3\n    /* \"#utility.yul\":3330:3346   */\n  shr\n    /* \"#utility.yul\":3309:3346   */\n  swap1\n  pop\n    /* \"#utility.yul\":3236:3353   */\n  swap3\n  swap2\n  pop\n  pop\n  jump\t// out\n    /* \"#utility.yul\":3359:3528   */\ntag_57:\n    /* \"#utility.yul\":3403:3409   */\n  0x00\n    /* \"#utility.yul\":3436:3487   */\n  tag_107\n    /* \"#utility.yul\":3484:3485   */\n  0x00\n    /* \"#utility.yul\":3480:3486   */\n  not\n    /* \"#utility.yul\":3472:3477   */\n  dup5\n    /* \"#utility.yul\":3469:3470   */\n  0x08\n    /* \"#utility.yul\":3465:3478   */\n  mul\n    /* \"#utility.yul\":3436:3487   */\n  tag_56\n  jump\t// in\ntag_107:\n    /* \"#utility.yul\":3432:3488   */\n  not\n    /* \"#utility.yul\":3517:3521   */\n  dup1\n    /* \"#utility.yul\":3511:3515   */\n  dup4\n    /* \"#utility.yul\":3507:3522   */\n  and\n    /* \"#utility.yul\":3497:3522   */\n  swap2\n  pop\n    /* \"#utility.yul\":3410:3528   */\n  pop\n    /* \"#utility.yul\":3359:3528   */\n  swap3\n  swap2\n  pop\n  pop\n  jump\t// out\n    /* \"#utility.yul\":3533:3828   */\ntag_58:\n    /* \"#utility.yul\":3609:3613   */\n  0x00\n    /* \"#utility.yul\":3755:3784   */\n  tag_109\n    /* \"#utility.yul\":3780:3783   */\n  dup4\n    /* \"#utility.yul\":3774:3778   */\n  dup4\n    /* \"#utility.yul\":3755:3784   */\n  tag_57\n  jump\t// in\ntag_109:\n    /* \"#utility.yul\":3747:3784   */\n  swap2\n  pop\n    /* \"#utility.yul\":3817:3820   */\n  dup3\n    /* \"#utility.yul\":3814:3815   */\n  0x02\n    /* \"#utility.yul\":3810:3821   */\n  mul\n    /* \"#utility.yul\":3804:3808   */\n  dup3\n    /* \"#utility.yul\":3801:3822   */\n  or\n    /* \"#utility.yul\":3793:3822   */\n  swap1\n  pop\n    /* \"#utility.yul\":3533:3828   */\n  swap3\n  swap2\n  pop\n  pop\n  jump\t// out\n    /* \"#utility.yul\":3833:5228   */\ntag_7:\n    /* \"#utility.yul\":3950:3987   */\n  tag_111\n    /* \"#utility.yul\":3983:3986   */\n  dup3\n    /* \"#utility.yul\":3950:3987   */\n  tag_39\n  jump\t// in\ntag_111:\n    /* \"#utility.yul\":4052:4070   */\n  0xffffffffffffffff\n    /* \"#utility.yul\":4044:4050   */\n  dup2\n    /* \"#utility.yul\":4041:4071   */\n  gt\n    /* \"#utility.yul\":4038:4094   */\n  iszero\n  tag_112\n  jumpi\n    /* \"#utility.yul\":4074:4092   */\n  tag_113\n  tag_40\n  jump\t// in\ntag_113:\n    /* \"#utility.yul\":4038:4094   */\ntag_112:\n    /* \"#utility.yul\":4118:4156   */\n  tag_114\n    /* \"#utility.yul\":4150:4154   */\n  dup3\n    /* \"#utility.yul\":4144:4155   */\n  sload\n    /* \"#utility.yul\":4118:4156   */\n  tag_42\n  jump\t// in\ntag_114:\n    /* \"#utility.yul\":4203:4270   */\n  tag_115\n    /* \"#utility.yul\":4263:4269   */\n  dup3\n    /* \"#utility.yul\":4255:4261   */\n  dup3\n    /* \"#utility.yul\":4249:4253   */\n  dup6\n    /* \"#utility.yul\":4203:4270   */\n  tag_55\n  jump\t// in\ntag_115:\n    /* \"#utility.yul\":4297:4298   */\n  0x00\n    /* \"#utility.yul\":4321:4325   */\n  0x20\n    /* \"#utility.yul\":4308:4325   */\n  swap1\n  pop\n    /* \"#utility.yul\":4353:4355   */\n  0x1f\n    /* \"#utility.yul\":4345:4351   */\n  dup4\n    /* \"#utility.yul\":4342:4356   */\n  gt\n    /* \"#utility.yul\":4370:4371   */\n  0x01\n    /* \"#utility.yul\":4365:4983   */\n  dup2\n  eq\n  tag_117\n  jumpi\n    /* \"#utility.yul\":5027:5028   */\n  0x00\n    /* \"#utility.yul\":5044:5050   */\n  dup5\n    /* \"#utility.yul\":5041:5118   */\n  iszero\n  tag_118\n  jumpi\n    /* \"#utility.yul\":5093:5102   */\n  dup3\n    /* \"#utility.yul\":5088:5091   */\n  dup8\n    /* \"#utility.yul\":5084:5103   */\n  add\n    /* \"#utility.yul\":5078:5104   */\n  mload\n    /* \"#utility.yul\":5069:5104   */\n  swap1\n  pop\n    /* \"#utility.yul\":5041:5118   */\ntag_118:\n    /* \"#utility.yul\":5144:5211   */\n  tag_119\n    /* \"#utility.yul\":5204:5210   */\n  dup6\n    /* \"#utility.yul\":5197:5202   */\n  dup3\n    /* \"#utility.yul\":5144:5211   */\n  tag_58\n  jump\t// in\ntag_119:\n    /* \"#utility.yul\":5138:5142   */\n  dup7\n    /* \"#utility.yul\":5131:5212   */\n  sstore\n    /* \"#utility.yul\":5000:5222   */\n  pop\n    /* \"#utility.yul\":4335:5222   */\n  jump(tag_116)\n    /* \"#utility.yul\":4365:4983   */\ntag_117:\n    /* \"#utility.yul\":4417:4421   */\n  0x1f\n    /* \"#utility.yul\":4413:4422   */\n  not\n    /* \"#utility.yul\":4405:4411   */\n  dup5\n    /* \"#utility.yul\":4401:4423   */\n  and\n    /* \"#utility.yul\":4451:4488   */\n  tag_120\n    /* \"#utility.yul\":4483:4487   */\n  dup7\n    /* \"#utility.yul\":4451:4488   */\n  tag_43\n  jump\t// in\ntag_120:\n    /* \"#utility.yul\":4510:4511   */\n  0x00\n    /* \"#utility.yul\":4524:4732   */\ntag_121:\n    /* \"#utility.yul\":4538:4545   */\n  dup3\n    /* \"#utility.yul\":4535:4536   */\n  dup2\n    /* \"#utility.yul\":4532:4546   */\n  lt\n    /* \"#utility.yul\":4524:4732   */\n  iszero\n  tag_123\n  jumpi\n    /* \"#utility.yul\":4617:4626   */\n  dup5\n    /* \"#utility.yul\":4612:4615   */\n  dup10\n    /* \"#utility.yul\":4608:4627   */\n  add\n    /* \"#utility.yul\":4602:4628   */\n  mload\n    /* \"#utility.yul\":4594:4600   */\n  dup3\n    /* \"#utility.yul\":4587:4629   */\n  sstore\n    /* \"#utility.yul\":4668:4669   */\n  0x01\n    /* \"#utility.yul\":4660:4666   */\n  dup3\n    /* \"#utility.yul\":4656:4670   */\n  add\n    /* \"#utility.yul\":4646:4670   */\n  swap2\n  pop\n    /* \"#utility.yul\":4715:4717   */\n  0x20\n    /* \"#utility.yul\":4704:4713   */\n  dup6\n    /* \"#utility.yul\":4700:4718   */\n  add\n    /* \"#utility.yul\":4687:4718   */\n  swap5\n  pop\n    /* \"#utility.yul\":4561:4565   */\n  0x20\n    /* \"#utility.yul\":4558:4559   */\n  dup2\n    /* \"#utility.yul\":4554:4566   */\n  add\n    /* \"#utility.yul\":4549:4566   */\n  swap1\n  pop\n    /* \"#utility.yul\":4524:4732   */\n  jump(tag_121)\ntag_123:\n    /* \"#utility.yul\":4760:4766   */\n  dup7\n    /* \"#utility.yul\":4751:4758   */\n  dup4\n    /* \"#utility.yul\":4748:4767   */\n  lt\n    /* \"#utility.yul\":4745:4924   */\n  iszero\n  tag_124\n  jumpi\n    /* \"#utility.yul\":4818:4827   */\n  dup5\n    /* \"#utility.yul\":4813:4816   */\n  dup10\n    /* \"#utility.yul\":4809:4828   */\n  add\n    /* \"#utility.yul\":4803:4829   */\n  mload\n    /* \"#utility.yul\":4861:4909   */\n  tag_125\n    /* \"#utility.yul\":4903:4907   */\n  0x1f\n    /* \"#utility.yul\":4895:4901   */\n  dup10\n    /* \"#utility.yul\":4891:4908   */\n  and\n    /* \"#utility.yul\":4880:4889   */\n  dup3\n    /* \"#utility.yul\":4861:4909   */\n  tag_57\n  jump\t// in\ntag_125:\n    /* \"#utility.yul\":4853:4859   */\n  dup4\n    /* \"#utility.yul\":4846:4910   */\n  sstore\n    /* \"#utility.yul\":4768:4924   */\n  pop\n    /* \"#utility.yul\":4745:4924   */\ntag_124:\n    /* \"#utility.yul\":4970:4971   */\n  0x01\n    /* \"#utility.yul\":4966:4967   */\n  0x02\n    /* \"#utility.yul\":4958:4964   */\n  dup9\n    /* \"#utility.yul\":4954:4968   */\n  mul\n    /* \"#utility.yul\":4950:4972   */\n  add\n    /* \"#utility.yul\":4944:4948   */\n  dup9\n    /* \"#utility.yul\":4937:4973   */\n  sstore\n    /* \"#utility.yul\":4372:4983   */\n  pop\n  pop\n  pop\n    /* \"#utility.yul\":4335:5222   */\ntag_116:\n  pop\n    /* \"#utility.yul\":3925:5228   */\n  pop\n  pop\n  pop\n    /* \"#utility.yul\":3833:5228   */\n  pop\n  pop\n  jump\t// out\n    /* \"#utility.yul\":5234:5414   */\ntag_59:\n    /* \"#utility.yul\":5282:5359   */\n  0x4e487b7100000000000000000000000000000000000000000000000000000000\n    /* \"#utility.yul\":5279:5280   */\n  0x00\n    /* \"#utility.yul\":5272:5360   */\n  mstore\n    /* \"#utility.yul\":5379:5383   */\n  0x11\n    /* \"#utility.yul\":5376:5377   */\n  0x04\n    /* \"#utility.yul\":5369:5384   */\n  mstore\n    /* \"#utility.yul\":5403:5407   */\n  0x24\n    /* \"#utility.yul\":5400:5401   */\n  0x00\n    /* \"#utility.yul\":5393:5408   */\n  revert\n    /* \"#utility.yul\":5420:5830   */\ntag_24:\n    /* \"#utility.yul\":5460:5467   */\n  0x00\n    /* \"#utility.yul\":5483:5503   */\n  tag_128\n    /* \"#utility.yul\":5501:5502   */\n  dup3\n    /* \"#utility.yul\":5483:5503   */\n  tag_47\n  jump\t// in\ntag_128:\n    /* \"#utility.yul\":5478:5503   */\n  swap2\n  pop\n    /* \"#utility.yul\":5517:5537   */\n  tag_129\n    /* \"#utility.yul\":5535:5536   */\n  dup4\n    /* \"#utility.yul\":5517:5537   */\n  tag_47\n  jump\t// in\ntag_129:\n    /* \"#utility.yul\":5512:5537   */\n  swap3\n  pop\n    /* \"#utility.yul\":5572:5573   */\n  dup3\n    /* \"#utility.yul\":5569:5570   */\n  dup3\n    /* \"#utility.yul\":5565:5574   */\n  mul\n    /* \"#utility.yul\":5594:5624   */\n  tag_130\n    /* \"#utility.yul\":5612:5623   */\n  dup2\n    /* \"#utility.yul\":5594:5624   */\n  tag_47\n  jump\t// in\ntag_130:\n    /* \"#utility.yul\":5583:5624   */\n  swap2\n  pop\n    /* \"#utility.yul\":5773:5774   */\n  dup3\n    /* \"#utility.yul\":5764:5771   */\n  dup3\n    /* \"#utility.yul\":5760:5775   */\n  div\n    /* \"#utility.yul\":5757:5758   */\n  dup5\n    /* \"#utility.yul\":5754:5776   */\n  eq\n    /* \"#utility.yul\":5734:5735   */\n  dup4\n    /* \"#utility.yul\":5727:5736   */\n  iszero\n    /* \"#utility.yul\":5707:5790   */\n  or\n    /* \"#utility.yul\":5684:5823   */\n  tag_131\n  jumpi\n    /* \"#utility.yul\":5803:5821   */\n  tag_132\n  tag_59\n  jump\t// in\ntag_132:\n    /* \"#utility.yul\":5684:5823   */\ntag_131:\n    /* \"#utility.yul\":5468:5830   */\n  pop\n    /* \"#utility.yul\":5420:5830   */\n  swap3\n  swap2\n  pop\n  pop\n  jump\t// out\n    /* \"#utility.yul\":5836:6005   */\ntag_60:\n    /* \"#utility.yul\":5920:5931   */\n  0x00\n    /* \"#utility.yul\":5954:5960   */\n  dup3\n    /* \"#utility.yul\":5949:5952   */\n  dup3\n    /* \"#utility.yul\":5942:5961   */\n  mstore\n    /* \"#utility.yul\":5994:5998   */\n  0x20\n    /* \"#utility.yul\":5989:5992   */\n  dup3\n    /* \"#utility.yul\":5985:5999   */\n  add\n    /* \"#utility.yul\":5970:5999   */\n  swap1\n  pop\n    /* \"#utility.yul\":5836:6005   */\n  swap3\n  swap2\n  pop\n  pop\n  jump\t// out\n    /* \"#utility.yul\":6011:6192   */\ntag_61:\n    /* \"#utility.yul\":6151:6184   */\n  0x45524332303a206d696e7420746f20746865207a65726f206164647265737300\n    /* \"#utility.yul\":6147:6148   */\n  0x00\n    /* \"#utility.yul\":6139:6145   */\n  dup3\n    /* \"#utility.yul\":6135:6149   */\n  add\n    /* \"#utility.yul\":6128:6185   */\n  mstore\n    /* \"#utility.yul\":6011:6192   */\n  pop\n  jump\t// out\n    /* \"#utility.yul\":6198:6564   */\ntag_62:\n    /* \"#utility.yul\":6340:6343   */\n  0x00\n    /* \"#utility.yul\":6361:6428   */\n  tag_136\n    /* \"#utility.yul\":6425:6427   */\n  0x1f\n    /* \"#utility.yul\":6420:6423   */\n  dup4\n    /* \"#utility.yul\":6361:6428   */\n  tag_60\n  jump\t// in\ntag_136:\n    /* \"#utility.yul\":6354:6428   */\n  swap2\n  pop\n    /* \"#utility.yul\":6437:6530   */\n  tag_137\n    /* \"#utility.yul\":6526:6529   */\n  dup3\n    /* \"#utility.yul\":6437:6530   */\n  tag_61\n  jump\t// in\ntag_137:\n    /* \"#utility.yul\":6555:6557   */\n  0x20\n    /* \"#utility.yul\":6550:6553   */\n  dup3\n    /* \"#utility.yul\":6546:6558   */\n  add\n    /* \"#utility.yul\":6539:6558   */\n  swap1\n  pop\n    /* \"#utility.yul\":6198:6564   */\n  swap2\n  swap1\n  pop\n  jump\t// out\n    /* \"#utility.yul\":6570:6989   */\ntag_28:\n    /* \"#utility.yul\":6736:6740   */\n  0x00\n    /* \"#utility.yul\":6774:6776   */\n  0x20\n    /* \"#utility.yul\":6763:6772   */\n  dup3\n    /* \"#utility.yul\":6759:6777   */\n  add\n    /* \"#utility.yul\":6751:6777   */\n  swap1\n  pop\n    /* \"#utility.yul\":6823:6832   */\n  dup2\n    /* \"#utility.yul\":6817:6821   */\n  dup2\n    /* \"#utility.yul\":6813:6833   */\n  sub\n    /* \"#utility.yul\":6809:6810   */\n  0x00\n    /* \"#utility.yul\":6798:6807   */\n  dup4\n    /* \"#utility.yul\":6794:6811   */\n  add\n    /* \"#utility.yul\":6787:6834   */\n  mstore\n    /* \"#utility.yul\":6851:6982   */\n  tag_139\n    /* \"#utility.yul\":6977:6981   */\n  dup2\n    /* \"#utility.yul\":6851:6982   */\n  tag_62\n  jump\t// in\ntag_139:\n    /* \"#utility.yul\":6843:6982   */\n  swap1\n  pop\n    /* \"#utility.yul\":6570:6989   */\n  swap2\n  swap1\n  pop\n  jump\t// out\n    /* \"#utility.yul\":6995:7186   */\ntag_32:\n    /* \"#utility.yul\":7035:7038   */\n  0x00\n    /* \"#utility.yul\":7054:7074   */\n  tag_141\n    /* \"#utility.yul\":7072:7073   */\n  dup3\n    /* \"#utility.yul\":7054:7074   */\n  tag_47\n  jump\t// in\ntag_141:\n    /* \"#utility.yul\":7049:7074   */\n  swap2\n  pop\n    /* \"#utility.yul\":7088:7108   */\n  tag_142\n    /* \"#utility.yul\":7106:7107   */\n  dup4\n    /* \"#utility.yul\":7088:7108   */\n  tag_47\n  jump\t// in\ntag_142:\n    /* \"#utility.yul\":7083:7108   */\n  swap3\n  pop\n    /* \"#utility.yul\":7131:7132   */\n  dup3\n    /* \"#utility.yul\":7128:7129   */\n  dup3\n    /* \"#utility.yul\":7124:7133   */\n  add\n    /* \"#utility.yul\":7117:7133   */\n  swap1\n  pop\n    /* \"#utility.yul\":7152:7155   */\n  dup1\n    /* \"#utility.yul\":7149:7150   */\n  dup3\n    /* \"#utility.yul\":7146:7156   */\n  gt\n    /* \"#utility.yul\":7143:7179   */\n  iszero\n  tag_143\n  jumpi\n    /* \"#utility.yul\":7159:7177   */\n  tag_144\n  tag_59\n  jump\t// in\ntag_144:\n    /* \"#utility.yul\":7143:7179   */\ntag_143:\n    /* \"#utility.yul\":6995:7186   */\n  swap3\n  swap2\n  pop\n  pop\n  jump\t// out\n    /* \"#utility.yul\":7192:7310   */\ntag_63:\n    /* \"#utility.yul\":7279:7303   */\n  tag_146\n    /* \"#utility.yul\":7297:7302   */\n  dup2\n    /* \"#utility.yul\":7279:7303   */\n  tag_47\n  jump\t// in\ntag_146:\n    /* \"#utility.yul\":7274:7277   */\n  dup3\n    /* \"#utility.yul\":7267:7304   */\n  mstore\n    /* \"#utility.yul\":7192:7310   */\n  pop\n  pop\n  jump\t// out\n    /* \"#utility.yul\":7316:7538   */\ntag_34:\n    /* \"#utility.yul\":7409:7413   */\n  0x00\n    /* \"#utility.yul\":7447:7449   */\n  0x20\n    /* \"#utility.yul\":7436:7445   */\n  dup3\n    /* \"#utility.yul\":7432:7450   */\n  add\n    /* \"#utility.yul\":7424:7450   */\n  swap1\n  pop\n    /* \"#utility.yul\":7460:7531   */\n  tag_148\n    /* \"#utility.yul\":7528:7529   */\n  0x00\n    /* \"#utility.yul\":7517:7526   */\n  dup4\n    /* \"#utility.yul\":7513:7530   */\n  add\n    /* \"#utility.yul\":7504:7510   */\n  dup5\n    /* \"#utility.yul\":7460:7531   */\n  tag_63\n  jump\t// in\ntag_148:\n    /* \"#utility.yul\":7316:7538   */\n  swap3\n  swap2\n  pop\n  pop\n  jump\t// out\n    /* \"src/tokens/stQVEtoken.sol\":276:1723  contract stQVEtoken is ERC20Burnable, Ownable, Security {... */\ntag_19:\n  dataSize(sub_0)\n  dup1\n  dataOffset(sub_0)\n  0x00\n  codecopy\n  0x00\n  return\nstop\n\nsub_0: assembly {\n        /* \"src/tokens/stQVEtoken.sol\":276:1723  contract stQVEtoken is ERC20Burnable, Ownable, Security {... */\n      mstore(0x40, 0x80)\n      callvalue\n      dup1\n      iszero\n      tag_1\n      jumpi\n      0x00\n      dup1\n      revert\n    tag_1:\n      pop\n      jumpi(tag_2, lt(calldatasize, 0x04))\n      shr(0xe0, calldataload(0x00))\n      dup1\n      0x5f367b03\n      gt\n      tag_24\n      jumpi\n      dup1\n      0x95d89b41\n      gt\n      tag_25\n      jumpi\n      dup1\n      0x95d89b41\n      eq\n      tag_18\n      jumpi\n      dup1\n      0xa457c2d7\n      eq\n      tag_19\n      jumpi\n      dup1\n      0xa9059cbb\n      eq\n      tag_20\n      jumpi\n      dup1\n      0xdd62ed3e\n      eq\n      tag_21\n      jumpi\n      dup1\n      0xedd991b3\n      eq\n      tag_22\n      jumpi\n      dup1\n      0xf2fde38b\n      eq\n      tag_23\n      jumpi\n      jump(tag_2)\n    tag_25:\n      dup1\n      0x5f367b03\n      eq\n      tag_13\n      jumpi\n      dup1\n      0x70a08231\n      eq\n      tag_14\n      jumpi\n      dup1\n      0x715018a6\n      eq\n      tag_15\n      jumpi\n      dup1\n      0x79cc6790\n      eq\n      tag_16\n      jumpi\n      dup1\n      0x8da5cb5b\n      eq\n      tag_17\n      jumpi\n      jump(tag_2)\n    tag_24:\n      dup1\n      0x313ce567\n      gt\n      tag_26\n      jumpi\n      dup1\n      0x313ce567\n      eq\n      tag_8\n      jumpi\n      dup1\n      0x378dc3dc\n      eq\n      tag_9\n      jumpi\n      dup1\n      0x39509351\n      eq\n      tag_10\n      jumpi\n      dup1\n      0x42966c68\n      eq\n      tag_11\n      jumpi\n      dup1\n      0x469895c8\n      eq\n      tag_12\n      jumpi\n      jump(tag_2)\n    tag_26:\n      dup1\n      0x06fdde03\n      eq\n      tag_3\n      jumpi\n      dup1\n      0x095ea7b3\n      eq\n      tag_4\n      jumpi\n      dup1\n      0x18160ddd\n      eq\n      tag_5\n      jumpi\n      dup1\n      0x23b872dd\n      eq\n      tag_6\n      jumpi\n      dup1\n      0x29f436b6\n      eq\n      tag_7\n      jumpi\n    tag_2:\n      0x00\n      dup1\n      revert\n        /* \"@openzeppelin/contracts/token/ERC20/ERC20.sol\":2158:2256  function name() public view virtual override returns (string memory) {... */\n    tag_3:\n      tag_27\n      tag_28\n      jump\t// in\n    tag_27:\n      mload(0x40)\n      tag_29\n      swap2\n      swap1\n      tag_30\n      jump\t// in\n    tag_29:\n      mload(0x40)\n      dup1\n      swap2\n      sub\n      swap1\n      return\n        /* \"@openzeppelin/contracts/token/ERC20/ERC20.sol\":4444:4641  function approve(address spender, uint256 amount) public virtual override returns (bool) {... */\n    tag_4:\n      tag_31\n      0x04\n      dup1\n      calldatasize\n      sub\n      dup2\n      add\n      swap1\n      tag_32\n      swap2\n      swap1\n      tag_33\n      jump\t// in\n    tag_32:\n      tag_34\n      jump\t// in\n    tag_31:\n      mload(0x40)\n      tag_35\n      swap2\n      swap1\n      tag_36\n      jump\t// in\n    tag_35:\n      mload(0x40)\n      dup1\n      swap2\n      sub\n      swap1\n      return\n        /* \"@openzeppelin/contracts/token/ERC20/ERC20.sol\":3255:3361  function totalSupply() public view virtual override returns (uint256) {... */\n    tag_5:\n      tag_37\n      tag_38\n      jump\t// in\n    tag_37:\n      mload(0x40)\n      tag_39\n      swap2\n      swap1\n      tag_40\n      jump\t// in\n    tag_39:\n      mload(0x40)\n      dup1\n      swap2\n      sub\n      swap1\n      return\n        /* \"@openzeppelin/contracts/token/ERC20/ERC20.sol\":5203:5459  function transferFrom(address from, address to, uint256 amount) public virtual override returns (bool) {... */\n    tag_6:\n      tag_41\n      0x04\n      dup1\n      calldatasize\n      sub\n      dup2\n      add\n      swap1\n      tag_42\n      swap2\n      swap1\n      tag_43\n      jump\t// in\n    tag_42:\n      tag_44\n      jump\t// in\n    tag_41:\n      mload(0x40)\n      tag_45\n      swap2\n      swap1\n      tag_36\n      jump\t// in\n    tag_45:\n      mload(0x40)\n      dup1\n      swap2\n      sub\n      swap1\n      return\n        /* \"src/tokens/stQVEtoken.sol\":1499:1720  function via_transfer(address via, address owner, address to, uint256 amount) public returns(bool){... */\n    tag_7:\n      tag_46\n      0x04\n      dup1\n      calldatasize\n      sub\n      dup2\n      add\n      swap1\n      tag_47\n      swap2\n      swap1\n      tag_48\n      jump\t// in\n    tag_47:\n      tag_49\n      jump\t// in\n    tag_46:\n      mload(0x40)\n      tag_50\n      swap2\n      swap1\n      tag_36\n      jump\t// in\n    tag_50:\n      mload(0x40)\n      dup1\n      swap2\n      sub\n      swap1\n      return\n        /* \"@openzeppelin/contracts/token/ERC20/ERC20.sol\":3104:3195  function decimals() public view virtual override returns (uint8) {... */\n    tag_8:\n      tag_51\n      tag_52\n      jump\t// in\n    tag_51:\n      mload(0x40)\n      tag_53\n      swap2\n      swap1\n      tag_54\n      jump\t// in\n    tag_53:\n      mload(0x40)\n      dup1\n      swap2\n      sub\n      swap1\n      return\n        /* \"src/tokens/stQVEtoken.sol\":370:398  uint256 public initialSupply */\n    tag_9:\n      tag_55\n      tag_56\n      jump\t// in\n    tag_55:\n      mload(0x40)\n      tag_57\n      swap2\n      swap1\n      tag_40\n      jump\t// in\n    tag_57:\n      mload(0x40)\n      dup1\n      swap2\n      sub\n      swap1\n      return\n        /* \"@openzeppelin/contracts/token/ERC20/ERC20.sol\":5854:6088  function increaseAllowance(address spender, uint256 addedValue) public virtual returns (bool) {... */\n    tag_10:\n      tag_58\n      0x04\n      dup1\n      calldatasize\n      sub\n      dup2\n      add\n      swap1\n      tag_59\n      swap2\n      swap1\n      tag_33\n      jump\t// in\n    tag_59:\n      tag_60\n      jump\t// in\n    tag_58:\n      mload(0x40)\n      tag_61\n      swap2\n      swap1\n      tag_36\n      jump\t// in\n    tag_61:\n      mload(0x40)\n      dup1\n      swap2\n      sub\n      swap1\n      return\n        /* \"@openzeppelin/contracts/token/ERC20/extensions/ERC20Burnable.sol\":578:667  function burn(uint256 amount) public virtual {... */\n    tag_11:\n      tag_62\n      0x04\n      dup1\n      calldatasize\n      sub\n      dup2\n      add\n      swap1\n      tag_63\n      swap2\n      swap1\n      tag_64\n      jump\t// in\n    tag_63:\n      tag_65\n      jump\t// in\n    tag_62:\n      stop\n        /* \"src/tokens/stQVEtoken.sol\":850:1082  function normal_transfer(address from, address target, uint256 amount) NoReEntrancy public returns(bool){... */\n    tag_12:\n      tag_66\n      0x04\n      dup1\n      calldatasize\n      sub\n      dup2\n      add\n      swap1\n      tag_67\n      swap2\n      swap1\n      tag_43\n      jump\t// in\n    tag_67:\n      tag_68\n      jump\t// in\n    tag_66:\n      mload(0x40)\n      tag_69\n      swap2\n      swap1\n      tag_36\n      jump\t// in\n    tag_69:\n      mload(0x40)\n      dup1\n      swap2\n      sub\n      swap1\n      return\n        /* \"src/tokens/stQVEtoken.sol\":1088:1274  function normal_mint(address account, uint256 amount) public returns(bool) {... */\n    tag_13:\n      tag_70\n      0x04\n      dup1\n      calldatasize\n      sub\n      dup2\n      add\n      swap1\n      tag_71\n      swap2\n      swap1\n      tag_33\n      jump\t// in\n    tag_71:\n      tag_72\n      jump\t// in\n    tag_70:\n      mload(0x40)\n      tag_73\n      swap2\n      swap1\n      tag_36\n      jump\t// in\n    tag_73:\n      mload(0x40)\n      dup1\n      swap2\n      sub\n      swap1\n      return\n        /* \"@openzeppelin/contracts/token/ERC20/ERC20.sol\":3419:3544  function balanceOf(address account) public view virtual override returns (uint256) {... */\n    tag_14:\n      tag_74\n      0x04\n      dup1\n      calldatasize\n      sub\n      dup2\n      add\n      swap1\n      tag_75\n      swap2\n      swap1\n      tag_76\n      jump\t// in\n    tag_75:\n      tag_77\n      jump\t// in\n    tag_74:\n      mload(0x40)\n      tag_78\n      swap2\n      swap1\n      tag_40\n      jump\t// in\n    tag_78:\n      mload(0x40)\n      dup1\n      swap2\n      sub\n      swap1\n      return\n        /* \"@openzeppelin/contracts/access/Ownable.sol\":1824:1925  function renounceOwnership() public virtual onlyOwner {... */\n    tag_15:\n      tag_79\n      tag_80\n      jump\t// in\n    tag_79:\n      stop\n        /* \"@openzeppelin/contracts/token/ERC20/extensions/ERC20Burnable.sol\":973:1134  function burnFrom(address account, uint256 amount) public virtual {... */\n    tag_16:\n      tag_81\n      0x04\n      dup1\n      calldatasize\n      sub\n      dup2\n      add\n      swap1\n      tag_82\n      swap2\n      swap1\n      tag_33\n      jump\t// in\n    tag_82:\n      tag_83\n      jump\t// in\n    tag_81:\n      stop\n        /* \"@openzeppelin/contracts/access/Ownable.sol\":1201:1286  function owner() public view virtual returns (address) {... */\n    tag_17:\n      tag_84\n      tag_85\n      jump\t// in\n    tag_84:\n      mload(0x40)\n      tag_86\n      swap2\n      swap1\n      tag_87\n      jump\t// in\n    tag_86:\n      mload(0x40)\n      dup1\n      swap2\n      sub\n      swap1\n      return\n        /* \"@openzeppelin/contracts/token/ERC20/ERC20.sol\":2369:2471  function symbol() public view virtual override returns (string memory) {... */\n    tag_18:\n      tag_88\n      tag_89\n      jump\t// in\n    tag_88:\n      mload(0x40)\n      tag_90\n      swap2\n      swap1\n      tag_30\n      jump\t// in\n    tag_90:\n      mload(0x40)\n      dup1\n      swap2\n      sub\n      swap1\n      return\n        /* \"@openzeppelin/contracts/token/ERC20/ERC20.sol\":6575:7002  function decreaseAllowance(address spender, uint256 subtractedValue) public virtual returns (bool) {... */\n    tag_19:\n      tag_91\n      0x04\n      dup1\n      calldatasize\n      sub\n      dup2\n      add\n      swap1\n      tag_92\n      swap2\n      swap1\n      tag_33\n      jump\t// in\n    tag_92:\n      tag_93\n      jump\t// in\n    tag_91:\n      mload(0x40)\n      tag_94\n      swap2\n      swap1\n      tag_36\n      jump\t// in\n    tag_94:\n      mload(0x40)\n      dup1\n      swap2\n      sub\n      swap1\n      return\n        /* \"@openzeppelin/contracts/token/ERC20/ERC20.sol\":3740:3929  function transfer(address to, uint256 amount) public virtual override returns (bool) {... */\n    tag_20:\n      tag_95\n      0x04\n      dup1\n      calldatasize\n      sub\n      dup2\n      add\n      swap1\n      tag_96\n      swap2\n      swap1\n      tag_33\n      jump\t// in\n    tag_96:\n      tag_97\n      jump\t// in\n    tag_95:\n      mload(0x40)\n      tag_98\n      swap2\n      swap1\n      tag_36\n      jump\t// in\n    tag_98:\n      mload(0x40)\n      dup1\n      swap2\n      sub\n      swap1\n      return\n        /* \"@openzeppelin/contracts/token/ERC20/ERC20.sol\":3987:4136  function allowance(address owner, address spender) public view virtual override returns (uint256) {... */\n    tag_21:\n      tag_99\n      0x04\n      dup1\n      calldatasize\n      sub\n      dup2\n      add\n      swap1\n      tag_100\n      swap2\n      swap1\n      tag_101\n      jump\t// in\n    tag_100:\n      tag_102\n      jump\t// in\n    tag_99:\n      mload(0x40)\n      tag_103\n      swap2\n      swap1\n      tag_40\n      jump\t// in\n    tag_103:\n      mload(0x40)\n      dup1\n      swap2\n      sub\n      swap1\n      return\n        /* \"src/tokens/stQVEtoken.sol\":1280:1493  function normal_burn(address account, uint256 amount) public returns(bool){... */\n    tag_22:\n      tag_104\n      0x04\n      dup1\n      calldatasize\n      sub\n      dup2\n      add\n      swap1\n      tag_105\n      swap2\n      swap1\n      tag_33\n      jump\t// in\n    tag_105:\n      tag_106\n      jump\t// in\n    tag_104:\n      mload(0x40)\n      tag_107\n      swap2\n      swap1\n      tag_36\n      jump\t// in\n    tag_107:\n      mload(0x40)\n      dup1\n      swap2\n      sub\n      swap1\n      return\n        /* \"@openzeppelin/contracts/access/Ownable.sol\":2074:2272  function transferOwnership(address newOwner) public virtual onlyOwner {... */\n    tag_23:\n      tag_108\n      0x04\n      dup1\n      calldatasize\n      sub\n      dup2\n      add\n      swap1\n      tag_109\n      swap2\n      swap1\n      tag_76\n      jump\t// in\n    tag_109:\n      tag_110\n      jump\t// in\n    tag_108:\n      stop\n        /* \"@openzeppelin/contracts/token/ERC20/ERC20.sol\":2158:2256  function name() public view virtual override returns (string memory) {... */\n    tag_28:\n        /* \"@openzeppelin/contracts/token/ERC20/ERC20.sol\":2212:2225  string memory */\n      0x60\n        /* \"@openzeppelin/contracts/token/ERC20/ERC20.sol\":2244:2249  _name */\n      0x03\n        /* \"@openzeppelin/contracts/token/ERC20/ERC20.sol\":2237:2249  return _name */\n      dup1\n      sload\n      tag_113\n      swap1\n      tag_114\n      jump\t// in\n    tag_113:\n      dup1\n      0x1f\n      add\n      0x20\n      dup1\n      swap2\n      div\n      mul\n      0x20\n      add\n      mload(0x40)\n      swap1\n      dup2\n      add\n      0x40\n      mstore\n      dup1\n      swap3\n      swap2\n      swap1\n      dup2\n      dup2\n      mstore\n      0x20\n      add\n      dup3\n      dup1\n      sload\n      tag_115\n      swap1\n      tag_114\n      jump\t// in\n    tag_115:\n      dup1\n      iszero\n      tag_116\n      jumpi\n      dup1\n      0x1f\n      lt\n      tag_117\n      jumpi\n      0x0100\n      dup1\n      dup4\n      sload\n      div\n      mul\n      dup4\n      mstore\n      swap2\n      0x20\n      add\n      swap2\n      jump(tag_116)\n    tag_117:\n      dup3\n      add\n      swap2\n      swap1\n      0x00\n      mstore\n      keccak256(0x00, 0x20)\n      swap1\n    tag_118:\n      dup2\n      sload\n      dup2\n      mstore\n      swap1\n      0x01\n      add\n      swap1\n      0x20\n      add\n      dup1\n      dup4\n      gt\n      tag_118\n      jumpi\n      dup3\n      swap1\n      sub\n      0x1f\n      and\n      dup3\n      add\n      swap2\n    tag_116:\n      pop\n      pop\n      pop\n      pop\n      pop\n      swap1\n      pop\n        /* \"@openzeppelin/contracts/token/ERC20/ERC20.sol\":2158:2256  function name() public view virtual override returns (string memory) {... */\n      swap1\n      jump\t// out\n        /* \"@openzeppelin/contracts/token/ERC20/ERC20.sol\":4444:4641  function approve(address spender, uint256 amount) public virtual override returns (bool) {... */\n    tag_34:\n        /* \"@openzeppelin/contracts/token/ERC20/ERC20.sol\":4527:4531  bool */\n      0x00\n        /* \"@openzeppelin/contracts/token/ERC20/ERC20.sol\":4543:4556  address owner */\n      dup1\n        /* \"@openzeppelin/contracts/token/ERC20/ERC20.sol\":4559:4571  _msgSender() */\n      tag_120\n        /* \"@openzeppelin/contracts/token/ERC20/ERC20.sol\":4559:4569  _msgSender */\n      tag_121\n        /* \"@openzeppelin/contracts/token/ERC20/ERC20.sol\":4559:4571  _msgSender() */\n      jump\t// in\n    tag_120:\n        /* \"@openzeppelin/contracts/token/ERC20/ERC20.sol\":4543:4571  address owner = _msgSender() */\n      swap1\n      pop\n        /* \"@openzeppelin/contracts/token/ERC20/ERC20.sol\":4581:4613  _approve(owner, spender, amount) */\n      tag_122\n        /* \"@openzeppelin/contracts/token/ERC20/ERC20.sol\":4590:4595  owner */\n      dup2\n        /* \"@openzeppelin/contracts/token/ERC20/ERC20.sol\":4597:4604  spender */\n      dup6\n        /* \"@openzeppelin/contracts/token/ERC20/ERC20.sol\":4606:4612  amount */\n      dup6\n        /* \"@openzeppelin/contracts/token/ERC20/ERC20.sol\":4581:4589  _approve */\n      tag_123\n        /* \"@openzeppelin/contracts/token/ERC20/ERC20.sol\":4581:4613  _approve(owner, spender, amount) */\n      jump\t// in\n    tag_122:\n        /* \"@openzeppelin/contracts/token/ERC20/ERC20.sol\":4630:4634  true */\n      0x01\n        /* \"@openzeppelin/contracts/token/ERC20/ERC20.sol\":4623:4634  return true */\n      swap2\n      pop\n      pop\n        /* \"@openzeppelin/contracts/token/ERC20/ERC20.sol\":4444:4641  function approve(address spender, uint256 amount) public virtual override returns (bool) {... */\n      swap3\n      swap2\n      pop\n      pop\n      jump\t// out\n        /* \"@openzeppelin/contracts/token/ERC20/ERC20.sol\":3255:3361  function totalSupply() public view virtual override returns (uint256) {... */\n    tag_38:\n        /* \"@openzeppelin/contracts/token/ERC20/ERC20.sol\":3316:3323  uint256 */\n      0x00\n        /* \"@openzeppelin/contracts/token/ERC20/ERC20.sol\":3342:3354  _totalSupply */\n      sload(0x02)\n        /* \"@openzeppelin/contracts/token/ERC20/ERC20.sol\":3335:3354  return _totalSupply */\n      swap1\n      pop\n        /* \"@openzeppelin/contracts/token/ERC20/ERC20.sol\":3255:3361  function totalSupply() public view virtual override returns (uint256) {... */\n      swap1\n      jump\t// out\n        /* \"@openzeppelin/contracts/token/ERC20/ERC20.sol\":5203:5459  function transferFrom(address from, address to, uint256 amount) public virtual override returns (bool) {... */\n    tag_44:\n        /* \"@openzeppelin/contracts/token/ERC20/ERC20.sol\":5300:5304  bool */\n      0x00\n        /* \"@openzeppelin/contracts/token/ERC20/ERC20.sol\":5316:5331  address spender */\n      dup1\n        /* \"@openzeppelin/contracts/token/ERC20/ERC20.sol\":5334:5346  _msgSender() */\n      tag_126\n        /* \"@openzeppelin/contracts/token/ERC20/ERC20.sol\":5334:5344  _msgSender */\n      tag_121\n        /* \"@openzeppelin/contracts/token/ERC20/ERC20.sol\":5334:5346  _msgSender() */\n      jump\t// in\n    tag_126:\n        /* \"@openzeppelin/contracts/token/ERC20/ERC20.sol\":5316:5346  address spender = _msgSender() */\n      swap1\n      pop\n        /* \"@openzeppelin/contracts/token/ERC20/ERC20.sol\":5356:5394  _spendAllowance(from, spender, amount) */\n      tag_127\n        /* \"@openzeppelin/contracts/token/ERC20/ERC20.sol\":5372:5376  from */\n      dup6\n        /* \"@openzeppelin/contracts/token/ERC20/ERC20.sol\":5378:5385  spender */\n      dup3\n        /* \"@openzeppelin/contracts/token/ERC20/ERC20.sol\":5387:5393  amount */\n      dup6\n        /* \"@openzeppelin/contracts/token/ERC20/ERC20.sol\":5356:5371  _spendAllowance */\n      tag_128\n        /* \"@openzeppelin/contracts/token/ERC20/ERC20.sol\":5356:5394  _spendAllowance(from, spender, amount) */\n      jump\t// in\n    tag_127:\n        /* \"@openzeppelin/contracts/token/ERC20/ERC20.sol\":5404:5431  _transfer(from, to, amount) */\n      tag_129\n        /* \"@openzeppelin/contracts/token/ERC20/ERC20.sol\":5414:5418  from */\n      dup6\n        /* \"@openzeppelin/contracts/token/ERC20/ERC20.sol\":5420:5422  to */\n      dup6\n        /* \"@openzeppelin/contracts/token/ERC20/ERC20.sol\":5424:5430  amount */\n      dup6\n        /* \"@openzeppelin/contracts/token/ERC20/ERC20.sol\":5404:5413  _transfer */\n      tag_130\n        /* \"@openzeppelin/contracts/token/ERC20/ERC20.sol\":5404:5431  _transfer(from, to, amount) */\n      jump\t// in\n    tag_129:\n        /* \"@openzeppelin/contracts/token/ERC20/ERC20.sol\":5448:5452  true */\n      0x01\n        /* \"@openzeppelin/contracts/token/ERC20/ERC20.sol\":5441:5452  return true */\n      swap2\n      pop\n      pop\n        /* \"@openzeppelin/contracts/token/ERC20/ERC20.sol\":5203:5459  function transferFrom(address from, address to, uint256 amount) public virtual override returns (bool) {... */\n      swap4\n      swap3\n      pop\n      pop\n      pop\n      jump\t// out\n        /* \"src/tokens/stQVEtoken.sol\":1499:1720  function via_transfer(address via, address owner, address to, uint256 amount) public returns(bool){... */\n    tag_49:\n        /* \"src/tokens/stQVEtoken.sol\":1592:1596  bool */\n      0x00\n        /* \"src/tokens/stQVEtoken.sol\":1607:1641  super._approve(owner, via, amount) */\n      tag_132\n        /* \"src/tokens/stQVEtoken.sol\":1622:1627  owner */\n      dup5\n        /* \"src/tokens/stQVEtoken.sol\":1629:1632  via */\n      dup7\n        /* \"src/tokens/stQVEtoken.sol\":1634:1640  amount */\n      dup5\n        /* \"src/tokens/stQVEtoken.sol\":1607:1621  super._approve */\n      tag_123\n        /* \"src/tokens/stQVEtoken.sol\":1607:1641  super._approve(owner, via, amount) */\n      jump\t// in\n    tag_132:\n        /* \"src/tokens/stQVEtoken.sol\":1651:1685  super._transfer(owner, to, amount) */\n      tag_133\n        /* \"src/tokens/stQVEtoken.sol\":1667:1672  owner */\n      dup5\n        /* \"src/tokens/stQVEtoken.sol\":1674:1676  to */\n      dup5\n        /* \"src/tokens/stQVEtoken.sol\":1678:1684  amount */\n      dup5\n        /* \"src/tokens/stQVEtoken.sol\":1651:1666  super._transfer */\n      tag_130\n        /* \"src/tokens/stQVEtoken.sol\":1651:1685  super._transfer(owner, to, amount) */\n      jump\t// in\n    tag_133:\n        /* \"src/tokens/stQVEtoken.sol\":1709:1713  true */\n      0x01\n        /* \"src/tokens/stQVEtoken.sol\":1702:1713  return true */\n      swap1\n      pop\n        /* \"src/tokens/stQVEtoken.sol\":1499:1720  function via_transfer(address via, address owner, address to, uint256 amount) public returns(bool){... */\n      swap5\n      swap4\n      pop\n      pop\n      pop\n      pop\n      jump\t// out\n        /* \"@openzeppelin/contracts/token/ERC20/ERC20.sol\":3104:3195  function decimals() public view virtual override returns (uint8) {... */\n    tag_52:\n        /* \"@openzeppelin/contracts/token/ERC20/ERC20.sol\":3162:3167  uint8 */\n      0x00\n        /* \"@openzeppelin/contracts/token/ERC20/ERC20.sol\":3186:3188  18 */\n      0x12\n        /* \"@openzeppelin/contracts/token/ERC20/ERC20.sol\":3179:3188  return 18 */\n      swap1\n      pop\n        /* \"@openzeppelin/contracts/token/ERC20/ERC20.sol\":3104:3195  function decimals() public view virtual override returns (uint8) {... */\n      swap1\n      jump\t// out\n        /* \"src/tokens/stQVEtoken.sol\":370:398  uint256 public initialSupply */\n    tag_56:\n      sload(0x06)\n      dup2\n      jump\t// out\n        /* \"@openzeppelin/contracts/token/ERC20/ERC20.sol\":5854:6088  function increaseAllowance(address spender, uint256 addedValue) public virtual returns (bool) {... */\n    tag_60:\n        /* \"@openzeppelin/contracts/token/ERC20/ERC20.sol\":5942:5946  bool */\n      0x00\n        /* \"@openzeppelin/contracts/token/ERC20/ERC20.sol\":5958:5971  address owner */\n      dup1\n        /* \"@openzeppelin/contracts/token/ERC20/ERC20.sol\":5974:5986  _msgSender() */\n      tag_136\n        /* \"@openzeppelin/contracts/token/ERC20/ERC20.sol\":5974:5984  _msgSender */\n      tag_121\n        /* \"@openzeppelin/contracts/token/ERC20/ERC20.sol\":5974:5986  _msgSender() */\n      jump\t// in\n    tag_136:\n        /* \"@openzeppelin/contracts/token/ERC20/ERC20.sol\":5958:5986  address owner = _msgSender() */\n      swap1\n      pop\n        /* \"@openzeppelin/contracts/token/ERC20/ERC20.sol\":5996:6060  _approve(owner, spender, allowance(owner, spender) + addedValue) */\n      tag_137\n        /* \"@openzeppelin/contracts/token/ERC20/ERC20.sol\":6005:6010  owner */\n      dup2\n        /* \"@openzeppelin/contracts/token/ERC20/ERC20.sol\":6012:6019  spender */\n      dup6\n        /* \"@openzeppelin/contracts/token/ERC20/ERC20.sol\":6049:6059  addedValue */\n      dup6\n        /* \"@openzeppelin/contracts/token/ERC20/ERC20.sol\":6021:6046  allowance(owner, spender) */\n      tag_138\n        /* \"@openzeppelin/contracts/token/ERC20/ERC20.sol\":6031:6036  owner */\n      dup6\n        /* \"@openzeppelin/contracts/token/ERC20/ERC20.sol\":6038:6045  spender */\n      dup10\n        /* \"@openzeppelin/contracts/token/ERC20/ERC20.sol\":6021:6030  allowance */\n      tag_102\n        /* \"@openzeppelin/contracts/token/ERC20/ERC20.sol\":6021:6046  allowance(owner, spender) */\n      jump\t// in\n    tag_138:\n        /* \"@openzeppelin/contracts/token/ERC20/ERC20.sol\":6021:6059  allowance(owner, spender) + addedValue */\n      tag_139\n      swap2\n      swap1\n      tag_140\n      jump\t// in\n    tag_139:\n        /* \"@openzeppelin/contracts/token/ERC20/ERC20.sol\":5996:6004  _approve */\n      tag_123\n        /* \"@openzeppelin/contracts/token/ERC20/ERC20.sol\":5996:6060  _approve(owner, spender, allowance(owner, spender) + addedValue) */\n      jump\t// in\n    tag_137:\n        /* \"@openzeppelin/contracts/token/ERC20/ERC20.sol\":6077:6081  true */\n      0x01\n        /* \"@openzeppelin/contracts/token/ERC20/ERC20.sol\":6070:6081  return true */\n      swap2\n      pop\n      pop\n        /* \"@openzeppelin/contracts/token/ERC20/ERC20.sol\":5854:6088  function increaseAllowance(address spender, uint256 addedValue) public virtual returns (bool) {... */\n      swap3\n      swap2\n      pop\n      pop\n      jump\t// out\n        /* \"@openzeppelin/contracts/token/ERC20/extensions/ERC20Burnable.sol\":578:667  function burn(uint256 amount) public virtual {... */\n    tag_65:\n        /* \"@openzeppelin/contracts/token/ERC20/extensions/ERC20Burnable.sol\":633:660  _burn(_msgSender(), amount) */\n      tag_142\n        /* \"@openzeppelin/contracts/token/ERC20/extensions/ERC20Burnable.sol\":639:651  _msgSender() */\n      tag_143\n        /* \"@openzeppelin/contracts/token/ERC20/extensions/ERC20Burnable.sol\":639:649  _msgSender */\n      tag_121\n        /* \"@openzeppelin/contracts/token/ERC20/extensions/ERC20Burnable.sol\":639:651  _msgSender() */\n      jump\t// in\n    tag_143:\n        /* \"@openzeppelin/contracts/token/ERC20/extensions/ERC20Burnable.sol\":653:659  amount */\n      dup3\n        /* \"@openzeppelin/contracts/token/ERC20/extensions/ERC20Burnable.sol\":633:638  _burn */\n      tag_144\n        /* \"@openzeppelin/contracts/token/ERC20/extensions/ERC20Burnable.sol\":633:660  _burn(_msgSender(), amount) */\n      jump\t// in\n    tag_142:\n        /* \"@openzeppelin/contracts/token/ERC20/extensions/ERC20Burnable.sol\":578:667  function burn(uint256 amount) public virtual {... */\n      pop\n      jump\t// out\n        /* \"src/tokens/stQVEtoken.sol\":850:1082  function normal_transfer(address from, address target, uint256 amount) NoReEntrancy public returns(bool){... */\n    tag_68:\n        /* \"src/tokens/stQVEtoken.sol\":949:953  bool */\n      0x00\n        /* \"src/util/Security.sol\":149:155  locked */\n      0x05\n      0x14\n      swap1\n      sload\n      swap1\n      0x0100\n      exp\n      swap1\n      div\n      0xff\n      and\n        /* \"src/util/Security.sol\":148:155  !locked */\n      iszero\n        /* \"src/util/Security.sol\":140:173  require(!locked, \"No ReEntrancy\") */\n      tag_146\n      jumpi\n      mload(0x40)\n      0x08c379a000000000000000000000000000000000000000000000000000000000\n      dup2\n      mstore\n      0x04\n      add\n      tag_147\n      swap1\n      tag_148\n      jump\t// in\n    tag_147:\n      mload(0x40)\n      dup1\n      swap2\n      sub\n      swap1\n      revert\n    tag_146:\n        /* \"src/util/Security.sol\":192:196  true */\n      0x01\n        /* \"src/util/Security.sol\":183:189  locked */\n      0x05\n      0x14\n        /* \"src/util/Security.sol\":183:196  locked = true */\n      0x0100\n      exp\n      dup2\n      sload\n      dup2\n      0xff\n      mul\n      not\n      and\n      swap1\n      dup4\n      iszero\n      iszero\n      mul\n      or\n      swap1\n      sstore\n      pop\n        /* \"src/tokens/stQVEtoken.sol\":964:1001  super._transfer(from, target, amount) */\n      tag_150\n        /* \"src/tokens/stQVEtoken.sol\":980:984  from */\n      dup5\n        /* \"src/tokens/stQVEtoken.sol\":986:992  target */\n      dup5\n        /* \"src/tokens/stQVEtoken.sol\":994:1000  amount */\n      dup5\n        /* \"src/tokens/stQVEtoken.sol\":964:979  super._transfer */\n      tag_130\n        /* \"src/tokens/stQVEtoken.sol\":964:1001  super._transfer(from, target, amount) */\n      jump\t// in\n    tag_150:\n        /* \"src/tokens/stQVEtoken.sol\":1017:1054  stQVEtransfered(from, target, amount) */\n      0x4439c0ab4941d65c68bd3f6d9d2b798b48bb422544e1cff1ee69443876036070\n        /* \"src/tokens/stQVEtoken.sol\":1033:1037  from */\n      dup5\n        /* \"src/tokens/stQVEtoken.sol\":1039:1045  target */\n      dup5\n        /* \"src/tokens/stQVEtoken.sol\":1047:1053  amount */\n      dup5\n        /* \"src/tokens/stQVEtoken.sol\":1017:1054  stQVEtransfered(from, target, amount) */\n      mload(0x40)\n      tag_151\n      swap4\n      swap3\n      swap2\n      swap1\n      tag_152\n      jump\t// in\n    tag_151:\n      mload(0x40)\n      dup1\n      swap2\n      sub\n      swap1\n      log1\n        /* \"src/tokens/stQVEtoken.sol\":1071:1075  true */\n      0x01\n        /* \"src/tokens/stQVEtoken.sol\":1064:1075  return true */\n      swap1\n      pop\n        /* \"src/util/Security.sol\":226:231  false */\n      0x00\n        /* \"src/util/Security.sol\":217:223  locked */\n      0x05\n      0x14\n        /* \"src/util/Security.sol\":217:231  locked = false */\n      0x0100\n      exp\n      dup2\n      sload\n      dup2\n      0xff\n      mul\n      not\n      and\n      swap1\n      dup4\n      iszero\n      iszero\n      mul\n      or\n      swap1\n      sstore\n      pop\n        /* \"src/tokens/stQVEtoken.sol\":850:1082  function normal_transfer(address from, address target, uint256 amount) NoReEntrancy public returns(bool){... */\n      swap4\n      swap3\n      pop\n      pop\n      pop\n      jump\t// out\n        /* \"src/tokens/stQVEtoken.sol\":1088:1274  function normal_mint(address account, uint256 amount) public returns(bool) {... */\n    tag_72:\n        /* \"src/tokens/stQVEtoken.sol\":1157:1161  bool */\n      0x00\n        /* \"src/tokens/stQVEtoken.sol\":1173:1201  super._mint(account, amount) */\n      tag_154\n        /* \"src/tokens/stQVEtoken.sol\":1185:1192  account */\n      dup4\n        /* \"src/tokens/stQVEtoken.sol\":1194:1200  amount */\n      dup4\n        /* \"src/tokens/stQVEtoken.sol\":1173:1184  super._mint */\n      tag_155\n        /* \"src/tokens/stQVEtoken.sol\":1173:1201  super._mint(account, amount) */\n      jump\t// in\n    tag_154:\n        /* \"src/tokens/stQVEtoken.sol\":1218:1246  stQVEminted(account, amount) */\n      0x165442f21bd802645ef0ed01b15992a98b200992a7ffa98dffeb1928a0c04700\n        /* \"src/tokens/stQVEtoken.sol\":1230:1237  account */\n      dup4\n        /* \"src/tokens/stQVEtoken.sol\":1239:1245  amount */\n      dup4\n        /* \"src/tokens/stQVEtoken.sol\":1218:1246  stQVEminted(account, amount) */\n      mload(0x40)\n      tag_156\n      swap3\n      swap2\n      swap1\n      tag_157\n      jump\t// in\n    tag_156:\n      mload(0x40)\n      dup1\n      swap2\n      sub\n      swap1\n      log1\n        /* \"src/tokens/stQVEtoken.sol\":1263:1267  true */\n      0x01\n        /* \"src/tokens/stQVEtoken.sol\":1256:1267  return true */\n      swap1\n      pop\n        /* \"src/tokens/stQVEtoken.sol\":1088:1274  function normal_mint(address account, uint256 amount) public returns(bool) {... */\n      swap3\n      swap2\n      pop\n      pop\n      jump\t// out\n        /* \"@openzeppelin/contracts/token/ERC20/ERC20.sol\":3419:3544  function balanceOf(address account) public view virtual override returns (uint256) {... */\n    tag_77:\n        /* \"@openzeppelin/contracts/token/ERC20/ERC20.sol\":3493:3500  uint256 */\n      0x00\n        /* \"@openzeppelin/contracts/token/ERC20/ERC20.sol\":3519:3528  _balances */\n      dup1\n        /* \"@openzeppelin/contracts/token/ERC20/ERC20.sol\":3519:3537  _balances[account] */\n      0x00\n        /* \"@openzeppelin/contracts/token/ERC20/ERC20.sol\":3529:3536  account */\n      dup4\n        /* \"@openzeppelin/contracts/token/ERC20/ERC20.sol\":3519:3537  _balances[account] */\n      0xffffffffffffffffffffffffffffffffffffffff\n      and\n      0xffffffffffffffffffffffffffffffffffffffff\n      and\n      dup2\n      mstore\n      0x20\n      add\n      swap1\n      dup2\n      mstore\n      0x20\n      add\n      0x00\n      keccak256\n      sload\n        /* \"@openzeppelin/contracts/token/ERC20/ERC20.sol\":3512:3537  return _balances[account] */\n      swap1\n      pop\n        /* \"@openzeppelin/contracts/token/ERC20/ERC20.sol\":3419:3544  function balanceOf(address account) public view virtual override returns (uint256) {... */\n      swap2\n      swap1\n      pop\n      jump\t// out\n        /* \"@openzeppelin/contracts/access/Ownable.sol\":1824:1925  function renounceOwnership() public virtual onlyOwner {... */\n    tag_80:\n        /* \"@openzeppelin/contracts/access/Ownable.sol\":1094:1107  _checkOwner() */\n      tag_160\n        /* \"@openzeppelin/contracts/access/Ownable.sol\":1094:1105  _checkOwner */\n      tag_161\n        /* \"@openzeppelin/contracts/access/Ownable.sol\":1094:1107  _checkOwner() */\n      jump\t// in\n    tag_160:\n        /* \"@openzeppelin/contracts/access/Ownable.sol\":1888:1918  _transferOwnership(address(0)) */\n      tag_163\n        /* \"@openzeppelin/contracts/access/Ownable.sol\":1915:1916  0 */\n      0x00\n        /* \"@openzeppelin/contracts/access/Ownable.sol\":1888:1906  _transferOwnership */\n      tag_164\n        /* \"@openzeppelin/contracts/access/Ownable.sol\":1888:1918  _transferOwnership(address(0)) */\n      jump\t// in\n    tag_163:\n        /* \"@openzeppelin/contracts/access/Ownable.sol\":1824:1925  function renounceOwnership() public virtual onlyOwner {... */\n      jump\t// out\n        /* \"@openzeppelin/contracts/token/ERC20/extensions/ERC20Burnable.sol\":973:1134  function burnFrom(address account, uint256 amount) public virtual {... */\n    tag_83:\n        /* \"@openzeppelin/contracts/token/ERC20/extensions/ERC20Burnable.sol\":1049:1095  _spendAllowance(account, _msgSender(), amount) */\n      tag_166\n        /* \"@openzeppelin/contracts/token/ERC20/extensions/ERC20Burnable.sol\":1065:1072  account */\n      dup3\n        /* \"@openzeppelin/contracts/token/ERC20/extensions/ERC20Burnable.sol\":1074:1086  _msgSender() */\n      tag_167\n        /* \"@openzeppelin/contracts/token/ERC20/extensions/ERC20Burnable.sol\":1074:1084  _msgSender */\n      tag_121\n        /* \"@openzeppelin/contracts/token/ERC20/extensions/ERC20Burnable.sol\":1074:1086  _msgSender() */\n      jump\t// in\n    tag_167:\n        /* \"@openzeppelin/contracts/token/ERC20/extensions/ERC20Burnable.sol\":1088:1094  amount */\n      dup4\n        /* \"@openzeppelin/contracts/token/ERC20/extensions/ERC20Burnable.sol\":1049:1064  _spendAllowance */\n      tag_128\n        /* \"@openzeppelin/contracts/token/ERC20/extensions/ERC20Burnable.sol\":1049:1095  _spendAllowance(account, _msgSender(), amount) */\n      jump\t// in\n    tag_166:\n        /* \"@openzeppelin/contracts/token/ERC20/extensions/ERC20Burnable.sol\":1105:1127  _burn(account, amount) */\n      tag_168\n        /* \"@openzeppelin/contracts/token/ERC20/extensions/ERC20Burnable.sol\":1111:1118  account */\n      dup3\n        /* \"@openzeppelin/contracts/token/ERC20/extensions/ERC20Burnable.sol\":1120:1126  amount */\n      dup3\n        /* \"@openzeppelin/contracts/token/ERC20/extensions/ERC20Burnable.sol\":1105:1110  _burn */\n      tag_144\n        /* \"@openzeppelin/contracts/token/ERC20/extensions/ERC20Burnable.sol\":1105:1127  _burn(account, amount) */\n      jump\t// in\n    tag_168:\n        /* \"@openzeppelin/contracts/token/ERC20/extensions/ERC20Burnable.sol\":973:1134  function burnFrom(address account, uint256 amount) public virtual {... */\n      pop\n      pop\n      jump\t// out\n        /* \"@openzeppelin/contracts/access/Ownable.sol\":1201:1286  function owner() public view virtual returns (address) {... */\n    tag_85:\n        /* \"@openzeppelin/contracts/access/Ownable.sol\":1247:1254  address */\n      0x00\n        /* \"@openzeppelin/contracts/access/Ownable.sol\":1273:1279  _owner */\n      0x05\n      0x00\n      swap1\n      sload\n      swap1\n      0x0100\n      exp\n      swap1\n      div\n      0xffffffffffffffffffffffffffffffffffffffff\n      and\n        /* \"@openzeppelin/contracts/access/Ownable.sol\":1266:1279  return _owner */\n      swap1\n      pop\n        /* \"@openzeppelin/contracts/access/Ownable.sol\":1201:1286  function owner() public view virtual returns (address) {... */\n      swap1\n      jump\t// out\n        /* \"@openzeppelin/contracts/token/ERC20/ERC20.sol\":2369:2471  function symbol() public view virtual override returns (string memory) {... */\n    tag_89:\n        /* \"@openzeppelin/contracts/token/ERC20/ERC20.sol\":2425:2438  string memory */\n      0x60\n        /* \"@openzeppelin/contracts/token/ERC20/ERC20.sol\":2457:2464  _symbol */\n      0x04\n        /* \"@openzeppelin/contracts/token/ERC20/ERC20.sol\":2450:2464  return _symbol */\n      dup1\n      sload\n      tag_171\n      swap1\n      tag_114\n      jump\t// in\n    tag_171:\n      dup1\n      0x1f\n      add\n      0x20\n      dup1\n      swap2\n      div\n      mul\n      0x20\n      add\n      mload(0x40)\n      swap1\n      dup2\n      add\n      0x40\n      mstore\n      dup1\n      swap3\n      swap2\n      swap1\n      dup2\n      dup2\n      mstore\n      0x20\n      add\n      dup3\n      dup1\n      sload\n      tag_172\n      swap1\n      tag_114\n      jump\t// in\n    tag_172:\n      dup1\n      iszero\n      tag_173\n      jumpi\n      dup1\n      0x1f\n      lt\n      tag_174\n      jumpi\n      0x0100\n      dup1\n      dup4\n      sload\n      div\n      mul\n      dup4\n      mstore\n      swap2\n      0x20\n      add\n      swap2\n      jump(tag_173)\n    tag_174:\n      dup3\n      add\n      swap2\n      swap1\n      0x00\n      mstore\n      keccak256(0x00, 0x20)\n      swap1\n    tag_175:\n      dup2\n      sload\n      dup2\n      mstore\n      swap1\n      0x01\n      add\n      swap1\n      0x20\n      add\n      dup1\n      dup4\n      gt\n      tag_175\n      jumpi\n      dup3\n      swap1\n      sub\n      0x1f\n      and\n      dup3\n      add\n      swap2\n    tag_173:\n      pop\n      pop\n      pop\n      pop\n      pop\n      swap1\n      pop\n        /* \"@openzeppelin/contracts/token/ERC20/ERC20.sol\":2369:2471  function symbol() public view virtual override returns (string memory) {... */\n      swap1\n      jump\t// out\n        /* \"@openzeppelin/contracts/token/ERC20/ERC20.sol\":6575:7002  function decreaseAllowance(address spender, uint256 subtractedValue) public virtual returns (bool) {... */\n    tag_93:\n        /* \"@openzeppelin/contracts/token/ERC20/ERC20.sol\":6668:6672  bool */\n      0x00\n        /* \"@openzeppelin/contracts/token/ERC20/ERC20.sol\":6684:6697  address owner */\n      dup1\n        /* \"@openzeppelin/contracts/token/ERC20/ERC20.sol\":6700:6712  _msgSender() */\n      tag_177\n        /* \"@openzeppelin/contracts/token/ERC20/ERC20.sol\":6700:6710  _msgSender */\n      tag_121\n        /* \"@openzeppelin/contracts/token/ERC20/ERC20.sol\":6700:6712  _msgSender() */\n      jump\t// in\n    tag_177:\n        /* \"@openzeppelin/contracts/token/ERC20/ERC20.sol\":6684:6712  address owner = _msgSender() */\n      swap1\n      pop\n        /* \"@openzeppelin/contracts/token/ERC20/ERC20.sol\":6722:6746  uint256 currentAllowance */\n      0x00\n        /* \"@openzeppelin/contracts/token/ERC20/ERC20.sol\":6749:6774  allowance(owner, spender) */\n      tag_178\n        /* \"@openzeppelin/contracts/token/ERC20/ERC20.sol\":6759:6764  owner */\n      dup3\n        /* \"@openzeppelin/contracts/token/ERC20/ERC20.sol\":6766:6773  spender */\n      dup7\n        /* \"@openzeppelin/contracts/token/ERC20/ERC20.sol\":6749:6758  allowance */\n      tag_102\n        /* \"@openzeppelin/contracts/token/ERC20/ERC20.sol\":6749:6774  allowance(owner, spender) */\n      jump\t// in\n    tag_178:\n        /* \"@openzeppelin/contracts/token/ERC20/ERC20.sol\":6722:6774  uint256 currentAllowance = allowance(owner, spender) */\n      swap1\n      pop\n        /* \"@openzeppelin/contracts/token/ERC20/ERC20.sol\":6812:6827  subtractedValue */\n      dup4\n        /* \"@openzeppelin/contracts/token/ERC20/ERC20.sol\":6792:6808  currentAllowance */\n      dup2\n        /* \"@openzeppelin/contracts/token/ERC20/ERC20.sol\":6792:6827  currentAllowance >= subtractedValue */\n      lt\n      iszero\n        /* \"@openzeppelin/contracts/token/ERC20/ERC20.sol\":6784:6869  require(currentAllowance >= subtractedValue, \"ERC20: decreased allowance below zero\") */\n      tag_179\n      jumpi\n      mload(0x40)\n      0x08c379a000000000000000000000000000000000000000000000000000000000\n      dup2\n      mstore\n      0x04\n      add\n      tag_180\n      swap1\n      tag_181\n      jump\t// in\n    tag_180:\n      mload(0x40)\n      dup1\n      swap2\n      sub\n      swap1\n      revert\n    tag_179:\n        /* \"@openzeppelin/contracts/token/ERC20/ERC20.sol\":6903:6963  _approve(owner, spender, currentAllowance - subtractedValue) */\n      tag_182\n        /* \"@openzeppelin/contracts/token/ERC20/ERC20.sol\":6912:6917  owner */\n      dup3\n        /* \"@openzeppelin/contracts/token/ERC20/ERC20.sol\":6919:6926  spender */\n      dup7\n        /* \"@openzeppelin/contracts/token/ERC20/ERC20.sol\":6947:6962  subtractedValue */\n      dup7\n        /* \"@openzeppelin/contracts/token/ERC20/ERC20.sol\":6928:6944  currentAllowance */\n      dup5\n        /* \"@openzeppelin/contracts/token/ERC20/ERC20.sol\":6928:6962  currentAllowance - subtractedValue */\n      sub\n        /* \"@openzeppelin/contracts/token/ERC20/ERC20.sol\":6903:6911  _approve */\n      tag_123\n        /* \"@openzeppelin/contracts/token/ERC20/ERC20.sol\":6903:6963  _approve(owner, spender, currentAllowance - subtractedValue) */\n      jump\t// in\n    tag_182:\n        /* \"@openzeppelin/contracts/token/ERC20/ERC20.sol\":6991:6995  true */\n      0x01\n        /* \"@openzeppelin/contracts/token/ERC20/ERC20.sol\":6984:6995  return true */\n      swap3\n      pop\n      pop\n      pop\n        /* \"@openzeppelin/contracts/token/ERC20/ERC20.sol\":6575:7002  function decreaseAllowance(address spender, uint256 subtractedValue) public virtual returns (bool) {... */\n      swap3\n      swap2\n      pop\n      pop\n      jump\t// out\n        /* \"@openzeppelin/contracts/token/ERC20/ERC20.sol\":3740:3929  function transfer(address to, uint256 amount) public virtual override returns (bool) {... */\n    tag_97:\n        /* \"@openzeppelin/contracts/token/ERC20/ERC20.sol\":3819:3823  bool */\n      0x00\n        /* \"@openzeppelin/contracts/token/ERC20/ERC20.sol\":3835:3848  address owner */\n      dup1\n        /* \"@openzeppelin/contracts/token/ERC20/ERC20.sol\":3851:3863  _msgSender() */\n      tag_184\n        /* \"@openzeppelin/contracts/token/ERC20/ERC20.sol\":3851:3861  _msgSender */\n      tag_121\n        /* \"@openzeppelin/contracts/token/ERC20/ERC20.sol\":3851:3863  _msgSender() */\n      jump\t// in\n    tag_184:\n        /* \"@openzeppelin/contracts/token/ERC20/ERC20.sol\":3835:3863  address owner = _msgSender() */\n      swap1\n      pop\n        /* \"@openzeppelin/contracts/token/ERC20/ERC20.sol\":3873:3901  _transfer(owner, to, amount) */\n      tag_185\n        /* \"@openzeppelin/contracts/token/ERC20/ERC20.sol\":3883:3888  owner */\n      dup2\n        /* \"@openzeppelin/contracts/token/ERC20/ERC20.sol\":3890:3892  to */\n      dup6\n        /* \"@openzeppelin/contracts/token/ERC20/ERC20.sol\":3894:3900  amount */\n      dup6\n        /* \"@openzeppelin/contracts/token/ERC20/ERC20.sol\":3873:3882  _transfer */\n      tag_130\n        /* \"@openzeppelin/contracts/token/ERC20/ERC20.sol\":3873:3901  _transfer(owner, to, amount) */\n      jump\t// in\n    tag_185:\n        /* \"@openzeppelin/contracts/token/ERC20/ERC20.sol\":3918:3922  true */\n      0x01\n        /* \"@openzeppelin/contracts/token/ERC20/ERC20.sol\":3911:3922  return true */\n      swap2\n      pop\n      pop\n        /* \"@openzeppelin/contracts/token/ERC20/ERC20.sol\":3740:3929  function transfer(address to, uint256 amount) public virtual override returns (bool) {... */\n      swap3\n      swap2\n      pop\n      pop\n      jump\t// out\n        /* \"@openzeppelin/contracts/token/ERC20/ERC20.sol\":3987:4136  function allowance(address owner, address spender) public view virtual override returns (uint256) {... */\n    tag_102:\n        /* \"@openzeppelin/contracts/token/ERC20/ERC20.sol\":4076:4083  uint256 */\n      0x00\n        /* \"@openzeppelin/contracts/token/ERC20/ERC20.sol\":4102:4113  _allowances */\n      0x01\n        /* \"@openzeppelin/contracts/token/ERC20/ERC20.sol\":4102:4120  _allowances[owner] */\n      0x00\n        /* \"@openzeppelin/contracts/token/ERC20/ERC20.sol\":4114:4119  owner */\n      dup5\n        /* \"@openzeppelin/contracts/token/ERC20/ERC20.sol\":4102:4120  _allowances[owner] */\n      0xffffffffffffffffffffffffffffffffffffffff\n      and\n      0xffffffffffffffffffffffffffffffffffffffff\n      and\n      dup2\n      mstore\n      0x20\n      add\n      swap1\n      dup2\n      mstore\n      0x20\n      add\n      0x00\n      keccak256\n        /* \"@openzeppelin/contracts/token/ERC20/ERC20.sol\":4102:4129  _allowances[owner][spender] */\n      0x00\n        /* \"@openzeppelin/contracts/token/ERC20/ERC20.sol\":4121:4128  spender */\n      dup4\n        /* \"@openzeppelin/contracts/token/ERC20/ERC20.sol\":4102:4129  _allowances[owner][spender] */\n      0xffffffffffffffffffffffffffffffffffffffff\n      and\n      0xffffffffffffffffffffffffffffffffffffffff\n      and\n      dup2\n      mstore\n      0x20\n      add\n      swap1\n      dup2\n      mstore\n      0x20\n      add\n      0x00\n      keccak256\n      sload\n        /* \"@openzeppelin/contracts/token/ERC20/ERC20.sol\":4095:4129  return _allowances[owner][spender] */\n      swap1\n      pop\n        /* \"@openzeppelin/contracts/token/ERC20/ERC20.sol\":3987:4136  function allowance(address owner, address spender) public view virtual override returns (uint256) {... */\n      swap3\n      swap2\n      pop\n      pop\n      jump\t// out\n        /* \"src/tokens/stQVEtoken.sol\":1280:1493  function normal_burn(address account, uint256 amount) public returns(bool){... */\n    tag_106:\n        /* \"src/tokens/stQVEtoken.sol\":1349:1353  bool */\n      0x00\n        /* \"src/tokens/stQVEtoken.sol\":1364:1392  super._burn(account, amount) */\n      tag_188\n        /* \"src/tokens/stQVEtoken.sol\":1376:1383  account */\n      dup4\n        /* \"src/tokens/stQVEtoken.sol\":1385:1391  amount */\n      dup4\n        /* \"src/tokens/stQVEtoken.sol\":1364:1375  super._burn */\n      tag_144\n        /* \"src/tokens/stQVEtoken.sol\":1364:1392  super._burn(account, amount) */\n      jump\t// in\n    tag_188:\n        /* \"src/tokens/stQVEtoken.sol\":1416:1465  stQVEburned(account, amount, super.totalSupply()) */\n      0x06771754ff4904aeea8021b941b110c3bac466ee46a6cbaf2d32801cc89f20f0\n        /* \"src/tokens/stQVEtoken.sol\":1428:1435  account */\n      dup4\n        /* \"src/tokens/stQVEtoken.sol\":1437:1443  amount */\n      dup4\n        /* \"src/tokens/stQVEtoken.sol\":1445:1464  super.totalSupply() */\n      tag_189\n        /* \"src/tokens/stQVEtoken.sol\":1445:1462  super.totalSupply */\n      tag_38\n        /* \"src/tokens/stQVEtoken.sol\":1445:1464  super.totalSupply() */\n      jump\t// in\n    tag_189:\n        /* \"src/tokens/stQVEtoken.sol\":1416:1465  stQVEburned(account, amount, super.totalSupply()) */\n      mload(0x40)\n      tag_190\n      swap4\n      swap3\n      swap2\n      swap1\n      tag_191\n      jump\t// in\n    tag_190:\n      mload(0x40)\n      dup1\n      swap2\n      sub\n      swap1\n      log1\n        /* \"src/tokens/stQVEtoken.sol\":1482:1486  true */\n      0x01\n        /* \"src/tokens/stQVEtoken.sol\":1475:1486  return true */\n      swap1\n      pop\n        /* \"src/tokens/stQVEtoken.sol\":1280:1493  function normal_burn(address account, uint256 amount) public returns(bool){... */\n      swap3\n      swap2\n      pop\n      pop\n      jump\t// out\n        /* \"@openzeppelin/contracts/access/Ownable.sol\":2074:2272  function transferOwnership(address newOwner) public virtual onlyOwner {... */\n    tag_110:\n        /* \"@openzeppelin/contracts/access/Ownable.sol\":1094:1107  _checkOwner() */\n      tag_193\n        /* \"@openzeppelin/contracts/access/Ownable.sol\":1094:1105  _checkOwner */\n      tag_161\n        /* \"@openzeppelin/contracts/access/Ownable.sol\":1094:1107  _checkOwner() */\n      jump\t// in\n    tag_193:\n        /* \"@openzeppelin/contracts/access/Ownable.sol\":2182:2183  0 */\n      0x00\n        /* \"@openzeppelin/contracts/access/Ownable.sol\":2162:2184  newOwner != address(0) */\n      0xffffffffffffffffffffffffffffffffffffffff\n      and\n        /* \"@openzeppelin/contracts/access/Ownable.sol\":2162:2170  newOwner */\n      dup2\n        /* \"@openzeppelin/contracts/access/Ownable.sol\":2162:2184  newOwner != address(0) */\n      0xffffffffffffffffffffffffffffffffffffffff\n      and\n      sub\n        /* \"@openzeppelin/contracts/access/Ownable.sol\":2154:2227  require(newOwner != address(0), \"Ownable: new owner is the zero address\") */\n      tag_195\n      jumpi\n      mload(0x40)\n      0x08c379a000000000000000000000000000000000000000000000000000000000\n      dup2\n      mstore\n      0x04\n      add\n      tag_196\n      swap1\n      tag_197\n      jump\t// in\n    tag_196:\n      mload(0x40)\n      dup1\n      swap2\n      sub\n      swap1\n      revert\n    tag_195:\n        /* \"@openzeppelin/contracts/access/Ownable.sol\":2237:2265  _transferOwnership(newOwner) */\n      tag_198\n        /* \"@openzeppelin/contracts/access/Ownable.sol\":2256:2264  newOwner */\n      dup2\n        /* \"@openzeppelin/contracts/access/Ownable.sol\":2237:2255  _transferOwnership */\n      tag_164\n        /* \"@openzeppelin/contracts/access/Ownable.sol\":2237:2265  _transferOwnership(newOwner) */\n      jump\t// in\n    tag_198:\n        /* \"@openzeppelin/contracts/access/Ownable.sol\":2074:2272  function transferOwnership(address newOwner) public virtual onlyOwner {... */\n      pop\n      jump\t// out\n        /* \"@openzeppelin/contracts/utils/math/SafeMath.sol\":3465:3561  function mul(uint256 a, uint256 b) internal pure returns (uint256) {... */\n    tag_111:\n        /* \"@openzeppelin/contracts/utils/math/SafeMath.sol\":3523:3530  uint256 */\n      0x00\n        /* \"@openzeppelin/contracts/utils/math/SafeMath.sol\":3553:3554  b */\n      dup2\n        /* \"@openzeppelin/contracts/utils/math/SafeMath.sol\":3549:3550  a */\n      dup4\n        /* \"@openzeppelin/contracts/utils/math/SafeMath.sol\":3549:3554  a * b */\n      tag_200\n      swap2\n      swap1\n      tag_201\n      jump\t// in\n    tag_200:\n        /* \"@openzeppelin/contracts/utils/math/SafeMath.sol\":3542:3554  return a * b */\n      swap1\n      pop\n        /* \"@openzeppelin/contracts/utils/math/SafeMath.sol\":3465:3561  function mul(uint256 a, uint256 b) internal pure returns (uint256) {... */\n      swap3\n      swap2\n      pop\n      pop\n      jump\t// out\n        /* \"@openzeppelin/contracts/utils/Context.sol\":640:736  function _msgSender() internal view virtual returns (address) {... */\n    tag_121:\n        /* \"@openzeppelin/contracts/utils/Context.sol\":693:700  address */\n      0x00\n        /* \"@openzeppelin/contracts/utils/Context.sol\":719:729  msg.sender */\n      caller\n        /* \"@openzeppelin/contracts/utils/Context.sol\":712:729  return msg.sender */\n      swap1\n      pop\n        /* \"@openzeppelin/contracts/utils/Context.sol\":640:736  function _msgSender() internal view virtual returns (address) {... */\n      swap1\n      jump\t// out\n        /* \"@openzeppelin/contracts/token/ERC20/ERC20.sol\":10457:10797  function _approve(address owner, address spender, uint256 amount) internal virtual {... */\n    tag_123:\n        /* \"@openzeppelin/contracts/token/ERC20/ERC20.sol\":10575:10576  0 */\n      0x00\n        /* \"@openzeppelin/contracts/token/ERC20/ERC20.sol\":10558:10577  owner != address(0) */\n      0xffffffffffffffffffffffffffffffffffffffff\n      and\n        /* \"@openzeppelin/contracts/token/ERC20/ERC20.sol\":10558:10563  owner */\n      dup4\n        /* \"@openzeppelin/contracts/token/ERC20/ERC20.sol\":10558:10577  owner != address(0) */\n      0xffffffffffffffffffffffffffffffffffffffff\n      and\n      sub\n        /* \"@openzeppelin/contracts/token/ERC20/ERC20.sol\":10550:10618  require(owner != address(0), \"ERC20: approve from the zero address\") */\n      tag_204\n      jumpi\n      mload(0x40)\n      0x08c379a000000000000000000000000000000000000000000000000000000000\n      dup2\n      mstore\n      0x04\n      add\n      tag_205\n      swap1\n      tag_206\n      jump\t// in\n    tag_205:\n      mload(0x40)\n      dup1\n      swap2\n      sub\n      swap1\n      revert\n    tag_204:\n        /* \"@openzeppelin/contracts/token/ERC20/ERC20.sol\":10655:10656  0 */\n      0x00\n        /* \"@openzeppelin/contracts/token/ERC20/ERC20.sol\":10636:10657  spender != address(0) */\n      0xffffffffffffffffffffffffffffffffffffffff\n      and\n        /* \"@openzeppelin/contracts/token/ERC20/ERC20.sol\":10636:10643  spender */\n      dup3\n        /* \"@openzeppelin/contracts/token/ERC20/ERC20.sol\":10636:10657  spender != address(0) */\n      0xffffffffffffffffffffffffffffffffffffffff\n      and\n      sub\n        /* \"@openzeppelin/contracts/token/ERC20/ERC20.sol\":10628:10696  require(spender != address(0), \"ERC20: approve to the zero address\") */\n      tag_207\n      jumpi\n      mload(0x40)\n      0x08c379a000000000000000000000000000000000000000000000000000000000\n      dup2\n      mstore\n      0x04\n      add\n      tag_208\n      swap1\n      tag_209\n      jump\t// in\n    tag_208:\n      mload(0x40)\n      dup1\n      swap2\n      sub\n      swap1\n      revert\n    tag_207:\n        /* \"@openzeppelin/contracts/token/ERC20/ERC20.sol\":10737:10743  amount */\n      dup1\n        /* \"@openzeppelin/contracts/token/ERC20/ERC20.sol\":10707:10718  _allowances */\n      0x01\n        /* \"@openzeppelin/contracts/token/ERC20/ERC20.sol\":10707:10725  _allowances[owner] */\n      0x00\n        /* \"@openzeppelin/contracts/token/ERC20/ERC20.sol\":10719:10724  owner */\n      dup6\n        /* \"@openzeppelin/contracts/token/ERC20/ERC20.sol\":10707:10725  _allowances[owner] */\n      0xffffffffffffffffffffffffffffffffffffffff\n      and\n      0xffffffffffffffffffffffffffffffffffffffff\n      and\n      dup2\n      mstore\n      0x20\n      add\n      swap1\n      dup2\n      mstore\n      0x20\n      add\n      0x00\n      keccak256\n        /* \"@openzeppelin/contracts/token/ERC20/ERC20.sol\":10707:10734  _allowances[owner][spender] */\n      0x00\n        /* \"@openzeppelin/contracts/token/ERC20/ERC20.sol\":10726:10733  spender */\n      dup5\n        /* \"@openzeppelin/contracts/token/ERC20/ERC20.sol\":10707:10734  _allowances[owner][spender] */\n      0xffffffffffffffffffffffffffffffffffffffff\n      and\n      0xffffffffffffffffffffffffffffffffffffffff\n      and\n      dup2\n      mstore\n      0x20\n      add\n      swap1\n      dup2\n      mstore\n      0x20\n      add\n      0x00\n      keccak256\n        /* \"@openzeppelin/contracts/token/ERC20/ERC20.sol\":10707:10743  _allowances[owner][spender] = amount */\n      dup2\n      swap1\n      sstore\n      pop\n        /* \"@openzeppelin/contracts/token/ERC20/ERC20.sol\":10774:10781  spender */\n      dup2\n        /* \"@openzeppelin/contracts/token/ERC20/ERC20.sol\":10758:10790  Approval(owner, spender, amount) */\n      0xffffffffffffffffffffffffffffffffffffffff\n      and\n        /* \"@openzeppelin/contracts/token/ERC20/ERC20.sol\":10767:10772  owner */\n      dup4\n        /* \"@openzeppelin/contracts/token/ERC20/ERC20.sol\":10758:10790  Approval(owner, spender, amount) */\n      0xffffffffffffffffffffffffffffffffffffffff\n      and\n      0x8c5be1e5ebec7d5bd14f71427d1e84f3dd0314c0f7b2291e5b200ac8c7c3b925\n        /* \"@openzeppelin/contracts/token/ERC20/ERC20.sol\":10783:10789  amount */\n      dup4\n        /* \"@openzeppelin/contracts/token/ERC20/ERC20.sol\":10758:10790  Approval(owner, spender, amount) */\n      mload(0x40)\n      tag_210\n      swap2\n      swap1\n      tag_40\n      jump\t// in\n    tag_210:\n      mload(0x40)\n      dup1\n      swap2\n      sub\n      swap1\n      log3\n        /* \"@openzeppelin/contracts/token/ERC20/ERC20.sol\":10457:10797  function _approve(address owner, address spender, uint256 amount) internal virtual {... */\n      pop\n      pop\n      pop\n      jump\t// out\n        /* \"@openzeppelin/contracts/token/ERC20/ERC20.sol\":11078:11489  function _spendAllowance(address owner, address spender, uint256 amount) internal virtual {... */\n    tag_128:\n        /* \"@openzeppelin/contracts/token/ERC20/ERC20.sol\":11178:11202  uint256 currentAllowance */\n      0x00\n        /* \"@openzeppelin/contracts/token/ERC20/ERC20.sol\":11205:11230  allowance(owner, spender) */\n      tag_212\n        /* \"@openzeppelin/contracts/token/ERC20/ERC20.sol\":11215:11220  owner */\n      dup5\n        /* \"@openzeppelin/contracts/token/ERC20/ERC20.sol\":11222:11229  spender */\n      dup5\n        /* \"@openzeppelin/contracts/token/ERC20/ERC20.sol\":11205:11214  allowance */\n      tag_102\n        /* \"@openzeppelin/contracts/token/ERC20/ERC20.sol\":11205:11230  allowance(owner, spender) */\n      jump\t// in\n    tag_212:\n        /* \"@openzeppelin/contracts/token/ERC20/ERC20.sol\":11178:11230  uint256 currentAllowance = allowance(owner, spender) */\n      swap1\n      pop\n        /* \"@openzeppelin/contracts/token/ERC20/ERC20.sol\":11264:11281  type(uint256).max */\n      0xffffffffffffffffffffffffffffffffffffffffffffffffffffffffffffffff\n        /* \"@openzeppelin/contracts/token/ERC20/ERC20.sol\":11244:11260  currentAllowance */\n      dup2\n        /* \"@openzeppelin/contracts/token/ERC20/ERC20.sol\":11244:11281  currentAllowance != type(uint256).max */\n      eq\n        /* \"@openzeppelin/contracts/token/ERC20/ERC20.sol\":11240:11483  if (currentAllowance != type(uint256).max) {... */\n      tag_213\n      jumpi\n        /* \"@openzeppelin/contracts/token/ERC20/ERC20.sol\":11325:11331  amount */\n      dup2\n        /* \"@openzeppelin/contracts/token/ERC20/ERC20.sol\":11305:11321  currentAllowance */\n      dup2\n        /* \"@openzeppelin/contracts/token/ERC20/ERC20.sol\":11305:11331  currentAllowance >= amount */\n      lt\n      iszero\n        /* \"@openzeppelin/contracts/token/ERC20/ERC20.sol\":11297:11365  require(currentAllowance >= amount, \"ERC20: insufficient allowance\") */\n      tag_214\n      jumpi\n      mload(0x40)\n      0x08c379a000000000000000000000000000000000000000000000000000000000\n      dup2\n      mstore\n      0x04\n      add\n      tag_215\n      swap1\n      tag_216\n      jump\t// in\n    tag_215:\n      mload(0x40)\n      dup1\n      swap2\n      sub\n      swap1\n      revert\n    tag_214:\n        /* \"@openzeppelin/contracts/token/ERC20/ERC20.sol\":11407:11458  _approve(owner, spender, currentAllowance - amount) */\n      tag_217\n        /* \"@openzeppelin/contracts/token/ERC20/ERC20.sol\":11416:11421  owner */\n      dup5\n        /* \"@openzeppelin/contracts/token/ERC20/ERC20.sol\":11423:11430  spender */\n      dup5\n        /* \"@openzeppelin/contracts/token/ERC20/ERC20.sol\":11451:11457  amount */\n      dup5\n        /* \"@openzeppelin/contracts/token/ERC20/ERC20.sol\":11432:11448  currentAllowance */\n      dup5\n        /* \"@openzeppelin/contracts/token/ERC20/ERC20.sol\":11432:11457  currentAllowance - amount */\n      sub\n        /* \"@openzeppelin/contracts/token/ERC20/ERC20.sol\":11407:11415  _approve */\n      tag_123\n        /* \"@openzeppelin/contracts/token/ERC20/ERC20.sol\":11407:11458  _approve(owner, spender, currentAllowance - amount) */\n      jump\t// in\n    tag_217:\n        /* \"@openzeppelin/contracts/token/ERC20/ERC20.sol\":11240:11483  if (currentAllowance != type(uint256).max) {... */\n    tag_213:\n        /* \"@openzeppelin/contracts/token/ERC20/ERC20.sol\":11168:11489  {... */\n      pop\n        /* \"@openzeppelin/contracts/token/ERC20/ERC20.sol\":11078:11489  function _spendAllowance(address owner, address spender, uint256 amount) internal virtual {... */\n      pop\n      pop\n      pop\n      jump\t// out\n        /* \"@openzeppelin/contracts/token/ERC20/ERC20.sol\":7456:8244  function _transfer(address from, address to, uint256 amount) internal virtual {... */\n    tag_130:\n        /* \"@openzeppelin/contracts/token/ERC20/ERC20.sol\":7568:7569  0 */\n      0x00\n        /* \"@openzeppelin/contracts/token/ERC20/ERC20.sol\":7552:7570  from != address(0) */\n      0xffffffffffffffffffffffffffffffffffffffff\n      and\n        /* \"@openzeppelin/contracts/token/ERC20/ERC20.sol\":7552:7556  from */\n      dup4\n        /* \"@openzeppelin/contracts/token/ERC20/ERC20.sol\":7552:7570  from != address(0) */\n      0xffffffffffffffffffffffffffffffffffffffff\n      and\n      sub\n        /* \"@openzeppelin/contracts/token/ERC20/ERC20.sol\":7544:7612  require(from != address(0), \"ERC20: transfer from the zero address\") */\n      tag_219\n      jumpi\n      mload(0x40)\n      0x08c379a000000000000000000000000000000000000000000000000000000000\n      dup2\n      mstore\n      0x04\n      add\n      tag_220\n      swap1\n      tag_221\n      jump\t// in\n    tag_220:\n      mload(0x40)\n      dup1\n      swap2\n      sub\n      swap1\n      revert\n    tag_219:\n        /* \"@openzeppelin/contracts/token/ERC20/ERC20.sol\":7644:7645  0 */\n      0x00\n        /* \"@openzeppelin/contracts/token/ERC20/ERC20.sol\":7630:7646  to != address(0) */\n      0xffffffffffffffffffffffffffffffffffffffff\n      and\n        /* \"@openzeppelin/contracts/token/ERC20/ERC20.sol\":7630:7632  to */\n      dup3\n        /* \"@openzeppelin/contracts/token/ERC20/ERC20.sol\":7630:7646  to != address(0) */\n      0xffffffffffffffffffffffffffffffffffffffff\n      and\n      sub\n        /* \"@openzeppelin/contracts/token/ERC20/ERC20.sol\":7622:7686  require(to != address(0), \"ERC20: transfer to the zero address\") */\n      tag_222\n      jumpi\n      mload(0x40)\n      0x08c379a000000000000000000000000000000000000000000000000000000000\n      dup2\n      mstore\n      0x04\n      add\n      tag_223\n      swap1\n      tag_224\n      jump\t// in\n    tag_223:\n      mload(0x40)\n      dup1\n      swap2\n      sub\n      swap1\n      revert\n    tag_222:\n        /* \"@openzeppelin/contracts/token/ERC20/ERC20.sol\":7697:7735  _beforeTokenTransfer(from, to, amount) */\n      tag_225\n        /* \"@openzeppelin/contracts/token/ERC20/ERC20.sol\":7718:7722  from */\n      dup4\n        /* \"@openzeppelin/contracts/token/ERC20/ERC20.sol\":7724:7726  to */\n      dup4\n        /* \"@openzeppelin/contracts/token/ERC20/ERC20.sol\":7728:7734  amount */\n      dup4\n        /* \"@openzeppelin/contracts/token/ERC20/ERC20.sol\":7697:7717  _beforeTokenTransfer */\n      tag_226\n        /* \"@openzeppelin/contracts/token/ERC20/ERC20.sol\":7697:7735  _beforeTokenTransfer(from, to, amount) */\n      jump\t// in\n    tag_225:\n        /* \"@openzeppelin/contracts/token/ERC20/ERC20.sol\":7746:7765  uint256 fromBalance */\n      0x00\n        /* \"@openzeppelin/contracts/token/ERC20/ERC20.sol\":7768:7777  _balances */\n      dup1\n        /* \"@openzeppelin/contracts/token/ERC20/ERC20.sol\":7768:7783  _balances[from] */\n      0x00\n        /* \"@openzeppelin/contracts/token/ERC20/ERC20.sol\":7778:7782  from */\n      dup6\n        /* \"@openzeppelin/contracts/token/ERC20/ERC20.sol\":7768:7783  _balances[from] */\n      0xffffffffffffffffffffffffffffffffffffffff\n      and\n      0xffffffffffffffffffffffffffffffffffffffff\n      and\n      dup2\n      mstore\n      0x20\n      add\n      swap1\n      dup2\n      mstore\n      0x20\n      add\n      0x00\n      keccak256\n      sload\n        /* \"@openzeppelin/contracts/token/ERC20/ERC20.sol\":7746:7783  uint256 fromBalance = _balances[from] */\n      swap1\n      pop\n        /* \"@openzeppelin/contracts/token/ERC20/ERC20.sol\":7816:7822  amount */\n      dup2\n        /* \"@openzeppelin/contracts/token/ERC20/ERC20.sol\":7801:7812  fromBalance */\n      dup2\n        /* \"@openzeppelin/contracts/token/ERC20/ERC20.sol\":7801:7822  fromBalance >= amount */\n      lt\n      iszero\n        /* \"@openzeppelin/contracts/token/ERC20/ERC20.sol\":7793:7865  require(fromBalance >= amount, \"ERC20: transfer amount exceeds balance\") */\n      tag_227\n      jumpi\n      mload(0x40)\n      0x08c379a000000000000000000000000000000000000000000000000000000000\n      dup2\n      mstore\n      0x04\n      add\n      tag_228\n      swap1\n      tag_229\n      jump\t// in\n    tag_228:\n      mload(0x40)\n      dup1\n      swap2\n      sub\n      swap1\n      revert\n    tag_227:\n        /* \"@openzeppelin/contracts/token/ERC20/ERC20.sol\":7931:7937  amount */\n      dup2\n        /* \"@openzeppelin/contracts/token/ERC20/ERC20.sol\":7917:7928  fromBalance */\n      dup2\n        /* \"@openzeppelin/contracts/token/ERC20/ERC20.sol\":7917:7937  fromBalance - amount */\n      sub\n        /* \"@openzeppelin/contracts/token/ERC20/ERC20.sol\":7899:7908  _balances */\n      0x00\n        /* \"@openzeppelin/contracts/token/ERC20/ERC20.sol\":7899:7914  _balances[from] */\n      dup1\n        /* \"@openzeppelin/contracts/token/ERC20/ERC20.sol\":7909:7913  from */\n      dup7\n        /* \"@openzeppelin/contracts/token/ERC20/ERC20.sol\":7899:7914  _balances[from] */\n      0xffffffffffffffffffffffffffffffffffffffff\n      and\n      0xffffffffffffffffffffffffffffffffffffffff\n      and\n      dup2\n      mstore\n      0x20\n      add\n      swap1\n      dup2\n      mstore\n      0x20\n      add\n      0x00\n      keccak256\n        /* \"@openzeppelin/contracts/token/ERC20/ERC20.sol\":7899:7937  _balances[from] = fromBalance - amount */\n      dup2\n      swap1\n      sstore\n      pop\n        /* \"@openzeppelin/contracts/token/ERC20/ERC20.sol\":8131:8137  amount */\n      dup2\n        /* \"@openzeppelin/contracts/token/ERC20/ERC20.sol\":8114:8123  _balances */\n      0x00\n        /* \"@openzeppelin/contracts/token/ERC20/ERC20.sol\":8114:8127  _balances[to] */\n      dup1\n        /* \"@openzeppelin/contracts/token/ERC20/ERC20.sol\":8124:8126  to */\n      dup6\n        /* \"@openzeppelin/contracts/token/ERC20/ERC20.sol\":8114:8127  _balances[to] */\n      0xffffffffffffffffffffffffffffffffffffffff\n      and\n      0xffffffffffffffffffffffffffffffffffffffff\n      and\n      dup2\n      mstore\n      0x20\n      add\n      swap1\n      dup2\n      mstore\n      0x20\n      add\n      0x00\n      keccak256\n      0x00\n        /* \"@openzeppelin/contracts/token/ERC20/ERC20.sol\":8114:8137  _balances[to] += amount */\n      dup3\n      dup3\n      sload\n      add\n      swap3\n      pop\n      pop\n      dup2\n      swap1\n      sstore\n      pop\n        /* \"@openzeppelin/contracts/token/ERC20/ERC20.sol\":8178:8180  to */\n      dup3\n        /* \"@openzeppelin/contracts/token/ERC20/ERC20.sol\":8163:8189  Transfer(from, to, amount) */\n      0xffffffffffffffffffffffffffffffffffffffff\n      and\n        /* \"@openzeppelin/contracts/token/ERC20/ERC20.sol\":8172:8176  from */\n      dup5\n        /* \"@openzeppelin/contracts/token/ERC20/ERC20.sol\":8163:8189  Transfer(from, to, amount) */\n      0xffffffffffffffffffffffffffffffffffffffff\n      and\n      0xddf252ad1be2c89b69c2b068fc378daa952ba7f163c4a11628f55a4df523b3ef\n        /* \"@openzeppelin/contracts/token/ERC20/ERC20.sol\":8182:8188  amount */\n      dup5\n        /* \"@openzeppelin/contracts/token/ERC20/ERC20.sol\":8163:8189  Transfer(from, to, amount) */\n      mload(0x40)\n      tag_230\n      swap2\n      swap1\n      tag_40\n      jump\t// in\n    tag_230:\n      mload(0x40)\n      dup1\n      swap2\n      sub\n      swap1\n      log3\n        /* \"@openzeppelin/contracts/token/ERC20/ERC20.sol\":8200:8237  _afterTokenTransfer(from, to, amount) */\n      tag_231\n        /* \"@openzeppelin/contracts/token/ERC20/ERC20.sol\":8220:8224  from */\n      dup5\n        /* \"@openzeppelin/contracts/token/ERC20/ERC20.sol\":8226:8228  to */\n      dup5\n        /* \"@openzeppelin/contracts/token/ERC20/ERC20.sol\":8230:8236  amount */\n      dup5\n        /* \"@openzeppelin/contracts/token/ERC20/ERC20.sol\":8200:8219  _afterTokenTransfer */\n      tag_232\n        /* \"@openzeppelin/contracts/token/ERC20/ERC20.sol\":8200:8237  _afterTokenTransfer(from, to, amount) */\n      jump\t// in\n    tag_231:\n        /* \"@openzeppelin/contracts/token/ERC20/ERC20.sol\":7534:8244  {... */\n      pop\n        /* \"@openzeppelin/contracts/token/ERC20/ERC20.sol\":7456:8244  function _transfer(address from, address to, uint256 amount) internal virtual {... */\n      pop\n      pop\n      pop\n      jump\t// out\n        /* \"@openzeppelin/contracts/token/ERC20/ERC20.sol\":9375:10034  function _burn(address account, uint256 amount) internal virtual {... */\n    tag_144:\n        /* \"@openzeppelin/contracts/token/ERC20/ERC20.sol\":9477:9478  0 */\n      0x00\n        /* \"@openzeppelin/contracts/token/ERC20/ERC20.sol\":9458:9479  account != address(0) */\n      0xffffffffffffffffffffffffffffffffffffffff\n      and\n        /* \"@openzeppelin/contracts/token/ERC20/ERC20.sol\":9458:9465  account */\n      dup3\n        /* \"@openzeppelin/contracts/token/ERC20/ERC20.sol\":9458:9479  account != address(0) */\n      0xffffffffffffffffffffffffffffffffffffffff\n      and\n      sub\n        /* \"@openzeppelin/contracts/token/ERC20/ERC20.sol\":9450:9517  require(account != address(0), \"ERC20: burn from the zero address\") */\n      tag_234\n      jumpi\n      mload(0x40)\n      0x08c379a000000000000000000000000000000000000000000000000000000000\n      dup2\n      mstore\n      0x04\n      add\n      tag_235\n      swap1\n      tag_236\n      jump\t// in\n    tag_235:\n      mload(0x40)\n      dup1\n      swap2\n      sub\n      swap1\n      revert\n    tag_234:\n        /* \"@openzeppelin/contracts/token/ERC20/ERC20.sol\":9528:9577  _beforeTokenTransfer(account, address(0), amount) */\n      tag_237\n        /* \"@openzeppelin/contracts/token/ERC20/ERC20.sol\":9549:9556  account */\n      dup3\n        /* \"@openzeppelin/contracts/token/ERC20/ERC20.sol\":9566:9567  0 */\n      0x00\n        /* \"@openzeppelin/contracts/token/ERC20/ERC20.sol\":9570:9576  amount */\n      dup4\n        /* \"@openzeppelin/contracts/token/ERC20/ERC20.sol\":9528:9548  _beforeTokenTransfer */\n      tag_226\n        /* \"@openzeppelin/contracts/token/ERC20/ERC20.sol\":9528:9577  _beforeTokenTransfer(account, address(0), amount) */\n      jump\t// in\n    tag_237:\n        /* \"@openzeppelin/contracts/token/ERC20/ERC20.sol\":9588:9610  uint256 accountBalance */\n      0x00\n        /* \"@openzeppelin/contracts/token/ERC20/ERC20.sol\":9613:9622  _balances */\n      dup1\n        /* \"@openzeppelin/contracts/token/ERC20/ERC20.sol\":9613:9631  _balances[account] */\n      0x00\n        /* \"@openzeppelin/contracts/token/ERC20/ERC20.sol\":9623:9630  account */\n      dup5\n        /* \"@openzeppelin/contracts/token/ERC20/ERC20.sol\":9613:9631  _balances[account] */\n      0xffffffffffffffffffffffffffffffffffffffff\n      and\n      0xffffffffffffffffffffffffffffffffffffffff\n      and\n      dup2\n      mstore\n      0x20\n      add\n      swap1\n      dup2\n      mstore\n      0x20\n      add\n      0x00\n      keccak256\n      sload\n        /* \"@openzeppelin/contracts/token/ERC20/ERC20.sol\":9588:9631  uint256 accountBalance = _balances[account] */\n      swap1\n      pop\n        /* \"@openzeppelin/contracts/token/ERC20/ERC20.sol\":9667:9673  amount */\n      dup2\n        /* \"@openzeppelin/contracts/token/ERC20/ERC20.sol\":9649:9663  accountBalance */\n      dup2\n        /* \"@openzeppelin/contracts/token/ERC20/ERC20.sol\":9649:9673  accountBalance >= amount */\n      lt\n      iszero\n        /* \"@openzeppelin/contracts/token/ERC20/ERC20.sol\":9641:9712  require(accountBalance >= amount, \"ERC20: burn amount exceeds balance\") */\n      tag_238\n      jumpi\n      mload(0x40)\n      0x08c379a000000000000000000000000000000000000000000000000000000000\n      dup2\n      mstore\n      0x04\n      add\n      tag_239\n      swap1\n      tag_240\n      jump\t// in\n    tag_239:\n      mload(0x40)\n      dup1\n      swap2\n      sub\n      swap1\n      revert\n    tag_238:\n        /* \"@openzeppelin/contracts/token/ERC20/ERC20.sol\":9784:9790  amount */\n      dup2\n        /* \"@openzeppelin/contracts/token/ERC20/ERC20.sol\":9767:9781  accountBalance */\n      dup2\n        /* \"@openzeppelin/contracts/token/ERC20/ERC20.sol\":9767:9790  accountBalance - amount */\n      sub\n        /* \"@openzeppelin/contracts/token/ERC20/ERC20.sol\":9746:9755  _balances */\n      0x00\n        /* \"@openzeppelin/contracts/token/ERC20/ERC20.sol\":9746:9764  _balances[account] */\n      dup1\n        /* \"@openzeppelin/contracts/token/ERC20/ERC20.sol\":9756:9763  account */\n      dup6\n        /* \"@openzeppelin/contracts/token/ERC20/ERC20.sol\":9746:9764  _balances[account] */\n      0xffffffffffffffffffffffffffffffffffffffff\n      and\n      0xffffffffffffffffffffffffffffffffffffffff\n      and\n      dup2\n      mstore\n      0x20\n      add\n      swap1\n      dup2\n      mstore\n      0x20\n      add\n      0x00\n      keccak256\n        /* \"@openzeppelin/contracts/token/ERC20/ERC20.sol\":9746:9790  _balances[account] = accountBalance - amount */\n      dup2\n      swap1\n      sstore\n      pop\n        /* \"@openzeppelin/contracts/token/ERC20/ERC20.sol\":9899:9905  amount */\n      dup2\n        /* \"@openzeppelin/contracts/token/ERC20/ERC20.sol\":9883:9895  _totalSupply */\n      0x02\n      0x00\n        /* \"@openzeppelin/contracts/token/ERC20/ERC20.sol\":9883:9905  _totalSupply -= amount */\n      dup3\n      dup3\n      sload\n      sub\n      swap3\n      pop\n      pop\n      dup2\n      swap1\n      sstore\n      pop\n        /* \"@openzeppelin/contracts/token/ERC20/ERC20.sol\":9957:9958  0 */\n      0x00\n        /* \"@openzeppelin/contracts/token/ERC20/ERC20.sol\":9931:9968  Transfer(account, address(0), amount) */\n      0xffffffffffffffffffffffffffffffffffffffff\n      and\n        /* \"@openzeppelin/contracts/token/ERC20/ERC20.sol\":9940:9947  account */\n      dup4\n        /* \"@openzeppelin/contracts/token/ERC20/ERC20.sol\":9931:9968  Transfer(account, address(0), amount) */\n      0xffffffffffffffffffffffffffffffffffffffff\n      and\n      0xddf252ad1be2c89b69c2b068fc378daa952ba7f163c4a11628f55a4df523b3ef\n        /* \"@openzeppelin/contracts/token/ERC20/ERC20.sol\":9961:9967  amount */\n      dup5\n        /* \"@openzeppelin/contracts/token/ERC20/ERC20.sol\":9931:9968  Transfer(account, address(0), amount) */\n      mload(0x40)\n      tag_241\n      swap2\n      swap1\n      tag_40\n      jump\t// in\n    tag_241:\n      mload(0x40)\n      dup1\n      swap2\n      sub\n      swap1\n      log3\n        /* \"@openzeppelin/contracts/token/ERC20/ERC20.sol\":9979:10027  _afterTokenTransfer(account, address(0), amount) */\n      tag_242\n        /* \"@openzeppelin/contracts/token/ERC20/ERC20.sol\":9999:10006  account */\n      dup4\n        /* \"@openzeppelin/contracts/token/ERC20/ERC20.sol\":10016:10017  0 */\n      0x00\n        /* \"@openzeppelin/contracts/token/ERC20/ERC20.sol\":10020:10026  amount */\n      dup5\n        /* \"@openzeppelin/contracts/token/ERC20/ERC20.sol\":9979:9998  _afterTokenTransfer */\n      tag_232\n        /* \"@openzeppelin/contracts/token/ERC20/ERC20.sol\":9979:10027  _afterTokenTransfer(account, address(0), amount) */\n      jump\t// in\n    tag_242:\n        /* \"@openzeppelin/contracts/token/ERC20/ERC20.sol\":9440:10034  {... */\n      pop\n        /* \"@openzeppelin/contracts/token/ERC20/ERC20.sol\":9375:10034  function _burn(address account, uint256 amount) internal virtual {... */\n      pop\n      pop\n      jump\t// out\n        /* \"@openzeppelin/contracts/token/ERC20/ERC20.sol\":8520:9055  function _mint(address account, uint256 amount) internal virtual {... */\n    tag_155:\n        /* \"@openzeppelin/contracts/token/ERC20/ERC20.sol\":8622:8623  0 */\n      0x00\n        /* \"@openzeppelin/contracts/token/ERC20/ERC20.sol\":8603:8624  account != address(0) */\n      0xffffffffffffffffffffffffffffffffffffffff\n      and\n        /* \"@openzeppelin/contracts/token/ERC20/ERC20.sol\":8603:8610  account */\n      dup3\n        /* \"@openzeppelin/contracts/token/ERC20/ERC20.sol\":8603:8624  account != address(0) */\n      0xffffffffffffffffffffffffffffffffffffffff\n      and\n      sub\n        /* \"@openzeppelin/contracts/token/ERC20/ERC20.sol\":8595:8660  require(account != address(0), \"ERC20: mint to the zero address\") */\n      tag_244\n      jumpi\n      mload(0x40)\n      0x08c379a000000000000000000000000000000000000000000000000000000000\n      dup2\n      mstore\n      0x04\n      add\n      tag_245\n      swap1\n      tag_246\n      jump\t// in\n    tag_245:\n      mload(0x40)\n      dup1\n      swap2\n      sub\n      swap1\n      revert\n    tag_244:\n        /* \"@openzeppelin/contracts/token/ERC20/ERC20.sol\":8671:8720  _beforeTokenTransfer(address(0), account, amount) */\n      tag_247\n        /* \"@openzeppelin/contracts/token/ERC20/ERC20.sol\":8700:8701  0 */\n      0x00\n        /* \"@openzeppelin/contracts/token/ERC20/ERC20.sol\":8704:8711  account */\n      dup4\n        /* \"@openzeppelin/contracts/token/ERC20/ERC20.sol\":8713:8719  amount */\n      dup4\n        /* \"@openzeppelin/contracts/token/ERC20/ERC20.sol\":8671:8691  _beforeTokenTransfer */\n      tag_226\n        /* \"@openzeppelin/contracts/token/ERC20/ERC20.sol\":8671:8720  _beforeTokenTransfer(address(0), account, amount) */\n      jump\t// in\n    tag_247:\n        /* \"@openzeppelin/contracts/token/ERC20/ERC20.sol\":8747:8753  amount */\n      dup1\n        /* \"@openzeppelin/contracts/token/ERC20/ERC20.sol\":8731:8743  _totalSupply */\n      0x02\n      0x00\n        /* \"@openzeppelin/contracts/token/ERC20/ERC20.sol\":8731:8753  _totalSupply += amount */\n      dup3\n      dup3\n      sload\n      tag_248\n      swap2\n      swap1\n      tag_140\n      jump\t// in\n    tag_248:\n      swap3\n      pop\n      pop\n      dup2\n      swap1\n      sstore\n      pop\n        /* \"@openzeppelin/contracts/token/ERC20/ERC20.sol\":8921:8927  amount */\n      dup1\n        /* \"@openzeppelin/contracts/token/ERC20/ERC20.sol\":8899:8908  _balances */\n      0x00\n        /* \"@openzeppelin/contracts/token/ERC20/ERC20.sol\":8899:8917  _balances[account] */\n      dup1\n        /* \"@openzeppelin/contracts/token/ERC20/ERC20.sol\":8909:8916  account */\n      dup5\n        /* \"@openzeppelin/contracts/token/ERC20/ERC20.sol\":8899:8917  _balances[account] */\n      0xffffffffffffffffffffffffffffffffffffffff\n      and\n      0xffffffffffffffffffffffffffffffffffffffff\n      and\n      dup2\n      mstore\n      0x20\n      add\n      swap1\n      dup2\n      mstore\n      0x20\n      add\n      0x00\n      keccak256\n      0x00\n        /* \"@openzeppelin/contracts/token/ERC20/ERC20.sol\":8899:8927  _balances[account] += amount */\n      dup3\n      dup3\n      sload\n      add\n      swap3\n      pop\n      pop\n      dup2\n      swap1\n      sstore\n      pop\n        /* \"@openzeppelin/contracts/token/ERC20/ERC20.sol\":8973:8980  account */\n      dup2\n        /* \"@openzeppelin/contracts/token/ERC20/ERC20.sol\":8952:8989  Transfer(address(0), account, amount) */\n      0xffffffffffffffffffffffffffffffffffffffff\n      and\n        /* \"@openzeppelin/contracts/token/ERC20/ERC20.sol\":8969:8970  0 */\n      0x00\n        /* \"@openzeppelin/contracts/token/ERC20/ERC20.sol\":8952:8989  Transfer(address(0), account, amount) */\n      0xffffffffffffffffffffffffffffffffffffffff\n      and\n      0xddf252ad1be2c89b69c2b068fc378daa952ba7f163c4a11628f55a4df523b3ef\n        /* \"@openzeppelin/contracts/token/ERC20/ERC20.sol\":8982:8988  amount */\n      dup4\n        /* \"@openzeppelin/contracts/token/ERC20/ERC20.sol\":8952:8989  Transfer(address(0), account, amount) */\n      mload(0x40)\n      tag_249\n      swap2\n      swap1\n      tag_40\n      jump\t// in\n    tag_249:\n      mload(0x40)\n      dup1\n      swap2\n      sub\n      swap1\n      log3\n        /* \"@openzeppelin/contracts/token/ERC20/ERC20.sol\":9000:9048  _afterTokenTransfer(address(0), account, amount) */\n      tag_250\n        /* \"@openzeppelin/contracts/token/ERC20/ERC20.sol\":9028:9029  0 */\n      0x00\n        /* \"@openzeppelin/contracts/token/ERC20/ERC20.sol\":9032:9039  account */\n      dup4\n        /* \"@openzeppelin/contracts/token/ERC20/ERC20.sol\":9041:9047  amount */\n      dup4\n        /* \"@openzeppelin/contracts/token/ERC20/ERC20.sol\":9000:9019  _afterTokenTransfer */\n      tag_232\n        /* \"@openzeppelin/contracts/token/ERC20/ERC20.sol\":9000:9048  _afterTokenTransfer(address(0), account, amount) */\n      jump\t// in\n    tag_250:\n        /* \"@openzeppelin/contracts/token/ERC20/ERC20.sol\":8520:9055  function _mint(address account, uint256 amount) internal virtual {... */\n      pop\n      pop\n      jump\t// out\n        /* \"@openzeppelin/contracts/access/Ownable.sol\":1359:1489  function _checkOwner() internal view virtual {... */\n    tag_161:\n        /* \"@openzeppelin/contracts/access/Ownable.sol\":1433:1445  _msgSender() */\n      tag_252\n        /* \"@openzeppelin/contracts/access/Ownable.sol\":1433:1443  _msgSender */\n      tag_121\n        /* \"@openzeppelin/contracts/access/Ownable.sol\":1433:1445  _msgSender() */\n      jump\t// in\n    tag_252:\n        /* \"@openzeppelin/contracts/access/Ownable.sol\":1422:1445  owner() == _msgSender() */\n      0xffffffffffffffffffffffffffffffffffffffff\n      and\n        /* \"@openzeppelin/contracts/access/Ownable.sol\":1422:1429  owner() */\n      tag_253\n        /* \"@openzeppelin/contracts/access/Ownable.sol\":1422:1427  owner */\n      tag_85\n        /* \"@openzeppelin/contracts/access/Ownable.sol\":1422:1429  owner() */\n      jump\t// in\n    tag_253:\n        /* \"@openzeppelin/contracts/access/Ownable.sol\":1422:1445  owner() == _msgSender() */\n      0xffffffffffffffffffffffffffffffffffffffff\n      and\n      eq\n        /* \"@openzeppelin/contracts/access/Ownable.sol\":1414:1482  require(owner() == _msgSender(), \"Ownable: caller is not the owner\") */\n      tag_254\n      jumpi\n      mload(0x40)\n      0x08c379a000000000000000000000000000000000000000000000000000000000\n      dup2\n      mstore\n      0x04\n      add\n      tag_255\n      swap1\n      tag_256\n      jump\t// in\n    tag_255:\n      mload(0x40)\n      dup1\n      swap2\n      sub\n      swap1\n      revert\n    tag_254:\n        /* \"@openzeppelin/contracts/access/Ownable.sol\":1359:1489  function _checkOwner() internal view virtual {... */\n      jump\t// out\n        /* \"@openzeppelin/contracts/access/Ownable.sol\":2426:2613  function _transferOwnership(address newOwner) internal virtual {... */\n    tag_164:\n        /* \"@openzeppelin/contracts/access/Ownable.sol\":2499:2515  address oldOwner */\n      0x00\n        /* \"@openzeppelin/contracts/access/Ownable.sol\":2518:2524  _owner */\n      0x05\n      0x00\n      swap1\n      sload\n      swap1\n      0x0100\n      exp\n      swap1\n      div\n      0xffffffffffffffffffffffffffffffffffffffff\n      and\n        /* \"@openzeppelin/contracts/access/Ownable.sol\":2499:2524  address oldOwner = _owner */\n      swap1\n      pop\n        /* \"@openzeppelin/contracts/access/Ownable.sol\":2543:2551  newOwner */\n      dup2\n        /* \"@openzeppelin/contracts/access/Ownable.sol\":2534:2540  _owner */\n      0x05\n      0x00\n        /* \"@openzeppelin/contracts/access/Ownable.sol\":2534:2551  _owner = newOwner */\n      0x0100\n      exp\n      dup2\n      sload\n      dup2\n      0xffffffffffffffffffffffffffffffffffffffff\n      mul\n      not\n      and\n      swap1\n      dup4\n      0xffffffffffffffffffffffffffffffffffffffff\n      and\n      mul\n      or\n      swap1\n      sstore\n      pop\n        /* \"@openzeppelin/contracts/access/Ownable.sol\":2597:2605  newOwner */\n      dup2\n        /* \"@openzeppelin/contracts/access/Ownable.sol\":2566:2606  OwnershipTransferred(oldOwner, newOwner) */\n      0xffffffffffffffffffffffffffffffffffffffff\n      and\n        /* \"@openzeppelin/contracts/access/Ownable.sol\":2587:2595  oldOwner */\n      dup2\n        /* \"@openzeppelin/contracts/access/Ownable.sol\":2566:2606  OwnershipTransferred(oldOwner, newOwner) */\n      0xffffffffffffffffffffffffffffffffffffffff\n      and\n      0x8be0079c531659141344cd1fd0a4f28419497f9722a3daafe3b4186f6b6457e0\n      mload(0x40)\n      mload(0x40)\n      dup1\n      swap2\n      sub\n      swap1\n      log3\n        /* \"@openzeppelin/contracts/access/Ownable.sol\":2489:2613  {... */\n      pop\n        /* \"@openzeppelin/contracts/access/Ownable.sol\":2426:2613  function _transferOwnership(address newOwner) internal virtual {... */\n      pop\n      jump\t// out\n        /* \"@openzeppelin/contracts/token/ERC20/ERC20.sol\":12073:12164  function _beforeTokenTransfer(address from, address to, uint256 amount) internal virtual {} */\n    tag_226:\n      pop\n      pop\n      pop\n      jump\t// out\n        /* \"@openzeppelin/contracts/token/ERC20/ERC20.sol\":12752:12842  function _afterTokenTransfer(address from, address to, uint256 amount) internal virtual {} */\n    tag_232:\n      pop\n      pop\n      pop\n      jump\t// out\n        /* \"#utility.yul\":7:106   */\n    tag_260:\n        /* \"#utility.yul\":59:65   */\n      0x00\n        /* \"#utility.yul\":93:98   */\n      dup2\n        /* \"#utility.yul\":87:99   */\n      mload\n        /* \"#utility.yul\":77:99   */\n      swap1\n      pop\n        /* \"#utility.yul\":7:106   */\n      swap2\n      swap1\n      pop\n      jump\t// out\n        /* \"#utility.yul\":112:281   */\n    tag_261:\n        /* \"#utility.yul\":196:207   */\n      0x00\n        /* \"#utility.yul\":230:236   */\n      dup3\n        /* \"#utility.yul\":225:228   */\n      dup3\n        /* \"#utility.yul\":218:237   */\n      mstore\n        /* \"#utility.yul\":270:274   */\n      0x20\n        /* \"#utility.yul\":265:268   */\n      dup3\n        /* \"#utility.yul\":261:275   */\n      add\n        /* \"#utility.yul\":246:275   */\n      swap1\n      pop\n        /* \"#utility.yul\":112:281   */\n      swap3\n      swap2\n      pop\n      pop\n      jump\t// out\n        /* \"#utility.yul\":287:533   */\n    tag_262:\n        /* \"#utility.yul\":368:369   */\n      0x00\n        /* \"#utility.yul\":378:491   */\n    tag_313:\n        /* \"#utility.yul\":392:398   */\n      dup4\n        /* \"#utility.yul\":389:390   */\n      dup2\n        /* \"#utility.yul\":386:399   */\n      lt\n        /* \"#utility.yul\":378:491   */\n      iszero\n      tag_315\n      jumpi\n        /* \"#utility.yul\":477:478   */\n      dup1\n        /* \"#utility.yul\":472:475   */\n      dup3\n        /* \"#utility.yul\":468:479   */\n      add\n        /* \"#utility.yul\":462:480   */\n      mload\n        /* \"#utility.yul\":458:459   */\n      dup2\n        /* \"#utility.yul\":453:456   */\n      dup5\n        /* \"#utility.yul\":449:460   */\n      add\n        /* \"#utility.yul\":442:481   */\n      mstore\n        /* \"#utility.yul\":414:416   */\n      0x20\n        /* \"#utility.yul\":411:412   */\n      dup2\n        /* \"#utility.yul\":407:417   */\n      add\n        /* \"#utility.yul\":402:417   */\n      swap1\n      pop\n        /* \"#utility.yul\":378:491   */\n      jump(tag_313)\n    tag_315:\n        /* \"#utility.yul\":525:526   */\n      0x00\n        /* \"#utility.yul\":516:522   */\n      dup5\n        /* \"#utility.yul\":511:514   */\n      dup5\n        /* \"#utility.yul\":507:523   */\n      add\n        /* \"#utility.yul\":500:527   */\n      mstore\n        /* \"#utility.yul\":349:533   */\n      pop\n        /* \"#utility.yul\":287:533   */\n      pop\n      pop\n      pop\n      jump\t// out\n        /* \"#utility.yul\":539:641   */\n    tag_263:\n        /* \"#utility.yul\":580:586   */\n      0x00\n        /* \"#utility.yul\":631:633   */\n      0x1f\n        /* \"#utility.yul\":627:634   */\n      not\n        /* \"#utility.yul\":622:624   */\n      0x1f\n        /* \"#utility.yul\":615:620   */\n      dup4\n        /* \"#utility.yul\":611:625   */\n      add\n        /* \"#utility.yul\":607:635   */\n      and\n        /* \"#utility.yul\":597:635   */\n      swap1\n      pop\n        /* \"#utility.yul\":539:641   */\n      swap2\n      swap1\n      pop\n      jump\t// out\n        /* \"#utility.yul\":647:1024   */\n    tag_264:\n        /* \"#utility.yul\":735:738   */\n      0x00\n        /* \"#utility.yul\":763:802   */\n      tag_318\n        /* \"#utility.yul\":796:801   */\n      dup3\n        /* \"#utility.yul\":763:802   */\n      tag_260\n      jump\t// in\n    tag_318:\n        /* \"#utility.yul\":818:889   */\n      tag_319\n        /* \"#utility.yul\":882:888   */\n      dup2\n        /* \"#utility.yul\":877:880   */\n      dup6\n        /* \"#utility.yul\":818:889   */\n      tag_261\n      jump\t// in\n    tag_319:\n        /* \"#utility.yul\":811:889   */\n      swap4\n      pop\n        /* \"#utility.yul\":898:963   */\n      tag_320\n        /* \"#utility.yul\":956:962   */\n      dup2\n        /* \"#utility.yul\":951:954   */\n      dup6\n        /* \"#utility.yul\":944:948   */\n      0x20\n        /* \"#utility.yul\":937:942   */\n      dup7\n        /* \"#utility.yul\":933:949   */\n      add\n        /* \"#utility.yul\":898:963   */\n      tag_262\n      jump\t// in\n    tag_320:\n        /* \"#utility.yul\":988:1017   */\n      tag_321\n        /* \"#utility.yul\":1010:1016   */\n      dup2\n        /* \"#utility.yul\":988:1017   */\n      tag_263\n      jump\t// in\n    tag_321:\n        /* \"#utility.yul\":983:986   */\n      dup5\n        /* \"#utility.yul\":979:1018   */\n      add\n        /* \"#utility.yul\":972:1018   */\n      swap2\n      pop\n        /* \"#utility.yul\":739:1024   */\n      pop\n        /* \"#utility.yul\":647:1024   */\n      swap3\n      swap2\n      pop\n      pop\n      jump\t// out\n        /* \"#utility.yul\":1030:1343   */\n    tag_30:\n        /* \"#utility.yul\":1143:1147   */\n      0x00\n        /* \"#utility.yul\":1181:1183   */\n      0x20\n        /* \"#utility.yul\":1170:1179   */\n      dup3\n        /* \"#utility.yul\":1166:1184   */\n      add\n        /* \"#utility.yul\":1158:1184   */\n      swap1\n      pop\n        /* \"#utility.yul\":1230:1239   */\n      dup2\n        /* \"#utility.yul\":1224:1228   */\n      dup2\n        /* \"#utility.yul\":1220:1240   */\n      sub\n        /* \"#utility.yul\":1216:1217   */\n      0x00\n        /* \"#utility.yul\":1205:1214   */\n      dup4\n        /* \"#utility.yul\":1201:1218   */\n      add\n        /* \"#utility.yul\":1194:1241   */\n      mstore\n        /* \"#utility.yul\":1258:1336   */\n      tag_323\n        /* \"#utility.yul\":1331:1335   */\n      dup2\n        /* \"#utility.yul\":1322:1328   */\n      dup5\n        /* \"#utility.yul\":1258:1336   */\n      tag_264\n      jump\t// in\n    tag_323:\n        /* \"#utility.yul\":1250:1336   */\n      swap1\n      pop\n        /* \"#utility.yul\":1030:1343   */\n      swap3\n      swap2\n      pop\n      pop\n      jump\t// out\n        /* \"#utility.yul\":1430:1547   */\n    tag_266:\n        /* \"#utility.yul\":1539:1540   */\n      0x00\n        /* \"#utility.yul\":1536:1537   */\n      dup1\n        /* \"#utility.yul\":1529:1541   */\n      revert\n        /* \"#utility.yul\":1676:1802   */\n    tag_268:\n        /* \"#utility.yul\":1713:1720   */\n      0x00\n        /* \"#utility.yul\":1753:1795   */\n      0xffffffffffffffffffffffffffffffffffffffff\n        /* \"#utility.yul\":1746:1751   */\n      dup3\n        /* \"#utility.yul\":1742:1796   */\n      and\n        /* \"#utility.yul\":1731:1796   */\n      swap1\n      pop\n        /* \"#utility.yul\":1676:1802   */\n      swap2\n      swap1\n      pop\n      jump\t// out\n        /* \"#utility.yul\":1808:1904   */\n    tag_269:\n        /* \"#utility.yul\":1845:1852   */\n      0x00\n        /* \"#utility.yul\":1874:1898   */\n      tag_329\n        /* \"#utility.yul\":1892:1897   */\n      dup3\n        /* \"#utility.yul\":1874:1898   */\n      tag_268\n      jump\t// in\n    tag_329:\n        /* \"#utility.yul\":1863:1898   */\n      swap1\n      pop\n        /* \"#utility.yul\":1808:1904   */\n      swap2\n      swap1\n      pop\n      jump\t// out\n        /* \"#utility.yul\":1910:2032   */\n    tag_270:\n        /* \"#utility.yul\":1983:2007   */\n      tag_331\n        /* \"#utility.yul\":2001:2006   */\n      dup2\n        /* \"#utility.yul\":1983:2007   */\n      tag_269\n      jump\t// in\n    tag_331:\n        /* \"#utility.yul\":1976:1981   */\n      dup2\n        /* \"#utility.yul\":1973:2008   */\n      eq\n        /* \"#utility.yul\":1963:2026   */\n      tag_332\n      jumpi\n        /* \"#utility.yul\":2022:2023   */\n      0x00\n        /* \"#utility.yul\":2019:2020   */\n      dup1\n        /* \"#utility.yul\":2012:2024   */\n      revert\n        /* \"#utility.yul\":1963:2026   */\n    tag_332:\n        /* \"#utility.yul\":1910:2032   */\n      pop\n      jump\t// out\n        /* \"#utility.yul\":2038:2177   */\n    tag_271:\n        /* \"#utility.yul\":2084:2089   */\n      0x00\n        /* \"#utility.yul\":2122:2128   */\n      dup2\n        /* \"#utility.yul\":2109:2129   */\n      calldataload\n        /* \"#utility.yul\":2100:2129   */\n      swap1\n      pop\n        /* \"#utility.yul\":2138:2171   */\n      tag_334\n        /* \"#utility.yul\":2165:2170   */\n      dup2\n        /* \"#utility.yul\":2138:2171   */\n      tag_270\n      jump\t// in\n    tag_334:\n        /* \"#utility.yul\":2038:2177   */\n      swap3\n      swap2\n      pop\n      pop\n      jump\t// out\n        /* \"#utility.yul\":2183:2260   */\n    tag_272:\n        /* \"#utility.yul\":2220:2227   */\n      0x00\n        /* \"#utility.yul\":2249:2254   */\n      dup2\n        /* \"#utility.yul\":2238:2254   */\n      swap1\n      pop\n        /* \"#utility.yul\":2183:2260   */\n      swap2\n      swap1\n      pop\n      jump\t// out\n        /* \"#utility.yul\":2266:2388   */\n    tag_273:\n        /* \"#utility.yul\":2339:2363   */\n      tag_337\n        /* \"#utility.yul\":2357:2362   */\n      dup2\n        /* \"#utility.yul\":2339:2363   */\n      tag_272\n      jump\t// in\n    tag_337:\n        /* \"#utility.yul\":2332:2337   */\n      dup2\n        /* \"#utility.yul\":2329:2364   */\n      eq\n        /* \"#utility.yul\":2319:2382   */\n      tag_338\n      jumpi\n        /* \"#utility.yul\":2378:2379   */\n      0x00\n        /* \"#utility.yul\":2375:2376   */\n      dup1\n        /* \"#utility.yul\":2368:2380   */\n      revert\n        /* \"#utility.yul\":2319:2382   */\n    tag_338:\n        /* \"#utility.yul\":2266:2388   */\n      pop\n      jump\t// out\n        /* \"#utility.yul\":2394:2533   */\n    tag_274:\n        /* \"#utility.yul\":2440:2445   */\n      0x00\n        /* \"#utility.yul\":2478:2484   */\n      dup2\n        /* \"#utility.yul\":2465:2485   */\n      calldataload\n        /* \"#utility.yul\":2456:2485   */\n      swap1\n      pop\n        /* \"#utility.yul\":2494:2527   */\n      tag_340\n        /* \"#utility.yul\":2521:2526   */\n      dup2\n        /* \"#utility.yul\":2494:2527   */\n      tag_273\n      jump\t// in\n    tag_340:\n        /* \"#utility.yul\":2394:2533   */\n      swap3\n      swap2\n      pop\n      pop\n      jump\t// out\n        /* \"#utility.yul\":2539:3013   */\n    tag_33:\n        /* \"#utility.yul\":2607:2613   */\n      0x00\n        /* \"#utility.yul\":2615:2621   */\n      dup1\n        /* \"#utility.yul\":2664:2666   */\n      0x40\n        /* \"#utility.yul\":2652:2661   */\n      dup4\n        /* \"#utility.yul\":2643:2650   */\n      dup6\n        /* \"#utility.yul\":2639:2662   */\n      sub\n        /* \"#utility.yul\":2635:2667   */\n      slt\n        /* \"#utility.yul\":2632:2751   */\n      iszero\n      tag_342\n      jumpi\n        /* \"#utility.yul\":2670:2749   */\n      tag_343\n      tag_266\n      jump\t// in\n    tag_343:\n        /* \"#utility.yul\":2632:2751   */\n    tag_342:\n        /* \"#utility.yul\":2790:2791   */\n      0x00\n        /* \"#utility.yul\":2815:2868   */\n      tag_344\n        /* \"#utility.yul\":2860:2867   */\n      dup6\n        /* \"#utility.yul\":2851:2857   */\n      dup3\n        /* \"#utility.yul\":2840:2849   */\n      dup7\n        /* \"#utility.yul\":2836:2858   */\n      add\n        /* \"#utility.yul\":2815:2868   */\n      tag_271\n      jump\t// in\n    tag_344:\n        /* \"#utility.yul\":2805:2868   */\n      swap3\n      pop\n        /* \"#utility.yul\":2761:2878   */\n      pop\n        /* \"#utility.yul\":2917:2919   */\n      0x20\n        /* \"#utility.yul\":2943:2996   */\n      tag_345\n        /* \"#utility.yul\":2988:2995   */\n      dup6\n        /* \"#utility.yul\":2979:2985   */\n      dup3\n        /* \"#utility.yul\":2968:2977   */\n      dup7\n        /* \"#utility.yul\":2964:2986   */\n      add\n        /* \"#utility.yul\":2943:2996   */\n      tag_274\n      jump\t// in\n    tag_345:\n        /* \"#utility.yul\":2933:2996   */\n      swap2\n      pop\n        /* \"#utility.yul\":2888:3006   */\n      pop\n        /* \"#utility.yul\":2539:3013   */\n      swap3\n      pop\n      swap3\n      swap1\n      pop\n      jump\t// out\n        /* \"#utility.yul\":3019:3109   */\n    tag_275:\n        /* \"#utility.yul\":3053:3060   */\n      0x00\n        /* \"#utility.yul\":3096:3101   */\n      dup2\n        /* \"#utility.yul\":3089:3102   */\n      iszero\n        /* \"#utility.yul\":3082:3103   */\n      iszero\n        /* \"#utility.yul\":3071:3103   */\n      swap1\n      pop\n        /* \"#utility.yul\":3019:3109   */\n      swap2\n      swap1\n      pop\n      jump\t// out\n        /* \"#utility.yul\":3115:3224   */\n    tag_276:\n        /* \"#utility.yul\":3196:3217   */\n      tag_348\n        /* \"#utility.yul\":3211:3216   */\n      dup2\n        /* \"#utility.yul\":3196:3217   */\n      tag_275\n      jump\t// in\n    tag_348:\n        /* \"#utility.yul\":3191:3194   */\n      dup3\n        /* \"#utility.yul\":3184:3218   */\n      mstore\n        /* \"#utility.yul\":3115:3224   */\n      pop\n      pop\n      jump\t// out\n        /* \"#utility.yul\":3230:3440   */\n    tag_36:\n        /* \"#utility.yul\":3317:3321   */\n      0x00\n        /* \"#utility.yul\":3355:3357   */\n      0x20\n        /* \"#utility.yul\":3344:3353   */\n      dup3\n        /* \"#utility.yul\":3340:3358   */\n      add\n        /* \"#utility.yul\":3332:3358   */\n      swap1\n      pop\n        /* \"#utility.yul\":3368:3433   */\n      tag_350\n        /* \"#utility.yul\":3430:3431   */\n      0x00\n        /* \"#utility.yul\":3419:3428   */\n      dup4\n        /* \"#utility.yul\":3415:3432   */\n      add\n        /* \"#utility.yul\":3406:3412   */\n      dup5\n        /* \"#utility.yul\":3368:3433   */\n      tag_276\n      jump\t// in\n    tag_350:\n        /* \"#utility.yul\":3230:3440   */\n      swap3\n      swap2\n      pop\n      pop\n      jump\t// out\n        /* \"#utility.yul\":3446:3564   */\n    tag_277:\n        /* \"#utility.yul\":3533:3557   */\n      tag_352\n        /* \"#utility.yul\":3551:3556   */\n      dup2\n        /* \"#utility.yul\":3533:3557   */\n      tag_272\n      jump\t// in\n    tag_352:\n        /* \"#utility.yul\":3528:3531   */\n      dup3\n        /* \"#utility.yul\":3521:3558   */\n      mstore\n        /* \"#utility.yul\":3446:3564   */\n      pop\n      pop\n      jump\t// out\n        /* \"#utility.yul\":3570:3792   */\n    tag_40:\n        /* \"#utility.yul\":3663:3667   */\n      0x00\n        /* \"#utility.yul\":3701:3703   */\n      0x20\n        /* \"#utility.yul\":3690:3699   */\n      dup3\n        /* \"#utility.yul\":3686:3704   */\n      add\n        /* \"#utility.yul\":3678:3704   */\n      swap1\n      pop\n        /* \"#utility.yul\":3714:3785   */\n      tag_354\n        /* \"#utility.yul\":3782:3783   */\n      0x00\n        /* \"#utility.yul\":3771:3780   */\n      dup4\n        /* \"#utility.yul\":3767:3784   */\n      add\n        /* \"#utility.yul\":3758:3764   */\n      dup5\n        /* \"#utility.yul\":3714:3785   */\n      tag_277\n      jump\t// in\n    tag_354:\n        /* \"#utility.yul\":3570:3792   */\n      swap3\n      swap2\n      pop\n      pop\n      jump\t// out\n        /* \"#utility.yul\":3798:4417   */\n    tag_43:\n        /* \"#utility.yul\":3875:3881   */\n      0x00\n        /* \"#utility.yul\":3883:3889   */\n      dup1\n        /* \"#utility.yul\":3891:3897   */\n      0x00\n        /* \"#utility.yul\":3940:3942   */\n      0x60\n        /* \"#utility.yul\":3928:3937   */\n      dup5\n        /* \"#utility.yul\":3919:3926   */\n      dup7\n        /* \"#utility.yul\":3915:3938   */\n      sub\n        /* \"#utility.yul\":3911:3943   */\n      slt\n        /* \"#utility.yul\":3908:4027   */\n      iszero\n      tag_356\n      jumpi\n        /* \"#utility.yul\":3946:4025   */\n      tag_357\n      tag_266\n      jump\t// in\n    tag_357:\n        /* \"#utility.yul\":3908:4027   */\n    tag_356:\n        /* \"#utility.yul\":4066:4067   */\n      0x00\n        /* \"#utility.yul\":4091:4144   */\n      tag_358\n        /* \"#utility.yul\":4136:4143   */\n      dup7\n        /* \"#utility.yul\":4127:4133   */\n      dup3\n        /* \"#utility.yul\":4116:4125   */\n      dup8\n        /* \"#utility.yul\":4112:4134   */\n      add\n        /* \"#utility.yul\":4091:4144   */\n      tag_271\n      jump\t// in\n    tag_358:\n        /* \"#utility.yul\":4081:4144   */\n      swap4\n      pop\n        /* \"#utility.yul\":4037:4154   */\n      pop\n        /* \"#utility.yul\":4193:4195   */\n      0x20\n        /* \"#utility.yul\":4219:4272   */\n      tag_359\n        /* \"#utility.yul\":4264:4271   */\n      dup7\n        /* \"#utility.yul\":4255:4261   */\n      dup3\n        /* \"#utility.yul\":4244:4253   */\n      dup8\n        /* \"#utility.yul\":4240:4262   */\n      add\n        /* \"#utility.yul\":4219:4272   */\n      tag_271\n      jump\t// in\n    tag_359:\n        /* \"#utility.yul\":4209:4272   */\n      swap3\n      pop\n        /* \"#utility.yul\":4164:4282   */\n      pop\n        /* \"#utility.yul\":4321:4323   */\n      0x40\n        /* \"#utility.yul\":4347:4400   */\n      tag_360\n        /* \"#utility.yul\":4392:4399   */\n      dup7\n        /* \"#utility.yul\":4383:4389   */\n      dup3\n        /* \"#utility.yul\":4372:4381   */\n      dup8\n        /* \"#utility.yul\":4368:4390   */\n      add\n        /* \"#utility.yul\":4347:4400   */\n      tag_274\n      jump\t// in\n    tag_360:\n        /* \"#utility.yul\":4337:4400   */\n      swap2\n      pop\n        /* \"#utility.yul\":4292:4410   */\n      pop\n        /* \"#utility.yul\":3798:4417   */\n      swap3\n      pop\n      swap3\n      pop\n      swap3\n      jump\t// out\n        /* \"#utility.yul\":4423:5188   */\n    tag_48:\n        /* \"#utility.yul\":4509:4515   */\n      0x00\n        /* \"#utility.yul\":4517:4523   */\n      dup1\n        /* \"#utility.yul\":4525:4531   */\n      0x00\n        /* \"#utility.yul\":4533:4539   */\n      dup1\n        /* \"#utility.yul\":4582:4585   */\n      0x80\n        /* \"#utility.yul\":4570:4579   */\n      dup6\n        /* \"#utility.yul\":4561:4568   */\n      dup8\n        /* \"#utility.yul\":4557:4580   */\n      sub\n        /* \"#utility.yul\":4553:4586   */\n      slt\n        /* \"#utility.yul\":4550:4670   */\n      iszero\n      tag_362\n      jumpi\n        /* \"#utility.yul\":4589:4668   */\n      tag_363\n      tag_266\n      jump\t// in\n    tag_363:\n        /* \"#utility.yul\":4550:4670   */\n    tag_362:\n        /* \"#utility.yul\":4709:4710   */\n      0x00\n        /* \"#utility.yul\":4734:4787   */\n      tag_364\n        /* \"#utility.yul\":4779:4786   */\n      dup8\n        /* \"#utility.yul\":4770:4776   */\n      dup3\n        /* \"#utility.yul\":4759:4768   */\n      dup9\n        /* \"#utility.yul\":4755:4777   */\n      add\n        /* \"#utility.yul\":4734:4787   */\n      tag_271\n      jump\t// in\n    tag_364:\n        /* \"#utility.yul\":4724:4787   */\n      swap5\n      pop\n        /* \"#utility.yul\":4680:4797   */\n      pop\n        /* \"#utility.yul\":4836:4838   */\n      0x20\n        /* \"#utility.yul\":4862:4915   */\n      tag_365\n        /* \"#utility.yul\":4907:4914   */\n      dup8\n        /* \"#utility.yul\":4898:4904   */\n      dup3\n        /* \"#utility.yul\":4887:4896   */\n      dup9\n        /* \"#utility.yul\":4883:4905   */\n      add\n        /* \"#utility.yul\":4862:4915   */\n      tag_271\n      jump\t// in\n    tag_365:\n        /* \"#utility.yul\":4852:4915   */\n      swap4\n      pop\n        /* \"#utility.yul\":4807:4925   */\n      pop\n        /* \"#utility.yul\":4964:4966   */\n      0x40\n        /* \"#utility.yul\":4990:5043   */\n      tag_366\n        /* \"#utility.yul\":5035:5042   */\n      dup8\n        /* \"#utility.yul\":5026:5032   */\n      dup3\n        /* \"#utility.yul\":5015:5024   */\n      dup9\n        /* \"#utility.yul\":5011:5033   */\n      add\n        /* \"#utility.yul\":4990:5043   */\n      tag_271\n      jump\t// in\n    tag_366:\n        /* \"#utility.yul\":4980:5043   */\n      swap3\n      pop\n        /* \"#utility.yul\":4935:5053   */\n      pop\n        /* \"#utility.yul\":5092:5094   */\n      0x60\n        /* \"#utility.yul\":5118:5171   */\n      tag_367\n        /* \"#utility.yul\":5163:5170   */\n      dup8\n        /* \"#utility.yul\":5154:5160   */\n      dup3\n        /* \"#utility.yul\":5143:5152   */\n      dup9\n        /* \"#utility.yul\":5139:5161   */\n      add\n        /* \"#utility.yul\":5118:5171   */\n      tag_274\n      jump\t// in\n    tag_367:\n        /* \"#utility.yul\":5108:5171   */\n      swap2\n      pop\n        /* \"#utility.yul\":5063:5181   */\n      pop\n        /* \"#utility.yul\":4423:5188   */\n      swap3\n      swap6\n      swap2\n      swap5\n      pop\n      swap3\n      pop\n      jump\t// out\n        /* \"#utility.yul\":5194:5280   */\n    tag_278:\n        /* \"#utility.yul\":5229:5236   */\n      0x00\n        /* \"#utility.yul\":5269:5273   */\n      0xff\n        /* \"#utility.yul\":5262:5267   */\n      dup3\n        /* \"#utility.yul\":5258:5274   */\n      and\n        /* \"#utility.yul\":5247:5274   */\n      swap1\n      pop\n        /* \"#utility.yul\":5194:5280   */\n      swap2\n      swap1\n      pop\n      jump\t// out\n        /* \"#utility.yul\":5286:5398   */\n    tag_279:\n        /* \"#utility.yul\":5369:5391   */\n      tag_370\n        /* \"#utility.yul\":5385:5390   */\n      dup2\n        /* \"#utility.yul\":5369:5391   */\n      tag_278\n      jump\t// in\n    tag_370:\n        /* \"#utility.yul\":5364:5367   */\n      dup3\n        /* \"#utility.yul\":5357:5392   */\n      mstore\n        /* \"#utility.yul\":5286:5398   */\n      pop\n      pop\n      jump\t// out\n        /* \"#utility.yul\":5404:5618   */\n    tag_54:\n        /* \"#utility.yul\":5493:5497   */\n      0x00\n        /* \"#utility.yul\":5531:5533   */\n      0x20\n        /* \"#utility.yul\":5520:5529   */\n      dup3\n        /* \"#utility.yul\":5516:5534   */\n      add\n        /* \"#utility.yul\":5508:5534   */\n      swap1\n      pop\n        /* \"#utility.yul\":5544:5611   */\n      tag_372\n        /* \"#utility.yul\":5608:5609   */\n      0x00\n        /* \"#utility.yul\":5597:5606   */\n      dup4\n        /* \"#utility.yul\":5593:5610   */\n      add\n        /* \"#utility.yul\":5584:5590   */\n      dup5\n        /* \"#utility.yul\":5544:5611   */\n      tag_279\n      jump\t// in\n    tag_372:\n        /* \"#utility.yul\":5404:5618   */\n      swap3\n      swap2\n      pop\n      pop\n      jump\t// out\n        /* \"#utility.yul\":5624:5953   */\n    tag_64:\n        /* \"#utility.yul\":5683:5689   */\n      0x00\n        /* \"#utility.yul\":5732:5734   */\n      0x20\n        /* \"#utility.yul\":5720:5729   */\n      dup3\n        /* \"#utility.yul\":5711:5718   */\n      dup5\n        /* \"#utility.yul\":5707:5730   */\n      sub\n        /* \"#utility.yul\":5703:5735   */\n      slt\n        /* \"#utility.yul\":5700:5819   */\n      iszero\n      tag_374\n      jumpi\n        /* \"#utility.yul\":5738:5817   */\n      tag_375\n      tag_266\n      jump\t// in\n    tag_375:\n        /* \"#utility.yul\":5700:5819   */\n    tag_374:\n        /* \"#utility.yul\":5858:5859   */\n      0x00\n        /* \"#utility.yul\":5883:5936   */\n      tag_376\n        /* \"#utility.yul\":5928:5935   */\n      dup5\n        /* \"#utility.yul\":5919:5925   */\n      dup3\n        /* \"#utility.yul\":5908:5917   */\n      dup6\n        /* \"#utility.yul\":5904:5926   */\n      add\n        /* \"#utility.yul\":5883:5936   */\n      tag_274\n      jump\t// in\n    tag_376:\n        /* \"#utility.yul\":5873:5936   */\n      swap2\n      pop\n        /* \"#utility.yul\":5829:5946   */\n      pop\n        /* \"#utility.yul\":5624:5953   */\n      swap3\n      swap2\n      pop\n      pop\n      jump\t// out\n        /* \"#utility.yul\":5959:6288   */\n    tag_76:\n        /* \"#utility.yul\":6018:6024   */\n      0x00\n        /* \"#utility.yul\":6067:6069   */\n      0x20\n        /* \"#utility.yul\":6055:6064   */\n      dup3\n        /* \"#utility.yul\":6046:6053   */\n      dup5\n        /* \"#utility.yul\":6042:6065   */\n      sub\n        /* \"#utility.yul\":6038:6070   */\n      slt\n        /* \"#utility.yul\":6035:6154   */\n      iszero\n      tag_378\n      jumpi\n        /* \"#utility.yul\":6073:6152   */\n      tag_379\n      tag_266\n      jump\t// in\n    tag_379:\n        /* \"#utility.yul\":6035:6154   */\n    tag_378:\n        /* \"#utility.yul\":6193:6194   */\n      0x00\n        /* \"#utility.yul\":6218:6271   */\n      tag_380\n        /* \"#utility.yul\":6263:6270   */\n      dup5\n        /* \"#utility.yul\":6254:6260   */\n      dup3\n        /* \"#utility.yul\":6243:6252   */\n      dup6\n        /* \"#utility.yul\":6239:6261   */\n      add\n        /* \"#utility.yul\":6218:6271   */\n      tag_271\n      jump\t// in\n    tag_380:\n        /* \"#utility.yul\":6208:6271   */\n      swap2\n      pop\n        /* \"#utility.yul\":6164:6281   */\n      pop\n        /* \"#utility.yul\":5959:6288   */\n      swap3\n      swap2\n      pop\n      pop\n      jump\t// out\n        /* \"#utility.yul\":6294:6412   */\n    tag_280:\n        /* \"#utility.yul\":6381:6405   */\n      tag_382\n        /* \"#utility.yul\":6399:6404   */\n      dup2\n        /* \"#utility.yul\":6381:6405   */\n      tag_269\n      jump\t// in\n    tag_382:\n        /* \"#utility.yul\":6376:6379   */\n      dup3\n        /* \"#utility.yul\":6369:6406   */\n      mstore\n        /* \"#utility.yul\":6294:6412   */\n      pop\n      pop\n      jump\t// out\n        /* \"#utility.yul\":6418:6640   */\n    tag_87:\n        /* \"#utility.yul\":6511:6515   */\n      0x00\n        /* \"#utility.yul\":6549:6551   */\n      0x20\n        /* \"#utility.yul\":6538:6547   */\n      dup3\n        /* \"#utility.yul\":6534:6552   */\n      add\n        /* \"#utility.yul\":6526:6552   */\n      swap1\n      pop\n        /* \"#utility.yul\":6562:6633   */\n      tag_384\n        /* \"#utility.yul\":6630:6631   */\n      0x00\n        /* \"#utility.yul\":6619:6628   */\n      dup4\n        /* \"#utility.yul\":6615:6632   */\n      add\n        /* \"#utility.yul\":6606:6612   */\n      dup5\n        /* \"#utility.yul\":6562:6633   */\n      tag_280\n      jump\t// in\n    tag_384:\n        /* \"#utility.yul\":6418:6640   */\n      swap3\n      swap2\n      pop\n      pop\n      jump\t// out\n        /* \"#utility.yul\":6646:7120   */\n    tag_101:\n        /* \"#utility.yul\":6714:6720   */\n      0x00\n        /* \"#utility.yul\":6722:6728   */\n      dup1\n        /* \"#utility.yul\":6771:6773   */\n      0x40\n        /* \"#utility.yul\":6759:6768   */\n      dup4\n        /* \"#utility.yul\":6750:6757   */\n      dup6\n        /* \"#utility.yul\":6746:6769   */\n      sub\n        /* \"#utility.yul\":6742:6774   */\n      slt\n        /* \"#utility.yul\":6739:6858   */\n      iszero\n      tag_386\n      jumpi\n        /* \"#utility.yul\":6777:6856   */\n      tag_387\n      tag_266\n      jump\t// in\n    tag_387:\n        /* \"#utility.yul\":6739:6858   */\n    tag_386:\n        /* \"#utility.yul\":6897:6898   */\n      0x00\n        /* \"#utility.yul\":6922:6975   */\n      tag_388\n        /* \"#utility.yul\":6967:6974   */\n      dup6\n        /* \"#utility.yul\":6958:6964   */\n      dup3\n        /* \"#utility.yul\":6947:6956   */\n      dup7\n        /* \"#utility.yul\":6943:6965   */\n      add\n        /* \"#utility.yul\":6922:6975   */\n      tag_271\n      jump\t// in\n    tag_388:\n        /* \"#utility.yul\":6912:6975   */\n      swap3\n      pop\n        /* \"#utility.yul\":6868:6985   */\n      pop\n        /* \"#utility.yul\":7024:7026   */\n      0x20\n        /* \"#utility.yul\":7050:7103   */\n      tag_389\n        /* \"#utility.yul\":7095:7102   */\n      dup6\n        /* \"#utility.yul\":7086:7092   */\n      dup3\n        /* \"#utility.yul\":7075:7084   */\n      dup7\n        /* \"#utility.yul\":7071:7093   */\n      add\n        /* \"#utility.yul\":7050:7103   */\n      tag_271\n      jump\t// in\n    tag_389:\n        /* \"#utility.yul\":7040:7103   */\n      swap2\n      pop\n        /* \"#utility.yul\":6995:7113   */\n      pop\n        /* \"#utility.yul\":6646:7120   */\n      swap3\n      pop\n      swap3\n      swap1\n      pop\n      jump\t// out\n        /* \"#utility.yul\":7126:7306   */\n    tag_281:\n        /* \"#utility.yul\":7174:7251   */\n      0x4e487b7100000000000000000000000000000000000000000000000000000000\n        /* \"#utility.yul\":7171:7172   */\n      0x00\n        /* \"#utility.yul\":7164:7252   */\n      mstore\n        /* \"#utility.yul\":7271:7275   */\n      0x22\n        /* \"#utility.yul\":7268:7269   */\n      0x04\n        /* \"#utility.yul\":7261:7276   */\n      mstore\n        /* \"#utility.yul\":7295:7299   */\n      0x24\n        /* \"#utility.yul\":7292:7293   */\n      0x00\n        /* \"#utility.yul\":7285:7300   */\n      revert\n        /* \"#utility.yul\":7312:7632   */\n    tag_114:\n        /* \"#utility.yul\":7356:7362   */\n      0x00\n        /* \"#utility.yul\":7393:7394   */\n      0x02\n        /* \"#utility.yul\":7387:7391   */\n      dup3\n        /* \"#utility.yul\":7383:7395   */\n      div\n        /* \"#utility.yul\":7373:7395   */\n      swap1\n      pop\n        /* \"#utility.yul\":7440:7441   */\n      0x01\n        /* \"#utility.yul\":7434:7438   */\n      dup3\n        /* \"#utility.yul\":7430:7442   */\n      and\n        /* \"#utility.yul\":7461:7479   */\n      dup1\n        /* \"#utility.yul\":7451:7532   */\n      tag_392\n      jumpi\n        /* \"#utility.yul\":7517:7521   */\n      0x7f\n        /* \"#utility.yul\":7509:7515   */\n      dup3\n        /* \"#utility.yul\":7505:7522   */\n      and\n        /* \"#utility.yul\":7495:7522   */\n      swap2\n      pop\n        /* \"#utility.yul\":7451:7532   */\n    tag_392:\n        /* \"#utility.yul\":7579:7581   */\n      0x20\n        /* \"#utility.yul\":7571:7577   */\n      dup3\n        /* \"#utility.yul\":7568:7582   */\n      lt\n        /* \"#utility.yul\":7548:7566   */\n      dup2\n        /* \"#utility.yul\":7545:7583   */\n      sub\n        /* \"#utility.yul\":7542:7626   */\n      tag_393\n      jumpi\n        /* \"#utility.yul\":7598:7616   */\n      tag_394\n      tag_281\n      jump\t// in\n    tag_394:\n        /* \"#utility.yul\":7542:7626   */\n    tag_393:\n        /* \"#utility.yul\":7363:7632   */\n      pop\n        /* \"#utility.yul\":7312:7632   */\n      swap2\n      swap1\n      pop\n      jump\t// out\n        /* \"#utility.yul\":7638:7818   */\n    tag_282:\n        /* \"#utility.yul\":7686:7763   */\n      0x4e487b7100000000000000000000000000000000000000000000000000000000\n        /* \"#utility.yul\":7683:7684   */\n      0x00\n        /* \"#utility.yul\":7676:7764   */\n      mstore\n        /* \"#utility.yul\":7783:7787   */\n      0x11\n        /* \"#utility.yul\":7780:7781   */\n      0x04\n        /* \"#utility.yul\":7773:7788   */\n      mstore\n        /* \"#utility.yul\":7807:7811   */\n      0x24\n        /* \"#utility.yul\":7804:7805   */\n      0x00\n        /* \"#utility.yul\":7797:7812   */\n      revert\n        /* \"#utility.yul\":7824:8015   */\n    tag_140:\n        /* \"#utility.yul\":7864:7867   */\n      0x00\n        /* \"#utility.yul\":7883:7903   */\n      tag_397\n        /* \"#utility.yul\":7901:7902   */\n      dup3\n        /* \"#utility.yul\":7883:7903   */\n      tag_272\n      jump\t// in\n    tag_397:\n        /* \"#utility.yul\":7878:7903   */\n      swap2\n      pop\n        /* \"#utility.yul\":7917:7937   */\n      tag_398\n        /* \"#utility.yul\":7935:7936   */\n      dup4\n        /* \"#utility.yul\":7917:7937   */\n      tag_272\n      jump\t// in\n    tag_398:\n        /* \"#utility.yul\":7912:7937   */\n      swap3\n      pop\n        /* \"#utility.yul\":7960:7961   */\n      dup3\n        /* \"#utility.yul\":7957:7958   */\n      dup3\n        /* \"#utility.yul\":7953:7962   */\n      add\n        /* \"#utility.yul\":7946:7962   */\n      swap1\n      pop\n        /* \"#utility.yul\":7981:7984   */\n      dup1\n        /* \"#utility.yul\":7978:7979   */\n      dup3\n        /* \"#utility.yul\":7975:7985   */\n      gt\n        /* \"#utility.yul\":7972:8008   */\n      iszero\n      tag_399\n      jumpi\n        /* \"#utility.yul\":7988:8006   */\n      tag_400\n      tag_282\n      jump\t// in\n    tag_400:\n        /* \"#utility.yul\":7972:8008   */\n    tag_399:\n        /* \"#utility.yul\":7824:8015   */\n      swap3\n      swap2\n      pop\n      pop\n      jump\t// out\n        /* \"#utility.yul\":8021:8184   */\n    tag_283:\n        /* \"#utility.yul\":8161:8176   */\n      0x4e6f205265456e7472616e637900000000000000000000000000000000000000\n        /* \"#utility.yul\":8157:8158   */\n      0x00\n        /* \"#utility.yul\":8149:8155   */\n      dup3\n        /* \"#utility.yul\":8145:8159   */\n      add\n        /* \"#utility.yul\":8138:8177   */\n      mstore\n        /* \"#utility.yul\":8021:8184   */\n      pop\n      jump\t// out\n        /* \"#utility.yul\":8190:8556   */\n    tag_284:\n        /* \"#utility.yul\":8332:8335   */\n      0x00\n        /* \"#utility.yul\":8353:8420   */\n      tag_403\n        /* \"#utility.yul\":8417:8419   */\n      0x0d\n        /* \"#utility.yul\":8412:8415   */\n      dup4\n        /* \"#utility.yul\":8353:8420   */\n      tag_261\n      jump\t// in\n    tag_403:\n        /* \"#utility.yul\":8346:8420   */\n      swap2\n      pop\n        /* \"#utility.yul\":8429:8522   */\n      tag_404\n        /* \"#utility.yul\":8518:8521   */\n      dup3\n        /* \"#utility.yul\":8429:8522   */\n      tag_283\n      jump\t// in\n    tag_404:\n        /* \"#utility.yul\":8547:8549   */\n      0x20\n        /* \"#utility.yul\":8542:8545   */\n      dup3\n        /* \"#utility.yul\":8538:8550   */\n      add\n        /* \"#utility.yul\":8531:8550   */\n      swap1\n      pop\n        /* \"#utility.yul\":8190:8556   */\n      swap2\n      swap1\n      pop\n      jump\t// out\n        /* \"#utility.yul\":8562:8981   */\n    tag_148:\n        /* \"#utility.yul\":8728:8732   */\n      0x00\n        /* \"#utility.yul\":8766:8768   */\n      0x20\n        /* \"#utility.yul\":8755:8764   */\n      dup3\n        /* \"#utility.yul\":8751:8769   */\n      add\n        /* \"#utility.yul\":8743:8769   */\n      swap1\n      pop\n        /* \"#utility.yul\":8815:8824   */\n      dup2\n        /* \"#utility.yul\":8809:8813   */\n      dup2\n        /* \"#utility.yul\":8805:8825   */\n      sub\n        /* \"#utility.yul\":8801:8802   */\n      0x00\n        /* \"#utility.yul\":8790:8799   */\n      dup4\n        /* \"#utility.yul\":8786:8803   */\n      add\n        /* \"#utility.yul\":8779:8826   */\n      mstore\n        /* \"#utility.yul\":8843:8974   */\n      tag_406\n        /* \"#utility.yul\":8969:8973   */\n      dup2\n        /* \"#utility.yul\":8843:8974   */\n      tag_284\n      jump\t// in\n    tag_406:\n        /* \"#utility.yul\":8835:8974   */\n      swap1\n      pop\n        /* \"#utility.yul\":8562:8981   */\n      swap2\n      swap1\n      pop\n      jump\t// out\n        /* \"#utility.yul\":8987:9429   */\n    tag_152:\n        /* \"#utility.yul\":9136:9140   */\n      0x00\n        /* \"#utility.yul\":9174:9176   */\n      0x60\n        /* \"#utility.yul\":9163:9172   */\n      dup3\n        /* \"#utility.yul\":9159:9177   */\n      add\n        /* \"#utility.yul\":9151:9177   */\n      swap1\n      pop\n        /* \"#utility.yul\":9187:9258   */\n      tag_408\n        /* \"#utility.yul\":9255:9256   */\n      0x00\n        /* \"#utility.yul\":9244:9253   */\n      dup4\n        /* \"#utility.yul\":9240:9257   */\n      add\n        /* \"#utility.yul\":9231:9237   */\n      dup7\n        /* \"#utility.yul\":9187:9258   */\n      tag_280\n      jump\t// in\n    tag_408:\n        /* \"#utility.yul\":9268:9340   */\n      tag_409\n        /* \"#utility.yul\":9336:9338   */\n      0x20\n        /* \"#utility.yul\":9325:9334   */\n      dup4\n        /* \"#utility.yul\":9321:9339   */\n      add\n        /* \"#utility.yul\":9312:9318   */\n      dup6\n        /* \"#utility.yul\":9268:9340   */\n      tag_280\n      jump\t// in\n    tag_409:\n        /* \"#utility.yul\":9350:9422   */\n      tag_410\n        /* \"#utility.yul\":9418:9420   */\n      0x40\n        /* \"#utility.yul\":9407:9416   */\n      dup4\n        /* \"#utility.yul\":9403:9421   */\n      add\n        /* \"#utility.yul\":9394:9400   */\n      dup5\n        /* \"#utility.yul\":9350:9422   */\n      tag_277\n      jump\t// in\n    tag_410:\n        /* \"#utility.yul\":8987:9429   */\n      swap5\n      swap4\n      pop\n      pop\n      pop\n      pop\n      jump\t// out\n        /* \"#utility.yul\":9435:9767   */\n    tag_157:\n        /* \"#utility.yul\":9556:9560   */\n      0x00\n        /* \"#utility.yul\":9594:9596   */\n      0x40\n        /* \"#utility.yul\":9583:9592   */\n      dup3\n        /* \"#utility.yul\":9579:9597   */\n      add\n        /* \"#utility.yul\":9571:9597   */\n      swap1\n      pop\n        /* \"#utility.yul\":9607:9678   */\n      tag_412\n        /* \"#utility.yul\":9675:9676   */\n      0x00\n        /* \"#utility.yul\":9664:9673   */\n      dup4\n        /* \"#utility.yul\":9660:9677   */\n      add\n        /* \"#utility.yul\":9651:9657   */\n      dup6\n        /* \"#utility.yul\":9607:9678   */\n      tag_280\n      jump\t// in\n    tag_412:\n        /* \"#utility.yul\":9688:9760   */\n      tag_413\n        /* \"#utility.yul\":9756:9758   */\n      0x20\n        /* \"#utility.yul\":9745:9754   */\n      dup4\n        /* \"#utility.yul\":9741:9759   */\n      add\n        /* \"#utility.yul\":9732:9738   */\n      dup5\n        /* \"#utility.yul\":9688:9760   */\n      tag_277\n      jump\t// in\n    tag_413:\n        /* \"#utility.yul\":9435:9767   */\n      swap4\n      swap3\n      pop\n      pop\n      pop\n      jump\t// out\n        /* \"#utility.yul\":9773:9997   */\n    tag_285:\n        /* \"#utility.yul\":9913:9947   */\n      0x45524332303a2064656372656173656420616c6c6f77616e63652062656c6f77\n        /* \"#utility.yul\":9909:9910   */\n      0x00\n        /* \"#utility.yul\":9901:9907   */\n      dup3\n        /* \"#utility.yul\":9897:9911   */\n      add\n        /* \"#utility.yul\":9890:9948   */\n      mstore\n        /* \"#utility.yul\":9982:9989   */\n      0x207a65726f000000000000000000000000000000000000000000000000000000\n        /* \"#utility.yul\":9977:9979   */\n      0x20\n        /* \"#utility.yul\":9969:9975   */\n      dup3\n        /* \"#utility.yul\":9965:9980   */\n      add\n        /* \"#utility.yul\":9958:9990   */\n      mstore\n        /* \"#utility.yul\":9773:9997   */\n      pop\n      jump\t// out\n        /* \"#utility.yul\":10003:10369   */\n    tag_286:\n        /* \"#utility.yul\":10145:10148   */\n      0x00\n        /* \"#utility.yul\":10166:10233   */\n      tag_416\n        /* \"#utility.yul\":10230:10232   */\n      0x25\n        /* \"#utility.yul\":10225:10228   */\n      dup4\n        /* \"#utility.yul\":10166:10233   */\n      tag_261\n      jump\t// in\n    tag_416:\n        /* \"#utility.yul\":10159:10233   */\n      swap2\n      pop\n        /* \"#utility.yul\":10242:10335   */\n      tag_417\n        /* \"#utility.yul\":10331:10334   */\n      dup3\n        /* \"#utility.yul\":10242:10335   */\n      tag_285\n      jump\t// in\n    tag_417:\n        /* \"#utility.yul\":10360:10362   */\n      0x40\n        /* \"#utility.yul\":10355:10358   */\n      dup3\n        /* \"#utility.yul\":10351:10363   */\n      add\n        /* \"#utility.yul\":10344:10363   */\n      swap1\n      pop\n        /* \"#utility.yul\":10003:10369   */\n      swap2\n      swap1\n      pop\n      jump\t// out\n        /* \"#utility.yul\":10375:10794   */\n    tag_181:\n        /* \"#utility.yul\":10541:10545   */\n      0x00\n        /* \"#utility.yul\":10579:10581   */\n      0x20\n        /* \"#utility.yul\":10568:10577   */\n      dup3\n        /* \"#utility.yul\":10564:10582   */\n      add\n        /* \"#utility.yul\":10556:10582   */\n      swap1\n      pop\n        /* \"#utility.yul\":10628:10637   */\n      dup2\n        /* \"#utility.yul\":10622:10626   */\n      dup2\n        /* \"#utility.yul\":10618:10638   */\n      sub\n        /* \"#utility.yul\":10614:10615   */\n      0x00\n        /* \"#utility.yul\":10603:10612   */\n      dup4\n        /* \"#utility.yul\":10599:10616   */\n      add\n        /* \"#utility.yul\":10592:10639   */\n      mstore\n        /* \"#utility.yul\":10656:10787   */\n      tag_419\n        /* \"#utility.yul\":10782:10786   */\n      dup2\n        /* \"#utility.yul\":10656:10787   */\n      tag_286\n      jump\t// in\n    tag_419:\n        /* \"#utility.yul\":10648:10787   */\n      swap1\n      pop\n        /* \"#utility.yul\":10375:10794   */\n      swap2\n      swap1\n      pop\n      jump\t// out\n        /* \"#utility.yul\":10800:11242   */\n    tag_191:\n        /* \"#utility.yul\":10949:10953   */\n      0x00\n        /* \"#utility.yul\":10987:10989   */\n      0x60\n        /* \"#utility.yul\":10976:10985   */\n      dup3\n        /* \"#utility.yul\":10972:10990   */\n      add\n        /* \"#utility.yul\":10964:10990   */\n      swap1\n      pop\n        /* \"#utility.yul\":11000:11071   */\n      tag_421\n        /* \"#utility.yul\":11068:11069   */\n      0x00\n        /* \"#utility.yul\":11057:11066   */\n      dup4\n        /* \"#utility.yul\":11053:11070   */\n      add\n        /* \"#utility.yul\":11044:11050   */\n      dup7\n        /* \"#utility.yul\":11000:11071   */\n      tag_280\n      jump\t// in\n    tag_421:\n        /* \"#utility.yul\":11081:11153   */\n      tag_422\n        /* \"#utility.yul\":11149:11151   */\n      0x20\n        /* \"#utility.yul\":11138:11147   */\n      dup4\n        /* \"#utility.yul\":11134:11152   */\n      add\n        /* \"#utility.yul\":11125:11131   */\n      dup6\n        /* \"#utility.yul\":11081:11153   */\n      tag_277\n      jump\t// in\n    tag_422:\n        /* \"#utility.yul\":11163:11235   */\n      tag_423\n        /* \"#utility.yul\":11231:11233   */\n      0x40\n        /* \"#utility.yul\":11220:11229   */\n      dup4\n        /* \"#utility.yul\":11216:11234   */\n      add\n        /* \"#utility.yul\":11207:11213   */\n      dup5\n        /* \"#utility.yul\":11163:11235   */\n      tag_277\n      jump\t// in\n    tag_423:\n        /* \"#utility.yul\":10800:11242   */\n      swap5\n      swap4\n      pop\n      pop\n      pop\n      pop\n      jump\t// out\n        /* \"#utility.yul\":11248:11473   */\n    tag_287:\n        /* \"#utility.yul\":11388:11422   */\n      0x4f776e61626c653a206e6577206f776e657220697320746865207a65726f2061\n        /* \"#utility.yul\":11384:11385   */\n      0x00\n        /* \"#utility.yul\":11376:11382   */\n      dup3\n        /* \"#utility.yul\":11372:11386   */\n      add\n        /* \"#utility.yul\":11365:11423   */\n      mstore\n        /* \"#utility.yul\":11457:11465   */\n      0x6464726573730000000000000000000000000000000000000000000000000000\n        /* \"#utility.yul\":11452:11454   */\n      0x20\n        /* \"#utility.yul\":11444:11450   */\n      dup3\n        /* \"#utility.yul\":11440:11455   */\n      add\n        /* \"#utility.yul\":11433:11466   */\n      mstore\n        /* \"#utility.yul\":11248:11473   */\n      pop\n      jump\t// out\n        /* \"#utility.yul\":11479:11845   */\n    tag_288:\n        /* \"#utility.yul\":11621:11624   */\n      0x00\n        /* \"#utility.yul\":11642:11709   */\n      tag_426\n        /* \"#utility.yul\":11706:11708   */\n      0x26\n        /* \"#utility.yul\":11701:11704   */\n      dup4\n        /* \"#utility.yul\":11642:11709   */\n      tag_261\n      jump\t// in\n    tag_426:\n        /* \"#utility.yul\":11635:11709   */\n      swap2\n      pop\n        /* \"#utility.yul\":11718:11811   */\n      tag_427\n        /* \"#utility.yul\":11807:11810   */\n      dup3\n        /* \"#utility.yul\":11718:11811   */\n      tag_287\n      jump\t// in\n    tag_427:\n        /* \"#utility.yul\":11836:11838   */\n      0x40\n        /* \"#utility.yul\":11831:11834   */\n      dup3\n        /* \"#utility.yul\":11827:11839   */\n      add\n        /* \"#utility.yul\":11820:11839   */\n      swap1\n      pop\n        /* \"#utility.yul\":11479:11845   */\n      swap2\n      swap1\n      pop\n      jump\t// out\n        /* \"#utility.yul\":11851:12270   */\n    tag_197:\n        /* \"#utility.yul\":12017:12021   */\n      0x00\n        /* \"#utility.yul\":12055:12057   */\n      0x20\n        /* \"#utility.yul\":12044:12053   */\n      dup3\n        /* \"#utility.yul\":12040:12058   */\n      add\n        /* \"#utility.yul\":12032:12058   */\n      swap1\n      pop\n        /* \"#utility.yul\":12104:12113   */\n      dup2\n        /* \"#utility.yul\":12098:12102   */\n      dup2\n        /* \"#utility.yul\":12094:12114   */\n      sub\n        /* \"#utility.yul\":12090:12091   */\n      0x00\n        /* \"#utility.yul\":12079:12088   */\n      dup4\n        /* \"#utility.yul\":12075:12092   */\n      add\n        /* \"#utility.yul\":12068:12115   */\n      mstore\n        /* \"#utility.yul\":12132:12263   */\n      tag_429\n        /* \"#utility.yul\":12258:12262   */\n      dup2\n        /* \"#utility.yul\":12132:12263   */\n      tag_288\n      jump\t// in\n    tag_429:\n        /* \"#utility.yul\":12124:12263   */\n      swap1\n      pop\n        /* \"#utility.yul\":11851:12270   */\n      swap2\n      swap1\n      pop\n      jump\t// out\n        /* \"#utility.yul\":12276:12686   */\n    tag_201:\n        /* \"#utility.yul\":12316:12323   */\n      0x00\n        /* \"#utility.yul\":12339:12359   */\n      tag_431\n        /* \"#utility.yul\":12357:12358   */\n      dup3\n        /* \"#utility.yul\":12339:12359   */\n      tag_272\n      jump\t// in\n    tag_431:\n        /* \"#utility.yul\":12334:12359   */\n      swap2\n      pop\n        /* \"#utility.yul\":12373:12393   */\n      tag_432\n        /* \"#utility.yul\":12391:12392   */\n      dup4\n        /* \"#utility.yul\":12373:12393   */\n      tag_272\n      jump\t// in\n    tag_432:\n        /* \"#utility.yul\":12368:12393   */\n      swap3\n      pop\n        /* \"#utility.yul\":12428:12429   */\n      dup3\n        /* \"#utility.yul\":12425:12426   */\n      dup3\n        /* \"#utility.yul\":12421:12430   */\n      mul\n        /* \"#utility.yul\":12450:12480   */\n      tag_433\n        /* \"#utility.yul\":12468:12479   */\n      dup2\n        /* \"#utility.yul\":12450:12480   */\n      tag_272\n      jump\t// in\n    tag_433:\n        /* \"#utility.yul\":12439:12480   */\n      swap2\n      pop\n        /* \"#utility.yul\":12629:12630   */\n      dup3\n        /* \"#utility.yul\":12620:12627   */\n      dup3\n        /* \"#utility.yul\":12616:12631   */\n      div\n        /* \"#utility.yul\":12613:12614   */\n      dup5\n        /* \"#utility.yul\":12610:12632   */\n      eq\n        /* \"#utility.yul\":12590:12591   */\n      dup4\n        /* \"#utility.yul\":12583:12592   */\n      iszero\n        /* \"#utility.yul\":12563:12646   */\n      or\n        /* \"#utility.yul\":12540:12679   */\n      tag_434\n      jumpi\n        /* \"#utility.yul\":12659:12677   */\n      tag_435\n      tag_282\n      jump\t// in\n    tag_435:\n        /* \"#utility.yul\":12540:12679   */\n    tag_434:\n        /* \"#utility.yul\":12324:12686   */\n      pop\n        /* \"#utility.yul\":12276:12686   */\n      swap3\n      swap2\n      pop\n      pop\n      jump\t// out\n        /* \"#utility.yul\":12692:12915   */\n    tag_289:\n        /* \"#utility.yul\":12832:12866   */\n      0x45524332303a20617070726f76652066726f6d20746865207a65726f20616464\n        /* \"#utility.yul\":12828:12829   */\n      0x00\n        /* \"#utility.yul\":12820:12826   */\n      dup3\n        /* \"#utility.yul\":12816:12830   */\n      add\n        /* \"#utility.yul\":12809:12867   */\n      mstore\n        /* \"#utility.yul\":12901:12907   */\n      0x7265737300000000000000000000000000000000000000000000000000000000\n        /* \"#utility.yul\":12896:12898   */\n      0x20\n        /* \"#utility.yul\":12888:12894   */\n      dup3\n        /* \"#utility.yul\":12884:12899   */\n      add\n        /* \"#utility.yul\":12877:12908   */\n      mstore\n        /* \"#utility.yul\":12692:12915   */\n      pop\n      jump\t// out\n        /* \"#utility.yul\":12921:13287   */\n    tag_290:\n        /* \"#utility.yul\":13063:13066   */\n      0x00\n        /* \"#utility.yul\":13084:13151   */\n      tag_438\n        /* \"#utility.yul\":13148:13150   */\n      0x24\n        /* \"#utility.yul\":13143:13146   */\n      dup4\n        /* \"#utility.yul\":13084:13151   */\n      tag_261\n      jump\t// in\n    tag_438:\n        /* \"#utility.yul\":13077:13151   */\n      swap2\n      pop\n        /* \"#utility.yul\":13160:13253   */\n      tag_439\n        /* \"#utility.yul\":13249:13252   */\n      dup3\n        /* \"#utility.yul\":13160:13253   */\n      tag_289\n      jump\t// in\n    tag_439:\n        /* \"#utility.yul\":13278:13280   */\n      0x40\n        /* \"#utility.yul\":13273:13276   */\n      dup3\n        /* \"#utility.yul\":13269:13281   */\n      add\n        /* \"#utility.yul\":13262:13281   */\n      swap1\n      pop\n        /* \"#utility.yul\":12921:13287   */\n      swap2\n      swap1\n      pop\n      jump\t// out\n        /* \"#utility.yul\":13293:13712   */\n    tag_206:\n        /* \"#utility.yul\":13459:13463   */\n      0x00\n        /* \"#utility.yul\":13497:13499   */\n      0x20\n        /* \"#utility.yul\":13486:13495   */\n      dup3\n        /* \"#utility.yul\":13482:13500   */\n      add\n        /* \"#utility.yul\":13474:13500   */\n      swap1\n      pop\n        /* \"#utility.yul\":13546:13555   */\n      dup2\n        /* \"#utility.yul\":13540:13544   */\n      dup2\n        /* \"#utility.yul\":13536:13556   */\n      sub\n        /* \"#utility.yul\":13532:13533   */\n      0x00\n        /* \"#utility.yul\":13521:13530   */\n      dup4\n        /* \"#utility.yul\":13517:13534   */\n      add\n        /* \"#utility.yul\":13510:13557   */\n      mstore\n        /* \"#utility.yul\":13574:13705   */\n      tag_441\n        /* \"#utility.yul\":13700:13704   */\n      dup2\n        /* \"#utility.yul\":13574:13705   */\n      tag_290\n      jump\t// in\n    tag_441:\n        /* \"#utility.yul\":13566:13705   */\n      swap1\n      pop\n        /* \"#utility.yul\":13293:13712   */\n      swap2\n      swap1\n      pop\n      jump\t// out\n        /* \"#utility.yul\":13718:13939   */\n    tag_291:\n        /* \"#utility.yul\":13858:13892   */\n      0x45524332303a20617070726f766520746f20746865207a65726f206164647265\n        /* \"#utility.yul\":13854:13855   */\n      0x00\n        /* \"#utility.yul\":13846:13852   */\n      dup3\n        /* \"#utility.yul\":13842:13856   */\n      add\n        /* \"#utility.yul\":13835:13893   */\n      mstore\n        /* \"#utility.yul\":13927:13931   */\n      0x7373000000000000000000000000000000000000000000000000000000000000\n        /* \"#utility.yul\":13922:13924   */\n      0x20\n        /* \"#utility.yul\":13914:13920   */\n      dup3\n        /* \"#utility.yul\":13910:13925   */\n      add\n        /* \"#utility.yul\":13903:13932   */\n      mstore\n        /* \"#utility.yul\":13718:13939   */\n      pop\n      jump\t// out\n        /* \"#utility.yul\":13945:14311   */\n    tag_292:\n        /* \"#utility.yul\":14087:14090   */\n      0x00\n        /* \"#utility.yul\":14108:14175   */\n      tag_444\n        /* \"#utility.yul\":14172:14174   */\n      0x22\n        /* \"#utility.yul\":14167:14170   */\n      dup4\n        /* \"#utility.yul\":14108:14175   */\n      tag_261\n      jump\t// in\n    tag_444:\n        /* \"#utility.yul\":14101:14175   */\n      swap2\n      pop\n        /* \"#utility.yul\":14184:14277   */\n      tag_445\n        /* \"#utility.yul\":14273:14276   */\n      dup3\n        /* \"#utility.yul\":14184:14277   */\n      tag_291\n      jump\t// in\n    tag_445:\n        /* \"#utility.yul\":14302:14304   */\n      0x40\n        /* \"#utility.yul\":14297:14300   */\n      dup3\n        /* \"#utility.yul\":14293:14305   */\n      add\n        /* \"#utility.yul\":14286:14305   */\n      swap1\n      pop\n        /* \"#utility.yul\":13945:14311   */\n      swap2\n      swap1\n      pop\n      jump\t// out\n        /* \"#utility.yul\":14317:14736   */\n    tag_209:\n        /* \"#utility.yul\":14483:14487   */\n      0x00\n        /* \"#utility.yul\":14521:14523   */\n      0x20\n        /* \"#utility.yul\":14510:14519   */\n      dup3\n        /* \"#utility.yul\":14506:14524   */\n      add\n        /* \"#utility.yul\":14498:14524   */\n      swap1\n      pop\n        /* \"#utility.yul\":14570:14579   */\n      dup2\n        /* \"#utility.yul\":14564:14568   */\n      dup2\n        /* \"#utility.yul\":14560:14580   */\n      sub\n        /* \"#utility.yul\":14556:14557   */\n      0x00\n        /* \"#utility.yul\":14545:14554   */\n      dup4\n        /* \"#utility.yul\":14541:14558   */\n      add\n        /* \"#utility.yul\":14534:14581   */\n      mstore\n        /* \"#utility.yul\":14598:14729   */\n      tag_447\n        /* \"#utility.yul\":14724:14728   */\n      dup2\n        /* \"#utility.yul\":14598:14729   */\n      tag_292\n      jump\t// in\n    tag_447:\n        /* \"#utility.yul\":14590:14729   */\n      swap1\n      pop\n        /* \"#utility.yul\":14317:14736   */\n      swap2\n      swap1\n      pop\n      jump\t// out\n        /* \"#utility.yul\":14742:14921   */\n    tag_293:\n        /* \"#utility.yul\":14882:14913   */\n      0x45524332303a20696e73756666696369656e7420616c6c6f77616e6365000000\n        /* \"#utility.yul\":14878:14879   */\n      0x00\n        /* \"#utility.yul\":14870:14876   */\n      dup3\n        /* \"#utility.yul\":14866:14880   */\n      add\n        /* \"#utility.yul\":14859:14914   */\n      mstore\n        /* \"#utility.yul\":14742:14921   */\n      pop\n      jump\t// out\n        /* \"#utility.yul\":14927:15293   */\n    tag_294:\n        /* \"#utility.yul\":15069:15072   */\n      0x00\n        /* \"#utility.yul\":15090:15157   */\n      tag_450\n        /* \"#utility.yul\":15154:15156   */\n      0x1d\n        /* \"#utility.yul\":15149:15152   */\n      dup4\n        /* \"#utility.yul\":15090:15157   */\n      tag_261\n      jump\t// in\n    tag_450:\n        /* \"#utility.yul\":15083:15157   */\n      swap2\n      pop\n        /* \"#utility.yul\":15166:15259   */\n      tag_451\n        /* \"#utility.yul\":15255:15258   */\n      dup3\n        /* \"#utility.yul\":15166:15259   */\n      tag_293\n      jump\t// in\n    tag_451:\n        /* \"#utility.yul\":15284:15286   */\n      0x20\n        /* \"#utility.yul\":15279:15282   */\n      dup3\n        /* \"#utility.yul\":15275:15287   */\n      add\n        /* \"#utility.yul\":15268:15287   */\n      swap1\n      pop\n        /* \"#utility.yul\":14927:15293   */\n      swap2\n      swap1\n      pop\n      jump\t// out\n        /* \"#utility.yul\":15299:15718   */\n    tag_216:\n        /* \"#utility.yul\":15465:15469   */\n      0x00\n        /* \"#utility.yul\":15503:15505   */\n      0x20\n        /* \"#utility.yul\":15492:15501   */\n      dup3\n        /* \"#utility.yul\":15488:15506   */\n      add\n        /* \"#utility.yul\":15480:15506   */\n      swap1\n      pop\n        /* \"#utility.yul\":15552:15561   */\n      dup2\n        /* \"#utility.yul\":15546:15550   */\n      dup2\n        /* \"#utility.yul\":15542:15562   */\n      sub\n        /* \"#utility.yul\":15538:15539   */\n      0x00\n        /* \"#utility.yul\":15527:15536   */\n      dup4\n        /* \"#utility.yul\":15523:15540   */\n      add\n        /* \"#utility.yul\":15516:15563   */\n      mstore\n        /* \"#utility.yul\":15580:15711   */\n      tag_453\n        /* \"#utility.yul\":15706:15710   */\n      dup2\n        /* \"#utility.yul\":15580:15711   */\n      tag_294\n      jump\t// in\n    tag_453:\n        /* \"#utility.yul\":15572:15711   */\n      swap1\n      pop\n        /* \"#utility.yul\":15299:15718   */\n      swap2\n      swap1\n      pop\n      jump\t// out\n        /* \"#utility.yul\":15724:15948   */\n    tag_295:\n        /* \"#utility.yul\":15864:15898   */\n      0x45524332303a207472616e736665722066726f6d20746865207a65726f206164\n        /* \"#utility.yul\":15860:15861   */\n      0x00\n        /* \"#utility.yul\":15852:15858   */\n      dup3\n        /* \"#utility.yul\":15848:15862   */\n      add\n        /* \"#utility.yul\":15841:15899   */\n      mstore\n        /* \"#utility.yul\":15933:15940   */\n      0x6472657373000000000000000000000000000000000000000000000000000000\n        /* \"#utility.yul\":15928:15930   */\n      0x20\n        /* \"#utility.yul\":15920:15926   */\n      dup3\n        /* \"#utility.yul\":15916:15931   */\n      add\n        /* \"#utility.yul\":15909:15941   */\n      mstore\n        /* \"#utility.yul\":15724:15948   */\n      pop\n      jump\t// out\n        /* \"#utility.yul\":15954:16320   */\n    tag_296:\n        /* \"#utility.yul\":16096:16099   */\n      0x00\n        /* \"#utility.yul\":16117:16184   */\n      tag_456\n        /* \"#utility.yul\":16181:16183   */\n      0x25\n        /* \"#utility.yul\":16176:16179   */\n      dup4\n        /* \"#utility.yul\":16117:16184   */\n      tag_261\n      jump\t// in\n    tag_456:\n        /* \"#utility.yul\":16110:16184   */\n      swap2\n      pop\n        /* \"#utility.yul\":16193:16286   */\n      tag_457\n        /* \"#utility.yul\":16282:16285   */\n      dup3\n        /* \"#utility.yul\":16193:16286   */\n      tag_295\n      jump\t// in\n    tag_457:\n        /* \"#utility.yul\":16311:16313   */\n      0x40\n        /* \"#utility.yul\":16306:16309   */\n      dup3\n        /* \"#utility.yul\":16302:16314   */\n      add\n        /* \"#utility.yul\":16295:16314   */\n      swap1\n      pop\n        /* \"#utility.yul\":15954:16320   */\n      swap2\n      swap1\n      pop\n      jump\t// out\n        /* \"#utility.yul\":16326:16745   */\n    tag_221:\n        /* \"#utility.yul\":16492:16496   */\n      0x00\n        /* \"#utility.yul\":16530:16532   */\n      0x20\n        /* \"#utility.yul\":16519:16528   */\n      dup3\n        /* \"#utility.yul\":16515:16533   */\n      add\n        /* \"#utility.yul\":16507:16533   */\n      swap1\n      pop\n        /* \"#utility.yul\":16579:16588   */\n      dup2\n        /* \"#utility.yul\":16573:16577   */\n      dup2\n        /* \"#utility.yul\":16569:16589   */\n      sub\n        /* \"#utility.yul\":16565:16566   */\n      0x00\n        /* \"#utility.yul\":16554:16563   */\n      dup4\n        /* \"#utility.yul\":16550:16567   */\n      add\n        /* \"#utility.yul\":16543:16590   */\n      mstore\n        /* \"#utility.yul\":16607:16738   */\n      tag_459\n        /* \"#utility.yul\":16733:16737   */\n      dup2\n        /* \"#utility.yul\":16607:16738   */\n      tag_296\n      jump\t// in\n    tag_459:\n        /* \"#utility.yul\":16599:16738   */\n      swap1\n      pop\n        /* \"#utility.yul\":16326:16745   */\n      swap2\n      swap1\n      pop\n      jump\t// out\n        /* \"#utility.yul\":16751:16973   */\n    tag_297:\n        /* \"#utility.yul\":16891:16925   */\n      0x45524332303a207472616e7366657220746f20746865207a65726f2061646472\n        /* \"#utility.yul\":16887:16888   */\n      0x00\n        /* \"#utility.yul\":16879:16885   */\n      dup3\n        /* \"#utility.yul\":16875:16889   */\n      add\n        /* \"#utility.yul\":16868:16926   */\n      mstore\n        /* \"#utility.yul\":16960:16965   */\n      0x6573730000000000000000000000000000000000000000000000000000000000\n        /* \"#utility.yul\":16955:16957   */\n      0x20\n        /* \"#utility.yul\":16947:16953   */\n      dup3\n        /* \"#utility.yul\":16943:16958   */\n      add\n        /* \"#utility.yul\":16936:16966   */\n      mstore\n        /* \"#utility.yul\":16751:16973   */\n      pop\n      jump\t// out\n        /* \"#utility.yul\":16979:17345   */\n    tag_298:\n        /* \"#utility.yul\":17121:17124   */\n      0x00\n        /* \"#utility.yul\":17142:17209   */\n      tag_462\n        /* \"#utility.yul\":17206:17208   */\n      0x23\n        /* \"#utility.yul\":17201:17204   */\n      dup4\n        /* \"#utility.yul\":17142:17209   */\n      tag_261\n      jump\t// in\n    tag_462:\n        /* \"#utility.yul\":17135:17209   */\n      swap2\n      pop\n        /* \"#utility.yul\":17218:17311   */\n      tag_463\n        /* \"#utility.yul\":17307:17310   */\n      dup3\n        /* \"#utility.yul\":17218:17311   */\n      tag_297\n      jump\t// in\n    tag_463:\n        /* \"#utility.yul\":17336:17338   */\n      0x40\n        /* \"#utility.yul\":17331:17334   */\n      dup3\n        /* \"#utility.yul\":17327:17339   */\n      add\n        /* \"#utility.yul\":17320:17339   */\n      swap1\n      pop\n        /* \"#utility.yul\":16979:17345   */\n      swap2\n      swap1\n      pop\n      jump\t// out\n        /* \"#utility.yul\":17351:17770   */\n    tag_224:\n        /* \"#utility.yul\":17517:17521   */\n      0x00\n        /* \"#utility.yul\":17555:17557   */\n      0x20\n        /* \"#utility.yul\":17544:17553   */\n      dup3\n        /* \"#utility.yul\":17540:17558   */\n      add\n        /* \"#utility.yul\":17532:17558   */\n      swap1\n      pop\n        /* \"#utility.yul\":17604:17613   */\n      dup2\n        /* \"#utility.yul\":17598:17602   */\n      dup2\n        /* \"#utility.yul\":17594:17614   */\n      sub\n        /* \"#utility.yul\":17590:17591   */\n      0x00\n        /* \"#utility.yul\":17579:17588   */\n      dup4\n        /* \"#utility.yul\":17575:17592   */\n      add\n        /* \"#utility.yul\":17568:17615   */\n      mstore\n        /* \"#utility.yul\":17632:17763   */\n      tag_465\n        /* \"#utility.yul\":17758:17762   */\n      dup2\n        /* \"#utility.yul\":17632:17763   */\n      tag_298\n      jump\t// in\n    tag_465:\n        /* \"#utility.yul\":17624:17763   */\n      swap1\n      pop\n        /* \"#utility.yul\":17351:17770   */\n      swap2\n      swap1\n      pop\n      jump\t// out\n        /* \"#utility.yul\":17776:18001   */\n    tag_299:\n        /* \"#utility.yul\":17916:17950   */\n      0x45524332303a207472616e7366657220616d6f756e7420657863656564732062\n        /* \"#utility.yul\":17912:17913   */\n      0x00\n        /* \"#utility.yul\":17904:17910   */\n      dup3\n        /* \"#utility.yul\":17900:17914   */\n      add\n        /* \"#utility.yul\":17893:17951   */\n      mstore\n        /* \"#utility.yul\":17985:17993   */\n      0x616c616e63650000000000000000000000000000000000000000000000000000\n        /* \"#utility.yul\":17980:17982   */\n      0x20\n        /* \"#utility.yul\":17972:17978   */\n      dup3\n        /* \"#utility.yul\":17968:17983   */\n      add\n        /* \"#utility.yul\":17961:17994   */\n      mstore\n        /* \"#utility.yul\":17776:18001   */\n      pop\n      jump\t// out\n        /* \"#utility.yul\":18007:18373   */\n    tag_300:\n        /* \"#utility.yul\":18149:18152   */\n      0x00\n        /* \"#utility.yul\":18170:18237   */\n      tag_468\n        /* \"#utility.yul\":18234:18236   */\n      0x26\n        /* \"#utility.yul\":18229:18232   */\n      dup4\n        /* \"#utility.yul\":18170:18237   */\n      tag_261\n      jump\t// in\n    tag_468:\n        /* \"#utility.yul\":18163:18237   */\n      swap2\n      pop\n        /* \"#utility.yul\":18246:18339   */\n      tag_469\n        /* \"#utility.yul\":18335:18338   */\n      dup3\n        /* \"#utility.yul\":18246:18339   */\n      tag_299\n      jump\t// in\n    tag_469:\n        /* \"#utility.yul\":18364:18366   */\n      0x40\n        /* \"#utility.yul\":18359:18362   */\n      dup3\n        /* \"#utility.yul\":18355:18367   */\n      add\n        /* \"#utility.yul\":18348:18367   */\n      swap1\n      pop\n        /* \"#utility.yul\":18007:18373   */\n      swap2\n      swap1\n      pop\n      jump\t// out\n        /* \"#utility.yul\":18379:18798   */\n    tag_229:\n        /* \"#utility.yul\":18545:18549   */\n      0x00\n        /* \"#utility.yul\":18583:18585   */\n      0x20\n        /* \"#utility.yul\":18572:18581   */\n      dup3\n        /* \"#utility.yul\":18568:18586   */\n      add\n        /* \"#utility.yul\":18560:18586   */\n      swap1\n      pop\n        /* \"#utility.yul\":18632:18641   */\n      dup2\n        /* \"#utility.yul\":18626:18630   */\n      dup2\n        /* \"#utility.yul\":18622:18642   */\n      sub\n        /* \"#utility.yul\":18618:18619   */\n      0x00\n        /* \"#utility.yul\":18607:18616   */\n      dup4\n        /* \"#utility.yul\":18603:18620   */\n      add\n        /* \"#utility.yul\":18596:18643   */\n      mstore\n        /* \"#utility.yul\":18660:18791   */\n      tag_471\n        /* \"#utility.yul\":18786:18790   */\n      dup2\n        /* \"#utility.yul\":18660:18791   */\n      tag_300\n      jump\t// in\n    tag_471:\n        /* \"#utility.yul\":18652:18791   */\n      swap1\n      pop\n        /* \"#utility.yul\":18379:18798   */\n      swap2\n      swap1\n      pop\n      jump\t// out\n        /* \"#utility.yul\":18804:19024   */\n    tag_301:\n        /* \"#utility.yul\":18944:18978   */\n      0x45524332303a206275726e2066726f6d20746865207a65726f20616464726573\n        /* \"#utility.yul\":18940:18941   */\n      0x00\n        /* \"#utility.yul\":18932:18938   */\n      dup3\n        /* \"#utility.yul\":18928:18942   */\n      add\n        /* \"#utility.yul\":18921:18979   */\n      mstore\n        /* \"#utility.yul\":19013:19016   */\n      0x7300000000000000000000000000000000000000000000000000000000000000\n        /* \"#utility.yul\":19008:19010   */\n      0x20\n        /* \"#utility.yul\":19000:19006   */\n      dup3\n        /* \"#utility.yul\":18996:19011   */\n      add\n        /* \"#utility.yul\":18989:19017   */\n      mstore\n        /* \"#utility.yul\":18804:19024   */\n      pop\n      jump\t// out\n        /* \"#utility.yul\":19030:19396   */\n    tag_302:\n        /* \"#utility.yul\":19172:19175   */\n      0x00\n        /* \"#utility.yul\":19193:19260   */\n      tag_474\n        /* \"#utility.yul\":19257:19259   */\n      0x21\n        /* \"#utility.yul\":19252:19255   */\n      dup4\n        /* \"#utility.yul\":19193:19260   */\n      tag_261\n      jump\t// in\n    tag_474:\n        /* \"#utility.yul\":19186:19260   */\n      swap2\n      pop\n        /* \"#utility.yul\":19269:19362   */\n      tag_475\n        /* \"#utility.yul\":19358:19361   */\n      dup3\n        /* \"#utility.yul\":19269:19362   */\n      tag_301\n      jump\t// in\n    tag_475:\n        /* \"#utility.yul\":19387:19389   */\n      0x40\n        /* \"#utility.yul\":19382:19385   */\n      dup3\n        /* \"#utility.yul\":19378:19390   */\n      add\n        /* \"#utility.yul\":19371:19390   */\n      swap1\n      pop\n        /* \"#utility.yul\":19030:19396   */\n      swap2\n      swap1\n      pop\n      jump\t// out\n        /* \"#utility.yul\":19402:19821   */\n    tag_236:\n        /* \"#utility.yul\":19568:19572   */\n      0x00\n        /* \"#utility.yul\":19606:19608   */\n      0x20\n        /* \"#utility.yul\":19595:19604   */\n      dup3\n        /* \"#utility.yul\":19591:19609   */\n      add\n        /* \"#utility.yul\":19583:19609   */\n      swap1\n      pop\n        /* \"#utility.yul\":19655:19664   */\n      dup2\n        /* \"#utility.yul\":19649:19653   */\n      dup2\n        /* \"#utility.yul\":19645:19665   */\n      sub\n        /* \"#utility.yul\":19641:19642   */\n      0x00\n        /* \"#utility.yul\":19630:19639   */\n      dup4\n        /* \"#utility.yul\":19626:19643   */\n      add\n        /* \"#utility.yul\":19619:19666   */\n      mstore\n        /* \"#utility.yul\":19683:19814   */\n      tag_477\n        /* \"#utility.yul\":19809:19813   */\n      dup2\n        /* \"#utility.yul\":19683:19814   */\n      tag_302\n      jump\t// in\n    tag_477:\n        /* \"#utility.yul\":19675:19814   */\n      swap1\n      pop\n        /* \"#utility.yul\":19402:19821   */\n      swap2\n      swap1\n      pop\n      jump\t// out\n        /* \"#utility.yul\":19827:20048   */\n    tag_303:\n        /* \"#utility.yul\":19967:20001   */\n      0x45524332303a206275726e20616d6f756e7420657863656564732062616c616e\n        /* \"#utility.yul\":19963:19964   */\n      0x00\n        /* \"#utility.yul\":19955:19961   */\n      dup3\n        /* \"#utility.yul\":19951:19965   */\n      add\n        /* \"#utility.yul\":19944:20002   */\n      mstore\n        /* \"#utility.yul\":20036:20040   */\n      0x6365000000000000000000000000000000000000000000000000000000000000\n        /* \"#utility.yul\":20031:20033   */\n      0x20\n        /* \"#utility.yul\":20023:20029   */\n      dup3\n        /* \"#utility.yul\":20019:20034   */\n      add\n        /* \"#utility.yul\":20012:20041   */\n      mstore\n        /* \"#utility.yul\":19827:20048   */\n      pop\n      jump\t// out\n        /* \"#utility.yul\":20054:20420   */\n    tag_304:\n        /* \"#utility.yul\":20196:20199   */\n      0x00\n        /* \"#utility.yul\":20217:20284   */\n      tag_480\n        /* \"#utility.yul\":20281:20283   */\n      0x22\n        /* \"#utility.yul\":20276:20279   */\n      dup4\n        /* \"#utility.yul\":20217:20284   */\n      tag_261\n      jump\t// in\n    tag_480:\n        /* \"#utility.yul\":20210:20284   */\n      swap2\n      pop\n        /* \"#utility.yul\":20293:20386   */\n      tag_481\n        /* \"#utility.yul\":20382:20385   */\n      dup3\n        /* \"#utility.yul\":20293:20386   */\n      tag_303\n      jump\t// in\n    tag_481:\n        /* \"#utility.yul\":20411:20413   */\n      0x40\n        /* \"#utility.yul\":20406:20409   */\n      dup3\n        /* \"#utility.yul\":20402:20414   */\n      add\n        /* \"#utility.yul\":20395:20414   */\n      swap1\n      pop\n        /* \"#utility.yul\":20054:20420   */\n      swap2\n      swap1\n      pop\n      jump\t// out\n        /* \"#utility.yul\":20426:20845   */\n    tag_240:\n        /* \"#utility.yul\":20592:20596   */\n      0x00\n        /* \"#utility.yul\":20630:20632   */\n      0x20\n        /* \"#utility.yul\":20619:20628   */\n      dup3\n        /* \"#utility.yul\":20615:20633   */\n      add\n        /* \"#utility.yul\":20607:20633   */\n      swap1\n      pop\n        /* \"#utility.yul\":20679:20688   */\n      dup2\n        /* \"#utility.yul\":20673:20677   */\n      dup2\n        /* \"#utility.yul\":20669:20689   */\n      sub\n        /* \"#utility.yul\":20665:20666   */\n      0x00\n        /* \"#utility.yul\":20654:20663   */\n      dup4\n        /* \"#utility.yul\":20650:20667   */\n      add\n        /* \"#utility.yul\":20643:20690   */\n      mstore\n        /* \"#utility.yul\":20707:20838   */\n      tag_483\n        /* \"#utility.yul\":20833:20837   */\n      dup2\n        /* \"#utility.yul\":20707:20838   */\n      tag_304\n      jump\t// in\n    tag_483:\n        /* \"#utility.yul\":20699:20838   */\n      swap1\n      pop\n        /* \"#utility.yul\":20426:20845   */\n      swap2\n      swap1\n      pop\n      jump\t// out\n        /* \"#utility.yul\":20851:21032   */\n    tag_305:\n        /* \"#utility.yul\":20991:21024   */\n      0x45524332303a206d696e7420746f20746865207a65726f206164647265737300\n        /* \"#utility.yul\":20987:20988   */\n      0x00\n        /* \"#utility.yul\":20979:20985   */\n      dup3\n        /* \"#utility.yul\":20975:20989   */\n      add\n        /* \"#utility.yul\":20968:21025   */\n      mstore\n        /* \"#utility.yul\":20851:21032   */\n      pop\n      jump\t// out\n        /* \"#utility.yul\":21038:21404   */\n    tag_306:\n        /* \"#utility.yul\":21180:21183   */\n      0x00\n        /* \"#utility.yul\":21201:21268   */\n      tag_486\n        /* \"#utility.yul\":21265:21267   */\n      0x1f\n        /* \"#utility.yul\":21260:21263   */\n      dup4\n        /* \"#utility.yul\":21201:21268   */\n      tag_261\n      jump\t// in\n    tag_486:\n        /* \"#utility.yul\":21194:21268   */\n      swap2\n      pop\n        /* \"#utility.yul\":21277:21370   */\n      tag_487\n        /* \"#utility.yul\":21366:21369   */\n      dup3\n        /* \"#utility.yul\":21277:21370   */\n      tag_305\n      jump\t// in\n    tag_487:\n        /* \"#utility.yul\":21395:21397   */\n      0x20\n        /* \"#utility.yul\":21390:21393   */\n      dup3\n        /* \"#utility.yul\":21386:21398   */\n      add\n        /* \"#utility.yul\":21379:21398   */\n      swap1\n      pop\n        /* \"#utility.yul\":21038:21404   */\n      swap2\n      swap1\n      pop\n      jump\t// out\n        /* \"#utility.yul\":21410:21829   */\n    tag_246:\n        /* \"#utility.yul\":21576:21580   */\n      0x00\n        /* \"#utility.yul\":21614:21616   */\n      0x20\n        /* \"#utility.yul\":21603:21612   */\n      dup3\n        /* \"#utility.yul\":21599:21617   */\n      add\n        /* \"#utility.yul\":21591:21617   */\n      swap1\n      pop\n        /* \"#utility.yul\":21663:21672   */\n      dup2\n        /* \"#utility.yul\":21657:21661   */\n      dup2\n        /* \"#utility.yul\":21653:21673   */\n      sub\n        /* \"#utility.yul\":21649:21650   */\n      0x00\n        /* \"#utility.yul\":21638:21647   */\n      dup4\n        /* \"#utility.yul\":21634:21651   */\n      add\n        /* \"#utility.yul\":21627:21674   */\n      mstore\n        /* \"#utility.yul\":21691:21822   */\n      tag_489\n        /* \"#utility.yul\":21817:21821   */\n      dup2\n        /* \"#utility.yul\":21691:21822   */\n      tag_306\n      jump\t// in\n    tag_489:\n        /* \"#utility.yul\":21683:21822   */\n      swap1\n      pop\n        /* \"#utility.yul\":21410:21829   */\n      swap2\n      swap1\n      pop\n      jump\t// out\n        /* \"#utility.yul\":21835:22017   */\n    tag_307:\n        /* \"#utility.yul\":21975:22009   */\n      0x4f776e61626c653a2063616c6c6572206973206e6f7420746865206f776e6572\n        /* \"#utility.yul\":21971:21972   */\n      0x00\n        /* \"#utility.yul\":21963:21969   */\n      dup3\n        /* \"#utility.yul\":21959:21973   */\n      add\n        /* \"#utility.yul\":21952:22010   */\n      mstore\n        /* \"#utility.yul\":21835:22017   */\n      pop\n      jump\t// out\n        /* \"#utility.yul\":22023:22389   */\n    tag_308:\n        /* \"#utility.yul\":22165:22168   */\n      0x00\n        /* \"#utility.yul\":22186:22253   */\n      tag_492\n        /* \"#utility.yul\":22250:22252   */\n      0x20\n        /* \"#utility.yul\":22245:22248   */\n      dup4\n        /* \"#utility.yul\":22186:22253   */\n      tag_261\n      jump\t// in\n    tag_492:\n        /* \"#utility.yul\":22179:22253   */\n      swap2\n      pop\n        /* \"#utility.yul\":22262:22355   */\n      tag_493\n        /* \"#utility.yul\":22351:22354   */\n      dup3\n        /* \"#utility.yul\":22262:22355   */\n      tag_307\n      jump\t// in\n    tag_493:\n        /* \"#utility.yul\":22380:22382   */\n      0x20\n        /* \"#utility.yul\":22375:22378   */\n      dup3\n        /* \"#utility.yul\":22371:22383   */\n      add\n        /* \"#utility.yul\":22364:22383   */\n      swap1\n      pop\n        /* \"#utility.yul\":22023:22389   */\n      swap2\n      swap1\n      pop\n      jump\t// out\n        /* \"#utility.yul\":22395:22814   */\n    tag_256:\n        /* \"#utility.yul\":22561:22565   */\n      0x00\n        /* \"#utility.yul\":22599:22601   */\n      0x20\n        /* \"#utility.yul\":22588:22597   */\n      dup3\n        /* \"#utility.yul\":22584:22602   */\n      add\n        /* \"#utility.yul\":22576:22602   */\n      swap1\n      pop\n        /* \"#utility.yul\":22648:22657   */\n      dup2\n        /* \"#utility.yul\":22642:22646   */\n      dup2\n        /* \"#utility.yul\":22638:22658   */\n      sub\n        /* \"#utility.yul\":22634:22635   */\n      0x00\n        /* \"#utility.yul\":22623:22632   */\n      dup4\n        /* \"#utility.yul\":22619:22636   */\n      add\n        /* \"#utility.yul\":22612:22659   */\n      mstore\n        /* \"#utility.yul\":22676:22807   */\n      tag_495\n        /* \"#utility.yul\":22802:22806   */\n      dup2\n        /* \"#utility.yul\":22676:22807   */\n      tag_308\n      jump\t// in\n    tag_495:\n        /* \"#utility.yul\":22668:22807   */\n      swap1\n      pop\n        /* \"#utility.yul\":22395:22814   */\n      swap2\n      swap1\n      pop\n      jump\t// out\n\n    auxdata: 0xa26469706673582212206113c95a818a19ac54c09aff4b441ddb49c1ae5a64a3f1d34ab5b34915ca680664736f6c63430008120033\n}\n",
				"bytecode": {
					"linkReferences": {},
					"object": "60806040523480156200001157600080fd5b506040518060400160405280600581526020017f73745156450000000000000000000000000000000000000000000000000000008152506040518060400160405280600581526020017f737451564500000000000000000000000000000000000000000000000000000081525081600390816200008f9190620005de565b508060049081620000a19190620005de565b505050620000c4620000b86200010760201b60201c565b6200010f60201b60201c565b60006006819055506200010133620000f5670de0b6b3a7640000600654620001d560201b62000a261790919060201c565b620001ed60201b60201c565b6200082b565b600033905090565b6000600560009054906101000a900473ffffffffffffffffffffffffffffffffffffffff16905081600560006101000a81548173ffffffffffffffffffffffffffffffffffffffff021916908373ffffffffffffffffffffffffffffffffffffffff1602179055508173ffffffffffffffffffffffffffffffffffffffff168173ffffffffffffffffffffffffffffffffffffffff167f8be0079c531659141344cd1fd0a4f28419497f9722a3daafe3b4186f6b6457e060405160405180910390a35050565b60008183620001e59190620006f4565b905092915050565b600073ffffffffffffffffffffffffffffffffffffffff168273ffffffffffffffffffffffffffffffffffffffff16036200025f576040517f08c379a00000000000000000000000000000000000000000000000000000000081526004016200025690620007a0565b60405180910390fd5b62000273600083836200035a60201b60201c565b8060026000828254620002879190620007c2565b92505081905550806000808473ffffffffffffffffffffffffffffffffffffffff1673ffffffffffffffffffffffffffffffffffffffff168152602001908152602001600020600082825401925050819055508173ffffffffffffffffffffffffffffffffffffffff16600073ffffffffffffffffffffffffffffffffffffffff167fddf252ad1be2c89b69c2b068fc378daa952ba7f163c4a11628f55a4df523b3ef836040516200033a91906200080e565b60405180910390a362000356600083836200035f60201b60201c565b5050565b505050565b505050565b600081519050919050565b7f4e487b7100000000000000000000000000000000000000000000000000000000600052604160045260246000fd5b7f4e487b7100000000000000000000000000000000000000000000000000000000600052602260045260246000fd5b60006002820490506001821680620003e657607f821691505b602082108103620003fc57620003fb6200039e565b5b50919050565b60008190508160005260206000209050919050565b60006020601f8301049050919050565b600082821b905092915050565b600060088302620004667fffffffffffffffffffffffffffffffffffffffffffffffffffffffffffffffff8262000427565b62000472868362000427565b95508019841693508086168417925050509392505050565b6000819050919050565b6000819050919050565b6000620004bf620004b9620004b3846200048a565b62000494565b6200048a565b9050919050565b6000819050919050565b620004db836200049e565b620004f3620004ea82620004c6565b84845462000434565b825550505050565b600090565b6200050a620004fb565b62000517818484620004d0565b505050565b5b818110156200053f576200053360008262000500565b6001810190506200051d565b5050565b601f8211156200058e57620005588162000402565b620005638462000417565b8101602085101562000573578190505b6200058b620005828562000417565b8301826200051c565b50505b505050565b600082821c905092915050565b6000620005b36000198460080262000593565b1980831691505092915050565b6000620005ce8383620005a0565b9150826002028217905092915050565b620005e98262000364565b67ffffffffffffffff8111156200060557620006046200036f565b5b620006118254620003cd565b6200061e82828562000543565b600060209050601f83116001811462000656576000841562000641578287015190505b6200064d8582620005c0565b865550620006bd565b601f198416620006668662000402565b60005b82811015620006905784890151825560018201915060208501945060208101905062000669565b86831015620006b05784890151620006ac601f891682620005a0565b8355505b6001600288020188555050505b505050505050565b7f4e487b7100000000000000000000000000000000000000000000000000000000600052601160045260246000fd5b600062000701826200048a565b91506200070e836200048a565b92508282026200071e816200048a565b91508282048414831517620007385762000737620006c5565b5b5092915050565b600082825260208201905092915050565b7f45524332303a206d696e7420746f20746865207a65726f206164647265737300600082015250565b600062000788601f836200073f565b9150620007958262000750565b602082019050919050565b60006020820190508181036000830152620007bb8162000779565b9050919050565b6000620007cf826200048a565b9150620007dc836200048a565b9250828201905080821115620007f757620007f6620006c5565b5b92915050565b62000808816200048a565b82525050565b6000602082019050620008256000830184620007fd565b92915050565b611fc4806200083b6000396000f3fe608060405234801561001057600080fd5b50600436106101375760003560e01c80635f367b03116100b857806395d89b411161007c57806395d89b4114610364578063a457c2d714610382578063a9059cbb146103b2578063dd62ed3e146103e2578063edd991b314610412578063f2fde38b1461044257610137565b80635f367b03146102c057806370a08231146102f0578063715018a61461032057806379cc67901461032a5780638da5cb5b1461034657610137565b8063313ce567116100ff578063313ce56714610208578063378dc3dc14610226578063395093511461024457806342966c6814610274578063469895c81461029057610137565b806306fdde031461013c578063095ea7b31461015a57806318160ddd1461018a57806323b872dd146101a857806329f436b6146101d8575b600080fd5b61014461045e565b6040516101519190611410565b60405180910390f35b610174600480360381019061016f91906114cb565b6104f0565b6040516101819190611526565b60405180910390f35b610192610513565b60405161019f9190611550565b60405180910390f35b6101c260048036038101906101bd919061156b565b61051d565b6040516101cf9190611526565b60405180910390f35b6101f260048036038101906101ed91906115be565b61054c565b6040516101ff9190611526565b60405180910390f35b610210610570565b60405161021d9190611641565b60405180910390f35b61022e610579565b60405161023b9190611550565b60405180910390f35b61025e600480360381019061025991906114cb565b61057f565b60405161026b9190611526565b60405180910390f35b61028e6004803603810190610289919061165c565b6105b6565b005b6102aa60048036038101906102a5919061156b565b6105ca565b6040516102b79190611526565b60405180910390f35b6102da60048036038101906102d591906114cb565b6106a3565b6040516102e79190611526565b60405180910390f35b61030a60048036038101906103059190611689565b6106f2565b6040516103179190611550565b60405180910390f35b61032861073a565b005b610344600480360381019061033f91906114cb565b61074e565b005b61034e61076e565b60405161035b91906116c5565b60405180910390f35b61036c610798565b6040516103799190611410565b60405180910390f35b61039c600480360381019061039791906114cb565b61082a565b6040516103a99190611526565b60405180910390f35b6103cc60048036038101906103c791906114cb565b6108a1565b6040516103d99190611526565b60405180910390f35b6103fc60048036038101906103f791906116e0565b6108c4565b6040516104099190611550565b60405180910390f35b61042c600480360381019061042791906114cb565b61094b565b6040516104399190611526565b60405180910390f35b61045c60048036038101906104579190611689565b6109a3565b005b60606003805461046d9061174f565b80601f01602080910402602001604051908101604052809291908181526020018280546104999061174f565b80156104e65780601f106104bb576101008083540402835291602001916104e6565b820191906000526020600020905b8154815290600101906020018083116104c957829003601f168201915b5050505050905090565b6000806104fb610a3c565b9050610508818585610a44565b600191505092915050565b6000600254905090565b600080610528610a3c565b9050610535858285610c0d565b610540858585610c99565b60019150509392505050565b6000610559848684610a44565b610564848484610c99565b60019050949350505050565b60006012905090565b60065481565b60008061058a610a3c565b90506105ab81858561059c85896108c4565b6105a691906117af565b610a44565b600191505092915050565b6105c76105c1610a3c565b82610f0f565b50565b6000600560149054906101000a900460ff161561061c576040517f08c379a00000000000000000000000000000000000000000000000000000000081526004016106139061182f565b60405180910390fd5b6001600560146101000a81548160ff021916908315150217905550610642848484610c99565b7f4439c0ab4941d65c68bd3f6d9d2b798b48bb422544e1cff1ee694438760360708484846040516106759392919061184f565b60405180910390a1600190506000600560146101000a81548160ff0219169083151502179055509392505050565b60006106af83836110dc565b7f165442f21bd802645ef0ed01b15992a98b200992a7ffa98dffeb1928a0c0470083836040516106e0929190611886565b60405180910390a16001905092915050565b60008060008373ffffffffffffffffffffffffffffffffffffffff1673ffffffffffffffffffffffffffffffffffffffff168152602001908152602001600020549050919050565b610742611232565b61074c60006112b0565b565b6107608261075a610a3c565b83610c0d565b61076a8282610f0f565b5050565b6000600560009054906101000a900473ffffffffffffffffffffffffffffffffffffffff16905090565b6060600480546107a79061174f565b80601f01602080910402602001604051908101604052809291908181526020018280546107d39061174f565b80156108205780601f106107f557610100808354040283529160200191610820565b820191906000526020600020905b81548152906001019060200180831161080357829003601f168201915b5050505050905090565b600080610835610a3c565b9050600061084382866108c4565b905083811015610888576040517f08c379a000000000000000000000000000000000000000000000000000000000815260040161087f90611921565b60405180910390fd5b6108958286868403610a44565b60019250505092915050565b6000806108ac610a3c565b90506108b9818585610c99565b600191505092915050565b6000600160008473ffffffffffffffffffffffffffffffffffffffff1673ffffffffffffffffffffffffffffffffffffffff16815260200190815260200160002060008373ffffffffffffffffffffffffffffffffffffffff1673ffffffffffffffffffffffffffffffffffffffff16815260200190815260200160002054905092915050565b60006109578383610f0f565b7f06771754ff4904aeea8021b941b110c3bac466ee46a6cbaf2d32801cc89f20f08383610982610513565b60405161099193929190611941565b60405180910390a16001905092915050565b6109ab611232565b600073ffffffffffffffffffffffffffffffffffffffff168173ffffffffffffffffffffffffffffffffffffffff1603610a1a576040517f08c379a0000000000000000000000000000000000000000000000000000000008152600401610a11906119ea565b60405180910390fd5b610a23816112b0565b50565b60008183610a349190611a0a565b905092915050565b600033905090565b600073ffffffffffffffffffffffffffffffffffffffff168373ffffffffffffffffffffffffffffffffffffffff1603610ab3576040517f08c379a0000000000000000000000000000000000000000000000000000000008152600401610aaa90611abe565b60405180910390fd5b600073ffffffffffffffffffffffffffffffffffffffff168273ffffffffffffffffffffffffffffffffffffffff1603610b22576040517f08c379a0000000000000000000000000000000000000000000000000000000008152600401610b1990611b50565b60405180910390fd5b80600160008573ffffffffffffffffffffffffffffffffffffffff1673ffffffffffffffffffffffffffffffffffffffff16815260200190815260200160002060008473ffffffffffffffffffffffffffffffffffffffff1673ffffffffffffffffffffffffffffffffffffffff168152602001908152602001600020819055508173ffffffffffffffffffffffffffffffffffffffff168373ffffffffffffffffffffffffffffffffffffffff167f8c5be1e5ebec7d5bd14f71427d1e84f3dd0314c0f7b2291e5b200ac8c7c3b92583604051610c009190611550565b60405180910390a3505050565b6000610c1984846108c4565b90507fffffffffffffffffffffffffffffffffffffffffffffffffffffffffffffffff8114610c935781811015610c85576040517f08c379a0000000000000000000000000000000000000000000000000000000008152600401610c7c90611bbc565b60405180910390fd5b610c928484848403610a44565b5b50505050565b600073ffffffffffffffffffffffffffffffffffffffff168373ffffffffffffffffffffffffffffffffffffffff1603610d08576040517f08c379a0000000000000000000000000000000000000000000000000000000008152600401610cff90611c4e565b60405180910390fd5b600073ffffffffffffffffffffffffffffffffffffffff168273ffffffffffffffffffffffffffffffffffffffff1603610d77576040517f08c379a0000000000000000000000000000000000000000000000000000000008152600401610d6e90611ce0565b60405180910390fd5b610d82838383611376565b60008060008573ffffffffffffffffffffffffffffffffffffffff1673ffffffffffffffffffffffffffffffffffffffff16815260200190815260200160002054905081811015610e08576040517f08c379a0000000000000000000000000000000000000000000000000000000008152600401610dff90611d72565b60405180910390fd5b8181036000808673ffffffffffffffffffffffffffffffffffffffff1673ffffffffffffffffffffffffffffffffffffffff16815260200190815260200160002081905550816000808573ffffffffffffffffffffffffffffffffffffffff1673ffffffffffffffffffffffffffffffffffffffff168152602001908152602001600020600082825401925050819055508273ffffffffffffffffffffffffffffffffffffffff168473ffffffffffffffffffffffffffffffffffffffff167fddf252ad1be2c89b69c2b068fc378daa952ba7f163c4a11628f55a4df523b3ef84604051610ef69190611550565b60405180910390a3610f0984848461137b565b50505050565b600073ffffffffffffffffffffffffffffffffffffffff168273ffffffffffffffffffffffffffffffffffffffff1603610f7e576040517f08c379a0000000000000000000000000000000000000000000000000000000008152600401610f7590611e04565b60405180910390fd5b610f8a82600083611376565b60008060008473ffffffffffffffffffffffffffffffffffffffff1673ffffffffffffffffffffffffffffffffffffffff16815260200190815260200160002054905081811015611010576040517f08c379a000000000000000000000000000000000000000000000000000000000815260040161100790611e96565b60405180910390fd5b8181036000808573ffffffffffffffffffffffffffffffffffffffff1673ffffffffffffffffffffffffffffffffffffffff1681526020019081526020016000208190555081600260008282540392505081905550600073ffffffffffffffffffffffffffffffffffffffff168373ffffffffffffffffffffffffffffffffffffffff167fddf252ad1be2c89b69c2b068fc378daa952ba7f163c4a11628f55a4df523b3ef846040516110c39190611550565b60405180910390a36110d78360008461137b565b505050565b600073ffffffffffffffffffffffffffffffffffffffff168273ffffffffffffffffffffffffffffffffffffffff160361114b576040517f08c379a000000000000000000000000000000000000000000000000000000000815260040161114290611f02565b60405180910390fd5b61115760008383611376565b806002600082825461116991906117af565b92505081905550806000808473ffffffffffffffffffffffffffffffffffffffff1673ffffffffffffffffffffffffffffffffffffffff168152602001908152602001600020600082825401925050819055508173ffffffffffffffffffffffffffffffffffffffff16600073ffffffffffffffffffffffffffffffffffffffff167fddf252ad1be2c89b69c2b068fc378daa952ba7f163c4a11628f55a4df523b3ef8360405161121a9190611550565b60405180910390a361122e6000838361137b565b5050565b61123a610a3c565b73ffffffffffffffffffffffffffffffffffffffff1661125861076e565b73ffffffffffffffffffffffffffffffffffffffff16146112ae576040517f08c379a00000000000000000000000000000000000000000000000000000000081526004016112a590611f6e565b60405180910390fd5b565b6000600560009054906101000a900473ffffffffffffffffffffffffffffffffffffffff16905081600560006101000a81548173ffffffffffffffffffffffffffffffffffffffff021916908373ffffffffffffffffffffffffffffffffffffffff1602179055508173ffffffffffffffffffffffffffffffffffffffff168173ffffffffffffffffffffffffffffffffffffffff167f8be0079c531659141344cd1fd0a4f28419497f9722a3daafe3b4186f6b6457e060405160405180910390a35050565b505050565b505050565b600081519050919050565b600082825260208201905092915050565b60005b838110156113ba57808201518184015260208101905061139f565b60008484015250505050565b6000601f19601f8301169050919050565b60006113e282611380565b6113ec818561138b565b93506113fc81856020860161139c565b611405816113c6565b840191505092915050565b6000602082019050818103600083015261142a81846113d7565b905092915050565b600080fd5b600073ffffffffffffffffffffffffffffffffffffffff82169050919050565b600061146282611437565b9050919050565b61147281611457565b811461147d57600080fd5b50565b60008135905061148f81611469565b92915050565b6000819050919050565b6114a881611495565b81146114b357600080fd5b50565b6000813590506114c58161149f565b92915050565b600080604083850312156114e2576114e1611432565b5b60006114f085828601611480565b9250506020611501858286016114b6565b9150509250929050565b60008115159050919050565b6115208161150b565b82525050565b600060208201905061153b6000830184611517565b92915050565b61154a81611495565b82525050565b60006020820190506115656000830184611541565b92915050565b60008060006060848603121561158457611583611432565b5b600061159286828701611480565b93505060206115a386828701611480565b92505060406115b4868287016114b6565b9150509250925092565b600080600080608085870312156115d8576115d7611432565b5b60006115e687828801611480565b94505060206115f787828801611480565b935050604061160887828801611480565b9250506060611619878288016114b6565b91505092959194509250565b600060ff82169050919050565b61163b81611625565b82525050565b60006020820190506116566000830184611632565b92915050565b60006020828403121561167257611671611432565b5b6000611680848285016114b6565b91505092915050565b60006020828403121561169f5761169e611432565b5b60006116ad84828501611480565b91505092915050565b6116bf81611457565b82525050565b60006020820190506116da60008301846116b6565b92915050565b600080604083850312156116f7576116f6611432565b5b600061170585828601611480565b925050602061171685828601611480565b9150509250929050565b7f4e487b7100000000000000000000000000000000000000000000000000000000600052602260045260246000fd5b6000600282049050600182168061176757607f821691505b60208210810361177a57611779611720565b5b50919050565b7f4e487b7100000000000000000000000000000000000000000000000000000000600052601160045260246000fd5b60006117ba82611495565b91506117c583611495565b92508282019050808211156117dd576117dc611780565b5b92915050565b7f4e6f205265456e7472616e637900000000000000000000000000000000000000600082015250565b6000611819600d8361138b565b9150611824826117e3565b602082019050919050565b600060208201905081810360008301526118488161180c565b9050919050565b600060608201905061186460008301866116b6565b61187160208301856116b6565b61187e6040830184611541565b949350505050565b600060408201905061189b60008301856116b6565b6118a86020830184611541565b9392505050565b7f45524332303a2064656372656173656420616c6c6f77616e63652062656c6f7760008201527f207a65726f000000000000000000000000000000000000000000000000000000602082015250565b600061190b60258361138b565b9150611916826118af565b604082019050919050565b6000602082019050818103600083015261193a816118fe565b9050919050565b600060608201905061195660008301866116b6565b6119636020830185611541565b6119706040830184611541565b949350505050565b7f4f776e61626c653a206e6577206f776e657220697320746865207a65726f206160008201527f6464726573730000000000000000000000000000000000000000000000000000602082015250565b60006119d460268361138b565b91506119df82611978565b604082019050919050565b60006020820190508181036000830152611a03816119c7565b9050919050565b6000611a1582611495565b9150611a2083611495565b9250828202611a2e81611495565b91508282048414831517611a4557611a44611780565b5b5092915050565b7f45524332303a20617070726f76652066726f6d20746865207a65726f2061646460008201527f7265737300000000000000000000000000000000000000000000000000000000602082015250565b6000611aa860248361138b565b9150611ab382611a4c565b604082019050919050565b60006020820190508181036000830152611ad781611a9b565b9050919050565b7f45524332303a20617070726f766520746f20746865207a65726f20616464726560008201527f7373000000000000000000000000000000000000000000000000000000000000602082015250565b6000611b3a60228361138b565b9150611b4582611ade565b604082019050919050565b60006020820190508181036000830152611b6981611b2d565b9050919050565b7f45524332303a20696e73756666696369656e7420616c6c6f77616e6365000000600082015250565b6000611ba6601d8361138b565b9150611bb182611b70565b602082019050919050565b60006020820190508181036000830152611bd581611b99565b9050919050565b7f45524332303a207472616e736665722066726f6d20746865207a65726f20616460008201527f6472657373000000000000000000000000000000000000000000000000000000602082015250565b6000611c3860258361138b565b9150611c4382611bdc565b604082019050919050565b60006020820190508181036000830152611c6781611c2b565b9050919050565b7f45524332303a207472616e7366657220746f20746865207a65726f206164647260008201527f6573730000000000000000000000000000000000000000000000000000000000602082015250565b6000611cca60238361138b565b9150611cd582611c6e565b604082019050919050565b60006020820190508181036000830152611cf981611cbd565b9050919050565b7f45524332303a207472616e7366657220616d6f756e742065786365656473206260008201527f616c616e63650000000000000000000000000000000000000000000000000000602082015250565b6000611d5c60268361138b565b9150611d6782611d00565b604082019050919050565b60006020820190508181036000830152611d8b81611d4f565b9050919050565b7f45524332303a206275726e2066726f6d20746865207a65726f2061646472657360008201527f7300000000000000000000000000000000000000000000000000000000000000602082015250565b6000611dee60218361138b565b9150611df982611d92565b604082019050919050565b60006020820190508181036000830152611e1d81611de1565b9050919050565b7f45524332303a206275726e20616d6f756e7420657863656564732062616c616e60008201527f6365000000000000000000000000000000000000000000000000000000000000602082015250565b6000611e8060228361138b565b9150611e8b82611e24565b604082019050919050565b60006020820190508181036000830152611eaf81611e73565b9050919050565b7f45524332303a206d696e7420746f20746865207a65726f206164647265737300600082015250565b6000611eec601f8361138b565b9150611ef782611eb6565b602082019050919050565b60006020820190508181036000830152611f1b81611edf565b9050919050565b7f4f776e61626c653a2063616c6c6572206973206e6f7420746865206f776e6572600082015250565b6000611f5860208361138b565b9150611f6382611f22565b602082019050919050565b60006020820190508181036000830152611f8781611f4b565b905091905056fea26469706673582212206113c95a818a19ac54c09aff4b441ddb49c1ae5a64a3f1d34ab5b34915ca680664736f6c63430008120033",
					"opcodes": "PUSH1 0x80 PUSH1 0x40 MSTORE CALLVALUE DUP1 ISZERO PUSH3 0x11 JUMPI PUSH1 0x0 DUP1 REVERT JUMPDEST POP PUSH1 0x40 MLOAD DUP1 PUSH1 0x40 ADD PUSH1 0x40 MSTORE DUP1 PUSH1 0x5 DUP2 MSTORE PUSH1 0x20 ADD PUSH32 0x7374515645000000000000000000000000000000000000000000000000000000 DUP2 MSTORE POP PUSH1 0x40 MLOAD DUP1 PUSH1 0x40 ADD PUSH1 0x40 MSTORE DUP1 PUSH1 0x5 DUP2 MSTORE PUSH1 0x20 ADD PUSH32 0x7374515645000000000000000000000000000000000000000000000000000000 DUP2 MSTORE POP DUP2 PUSH1 0x3 SWAP1 DUP2 PUSH3 0x8F SWAP2 SWAP1 PUSH3 0x5DE JUMP JUMPDEST POP DUP1 PUSH1 0x4 SWAP1 DUP2 PUSH3 0xA1 SWAP2 SWAP1 PUSH3 0x5DE JUMP JUMPDEST POP POP POP PUSH3 0xC4 PUSH3 0xB8 PUSH3 0x107 PUSH1 0x20 SHL PUSH1 0x20 SHR JUMP JUMPDEST PUSH3 0x10F PUSH1 0x20 SHL PUSH1 0x20 SHR JUMP JUMPDEST PUSH1 0x0 PUSH1 0x6 DUP2 SWAP1 SSTORE POP PUSH3 0x101 CALLER PUSH3 0xF5 PUSH8 0xDE0B6B3A7640000 PUSH1 0x6 SLOAD PUSH3 0x1D5 PUSH1 0x20 SHL PUSH3 0xA26 OR SWAP1 SWAP2 SWAP1 PUSH1 0x20 SHR JUMP JUMPDEST PUSH3 0x1ED PUSH1 0x20 SHL PUSH1 0x20 SHR JUMP JUMPDEST PUSH3 0x82B JUMP JUMPDEST PUSH1 0x0 CALLER SWAP1 POP SWAP1 JUMP JUMPDEST PUSH1 0x0 PUSH1 0x5 PUSH1 0x0 SWAP1 SLOAD SWAP1 PUSH2 0x100 EXP SWAP1 DIV PUSH20 0xFFFFFFFFFFFFFFFFFFFFFFFFFFFFFFFFFFFFFFFF AND SWAP1 POP DUP2 PUSH1 0x5 PUSH1 0x0 PUSH2 0x100 EXP DUP2 SLOAD DUP2 PUSH20 0xFFFFFFFFFFFFFFFFFFFFFFFFFFFFFFFFFFFFFFFF MUL NOT AND SWAP1 DUP4 PUSH20 0xFFFFFFFFFFFFFFFFFFFFFFFFFFFFFFFFFFFFFFFF AND MUL OR SWAP1 SSTORE POP DUP2 PUSH20 0xFFFFFFFFFFFFFFFFFFFFFFFFFFFFFFFFFFFFFFFF AND DUP2 PUSH20 0xFFFFFFFFFFFFFFFFFFFFFFFFFFFFFFFFFFFFFFFF AND PUSH32 0x8BE0079C531659141344CD1FD0A4F28419497F9722A3DAAFE3B4186F6B6457E0 PUSH1 0x40 MLOAD PUSH1 0x40 MLOAD DUP1 SWAP2 SUB SWAP1 LOG3 POP POP JUMP JUMPDEST PUSH1 0x0 DUP2 DUP4 PUSH3 0x1E5 SWAP2 SWAP1 PUSH3 0x6F4 JUMP JUMPDEST SWAP1 POP SWAP3 SWAP2 POP POP JUMP JUMPDEST PUSH1 0x0 PUSH20 0xFFFFFFFFFFFFFFFFFFFFFFFFFFFFFFFFFFFFFFFF AND DUP3 PUSH20 0xFFFFFFFFFFFFFFFFFFFFFFFFFFFFFFFFFFFFFFFF AND SUB PUSH3 0x25F JUMPI PUSH1 0x40 MLOAD PUSH32 0x8C379A000000000000000000000000000000000000000000000000000000000 DUP2 MSTORE PUSH1 0x4 ADD PUSH3 0x256 SWAP1 PUSH3 0x7A0 JUMP JUMPDEST PUSH1 0x40 MLOAD DUP1 SWAP2 SUB SWAP1 REVERT JUMPDEST PUSH3 0x273 PUSH1 0x0 DUP4 DUP4 PUSH3 0x35A PUSH1 0x20 SHL PUSH1 0x20 SHR JUMP JUMPDEST DUP1 PUSH1 0x2 PUSH1 0x0 DUP3 DUP3 SLOAD PUSH3 0x287 SWAP2 SWAP1 PUSH3 0x7C2 JUMP JUMPDEST SWAP3 POP POP DUP2 SWAP1 SSTORE POP DUP1 PUSH1 0x0 DUP1 DUP5 PUSH20 0xFFFFFFFFFFFFFFFFFFFFFFFFFFFFFFFFFFFFFFFF AND PUSH20 0xFFFFFFFFFFFFFFFFFFFFFFFFFFFFFFFFFFFFFFFF AND DUP2 MSTORE PUSH1 0x20 ADD SWAP1 DUP2 MSTORE PUSH1 0x20 ADD PUSH1 0x0 KECCAK256 PUSH1 0x0 DUP3 DUP3 SLOAD ADD SWAP3 POP POP DUP2 SWAP1 SSTORE POP DUP2 PUSH20 0xFFFFFFFFFFFFFFFFFFFFFFFFFFFFFFFFFFFFFFFF AND PUSH1 0x0 PUSH20 0xFFFFFFFFFFFFFFFFFFFFFFFFFFFFFFFFFFFFFFFF AND PUSH32 0xDDF252AD1BE2C89B69C2B068FC378DAA952BA7F163C4A11628F55A4DF523B3EF DUP4 PUSH1 0x40 MLOAD PUSH3 0x33A SWAP2 SWAP1 PUSH3 0x80E JUMP JUMPDEST PUSH1 0x40 MLOAD DUP1 SWAP2 SUB SWAP1 LOG3 PUSH3 0x356 PUSH1 0x0 DUP4 DUP4 PUSH3 0x35F PUSH1 0x20 SHL PUSH1 0x20 SHR JUMP JUMPDEST POP POP JUMP JUMPDEST POP POP POP JUMP JUMPDEST POP POP POP JUMP JUMPDEST PUSH1 0x0 DUP2 MLOAD SWAP1 POP SWAP2 SWAP1 POP JUMP JUMPDEST PUSH32 0x4E487B7100000000000000000000000000000000000000000000000000000000 PUSH1 0x0 MSTORE PUSH1 0x41 PUSH1 0x4 MSTORE PUSH1 0x24 PUSH1 0x0 REVERT JUMPDEST PUSH32 0x4E487B7100000000000000000000000000000000000000000000000000000000 PUSH1 0x0 MSTORE PUSH1 0x22 PUSH1 0x4 MSTORE PUSH1 0x24 PUSH1 0x0 REVERT JUMPDEST PUSH1 0x0 PUSH1 0x2 DUP3 DIV SWAP1 POP PUSH1 0x1 DUP3 AND DUP1 PUSH3 0x3E6 JUMPI PUSH1 0x7F DUP3 AND SWAP2 POP JUMPDEST PUSH1 0x20 DUP3 LT DUP2 SUB PUSH3 0x3FC JUMPI PUSH3 0x3FB PUSH3 0x39E JUMP JUMPDEST JUMPDEST POP SWAP2 SWAP1 POP JUMP JUMPDEST PUSH1 0x0 DUP2 SWAP1 POP DUP2 PUSH1 0x0 MSTORE PUSH1 0x20 PUSH1 0x0 KECCAK256 SWAP1 POP SWAP2 SWAP1 POP JUMP JUMPDEST PUSH1 0x0 PUSH1 0x20 PUSH1 0x1F DUP4 ADD DIV SWAP1 POP SWAP2 SWAP1 POP JUMP JUMPDEST PUSH1 0x0 DUP3 DUP3 SHL SWAP1 POP SWAP3 SWAP2 POP POP JUMP JUMPDEST PUSH1 0x0 PUSH1 0x8 DUP4 MUL PUSH3 0x466 PUSH32 0xFFFFFFFFFFFFFFFFFFFFFFFFFFFFFFFFFFFFFFFFFFFFFFFFFFFFFFFFFFFFFFFF DUP3 PUSH3 0x427 JUMP JUMPDEST PUSH3 0x472 DUP7 DUP4 PUSH3 0x427 JUMP JUMPDEST SWAP6 POP DUP1 NOT DUP5 AND SWAP4 POP DUP1 DUP7 AND DUP5 OR SWAP3 POP POP POP SWAP4 SWAP3 POP POP POP JUMP JUMPDEST PUSH1 0x0 DUP2 SWAP1 POP SWAP2 SWAP1 POP JUMP JUMPDEST PUSH1 0x0 DUP2 SWAP1 POP SWAP2 SWAP1 POP JUMP JUMPDEST PUSH1 0x0 PUSH3 0x4BF PUSH3 0x4B9 PUSH3 0x4B3 DUP5 PUSH3 0x48A JUMP JUMPDEST PUSH3 0x494 JUMP JUMPDEST PUSH3 0x48A JUMP JUMPDEST SWAP1 POP SWAP2 SWAP1 POP JUMP JUMPDEST PUSH1 0x0 DUP2 SWAP1 POP SWAP2 SWAP1 POP JUMP JUMPDEST PUSH3 0x4DB DUP4 PUSH3 0x49E JUMP JUMPDEST PUSH3 0x4F3 PUSH3 0x4EA DUP3 PUSH3 0x4C6 JUMP JUMPDEST DUP5 DUP5 SLOAD PUSH3 0x434 JUMP JUMPDEST DUP3 SSTORE POP POP POP POP JUMP JUMPDEST PUSH1 0x0 SWAP1 JUMP JUMPDEST PUSH3 0x50A PUSH3 0x4FB JUMP JUMPDEST PUSH3 0x517 DUP2 DUP5 DUP5 PUSH3 0x4D0 JUMP JUMPDEST POP POP POP JUMP JUMPDEST JUMPDEST DUP2 DUP2 LT ISZERO PUSH3 0x53F JUMPI PUSH3 0x533 PUSH1 0x0 DUP3 PUSH3 0x500 JUMP JUMPDEST PUSH1 0x1 DUP2 ADD SWAP1 POP PUSH3 0x51D JUMP JUMPDEST POP POP JUMP JUMPDEST PUSH1 0x1F DUP3 GT ISZERO PUSH3 0x58E JUMPI PUSH3 0x558 DUP2 PUSH3 0x402 JUMP JUMPDEST PUSH3 0x563 DUP5 PUSH3 0x417 JUMP JUMPDEST DUP2 ADD PUSH1 0x20 DUP6 LT ISZERO PUSH3 0x573 JUMPI DUP2 SWAP1 POP JUMPDEST PUSH3 0x58B PUSH3 0x582 DUP6 PUSH3 0x417 JUMP JUMPDEST DUP4 ADD DUP3 PUSH3 0x51C JUMP JUMPDEST POP POP JUMPDEST POP POP POP JUMP JUMPDEST PUSH1 0x0 DUP3 DUP3 SHR SWAP1 POP SWAP3 SWAP2 POP POP JUMP JUMPDEST PUSH1 0x0 PUSH3 0x5B3 PUSH1 0x0 NOT DUP5 PUSH1 0x8 MUL PUSH3 0x593 JUMP JUMPDEST NOT DUP1 DUP4 AND SWAP2 POP POP SWAP3 SWAP2 POP POP JUMP JUMPDEST PUSH1 0x0 PUSH3 0x5CE DUP4 DUP4 PUSH3 0x5A0 JUMP JUMPDEST SWAP2 POP DUP3 PUSH1 0x2 MUL DUP3 OR SWAP1 POP SWAP3 SWAP2 POP POP JUMP JUMPDEST PUSH3 0x5E9 DUP3 PUSH3 0x364 JUMP JUMPDEST PUSH8 0xFFFFFFFFFFFFFFFF DUP2 GT ISZERO PUSH3 0x605 JUMPI PUSH3 0x604 PUSH3 0x36F JUMP JUMPDEST JUMPDEST PUSH3 0x611 DUP3 SLOAD PUSH3 0x3CD JUMP JUMPDEST PUSH3 0x61E DUP3 DUP3 DUP6 PUSH3 0x543 JUMP JUMPDEST PUSH1 0x0 PUSH1 0x20 SWAP1 POP PUSH1 0x1F DUP4 GT PUSH1 0x1 DUP2 EQ PUSH3 0x656 JUMPI PUSH1 0x0 DUP5 ISZERO PUSH3 0x641 JUMPI DUP3 DUP8 ADD MLOAD SWAP1 POP JUMPDEST PUSH3 0x64D DUP6 DUP3 PUSH3 0x5C0 JUMP JUMPDEST DUP7 SSTORE POP PUSH3 0x6BD JUMP JUMPDEST PUSH1 0x1F NOT DUP5 AND PUSH3 0x666 DUP7 PUSH3 0x402 JUMP JUMPDEST PUSH1 0x0 JUMPDEST DUP3 DUP2 LT ISZERO PUSH3 0x690 JUMPI DUP5 DUP10 ADD MLOAD DUP3 SSTORE PUSH1 0x1 DUP3 ADD SWAP2 POP PUSH1 0x20 DUP6 ADD SWAP5 POP PUSH1 0x20 DUP2 ADD SWAP1 POP PUSH3 0x669 JUMP JUMPDEST DUP7 DUP4 LT ISZERO PUSH3 0x6B0 JUMPI DUP5 DUP10 ADD MLOAD PUSH3 0x6AC PUSH1 0x1F DUP10 AND DUP3 PUSH3 0x5A0 JUMP JUMPDEST DUP4 SSTORE POP JUMPDEST PUSH1 0x1 PUSH1 0x2 DUP9 MUL ADD DUP9 SSTORE POP POP POP JUMPDEST POP POP POP POP POP POP JUMP JUMPDEST PUSH32 0x4E487B7100000000000000000000000000000000000000000000000000000000 PUSH1 0x0 MSTORE PUSH1 0x11 PUSH1 0x4 MSTORE PUSH1 0x24 PUSH1 0x0 REVERT JUMPDEST PUSH1 0x0 PUSH3 0x701 DUP3 PUSH3 0x48A JUMP JUMPDEST SWAP2 POP PUSH3 0x70E DUP4 PUSH3 0x48A JUMP JUMPDEST SWAP3 POP DUP3 DUP3 MUL PUSH3 0x71E DUP2 PUSH3 0x48A JUMP JUMPDEST SWAP2 POP DUP3 DUP3 DIV DUP5 EQ DUP4 ISZERO OR PUSH3 0x738 JUMPI PUSH3 0x737 PUSH3 0x6C5 JUMP JUMPDEST JUMPDEST POP SWAP3 SWAP2 POP POP JUMP JUMPDEST PUSH1 0x0 DUP3 DUP3 MSTORE PUSH1 0x20 DUP3 ADD SWAP1 POP SWAP3 SWAP2 POP POP JUMP JUMPDEST PUSH32 0x45524332303A206D696E7420746F20746865207A65726F206164647265737300 PUSH1 0x0 DUP3 ADD MSTORE POP JUMP JUMPDEST PUSH1 0x0 PUSH3 0x788 PUSH1 0x1F DUP4 PUSH3 0x73F JUMP JUMPDEST SWAP2 POP PUSH3 0x795 DUP3 PUSH3 0x750 JUMP JUMPDEST PUSH1 0x20 DUP3 ADD SWAP1 POP SWAP2 SWAP1 POP JUMP JUMPDEST PUSH1 0x0 PUSH1 0x20 DUP3 ADD SWAP1 POP DUP2 DUP2 SUB PUSH1 0x0 DUP4 ADD MSTORE PUSH3 0x7BB DUP2 PUSH3 0x779 JUMP JUMPDEST SWAP1 POP SWAP2 SWAP1 POP JUMP JUMPDEST PUSH1 0x0 PUSH3 0x7CF DUP3 PUSH3 0x48A JUMP JUMPDEST SWAP2 POP PUSH3 0x7DC DUP4 PUSH3 0x48A JUMP JUMPDEST SWAP3 POP DUP3 DUP3 ADD SWAP1 POP DUP1 DUP3 GT ISZERO PUSH3 0x7F7 JUMPI PUSH3 0x7F6 PUSH3 0x6C5 JUMP JUMPDEST JUMPDEST SWAP3 SWAP2 POP POP JUMP JUMPDEST PUSH3 0x808 DUP2 PUSH3 0x48A JUMP JUMPDEST DUP3 MSTORE POP POP JUMP JUMPDEST PUSH1 0x0 PUSH1 0x20 DUP3 ADD SWAP1 POP PUSH3 0x825 PUSH1 0x0 DUP4 ADD DUP5 PUSH3 0x7FD JUMP JUMPDEST SWAP3 SWAP2 POP POP JUMP JUMPDEST PUSH2 0x1FC4 DUP1 PUSH3 0x83B PUSH1 0x0 CODECOPY PUSH1 0x0 RETURN INVALID PUSH1 0x80 PUSH1 0x40 MSTORE CALLVALUE DUP1 ISZERO PUSH2 0x10 JUMPI PUSH1 0x0 DUP1 REVERT JUMPDEST POP PUSH1 0x4 CALLDATASIZE LT PUSH2 0x137 JUMPI PUSH1 0x0 CALLDATALOAD PUSH1 0xE0 SHR DUP1 PUSH4 0x5F367B03 GT PUSH2 0xB8 JUMPI DUP1 PUSH4 0x95D89B41 GT PUSH2 0x7C JUMPI DUP1 PUSH4 0x95D89B41 EQ PUSH2 0x364 JUMPI DUP1 PUSH4 0xA457C2D7 EQ PUSH2 0x382 JUMPI DUP1 PUSH4 0xA9059CBB EQ PUSH2 0x3B2 JUMPI DUP1 PUSH4 0xDD62ED3E EQ PUSH2 0x3E2 JUMPI DUP1 PUSH4 0xEDD991B3 EQ PUSH2 0x412 JUMPI DUP1 PUSH4 0xF2FDE38B EQ PUSH2 0x442 JUMPI PUSH2 0x137 JUMP JUMPDEST DUP1 PUSH4 0x5F367B03 EQ PUSH2 0x2C0 JUMPI DUP1 PUSH4 0x70A08231 EQ PUSH2 0x2F0 JUMPI DUP1 PUSH4 0x715018A6 EQ PUSH2 0x320 JUMPI DUP1 PUSH4 0x79CC6790 EQ PUSH2 0x32A JUMPI DUP1 PUSH4 0x8DA5CB5B EQ PUSH2 0x346 JUMPI PUSH2 0x137 JUMP JUMPDEST DUP1 PUSH4 0x313CE567 GT PUSH2 0xFF JUMPI DUP1 PUSH4 0x313CE567 EQ PUSH2 0x208 JUMPI DUP1 PUSH4 0x378DC3DC EQ PUSH2 0x226 JUMPI DUP1 PUSH4 0x39509351 EQ PUSH2 0x244 JUMPI DUP1 PUSH4 0x42966C68 EQ PUSH2 0x274 JUMPI DUP1 PUSH4 0x469895C8 EQ PUSH2 0x290 JUMPI PUSH2 0x137 JUMP JUMPDEST DUP1 PUSH4 0x6FDDE03 EQ PUSH2 0x13C JUMPI DUP1 PUSH4 0x95EA7B3 EQ PUSH2 0x15A JUMPI DUP1 PUSH4 0x18160DDD EQ PUSH2 0x18A JUMPI DUP1 PUSH4 0x23B872DD EQ PUSH2 0x1A8 JUMPI DUP1 PUSH4 0x29F436B6 EQ PUSH2 0x1D8 JUMPI JUMPDEST PUSH1 0x0 DUP1 REVERT JUMPDEST PUSH2 0x144 PUSH2 0x45E JUMP JUMPDEST PUSH1 0x40 MLOAD PUSH2 0x151 SWAP2 SWAP1 PUSH2 0x1410 JUMP JUMPDEST PUSH1 0x40 MLOAD DUP1 SWAP2 SUB SWAP1 RETURN JUMPDEST PUSH2 0x174 PUSH1 0x4 DUP1 CALLDATASIZE SUB DUP2 ADD SWAP1 PUSH2 0x16F SWAP2 SWAP1 PUSH2 0x14CB JUMP JUMPDEST PUSH2 0x4F0 JUMP JUMPDEST PUSH1 0x40 MLOAD PUSH2 0x181 SWAP2 SWAP1 PUSH2 0x1526 JUMP JUMPDEST PUSH1 0x40 MLOAD DUP1 SWAP2 SUB SWAP1 RETURN JUMPDEST PUSH2 0x192 PUSH2 0x513 JUMP JUMPDEST PUSH1 0x40 MLOAD PUSH2 0x19F SWAP2 SWAP1 PUSH2 0x1550 JUMP JUMPDEST PUSH1 0x40 MLOAD DUP1 SWAP2 SUB SWAP1 RETURN JUMPDEST PUSH2 0x1C2 PUSH1 0x4 DUP1 CALLDATASIZE SUB DUP2 ADD SWAP1 PUSH2 0x1BD SWAP2 SWAP1 PUSH2 0x156B JUMP JUMPDEST PUSH2 0x51D JUMP JUMPDEST PUSH1 0x40 MLOAD PUSH2 0x1CF SWAP2 SWAP1 PUSH2 0x1526 JUMP JUMPDEST PUSH1 0x40 MLOAD DUP1 SWAP2 SUB SWAP1 RETURN JUMPDEST PUSH2 0x1F2 PUSH1 0x4 DUP1 CALLDATASIZE SUB DUP2 ADD SWAP1 PUSH2 0x1ED SWAP2 SWAP1 PUSH2 0x15BE JUMP JUMPDEST PUSH2 0x54C JUMP JUMPDEST PUSH1 0x40 MLOAD PUSH2 0x1FF SWAP2 SWAP1 PUSH2 0x1526 JUMP JUMPDEST PUSH1 0x40 MLOAD DUP1 SWAP2 SUB SWAP1 RETURN JUMPDEST PUSH2 0x210 PUSH2 0x570 JUMP JUMPDEST PUSH1 0x40 MLOAD PUSH2 0x21D SWAP2 SWAP1 PUSH2 0x1641 JUMP JUMPDEST PUSH1 0x40 MLOAD DUP1 SWAP2 SUB SWAP1 RETURN JUMPDEST PUSH2 0x22E PUSH2 0x579 JUMP JUMPDEST PUSH1 0x40 MLOAD PUSH2 0x23B SWAP2 SWAP1 PUSH2 0x1550 JUMP JUMPDEST PUSH1 0x40 MLOAD DUP1 SWAP2 SUB SWAP1 RETURN JUMPDEST PUSH2 0x25E PUSH1 0x4 DUP1 CALLDATASIZE SUB DUP2 ADD SWAP1 PUSH2 0x259 SWAP2 SWAP1 PUSH2 0x14CB JUMP JUMPDEST PUSH2 0x57F JUMP JUMPDEST PUSH1 0x40 MLOAD PUSH2 0x26B SWAP2 SWAP1 PUSH2 0x1526 JUMP JUMPDEST PUSH1 0x40 MLOAD DUP1 SWAP2 SUB SWAP1 RETURN JUMPDEST PUSH2 0x28E PUSH1 0x4 DUP1 CALLDATASIZE SUB DUP2 ADD SWAP1 PUSH2 0x289 SWAP2 SWAP1 PUSH2 0x165C JUMP JUMPDEST PUSH2 0x5B6 JUMP JUMPDEST STOP JUMPDEST PUSH2 0x2AA PUSH1 0x4 DUP1 CALLDATASIZE SUB DUP2 ADD SWAP1 PUSH2 0x2A5 SWAP2 SWAP1 PUSH2 0x156B JUMP JUMPDEST PUSH2 0x5CA JUMP JUMPDEST PUSH1 0x40 MLOAD PUSH2 0x2B7 SWAP2 SWAP1 PUSH2 0x1526 JUMP JUMPDEST PUSH1 0x40 MLOAD DUP1 SWAP2 SUB SWAP1 RETURN JUMPDEST PUSH2 0x2DA PUSH1 0x4 DUP1 CALLDATASIZE SUB DUP2 ADD SWAP1 PUSH2 0x2D5 SWAP2 SWAP1 PUSH2 0x14CB JUMP JUMPDEST PUSH2 0x6A3 JUMP JUMPDEST PUSH1 0x40 MLOAD PUSH2 0x2E7 SWAP2 SWAP1 PUSH2 0x1526 JUMP JUMPDEST PUSH1 0x40 MLOAD DUP1 SWAP2 SUB SWAP1 RETURN JUMPDEST PUSH2 0x30A PUSH1 0x4 DUP1 CALLDATASIZE SUB DUP2 ADD SWAP1 PUSH2 0x305 SWAP2 SWAP1 PUSH2 0x1689 JUMP JUMPDEST PUSH2 0x6F2 JUMP JUMPDEST PUSH1 0x40 MLOAD PUSH2 0x317 SWAP2 SWAP1 PUSH2 0x1550 JUMP JUMPDEST PUSH1 0x40 MLOAD DUP1 SWAP2 SUB SWAP1 RETURN JUMPDEST PUSH2 0x328 PUSH2 0x73A JUMP JUMPDEST STOP JUMPDEST PUSH2 0x344 PUSH1 0x4 DUP1 CALLDATASIZE SUB DUP2 ADD SWAP1 PUSH2 0x33F SWAP2 SWAP1 PUSH2 0x14CB JUMP JUMPDEST PUSH2 0x74E JUMP JUMPDEST STOP JUMPDEST PUSH2 0x34E PUSH2 0x76E JUMP JUMPDEST PUSH1 0x40 MLOAD PUSH2 0x35B SWAP2 SWAP1 PUSH2 0x16C5 JUMP JUMPDEST PUSH1 0x40 MLOAD DUP1 SWAP2 SUB SWAP1 RETURN JUMPDEST PUSH2 0x36C PUSH2 0x798 JUMP JUMPDEST PUSH1 0x40 MLOAD PUSH2 0x379 SWAP2 SWAP1 PUSH2 0x1410 JUMP JUMPDEST PUSH1 0x40 MLOAD DUP1 SWAP2 SUB SWAP1 RETURN JUMPDEST PUSH2 0x39C PUSH1 0x4 DUP1 CALLDATASIZE SUB DUP2 ADD SWAP1 PUSH2 0x397 SWAP2 SWAP1 PUSH2 0x14CB JUMP JUMPDEST PUSH2 0x82A JUMP JUMPDEST PUSH1 0x40 MLOAD PUSH2 0x3A9 SWAP2 SWAP1 PUSH2 0x1526 JUMP JUMPDEST PUSH1 0x40 MLOAD DUP1 SWAP2 SUB SWAP1 RETURN JUMPDEST PUSH2 0x3CC PUSH1 0x4 DUP1 CALLDATASIZE SUB DUP2 ADD SWAP1 PUSH2 0x3C7 SWAP2 SWAP1 PUSH2 0x14CB JUMP JUMPDEST PUSH2 0x8A1 JUMP JUMPDEST PUSH1 0x40 MLOAD PUSH2 0x3D9 SWAP2 SWAP1 PUSH2 0x1526 JUMP JUMPDEST PUSH1 0x40 MLOAD DUP1 SWAP2 SUB SWAP1 RETURN JUMPDEST PUSH2 0x3FC PUSH1 0x4 DUP1 CALLDATASIZE SUB DUP2 ADD SWAP1 PUSH2 0x3F7 SWAP2 SWAP1 PUSH2 0x16E0 JUMP JUMPDEST PUSH2 0x8C4 JUMP JUMPDEST PUSH1 0x40 MLOAD PUSH2 0x409 SWAP2 SWAP1 PUSH2 0x1550 JUMP JUMPDEST PUSH1 0x40 MLOAD DUP1 SWAP2 SUB SWAP1 RETURN JUMPDEST PUSH2 0x42C PUSH1 0x4 DUP1 CALLDATASIZE SUB DUP2 ADD SWAP1 PUSH2 0x427 SWAP2 SWAP1 PUSH2 0x14CB JUMP JUMPDEST PUSH2 0x94B JUMP JUMPDEST PUSH1 0x40 MLOAD PUSH2 0x439 SWAP2 SWAP1 PUSH2 0x1526 JUMP JUMPDEST PUSH1 0x40 MLOAD DUP1 SWAP2 SUB SWAP1 RETURN JUMPDEST PUSH2 0x45C PUSH1 0x4 DUP1 CALLDATASIZE SUB DUP2 ADD SWAP1 PUSH2 0x457 SWAP2 SWAP1 PUSH2 0x1689 JUMP JUMPDEST PUSH2 0x9A3 JUMP JUMPDEST STOP JUMPDEST PUSH1 0x60 PUSH1 0x3 DUP1 SLOAD PUSH2 0x46D SWAP1 PUSH2 0x174F JUMP JUMPDEST DUP1 PUSH1 0x1F ADD PUSH1 0x20 DUP1 SWAP2 DIV MUL PUSH1 0x20 ADD PUSH1 0x40 MLOAD SWAP1 DUP2 ADD PUSH1 0x40 MSTORE DUP1 SWAP3 SWAP2 SWAP1 DUP2 DUP2 MSTORE PUSH1 0x20 ADD DUP3 DUP1 SLOAD PUSH2 0x499 SWAP1 PUSH2 0x174F JUMP JUMPDEST DUP1 ISZERO PUSH2 0x4E6 JUMPI DUP1 PUSH1 0x1F LT PUSH2 0x4BB JUMPI PUSH2 0x100 DUP1 DUP4 SLOAD DIV MUL DUP4 MSTORE SWAP2 PUSH1 0x20 ADD SWAP2 PUSH2 0x4E6 JUMP JUMPDEST DUP3 ADD SWAP2 SWAP1 PUSH1 0x0 MSTORE PUSH1 0x20 PUSH1 0x0 KECCAK256 SWAP1 JUMPDEST DUP2 SLOAD DUP2 MSTORE SWAP1 PUSH1 0x1 ADD SWAP1 PUSH1 0x20 ADD DUP1 DUP4 GT PUSH2 0x4C9 JUMPI DUP3 SWAP1 SUB PUSH1 0x1F AND DUP3 ADD SWAP2 JUMPDEST POP POP POP POP POP SWAP1 POP SWAP1 JUMP JUMPDEST PUSH1 0x0 DUP1 PUSH2 0x4FB PUSH2 0xA3C JUMP JUMPDEST SWAP1 POP PUSH2 0x508 DUP2 DUP6 DUP6 PUSH2 0xA44 JUMP JUMPDEST PUSH1 0x1 SWAP2 POP POP SWAP3 SWAP2 POP POP JUMP JUMPDEST PUSH1 0x0 PUSH1 0x2 SLOAD SWAP1 POP SWAP1 JUMP JUMPDEST PUSH1 0x0 DUP1 PUSH2 0x528 PUSH2 0xA3C JUMP JUMPDEST SWAP1 POP PUSH2 0x535 DUP6 DUP3 DUP6 PUSH2 0xC0D JUMP JUMPDEST PUSH2 0x540 DUP6 DUP6 DUP6 PUSH2 0xC99 JUMP JUMPDEST PUSH1 0x1 SWAP2 POP POP SWAP4 SWAP3 POP POP POP JUMP JUMPDEST PUSH1 0x0 PUSH2 0x559 DUP5 DUP7 DUP5 PUSH2 0xA44 JUMP JUMPDEST PUSH2 0x564 DUP5 DUP5 DUP5 PUSH2 0xC99 JUMP JUMPDEST PUSH1 0x1 SWAP1 POP SWAP5 SWAP4 POP POP POP POP JUMP JUMPDEST PUSH1 0x0 PUSH1 0x12 SWAP1 POP SWAP1 JUMP JUMPDEST PUSH1 0x6 SLOAD DUP2 JUMP JUMPDEST PUSH1 0x0 DUP1 PUSH2 0x58A PUSH2 0xA3C JUMP JUMPDEST SWAP1 POP PUSH2 0x5AB DUP2 DUP6 DUP6 PUSH2 0x59C DUP6 DUP10 PUSH2 0x8C4 JUMP JUMPDEST PUSH2 0x5A6 SWAP2 SWAP1 PUSH2 0x17AF JUMP JUMPDEST PUSH2 0xA44 JUMP JUMPDEST PUSH1 0x1 SWAP2 POP POP SWAP3 SWAP2 POP POP JUMP JUMPDEST PUSH2 0x5C7 PUSH2 0x5C1 PUSH2 0xA3C JUMP JUMPDEST DUP3 PUSH2 0xF0F JUMP JUMPDEST POP JUMP JUMPDEST PUSH1 0x0 PUSH1 0x5 PUSH1 0x14 SWAP1 SLOAD SWAP1 PUSH2 0x100 EXP SWAP1 DIV PUSH1 0xFF AND ISZERO PUSH2 0x61C JUMPI PUSH1 0x40 MLOAD PUSH32 0x8C379A000000000000000000000000000000000000000000000000000000000 DUP2 MSTORE PUSH1 0x4 ADD PUSH2 0x613 SWAP1 PUSH2 0x182F JUMP JUMPDEST PUSH1 0x40 MLOAD DUP1 SWAP2 SUB SWAP1 REVERT JUMPDEST PUSH1 0x1 PUSH1 0x5 PUSH1 0x14 PUSH2 0x100 EXP DUP2 SLOAD DUP2 PUSH1 0xFF MUL NOT AND SWAP1 DUP4 ISZERO ISZERO MUL OR SWAP1 SSTORE POP PUSH2 0x642 DUP5 DUP5 DUP5 PUSH2 0xC99 JUMP JUMPDEST PUSH32 0x4439C0AB4941D65C68BD3F6D9D2B798B48BB422544E1CFF1EE69443876036070 DUP5 DUP5 DUP5 PUSH1 0x40 MLOAD PUSH2 0x675 SWAP4 SWAP3 SWAP2 SWAP1 PUSH2 0x184F JUMP JUMPDEST PUSH1 0x40 MLOAD DUP1 SWAP2 SUB SWAP1 LOG1 PUSH1 0x1 SWAP1 POP PUSH1 0x0 PUSH1 0x5 PUSH1 0x14 PUSH2 0x100 EXP DUP2 SLOAD DUP2 PUSH1 0xFF MUL NOT AND SWAP1 DUP4 ISZERO ISZERO MUL OR SWAP1 SSTORE POP SWAP4 SWAP3 POP POP POP JUMP JUMPDEST PUSH1 0x0 PUSH2 0x6AF DUP4 DUP4 PUSH2 0x10DC JUMP JUMPDEST PUSH32 0x165442F21BD802645EF0ED01B15992A98B200992A7FFA98DFFEB1928A0C04700 DUP4 DUP4 PUSH1 0x40 MLOAD PUSH2 0x6E0 SWAP3 SWAP2 SWAP1 PUSH2 0x1886 JUMP JUMPDEST PUSH1 0x40 MLOAD DUP1 SWAP2 SUB SWAP1 LOG1 PUSH1 0x1 SWAP1 POP SWAP3 SWAP2 POP POP JUMP JUMPDEST PUSH1 0x0 DUP1 PUSH1 0x0 DUP4 PUSH20 0xFFFFFFFFFFFFFFFFFFFFFFFFFFFFFFFFFFFFFFFF AND PUSH20 0xFFFFFFFFFFFFFFFFFFFFFFFFFFFFFFFFFFFFFFFF AND DUP2 MSTORE PUSH1 0x20 ADD SWAP1 DUP2 MSTORE PUSH1 0x20 ADD PUSH1 0x0 KECCAK256 SLOAD SWAP1 POP SWAP2 SWAP1 POP JUMP JUMPDEST PUSH2 0x742 PUSH2 0x1232 JUMP JUMPDEST PUSH2 0x74C PUSH1 0x0 PUSH2 0x12B0 JUMP JUMPDEST JUMP JUMPDEST PUSH2 0x760 DUP3 PUSH2 0x75A PUSH2 0xA3C JUMP JUMPDEST DUP4 PUSH2 0xC0D JUMP JUMPDEST PUSH2 0x76A DUP3 DUP3 PUSH2 0xF0F JUMP JUMPDEST POP POP JUMP JUMPDEST PUSH1 0x0 PUSH1 0x5 PUSH1 0x0 SWAP1 SLOAD SWAP1 PUSH2 0x100 EXP SWAP1 DIV PUSH20 0xFFFFFFFFFFFFFFFFFFFFFFFFFFFFFFFFFFFFFFFF AND SWAP1 POP SWAP1 JUMP JUMPDEST PUSH1 0x60 PUSH1 0x4 DUP1 SLOAD PUSH2 0x7A7 SWAP1 PUSH2 0x174F JUMP JUMPDEST DUP1 PUSH1 0x1F ADD PUSH1 0x20 DUP1 SWAP2 DIV MUL PUSH1 0x20 ADD PUSH1 0x40 MLOAD SWAP1 DUP2 ADD PUSH1 0x40 MSTORE DUP1 SWAP3 SWAP2 SWAP1 DUP2 DUP2 MSTORE PUSH1 0x20 ADD DUP3 DUP1 SLOAD PUSH2 0x7D3 SWAP1 PUSH2 0x174F JUMP JUMPDEST DUP1 ISZERO PUSH2 0x820 JUMPI DUP1 PUSH1 0x1F LT PUSH2 0x7F5 JUMPI PUSH2 0x100 DUP1 DUP4 SLOAD DIV MUL DUP4 MSTORE SWAP2 PUSH1 0x20 ADD SWAP2 PUSH2 0x820 JUMP JUMPDEST DUP3 ADD SWAP2 SWAP1 PUSH1 0x0 MSTORE PUSH1 0x20 PUSH1 0x0 KECCAK256 SWAP1 JUMPDEST DUP2 SLOAD DUP2 MSTORE SWAP1 PUSH1 0x1 ADD SWAP1 PUSH1 0x20 ADD DUP1 DUP4 GT PUSH2 0x803 JUMPI DUP3 SWAP1 SUB PUSH1 0x1F AND DUP3 ADD SWAP2 JUMPDEST POP POP POP POP POP SWAP1 POP SWAP1 JUMP JUMPDEST PUSH1 0x0 DUP1 PUSH2 0x835 PUSH2 0xA3C JUMP JUMPDEST SWAP1 POP PUSH1 0x0 PUSH2 0x843 DUP3 DUP7 PUSH2 0x8C4 JUMP JUMPDEST SWAP1 POP DUP4 DUP2 LT ISZERO PUSH2 0x888 JUMPI PUSH1 0x40 MLOAD PUSH32 0x8C379A000000000000000000000000000000000000000000000000000000000 DUP2 MSTORE PUSH1 0x4 ADD PUSH2 0x87F SWAP1 PUSH2 0x1921 JUMP JUMPDEST PUSH1 0x40 MLOAD DUP1 SWAP2 SUB SWAP1 REVERT JUMPDEST PUSH2 0x895 DUP3 DUP7 DUP7 DUP5 SUB PUSH2 0xA44 JUMP JUMPDEST PUSH1 0x1 SWAP3 POP POP POP SWAP3 SWAP2 POP POP JUMP JUMPDEST PUSH1 0x0 DUP1 PUSH2 0x8AC PUSH2 0xA3C JUMP JUMPDEST SWAP1 POP PUSH2 0x8B9 DUP2 DUP6 DUP6 PUSH2 0xC99 JUMP JUMPDEST PUSH1 0x1 SWAP2 POP POP SWAP3 SWAP2 POP POP JUMP JUMPDEST PUSH1 0x0 PUSH1 0x1 PUSH1 0x0 DUP5 PUSH20 0xFFFFFFFFFFFFFFFFFFFFFFFFFFFFFFFFFFFFFFFF AND PUSH20 0xFFFFFFFFFFFFFFFFFFFFFFFFFFFFFFFFFFFFFFFF AND DUP2 MSTORE PUSH1 0x20 ADD SWAP1 DUP2 MSTORE PUSH1 0x20 ADD PUSH1 0x0 KECCAK256 PUSH1 0x0 DUP4 PUSH20 0xFFFFFFFFFFFFFFFFFFFFFFFFFFFFFFFFFFFFFFFF AND PUSH20 0xFFFFFFFFFFFFFFFFFFFFFFFFFFFFFFFFFFFFFFFF AND DUP2 MSTORE PUSH1 0x20 ADD SWAP1 DUP2 MSTORE PUSH1 0x20 ADD PUSH1 0x0 KECCAK256 SLOAD SWAP1 POP SWAP3 SWAP2 POP POP JUMP JUMPDEST PUSH1 0x0 PUSH2 0x957 DUP4 DUP4 PUSH2 0xF0F JUMP JUMPDEST PUSH32 0x6771754FF4904AEEA8021B941B110C3BAC466EE46A6CBAF2D32801CC89F20F0 DUP4 DUP4 PUSH2 0x982 PUSH2 0x513 JUMP JUMPDEST PUSH1 0x40 MLOAD PUSH2 0x991 SWAP4 SWAP3 SWAP2 SWAP1 PUSH2 0x1941 JUMP JUMPDEST PUSH1 0x40 MLOAD DUP1 SWAP2 SUB SWAP1 LOG1 PUSH1 0x1 SWAP1 POP SWAP3 SWAP2 POP POP JUMP JUMPDEST PUSH2 0x9AB PUSH2 0x1232 JUMP JUMPDEST PUSH1 0x0 PUSH20 0xFFFFFFFFFFFFFFFFFFFFFFFFFFFFFFFFFFFFFFFF AND DUP2 PUSH20 0xFFFFFFFFFFFFFFFFFFFFFFFFFFFFFFFFFFFFFFFF AND SUB PUSH2 0xA1A JUMPI PUSH1 0x40 MLOAD PUSH32 0x8C379A000000000000000000000000000000000000000000000000000000000 DUP2 MSTORE PUSH1 0x4 ADD PUSH2 0xA11 SWAP1 PUSH2 0x19EA JUMP JUMPDEST PUSH1 0x40 MLOAD DUP1 SWAP2 SUB SWAP1 REVERT JUMPDEST PUSH2 0xA23 DUP2 PUSH2 0x12B0 JUMP JUMPDEST POP JUMP JUMPDEST PUSH1 0x0 DUP2 DUP4 PUSH2 0xA34 SWAP2 SWAP1 PUSH2 0x1A0A JUMP JUMPDEST SWAP1 POP SWAP3 SWAP2 POP POP JUMP JUMPDEST PUSH1 0x0 CALLER SWAP1 POP SWAP1 JUMP JUMPDEST PUSH1 0x0 PUSH20 0xFFFFFFFFFFFFFFFFFFFFFFFFFFFFFFFFFFFFFFFF AND DUP4 PUSH20 0xFFFFFFFFFFFFFFFFFFFFFFFFFFFFFFFFFFFFFFFF AND SUB PUSH2 0xAB3 JUMPI PUSH1 0x40 MLOAD PUSH32 0x8C379A000000000000000000000000000000000000000000000000000000000 DUP2 MSTORE PUSH1 0x4 ADD PUSH2 0xAAA SWAP1 PUSH2 0x1ABE JUMP JUMPDEST PUSH1 0x40 MLOAD DUP1 SWAP2 SUB SWAP1 REVERT JUMPDEST PUSH1 0x0 PUSH20 0xFFFFFFFFFFFFFFFFFFFFFFFFFFFFFFFFFFFFFFFF AND DUP3 PUSH20 0xFFFFFFFFFFFFFFFFFFFFFFFFFFFFFFFFFFFFFFFF AND SUB PUSH2 0xB22 JUMPI PUSH1 0x40 MLOAD PUSH32 0x8C379A000000000000000000000000000000000000000000000000000000000 DUP2 MSTORE PUSH1 0x4 ADD PUSH2 0xB19 SWAP1 PUSH2 0x1B50 JUMP JUMPDEST PUSH1 0x40 MLOAD DUP1 SWAP2 SUB SWAP1 REVERT JUMPDEST DUP1 PUSH1 0x1 PUSH1 0x0 DUP6 PUSH20 0xFFFFFFFFFFFFFFFFFFFFFFFFFFFFFFFFFFFFFFFF AND PUSH20 0xFFFFFFFFFFFFFFFFFFFFFFFFFFFFFFFFFFFFFFFF AND DUP2 MSTORE PUSH1 0x20 ADD SWAP1 DUP2 MSTORE PUSH1 0x20 ADD PUSH1 0x0 KECCAK256 PUSH1 0x0 DUP5 PUSH20 0xFFFFFFFFFFFFFFFFFFFFFFFFFFFFFFFFFFFFFFFF AND PUSH20 0xFFFFFFFFFFFFFFFFFFFFFFFFFFFFFFFFFFFFFFFF AND DUP2 MSTORE PUSH1 0x20 ADD SWAP1 DUP2 MSTORE PUSH1 0x20 ADD PUSH1 0x0 KECCAK256 DUP2 SWAP1 SSTORE POP DUP2 PUSH20 0xFFFFFFFFFFFFFFFFFFFFFFFFFFFFFFFFFFFFFFFF AND DUP4 PUSH20 0xFFFFFFFFFFFFFFFFFFFFFFFFFFFFFFFFFFFFFFFF AND PUSH32 0x8C5BE1E5EBEC7D5BD14F71427D1E84F3DD0314C0F7B2291E5B200AC8C7C3B925 DUP4 PUSH1 0x40 MLOAD PUSH2 0xC00 SWAP2 SWAP1 PUSH2 0x1550 JUMP JUMPDEST PUSH1 0x40 MLOAD DUP1 SWAP2 SUB SWAP1 LOG3 POP POP POP JUMP JUMPDEST PUSH1 0x0 PUSH2 0xC19 DUP5 DUP5 PUSH2 0x8C4 JUMP JUMPDEST SWAP1 POP PUSH32 0xFFFFFFFFFFFFFFFFFFFFFFFFFFFFFFFFFFFFFFFFFFFFFFFFFFFFFFFFFFFFFFFF DUP2 EQ PUSH2 0xC93 JUMPI DUP2 DUP2 LT ISZERO PUSH2 0xC85 JUMPI PUSH1 0x40 MLOAD PUSH32 0x8C379A000000000000000000000000000000000000000000000000000000000 DUP2 MSTORE PUSH1 0x4 ADD PUSH2 0xC7C SWAP1 PUSH2 0x1BBC JUMP JUMPDEST PUSH1 0x40 MLOAD DUP1 SWAP2 SUB SWAP1 REVERT JUMPDEST PUSH2 0xC92 DUP5 DUP5 DUP5 DUP5 SUB PUSH2 0xA44 JUMP JUMPDEST JUMPDEST POP POP POP POP JUMP JUMPDEST PUSH1 0x0 PUSH20 0xFFFFFFFFFFFFFFFFFFFFFFFFFFFFFFFFFFFFFFFF AND DUP4 PUSH20 0xFFFFFFFFFFFFFFFFFFFFFFFFFFFFFFFFFFFFFFFF AND SUB PUSH2 0xD08 JUMPI PUSH1 0x40 MLOAD PUSH32 0x8C379A000000000000000000000000000000000000000000000000000000000 DUP2 MSTORE PUSH1 0x4 ADD PUSH2 0xCFF SWAP1 PUSH2 0x1C4E JUMP JUMPDEST PUSH1 0x40 MLOAD DUP1 SWAP2 SUB SWAP1 REVERT JUMPDEST PUSH1 0x0 PUSH20 0xFFFFFFFFFFFFFFFFFFFFFFFFFFFFFFFFFFFFFFFF AND DUP3 PUSH20 0xFFFFFFFFFFFFFFFFFFFFFFFFFFFFFFFFFFFFFFFF AND SUB PUSH2 0xD77 JUMPI PUSH1 0x40 MLOAD PUSH32 0x8C379A000000000000000000000000000000000000000000000000000000000 DUP2 MSTORE PUSH1 0x4 ADD PUSH2 0xD6E SWAP1 PUSH2 0x1CE0 JUMP JUMPDEST PUSH1 0x40 MLOAD DUP1 SWAP2 SUB SWAP1 REVERT JUMPDEST PUSH2 0xD82 DUP4 DUP4 DUP4 PUSH2 0x1376 JUMP JUMPDEST PUSH1 0x0 DUP1 PUSH1 0x0 DUP6 PUSH20 0xFFFFFFFFFFFFFFFFFFFFFFFFFFFFFFFFFFFFFFFF AND PUSH20 0xFFFFFFFFFFFFFFFFFFFFFFFFFFFFFFFFFFFFFFFF AND DUP2 MSTORE PUSH1 0x20 ADD SWAP1 DUP2 MSTORE PUSH1 0x20 ADD PUSH1 0x0 KECCAK256 SLOAD SWAP1 POP DUP2 DUP2 LT ISZERO PUSH2 0xE08 JUMPI PUSH1 0x40 MLOAD PUSH32 0x8C379A000000000000000000000000000000000000000000000000000000000 DUP2 MSTORE PUSH1 0x4 ADD PUSH2 0xDFF SWAP1 PUSH2 0x1D72 JUMP JUMPDEST PUSH1 0x40 MLOAD DUP1 SWAP2 SUB SWAP1 REVERT JUMPDEST DUP2 DUP2 SUB PUSH1 0x0 DUP1 DUP7 PUSH20 0xFFFFFFFFFFFFFFFFFFFFFFFFFFFFFFFFFFFFFFFF AND PUSH20 0xFFFFFFFFFFFFFFFFFFFFFFFFFFFFFFFFFFFFFFFF AND DUP2 MSTORE PUSH1 0x20 ADD SWAP1 DUP2 MSTORE PUSH1 0x20 ADD PUSH1 0x0 KECCAK256 DUP2 SWAP1 SSTORE POP DUP2 PUSH1 0x0 DUP1 DUP6 PUSH20 0xFFFFFFFFFFFFFFFFFFFFFFFFFFFFFFFFFFFFFFFF AND PUSH20 0xFFFFFFFFFFFFFFFFFFFFFFFFFFFFFFFFFFFFFFFF AND DUP2 MSTORE PUSH1 0x20 ADD SWAP1 DUP2 MSTORE PUSH1 0x20 ADD PUSH1 0x0 KECCAK256 PUSH1 0x0 DUP3 DUP3 SLOAD ADD SWAP3 POP POP DUP2 SWAP1 SSTORE POP DUP3 PUSH20 0xFFFFFFFFFFFFFFFFFFFFFFFFFFFFFFFFFFFFFFFF AND DUP5 PUSH20 0xFFFFFFFFFFFFFFFFFFFFFFFFFFFFFFFFFFFFFFFF AND PUSH32 0xDDF252AD1BE2C89B69C2B068FC378DAA952BA7F163C4A11628F55A4DF523B3EF DUP5 PUSH1 0x40 MLOAD PUSH2 0xEF6 SWAP2 SWAP1 PUSH2 0x1550 JUMP JUMPDEST PUSH1 0x40 MLOAD DUP1 SWAP2 SUB SWAP1 LOG3 PUSH2 0xF09 DUP5 DUP5 DUP5 PUSH2 0x137B JUMP JUMPDEST POP POP POP POP JUMP JUMPDEST PUSH1 0x0 PUSH20 0xFFFFFFFFFFFFFFFFFFFFFFFFFFFFFFFFFFFFFFFF AND DUP3 PUSH20 0xFFFFFFFFFFFFFFFFFFFFFFFFFFFFFFFFFFFFFFFF AND SUB PUSH2 0xF7E JUMPI PUSH1 0x40 MLOAD PUSH32 0x8C379A000000000000000000000000000000000000000000000000000000000 DUP2 MSTORE PUSH1 0x4 ADD PUSH2 0xF75 SWAP1 PUSH2 0x1E04 JUMP JUMPDEST PUSH1 0x40 MLOAD DUP1 SWAP2 SUB SWAP1 REVERT JUMPDEST PUSH2 0xF8A DUP3 PUSH1 0x0 DUP4 PUSH2 0x1376 JUMP JUMPDEST PUSH1 0x0 DUP1 PUSH1 0x0 DUP5 PUSH20 0xFFFFFFFFFFFFFFFFFFFFFFFFFFFFFFFFFFFFFFFF AND PUSH20 0xFFFFFFFFFFFFFFFFFFFFFFFFFFFFFFFFFFFFFFFF AND DUP2 MSTORE PUSH1 0x20 ADD SWAP1 DUP2 MSTORE PUSH1 0x20 ADD PUSH1 0x0 KECCAK256 SLOAD SWAP1 POP DUP2 DUP2 LT ISZERO PUSH2 0x1010 JUMPI PUSH1 0x40 MLOAD PUSH32 0x8C379A000000000000000000000000000000000000000000000000000000000 DUP2 MSTORE PUSH1 0x4 ADD PUSH2 0x1007 SWAP1 PUSH2 0x1E96 JUMP JUMPDEST PUSH1 0x40 MLOAD DUP1 SWAP2 SUB SWAP1 REVERT JUMPDEST DUP2 DUP2 SUB PUSH1 0x0 DUP1 DUP6 PUSH20 0xFFFFFFFFFFFFFFFFFFFFFFFFFFFFFFFFFFFFFFFF AND PUSH20 0xFFFFFFFFFFFFFFFFFFFFFFFFFFFFFFFFFFFFFFFF AND DUP2 MSTORE PUSH1 0x20 ADD SWAP1 DUP2 MSTORE PUSH1 0x20 ADD PUSH1 0x0 KECCAK256 DUP2 SWAP1 SSTORE POP DUP2 PUSH1 0x2 PUSH1 0x0 DUP3 DUP3 SLOAD SUB SWAP3 POP POP DUP2 SWAP1 SSTORE POP PUSH1 0x0 PUSH20 0xFFFFFFFFFFFFFFFFFFFFFFFFFFFFFFFFFFFFFFFF AND DUP4 PUSH20 0xFFFFFFFFFFFFFFFFFFFFFFFFFFFFFFFFFFFFFFFF AND PUSH32 0xDDF252AD1BE2C89B69C2B068FC378DAA952BA7F163C4A11628F55A4DF523B3EF DUP5 PUSH1 0x40 MLOAD PUSH2 0x10C3 SWAP2 SWAP1 PUSH2 0x1550 JUMP JUMPDEST PUSH1 0x40 MLOAD DUP1 SWAP2 SUB SWAP1 LOG3 PUSH2 0x10D7 DUP4 PUSH1 0x0 DUP5 PUSH2 0x137B JUMP JUMPDEST POP POP POP JUMP JUMPDEST PUSH1 0x0 PUSH20 0xFFFFFFFFFFFFFFFFFFFFFFFFFFFFFFFFFFFFFFFF AND DUP3 PUSH20 0xFFFFFFFFFFFFFFFFFFFFFFFFFFFFFFFFFFFFFFFF AND SUB PUSH2 0x114B JUMPI PUSH1 0x40 MLOAD PUSH32 0x8C379A000000000000000000000000000000000000000000000000000000000 DUP2 MSTORE PUSH1 0x4 ADD PUSH2 0x1142 SWAP1 PUSH2 0x1F02 JUMP JUMPDEST PUSH1 0x40 MLOAD DUP1 SWAP2 SUB SWAP1 REVERT JUMPDEST PUSH2 0x1157 PUSH1 0x0 DUP4 DUP4 PUSH2 0x1376 JUMP JUMPDEST DUP1 PUSH1 0x2 PUSH1 0x0 DUP3 DUP3 SLOAD PUSH2 0x1169 SWAP2 SWAP1 PUSH2 0x17AF JUMP JUMPDEST SWAP3 POP POP DUP2 SWAP1 SSTORE POP DUP1 PUSH1 0x0 DUP1 DUP5 PUSH20 0xFFFFFFFFFFFFFFFFFFFFFFFFFFFFFFFFFFFFFFFF AND PUSH20 0xFFFFFFFFFFFFFFFFFFFFFFFFFFFFFFFFFFFFFFFF AND DUP2 MSTORE PUSH1 0x20 ADD SWAP1 DUP2 MSTORE PUSH1 0x20 ADD PUSH1 0x0 KECCAK256 PUSH1 0x0 DUP3 DUP3 SLOAD ADD SWAP3 POP POP DUP2 SWAP1 SSTORE POP DUP2 PUSH20 0xFFFFFFFFFFFFFFFFFFFFFFFFFFFFFFFFFFFFFFFF AND PUSH1 0x0 PUSH20 0xFFFFFFFFFFFFFFFFFFFFFFFFFFFFFFFFFFFFFFFF AND PUSH32 0xDDF252AD1BE2C89B69C2B068FC378DAA952BA7F163C4A11628F55A4DF523B3EF DUP4 PUSH1 0x40 MLOAD PUSH2 0x121A SWAP2 SWAP1 PUSH2 0x1550 JUMP JUMPDEST PUSH1 0x40 MLOAD DUP1 SWAP2 SUB SWAP1 LOG3 PUSH2 0x122E PUSH1 0x0 DUP4 DUP4 PUSH2 0x137B JUMP JUMPDEST POP POP JUMP JUMPDEST PUSH2 0x123A PUSH2 0xA3C JUMP JUMPDEST PUSH20 0xFFFFFFFFFFFFFFFFFFFFFFFFFFFFFFFFFFFFFFFF AND PUSH2 0x1258 PUSH2 0x76E JUMP JUMPDEST PUSH20 0xFFFFFFFFFFFFFFFFFFFFFFFFFFFFFFFFFFFFFFFF AND EQ PUSH2 0x12AE JUMPI PUSH1 0x40 MLOAD PUSH32 0x8C379A000000000000000000000000000000000000000000000000000000000 DUP2 MSTORE PUSH1 0x4 ADD PUSH2 0x12A5 SWAP1 PUSH2 0x1F6E JUMP JUMPDEST PUSH1 0x40 MLOAD DUP1 SWAP2 SUB SWAP1 REVERT JUMPDEST JUMP JUMPDEST PUSH1 0x0 PUSH1 0x5 PUSH1 0x0 SWAP1 SLOAD SWAP1 PUSH2 0x100 EXP SWAP1 DIV PUSH20 0xFFFFFFFFFFFFFFFFFFFFFFFFFFFFFFFFFFFFFFFF AND SWAP1 POP DUP2 PUSH1 0x5 PUSH1 0x0 PUSH2 0x100 EXP DUP2 SLOAD DUP2 PUSH20 0xFFFFFFFFFFFFFFFFFFFFFFFFFFFFFFFFFFFFFFFF MUL NOT AND SWAP1 DUP4 PUSH20 0xFFFFFFFFFFFFFFFFFFFFFFFFFFFFFFFFFFFFFFFF AND MUL OR SWAP1 SSTORE POP DUP2 PUSH20 0xFFFFFFFFFFFFFFFFFFFFFFFFFFFFFFFFFFFFFFFF AND DUP2 PUSH20 0xFFFFFFFFFFFFFFFFFFFFFFFFFFFFFFFFFFFFFFFF AND PUSH32 0x8BE0079C531659141344CD1FD0A4F28419497F9722A3DAAFE3B4186F6B6457E0 PUSH1 0x40 MLOAD PUSH1 0x40 MLOAD DUP1 SWAP2 SUB SWAP1 LOG3 POP POP JUMP JUMPDEST POP POP POP JUMP JUMPDEST POP POP POP JUMP JUMPDEST PUSH1 0x0 DUP2 MLOAD SWAP1 POP SWAP2 SWAP1 POP JUMP JUMPDEST PUSH1 0x0 DUP3 DUP3 MSTORE PUSH1 0x20 DUP3 ADD SWAP1 POP SWAP3 SWAP2 POP POP JUMP JUMPDEST PUSH1 0x0 JUMPDEST DUP4 DUP2 LT ISZERO PUSH2 0x13BA JUMPI DUP1 DUP3 ADD MLOAD DUP2 DUP5 ADD MSTORE PUSH1 0x20 DUP2 ADD SWAP1 POP PUSH2 0x139F JUMP JUMPDEST PUSH1 0x0 DUP5 DUP5 ADD MSTORE POP POP POP POP JUMP JUMPDEST PUSH1 0x0 PUSH1 0x1F NOT PUSH1 0x1F DUP4 ADD AND SWAP1 POP SWAP2 SWAP1 POP JUMP JUMPDEST PUSH1 0x0 PUSH2 0x13E2 DUP3 PUSH2 0x1380 JUMP JUMPDEST PUSH2 0x13EC DUP2 DUP6 PUSH2 0x138B JUMP JUMPDEST SWAP4 POP PUSH2 0x13FC DUP2 DUP6 PUSH1 0x20 DUP7 ADD PUSH2 0x139C JUMP JUMPDEST PUSH2 0x1405 DUP2 PUSH2 0x13C6 JUMP JUMPDEST DUP5 ADD SWAP2 POP POP SWAP3 SWAP2 POP POP JUMP JUMPDEST PUSH1 0x0 PUSH1 0x20 DUP3 ADD SWAP1 POP DUP2 DUP2 SUB PUSH1 0x0 DUP4 ADD MSTORE PUSH2 0x142A DUP2 DUP5 PUSH2 0x13D7 JUMP JUMPDEST SWAP1 POP SWAP3 SWAP2 POP POP JUMP JUMPDEST PUSH1 0x0 DUP1 REVERT JUMPDEST PUSH1 0x0 PUSH20 0xFFFFFFFFFFFFFFFFFFFFFFFFFFFFFFFFFFFFFFFF DUP3 AND SWAP1 POP SWAP2 SWAP1 POP JUMP JUMPDEST PUSH1 0x0 PUSH2 0x1462 DUP3 PUSH2 0x1437 JUMP JUMPDEST SWAP1 POP SWAP2 SWAP1 POP JUMP JUMPDEST PUSH2 0x1472 DUP2 PUSH2 0x1457 JUMP JUMPDEST DUP2 EQ PUSH2 0x147D JUMPI PUSH1 0x0 DUP1 REVERT JUMPDEST POP JUMP JUMPDEST PUSH1 0x0 DUP2 CALLDATALOAD SWAP1 POP PUSH2 0x148F DUP2 PUSH2 0x1469 JUMP JUMPDEST SWAP3 SWAP2 POP POP JUMP JUMPDEST PUSH1 0x0 DUP2 SWAP1 POP SWAP2 SWAP1 POP JUMP JUMPDEST PUSH2 0x14A8 DUP2 PUSH2 0x1495 JUMP JUMPDEST DUP2 EQ PUSH2 0x14B3 JUMPI PUSH1 0x0 DUP1 REVERT JUMPDEST POP JUMP JUMPDEST PUSH1 0x0 DUP2 CALLDATALOAD SWAP1 POP PUSH2 0x14C5 DUP2 PUSH2 0x149F JUMP JUMPDEST SWAP3 SWAP2 POP POP JUMP JUMPDEST PUSH1 0x0 DUP1 PUSH1 0x40 DUP4 DUP6 SUB SLT ISZERO PUSH2 0x14E2 JUMPI PUSH2 0x14E1 PUSH2 0x1432 JUMP JUMPDEST JUMPDEST PUSH1 0x0 PUSH2 0x14F0 DUP6 DUP3 DUP7 ADD PUSH2 0x1480 JUMP JUMPDEST SWAP3 POP POP PUSH1 0x20 PUSH2 0x1501 DUP6 DUP3 DUP7 ADD PUSH2 0x14B6 JUMP JUMPDEST SWAP2 POP POP SWAP3 POP SWAP3 SWAP1 POP JUMP JUMPDEST PUSH1 0x0 DUP2 ISZERO ISZERO SWAP1 POP SWAP2 SWAP1 POP JUMP JUMPDEST PUSH2 0x1520 DUP2 PUSH2 0x150B JUMP JUMPDEST DUP3 MSTORE POP POP JUMP JUMPDEST PUSH1 0x0 PUSH1 0x20 DUP3 ADD SWAP1 POP PUSH2 0x153B PUSH1 0x0 DUP4 ADD DUP5 PUSH2 0x1517 JUMP JUMPDEST SWAP3 SWAP2 POP POP JUMP JUMPDEST PUSH2 0x154A DUP2 PUSH2 0x1495 JUMP JUMPDEST DUP3 MSTORE POP POP JUMP JUMPDEST PUSH1 0x0 PUSH1 0x20 DUP3 ADD SWAP1 POP PUSH2 0x1565 PUSH1 0x0 DUP4 ADD DUP5 PUSH2 0x1541 JUMP JUMPDEST SWAP3 SWAP2 POP POP JUMP JUMPDEST PUSH1 0x0 DUP1 PUSH1 0x0 PUSH1 0x60 DUP5 DUP7 SUB SLT ISZERO PUSH2 0x1584 JUMPI PUSH2 0x1583 PUSH2 0x1432 JUMP JUMPDEST JUMPDEST PUSH1 0x0 PUSH2 0x1592 DUP7 DUP3 DUP8 ADD PUSH2 0x1480 JUMP JUMPDEST SWAP4 POP POP PUSH1 0x20 PUSH2 0x15A3 DUP7 DUP3 DUP8 ADD PUSH2 0x1480 JUMP JUMPDEST SWAP3 POP POP PUSH1 0x40 PUSH2 0x15B4 DUP7 DUP3 DUP8 ADD PUSH2 0x14B6 JUMP JUMPDEST SWAP2 POP POP SWAP3 POP SWAP3 POP SWAP3 JUMP JUMPDEST PUSH1 0x0 DUP1 PUSH1 0x0 DUP1 PUSH1 0x80 DUP6 DUP8 SUB SLT ISZERO PUSH2 0x15D8 JUMPI PUSH2 0x15D7 PUSH2 0x1432 JUMP JUMPDEST JUMPDEST PUSH1 0x0 PUSH2 0x15E6 DUP8 DUP3 DUP9 ADD PUSH2 0x1480 JUMP JUMPDEST SWAP5 POP POP PUSH1 0x20 PUSH2 0x15F7 DUP8 DUP3 DUP9 ADD PUSH2 0x1480 JUMP JUMPDEST SWAP4 POP POP PUSH1 0x40 PUSH2 0x1608 DUP8 DUP3 DUP9 ADD PUSH2 0x1480 JUMP JUMPDEST SWAP3 POP POP PUSH1 0x60 PUSH2 0x1619 DUP8 DUP3 DUP9 ADD PUSH2 0x14B6 JUMP JUMPDEST SWAP2 POP POP SWAP3 SWAP6 SWAP2 SWAP5 POP SWAP3 POP JUMP JUMPDEST PUSH1 0x0 PUSH1 0xFF DUP3 AND SWAP1 POP SWAP2 SWAP1 POP JUMP JUMPDEST PUSH2 0x163B DUP2 PUSH2 0x1625 JUMP JUMPDEST DUP3 MSTORE POP POP JUMP JUMPDEST PUSH1 0x0 PUSH1 0x20 DUP3 ADD SWAP1 POP PUSH2 0x1656 PUSH1 0x0 DUP4 ADD DUP5 PUSH2 0x1632 JUMP JUMPDEST SWAP3 SWAP2 POP POP JUMP JUMPDEST PUSH1 0x0 PUSH1 0x20 DUP3 DUP5 SUB SLT ISZERO PUSH2 0x1672 JUMPI PUSH2 0x1671 PUSH2 0x1432 JUMP JUMPDEST JUMPDEST PUSH1 0x0 PUSH2 0x1680 DUP5 DUP3 DUP6 ADD PUSH2 0x14B6 JUMP JUMPDEST SWAP2 POP POP SWAP3 SWAP2 POP POP JUMP JUMPDEST PUSH1 0x0 PUSH1 0x20 DUP3 DUP5 SUB SLT ISZERO PUSH2 0x169F JUMPI PUSH2 0x169E PUSH2 0x1432 JUMP JUMPDEST JUMPDEST PUSH1 0x0 PUSH2 0x16AD DUP5 DUP3 DUP6 ADD PUSH2 0x1480 JUMP JUMPDEST SWAP2 POP POP SWAP3 SWAP2 POP POP JUMP JUMPDEST PUSH2 0x16BF DUP2 PUSH2 0x1457 JUMP JUMPDEST DUP3 MSTORE POP POP JUMP JUMPDEST PUSH1 0x0 PUSH1 0x20 DUP3 ADD SWAP1 POP PUSH2 0x16DA PUSH1 0x0 DUP4 ADD DUP5 PUSH2 0x16B6 JUMP JUMPDEST SWAP3 SWAP2 POP POP JUMP JUMPDEST PUSH1 0x0 DUP1 PUSH1 0x40 DUP4 DUP6 SUB SLT ISZERO PUSH2 0x16F7 JUMPI PUSH2 0x16F6 PUSH2 0x1432 JUMP JUMPDEST JUMPDEST PUSH1 0x0 PUSH2 0x1705 DUP6 DUP3 DUP7 ADD PUSH2 0x1480 JUMP JUMPDEST SWAP3 POP POP PUSH1 0x20 PUSH2 0x1716 DUP6 DUP3 DUP7 ADD PUSH2 0x1480 JUMP JUMPDEST SWAP2 POP POP SWAP3 POP SWAP3 SWAP1 POP JUMP JUMPDEST PUSH32 0x4E487B7100000000000000000000000000000000000000000000000000000000 PUSH1 0x0 MSTORE PUSH1 0x22 PUSH1 0x4 MSTORE PUSH1 0x24 PUSH1 0x0 REVERT JUMPDEST PUSH1 0x0 PUSH1 0x2 DUP3 DIV SWAP1 POP PUSH1 0x1 DUP3 AND DUP1 PUSH2 0x1767 JUMPI PUSH1 0x7F DUP3 AND SWAP2 POP JUMPDEST PUSH1 0x20 DUP3 LT DUP2 SUB PUSH2 0x177A JUMPI PUSH2 0x1779 PUSH2 0x1720 JUMP JUMPDEST JUMPDEST POP SWAP2 SWAP1 POP JUMP JUMPDEST PUSH32 0x4E487B7100000000000000000000000000000000000000000000000000000000 PUSH1 0x0 MSTORE PUSH1 0x11 PUSH1 0x4 MSTORE PUSH1 0x24 PUSH1 0x0 REVERT JUMPDEST PUSH1 0x0 PUSH2 0x17BA DUP3 PUSH2 0x1495 JUMP JUMPDEST SWAP2 POP PUSH2 0x17C5 DUP4 PUSH2 0x1495 JUMP JUMPDEST SWAP3 POP DUP3 DUP3 ADD SWAP1 POP DUP1 DUP3 GT ISZERO PUSH2 0x17DD JUMPI PUSH2 0x17DC PUSH2 0x1780 JUMP JUMPDEST JUMPDEST SWAP3 SWAP2 POP POP JUMP JUMPDEST PUSH32 0x4E6F205265456E7472616E637900000000000000000000000000000000000000 PUSH1 0x0 DUP3 ADD MSTORE POP JUMP JUMPDEST PUSH1 0x0 PUSH2 0x1819 PUSH1 0xD DUP4 PUSH2 0x138B JUMP JUMPDEST SWAP2 POP PUSH2 0x1824 DUP3 PUSH2 0x17E3 JUMP JUMPDEST PUSH1 0x20 DUP3 ADD SWAP1 POP SWAP2 SWAP1 POP JUMP JUMPDEST PUSH1 0x0 PUSH1 0x20 DUP3 ADD SWAP1 POP DUP2 DUP2 SUB PUSH1 0x0 DUP4 ADD MSTORE PUSH2 0x1848 DUP2 PUSH2 0x180C JUMP JUMPDEST SWAP1 POP SWAP2 SWAP1 POP JUMP JUMPDEST PUSH1 0x0 PUSH1 0x60 DUP3 ADD SWAP1 POP PUSH2 0x1864 PUSH1 0x0 DUP4 ADD DUP7 PUSH2 0x16B6 JUMP JUMPDEST PUSH2 0x1871 PUSH1 0x20 DUP4 ADD DUP6 PUSH2 0x16B6 JUMP JUMPDEST PUSH2 0x187E PUSH1 0x40 DUP4 ADD DUP5 PUSH2 0x1541 JUMP JUMPDEST SWAP5 SWAP4 POP POP POP POP JUMP JUMPDEST PUSH1 0x0 PUSH1 0x40 DUP3 ADD SWAP1 POP PUSH2 0x189B PUSH1 0x0 DUP4 ADD DUP6 PUSH2 0x16B6 JUMP JUMPDEST PUSH2 0x18A8 PUSH1 0x20 DUP4 ADD DUP5 PUSH2 0x1541 JUMP JUMPDEST SWAP4 SWAP3 POP POP POP JUMP JUMPDEST PUSH32 0x45524332303A2064656372656173656420616C6C6F77616E63652062656C6F77 PUSH1 0x0 DUP3 ADD MSTORE PUSH32 0x207A65726F000000000000000000000000000000000000000000000000000000 PUSH1 0x20 DUP3 ADD MSTORE POP JUMP JUMPDEST PUSH1 0x0 PUSH2 0x190B PUSH1 0x25 DUP4 PUSH2 0x138B JUMP JUMPDEST SWAP2 POP PUSH2 0x1916 DUP3 PUSH2 0x18AF JUMP JUMPDEST PUSH1 0x40 DUP3 ADD SWAP1 POP SWAP2 SWAP1 POP JUMP JUMPDEST PUSH1 0x0 PUSH1 0x20 DUP3 ADD SWAP1 POP DUP2 DUP2 SUB PUSH1 0x0 DUP4 ADD MSTORE PUSH2 0x193A DUP2 PUSH2 0x18FE JUMP JUMPDEST SWAP1 POP SWAP2 SWAP1 POP JUMP JUMPDEST PUSH1 0x0 PUSH1 0x60 DUP3 ADD SWAP1 POP PUSH2 0x1956 PUSH1 0x0 DUP4 ADD DUP7 PUSH2 0x16B6 JUMP JUMPDEST PUSH2 0x1963 PUSH1 0x20 DUP4 ADD DUP6 PUSH2 0x1541 JUMP JUMPDEST PUSH2 0x1970 PUSH1 0x40 DUP4 ADD DUP5 PUSH2 0x1541 JUMP JUMPDEST SWAP5 SWAP4 POP POP POP POP JUMP JUMPDEST PUSH32 0x4F776E61626C653A206E6577206F776E657220697320746865207A65726F2061 PUSH1 0x0 DUP3 ADD MSTORE PUSH32 0x6464726573730000000000000000000000000000000000000000000000000000 PUSH1 0x20 DUP3 ADD MSTORE POP JUMP JUMPDEST PUSH1 0x0 PUSH2 0x19D4 PUSH1 0x26 DUP4 PUSH2 0x138B JUMP JUMPDEST SWAP2 POP PUSH2 0x19DF DUP3 PUSH2 0x1978 JUMP JUMPDEST PUSH1 0x40 DUP3 ADD SWAP1 POP SWAP2 SWAP1 POP JUMP JUMPDEST PUSH1 0x0 PUSH1 0x20 DUP3 ADD SWAP1 POP DUP2 DUP2 SUB PUSH1 0x0 DUP4 ADD MSTORE PUSH2 0x1A03 DUP2 PUSH2 0x19C7 JUMP JUMPDEST SWAP1 POP SWAP2 SWAP1 POP JUMP JUMPDEST PUSH1 0x0 PUSH2 0x1A15 DUP3 PUSH2 0x1495 JUMP JUMPDEST SWAP2 POP PUSH2 0x1A20 DUP4 PUSH2 0x1495 JUMP JUMPDEST SWAP3 POP DUP3 DUP3 MUL PUSH2 0x1A2E DUP2 PUSH2 0x1495 JUMP JUMPDEST SWAP2 POP DUP3 DUP3 DIV DUP5 EQ DUP4 ISZERO OR PUSH2 0x1A45 JUMPI PUSH2 0x1A44 PUSH2 0x1780 JUMP JUMPDEST JUMPDEST POP SWAP3 SWAP2 POP POP JUMP JUMPDEST PUSH32 0x45524332303A20617070726F76652066726F6D20746865207A65726F20616464 PUSH1 0x0 DUP3 ADD MSTORE PUSH32 0x7265737300000000000000000000000000000000000000000000000000000000 PUSH1 0x20 DUP3 ADD MSTORE POP JUMP JUMPDEST PUSH1 0x0 PUSH2 0x1AA8 PUSH1 0x24 DUP4 PUSH2 0x138B JUMP JUMPDEST SWAP2 POP PUSH2 0x1AB3 DUP3 PUSH2 0x1A4C JUMP JUMPDEST PUSH1 0x40 DUP3 ADD SWAP1 POP SWAP2 SWAP1 POP JUMP JUMPDEST PUSH1 0x0 PUSH1 0x20 DUP3 ADD SWAP1 POP DUP2 DUP2 SUB PUSH1 0x0 DUP4 ADD MSTORE PUSH2 0x1AD7 DUP2 PUSH2 0x1A9B JUMP JUMPDEST SWAP1 POP SWAP2 SWAP1 POP JUMP JUMPDEST PUSH32 0x45524332303A20617070726F766520746F20746865207A65726F206164647265 PUSH1 0x0 DUP3 ADD MSTORE PUSH32 0x7373000000000000000000000000000000000000000000000000000000000000 PUSH1 0x20 DUP3 ADD MSTORE POP JUMP JUMPDEST PUSH1 0x0 PUSH2 0x1B3A PUSH1 0x22 DUP4 PUSH2 0x138B JUMP JUMPDEST SWAP2 POP PUSH2 0x1B45 DUP3 PUSH2 0x1ADE JUMP JUMPDEST PUSH1 0x40 DUP3 ADD SWAP1 POP SWAP2 SWAP1 POP JUMP JUMPDEST PUSH1 0x0 PUSH1 0x20 DUP3 ADD SWAP1 POP DUP2 DUP2 SUB PUSH1 0x0 DUP4 ADD MSTORE PUSH2 0x1B69 DUP2 PUSH2 0x1B2D JUMP JUMPDEST SWAP1 POP SWAP2 SWAP1 POP JUMP JUMPDEST PUSH32 0x45524332303A20696E73756666696369656E7420616C6C6F77616E6365000000 PUSH1 0x0 DUP3 ADD MSTORE POP JUMP JUMPDEST PUSH1 0x0 PUSH2 0x1BA6 PUSH1 0x1D DUP4 PUSH2 0x138B JUMP JUMPDEST SWAP2 POP PUSH2 0x1BB1 DUP3 PUSH2 0x1B70 JUMP JUMPDEST PUSH1 0x20 DUP3 ADD SWAP1 POP SWAP2 SWAP1 POP JUMP JUMPDEST PUSH1 0x0 PUSH1 0x20 DUP3 ADD SWAP1 POP DUP2 DUP2 SUB PUSH1 0x0 DUP4 ADD MSTORE PUSH2 0x1BD5 DUP2 PUSH2 0x1B99 JUMP JUMPDEST SWAP1 POP SWAP2 SWAP1 POP JUMP JUMPDEST PUSH32 0x45524332303A207472616E736665722066726F6D20746865207A65726F206164 PUSH1 0x0 DUP3 ADD MSTORE PUSH32 0x6472657373000000000000000000000000000000000000000000000000000000 PUSH1 0x20 DUP3 ADD MSTORE POP JUMP JUMPDEST PUSH1 0x0 PUSH2 0x1C38 PUSH1 0x25 DUP4 PUSH2 0x138B JUMP JUMPDEST SWAP2 POP PUSH2 0x1C43 DUP3 PUSH2 0x1BDC JUMP JUMPDEST PUSH1 0x40 DUP3 ADD SWAP1 POP SWAP2 SWAP1 POP JUMP JUMPDEST PUSH1 0x0 PUSH1 0x20 DUP3 ADD SWAP1 POP DUP2 DUP2 SUB PUSH1 0x0 DUP4 ADD MSTORE PUSH2 0x1C67 DUP2 PUSH2 0x1C2B JUMP JUMPDEST SWAP1 POP SWAP2 SWAP1 POP JUMP JUMPDEST PUSH32 0x45524332303A207472616E7366657220746F20746865207A65726F2061646472 PUSH1 0x0 DUP3 ADD MSTORE PUSH32 0x6573730000000000000000000000000000000000000000000000000000000000 PUSH1 0x20 DUP3 ADD MSTORE POP JUMP JUMPDEST PUSH1 0x0 PUSH2 0x1CCA PUSH1 0x23 DUP4 PUSH2 0x138B JUMP JUMPDEST SWAP2 POP PUSH2 0x1CD5 DUP3 PUSH2 0x1C6E JUMP JUMPDEST PUSH1 0x40 DUP3 ADD SWAP1 POP SWAP2 SWAP1 POP JUMP JUMPDEST PUSH1 0x0 PUSH1 0x20 DUP3 ADD SWAP1 POP DUP2 DUP2 SUB PUSH1 0x0 DUP4 ADD MSTORE PUSH2 0x1CF9 DUP2 PUSH2 0x1CBD JUMP JUMPDEST SWAP1 POP SWAP2 SWAP1 POP JUMP JUMPDEST PUSH32 0x45524332303A207472616E7366657220616D6F756E7420657863656564732062 PUSH1 0x0 DUP3 ADD MSTORE PUSH32 0x616C616E63650000000000000000000000000000000000000000000000000000 PUSH1 0x20 DUP3 ADD MSTORE POP JUMP JUMPDEST PUSH1 0x0 PUSH2 0x1D5C PUSH1 0x26 DUP4 PUSH2 0x138B JUMP JUMPDEST SWAP2 POP PUSH2 0x1D67 DUP3 PUSH2 0x1D00 JUMP JUMPDEST PUSH1 0x40 DUP3 ADD SWAP1 POP SWAP2 SWAP1 POP JUMP JUMPDEST PUSH1 0x0 PUSH1 0x20 DUP3 ADD SWAP1 POP DUP2 DUP2 SUB PUSH1 0x0 DUP4 ADD MSTORE PUSH2 0x1D8B DUP2 PUSH2 0x1D4F JUMP JUMPDEST SWAP1 POP SWAP2 SWAP1 POP JUMP JUMPDEST PUSH32 0x45524332303A206275726E2066726F6D20746865207A65726F20616464726573 PUSH1 0x0 DUP3 ADD MSTORE PUSH32 0x7300000000000000000000000000000000000000000000000000000000000000 PUSH1 0x20 DUP3 ADD MSTORE POP JUMP JUMPDEST PUSH1 0x0 PUSH2 0x1DEE PUSH1 0x21 DUP4 PUSH2 0x138B JUMP JUMPDEST SWAP2 POP PUSH2 0x1DF9 DUP3 PUSH2 0x1D92 JUMP JUMPDEST PUSH1 0x40 DUP3 ADD SWAP1 POP SWAP2 SWAP1 POP JUMP JUMPDEST PUSH1 0x0 PUSH1 0x20 DUP3 ADD SWAP1 POP DUP2 DUP2 SUB PUSH1 0x0 DUP4 ADD MSTORE PUSH2 0x1E1D DUP2 PUSH2 0x1DE1 JUMP JUMPDEST SWAP1 POP SWAP2 SWAP1 POP JUMP JUMPDEST PUSH32 0x45524332303A206275726E20616D6F756E7420657863656564732062616C616E PUSH1 0x0 DUP3 ADD MSTORE PUSH32 0x6365000000000000000000000000000000000000000000000000000000000000 PUSH1 0x20 DUP3 ADD MSTORE POP JUMP JUMPDEST PUSH1 0x0 PUSH2 0x1E80 PUSH1 0x22 DUP4 PUSH2 0x138B JUMP JUMPDEST SWAP2 POP PUSH2 0x1E8B DUP3 PUSH2 0x1E24 JUMP JUMPDEST PUSH1 0x40 DUP3 ADD SWAP1 POP SWAP2 SWAP1 POP JUMP JUMPDEST PUSH1 0x0 PUSH1 0x20 DUP3 ADD SWAP1 POP DUP2 DUP2 SUB PUSH1 0x0 DUP4 ADD MSTORE PUSH2 0x1EAF DUP2 PUSH2 0x1E73 JUMP JUMPDEST SWAP1 POP SWAP2 SWAP1 POP JUMP JUMPDEST PUSH32 0x45524332303A206D696E7420746F20746865207A65726F206164647265737300 PUSH1 0x0 DUP3 ADD MSTORE POP JUMP JUMPDEST PUSH1 0x0 PUSH2 0x1EEC PUSH1 0x1F DUP4 PUSH2 0x138B JUMP JUMPDEST SWAP2 POP PUSH2 0x1EF7 DUP3 PUSH2 0x1EB6 JUMP JUMPDEST PUSH1 0x20 DUP3 ADD SWAP1 POP SWAP2 SWAP1 POP JUMP JUMPDEST PUSH1 0x0 PUSH1 0x20 DUP3 ADD SWAP1 POP DUP2 DUP2 SUB PUSH1 0x0 DUP4 ADD MSTORE PUSH2 0x1F1B DUP2 PUSH2 0x1EDF JUMP JUMPDEST SWAP1 POP SWAP2 SWAP1 POP JUMP JUMPDEST PUSH32 0x4F776E61626C653A2063616C6C6572206973206E6F7420746865206F776E6572 PUSH1 0x0 DUP3 ADD MSTORE POP JUMP JUMPDEST PUSH1 0x0 PUSH2 0x1F58 PUSH1 0x20 DUP4 PUSH2 0x138B JUMP JUMPDEST SWAP2 POP PUSH2 0x1F63 DUP3 PUSH2 0x1F22 JUMP JUMPDEST PUSH1 0x20 DUP3 ADD SWAP1 POP SWAP2 SWAP1 POP JUMP JUMPDEST PUSH1 0x0 PUSH1 0x20 DUP3 ADD SWAP1 POP DUP2 DUP2 SUB PUSH1 0x0 DUP4 ADD MSTORE PUSH2 0x1F87 DUP2 PUSH2 0x1F4B JUMP JUMPDEST SWAP1 POP SWAP2 SWAP1 POP JUMP INVALID LOG2 PUSH5 0x6970667358 0x22 SLT KECCAK256 PUSH2 0x13C9 GAS DUP2 DUP11 NOT 0xAC SLOAD 0xC0 SWAP11 SELFDESTRUCT 0x4B PREVRANDAO SAR 0xDB 0x49 0xC1 0xAE GAS PUSH5 0xA3F1D34AB5 0xB3 0x49 ISZERO 0xCA PUSH9 0x664736F6C63430008 SLT STOP CALLER "
				},
				"gasEstimates": {
					"creation": {
						"codeDepositCost": "1626400",
						"executionCost": "infinite",
						"totalCost": "infinite"
					},
					"external": {
						"allowance(address,address)": "infinite",
						"approve(address,uint256)": "infinite",
						"balanceOf(address)": "2886",
						"burn(uint256)": "infinite",
						"burnFrom(address,uint256)": "infinite",
						"decimals()": "366",
						"decreaseAllowance(address,uint256)": "infinite",
						"increaseAllowance(address,uint256)": "infinite",
						"initialSupply()": "2474",
						"name()": "infinite",
						"normal_burn(address,uint256)": "infinite",
						"normal_mint(address,uint256)": "infinite",
						"normal_transfer(address,address,uint256)": "infinite",
						"owner()": "2633",
						"renounceOwnership()": "30465",
						"symbol()": "infinite",
						"totalSupply()": "2505",
						"transfer(address,uint256)": "infinite",
						"transferFrom(address,address,uint256)": "infinite",
						"transferOwnership(address)": "30876",
						"via_transfer(address,address,address,uint256)": "infinite"
					}
				},
				"methodIdentifiers": {
					"allowance(address,address)": "dd62ed3e",
					"approve(address,uint256)": "095ea7b3",
					"balanceOf(address)": "70a08231",
					"burn(uint256)": "42966c68",
					"burnFrom(address,uint256)": "79cc6790",
					"decimals()": "313ce567",
					"decreaseAllowance(address,uint256)": "a457c2d7",
					"increaseAllowance(address,uint256)": "39509351",
					"initialSupply()": "378dc3dc",
					"name()": "06fdde03",
					"normal_burn(address,uint256)": "edd991b3",
					"normal_mint(address,uint256)": "5f367b03",
					"normal_transfer(address,address,uint256)": "469895c8",
					"owner()": "8da5cb5b",
					"renounceOwnership()": "715018a6",
					"symbol()": "95d89b41",
					"totalSupply()": "18160ddd",
					"transfer(address,uint256)": "a9059cbb",
					"transferFrom(address,address,uint256)": "23b872dd",
					"transferOwnership(address)": "f2fde38b",
					"via_transfer(address,address,address,uint256)": "29f436b6"
				}
			},
			"storageLayout": {
				"storage": [
					{
						"astId": 128,
						"contract": "src/tokens/stQVEtoken.sol:stQVEtoken",
						"label": "_balances",
						"offset": 0,
						"slot": "0",
						"type": "t_mapping(t_address,t_uint256)"
					},
					{
						"astId": 134,
						"contract": "src/tokens/stQVEtoken.sol:stQVEtoken",
						"label": "_allowances",
						"offset": 0,
						"slot": "1",
						"type": "t_mapping(t_address,t_mapping(t_address,t_uint256))"
					},
					{
						"astId": 136,
						"contract": "src/tokens/stQVEtoken.sol:stQVEtoken",
						"label": "_totalSupply",
						"offset": 0,
						"slot": "2",
						"type": "t_uint256"
					},
					{
						"astId": 138,
						"contract": "src/tokens/stQVEtoken.sol:stQVEtoken",
						"label": "_name",
						"offset": 0,
						"slot": "3",
						"type": "t_string_storage"
					},
					{
						"astId": 140,
						"contract": "src/tokens/stQVEtoken.sol:stQVEtoken",
						"label": "_symbol",
						"offset": 0,
						"slot": "4",
						"type": "t_string_storage"
					},
					{
						"astId": 7,
						"contract": "src/tokens/stQVEtoken.sol:stQVEtoken",
						"label": "_owner",
						"offset": 0,
						"slot": "5",
						"type": "t_address"
					},
					{
						"astId": 1358,
						"contract": "src/tokens/stQVEtoken.sol:stQVEtoken",
						"label": "locked",
						"offset": 20,
						"slot": "5",
						"type": "t_bool"
					},
					{
						"astId": 1197,
						"contract": "src/tokens/stQVEtoken.sol:stQVEtoken",
						"label": "initialSupply",
						"offset": 0,
						"slot": "6",
						"type": "t_uint256"
					}
				],
				"types": {
					"t_address": {
						"encoding": "inplace",
						"label": "address",
						"numberOfBytes": "20"
					},
					"t_bool": {
						"encoding": "inplace",
						"label": "bool",
						"numberOfBytes": "1"
					},
					"t_mapping(t_address,t_mapping(t_address,t_uint256))": {
						"encoding": "mapping",
						"key": "t_address",
						"label": "mapping(address => mapping(address => uint256))",
						"numberOfBytes": "32",
						"value": "t_mapping(t_address,t_uint256)"
					},
					"t_mapping(t_address,t_uint256)": {
						"encoding": "mapping",
						"key": "t_address",
						"label": "mapping(address => uint256)",
						"numberOfBytes": "32",
						"value": "t_uint256"
					},
					"t_string_storage": {
						"encoding": "bytes",
						"label": "string",
						"numberOfBytes": "32"
					},
					"t_uint256": {
						"encoding": "inplace",
						"label": "uint256",
						"numberOfBytes": "32"
					}
				}
			},
			"userdoc": {
				"kind": "user",
				"methods": {},
				"version": 1
			}
		}
	}
}