{
	"data": {
		"bytecode": {
			"linkReferences": {},
			"object": "60806040523480156200001157600080fd5b5060405162003b1a38038062003b1a83398181016040528101906200003791906200018f565b6040518060400160405280600b81526020017f5156455f7374616b696e670000000000000000000000000000000000000000008152506040518060400160405280600d81526020017f5156455f47554152414e544545000000000000000000000000000000000000008152508160009081620000b491906200043b565b508060019081620000c691906200043b565b50505080600760006101000a81548173ffffffffffffffffffffffffffffffffffffffff021916908373ffffffffffffffffffffffffffffffffffffffff1602179055505062000522565b600080fd5b600073ffffffffffffffffffffffffffffffffffffffff82169050919050565b6000620001438262000116565b9050919050565b6000620001578262000136565b9050919050565b62000169816200014a565b81146200017557600080fd5b50565b60008151905062000189816200015e565b92915050565b600060208284031215620001a857620001a762000111565b5b6000620001b88482850162000178565b91505092915050565b600081519050919050565b7f4e487b7100000000000000000000000000000000000000000000000000000000600052604160045260246000fd5b7f4e487b7100000000000000000000000000000000000000000000000000000000600052602260045260246000fd5b600060028204905060018216806200024357607f821691505b602082108103620002595762000258620001fb565b5b50919050565b60008190508160005260206000209050919050565b60006020601f8301049050919050565b600082821b905092915050565b600060088302620002c37fffffffffffffffffffffffffffffffffffffffffffffffffffffffffffffffff8262000284565b620002cf868362000284565b95508019841693508086168417925050509392505050565b6000819050919050565b6000819050919050565b60006200031c620003166200031084620002e7565b620002f1565b620002e7565b9050919050565b6000819050919050565b6200033883620002fb565b62000350620003478262000323565b84845462000291565b825550505050565b600090565b6200036762000358565b620003748184846200032d565b505050565b5b818110156200039c57620003906000826200035d565b6001810190506200037a565b5050565b601f821115620003eb57620003b5816200025f565b620003c08462000274565b81016020851015620003d0578190505b620003e8620003df8562000274565b83018262000379565b50505b505050565b600082821c905092915050565b60006200041060001984600802620003f0565b1980831691505092915050565b60006200042b8383620003fd565b9150826002028217905092915050565b6200044682620001c1565b67ffffffffffffffff811115620004625762000461620001cc565b5b6200046e82546200022a565b6200047b828285620003a0565b600060209050601f831160018114620004b357600084156200049e578287015190505b620004aa85826200041d565b8655506200051a565b601f198416620004c3866200025f565b60005b82811015620004ed57848901518255600182019150602085019450602081019050620004c6565b868310156200050d578489015162000509601f891682620003fd565b8355505b6001600288020188555050505b505050505050565b6135e880620005326000396000f3fe608060405234801561001057600080fd5b50600436106101375760003560e01c80636352211e116100b8578063b2c3a7171161007c578063b2c3a71714610385578063b88d4fde146103b5578063c87b56dd146103d1578063e149f03614610401578063e985e9c514610431578063f42c69d61461046157610137565b80636352211e146102ba57806370a08231146102ea5780637d4cd8471461031a57806395d89b411461034b578063a22cb4651461036957610137565b806323b872dd116100ff57806323b872dd146102065780632890e0d71461022257806342842e0e1461025257806342966c681461026e57806347fcf0181461028a57610137565b806301ffc9a71461013c57806306fdde031461016c578063081812fc1461018a5780630890d80c146101ba578063095ea7b3146101ea575b600080fd5b61015660048036038101906101519190612094565b610491565b60405161016391906120dc565b60405180910390f35b610174610573565b6040516101819190612187565b60405180910390f35b6101a4600480360381019061019f91906121df565b610605565b6040516101b1919061224d565b60405180910390f35b6101d460048036038101906101cf919061239d565b61064b565b6040516101e191906120dc565b60405180910390f35b61020460048036038101906101ff9190612470565b610688565b005b610220600480360381019061021b91906124b0565b61079f565b005b61023c600480360381019061023791906121df565b6107ff565b60405161024991906120dc565b60405180910390f35b61026c600480360381019061026791906124b0565b61084a565b005b610288600480360381019061028391906121df565b61086a565b005b6102a4600480360381019061029f9190612470565b6108c6565b6040516102b191906120dc565b60405180910390f35b6102d460048036038101906102cf91906121df565b610929565b6040516102e1919061224d565b60405180910390f35b61030460048036038101906102ff9190612503565b6109af565b604051610311919061253f565b60405180910390f35b610334600480360381019061032f91906121df565b610a66565b60405161034292919061255a565b60405180910390f35b610353610a8a565b6040516103609190612187565b60405180910390f35b610383600480360381019061037e91906125af565b610b1c565b005b61039f600480360381019061039a91906125ef565b610b32565b6040516103ac91906120dc565b60405180910390f35b6103cf60048036038101906103ca91906126e3565b610c57565b005b6103eb60048036038101906103e691906121df565b610cb9565b6040516103f89190612187565b60405180910390f35b61041b60048036038101906104169190612470565b610cf2565b604051610428919061253f565b60405180910390f35b61044b60048036038101906104469190612766565b610d23565b60405161045891906120dc565b60405180910390f35b61047b600480360381019061047691906125af565b610db7565b604051610488919061253f565b60405180910390f35b60007f80ac58cd000000000000000000000000000000000000000000000000000000007bffffffffffffffffffffffffffffffffffffffffffffffffffffffff1916827bffffffffffffffffffffffffffffffffffffffffffffffffffffffff1916148061055c57507f5b5e139f000000000000000000000000000000000000000000000000000000007bffffffffffffffffffffffffffffffffffffffffffffffffffffffff1916827bffffffffffffffffffffffffffffffffffffffffffffffffffffffff1916145b8061056c575061056b82610ee8565b5b9050919050565b606060008054610582906127d5565b80601f01602080910402602001604051908101604052809291908181526020018280546105ae906127d5565b80156105fb5780601f106105d0576101008083540402835291602001916105fb565b820191906000526020600020905b8154815290600101906020018083116105de57829003601f168201915b5050505050905090565b600061061082610f52565b6004600083815260200190815260200160002060009054906101000a900473ffffffffffffffffffffffffffffffffffffffff169050919050565b6000836009908161065c91906129b2565b5082600a908161066c91906129b2565b5081600b908161067c91906129b2565b50600190509392505050565b600061069382610929565b90508073ffffffffffffffffffffffffffffffffffffffff168373ffffffffffffffffffffffffffffffffffffffff1603610703576040517f08c379a00000000000000000000000000000000000000000000000000000000081526004016106fa90612af6565b60405180910390fd5b8073ffffffffffffffffffffffffffffffffffffffff16610722610f9d565b73ffffffffffffffffffffffffffffffffffffffff16148061075157506107508161074b610f9d565b610d23565b5b610790576040517f08c379a000000000000000000000000000000000000000000000000000000000815260040161078790612b88565b60405180910390fd5b61079a8383610fa5565b505050565b6107b06107aa610f9d565b8261105e565b6107ef576040517f08c379a00000000000000000000000000000000000000000000000000000000081526004016107e690612c1a565b60405180910390fd5b6107fa8383836110f3565b505050565b600061080a8261086a565b7f2beb25151320f46889820e034dc2f6d9639f8d91acf4e9c549b4a49f7a61933982604051610839919061253f565b60405180910390a160019050919050565b61086583838360405180602001604052806000815250610c57565b505050565b61087b610875610f9d565b8261105e565b6108ba576040517f08c379a00000000000000000000000000000000000000000000000000000000081526004016108b190612c1a565b60405180910390fd5b6108c3816113ec565b50565b60006108d18261086a565b8273ffffffffffffffffffffffffffffffffffffffff167f0d0129bc09c60b0431aa4790ad49ad5efeaa5d10aed0d233e41cc332840da11a83604051610917919061253f565b60405180910390a26001905092915050565b6000806109358361153a565b9050600073ffffffffffffffffffffffffffffffffffffffff168173ffffffffffffffffffffffffffffffffffffffff16036109a6576040517f08c379a000000000000000000000000000000000000000000000000000000000815260040161099d90612c86565b60405180910390fd5b80915050919050565b60008073ffffffffffffffffffffffffffffffffffffffff168273ffffffffffffffffffffffffffffffffffffffff1603610a1f576040517f08c379a0000000000000000000000000000000000000000000000000000000008152600401610a1690612d18565b60405180910390fd5b600360008373ffffffffffffffffffffffffffffffffffffffff1673ffffffffffffffffffffffffffffffffffffffff168152602001908152602001600020549050919050565b600c6020528060005260406000206000915090508060000154908060010154905082565b606060018054610a99906127d5565b80601f0160208091040260200160405190810160405280929190818152602001828054610ac5906127d5565b8015610b125780601f10610ae757610100808354040283529160200191610b12565b820191906000526020600020905b815481529060010190602001808311610af557829003601f168201915b5050505050905090565b610b2e610b27610f9d565b8383611577565b5050565b6000610b3d836116e3565b50600760009054906101000a900473ffffffffffffffffffffffffffffffffffffffff1673ffffffffffffffffffffffffffffffffffffffff1663469895c833600860009054906101000a900473ffffffffffffffffffffffffffffffffffffffff16876040518463ffffffff1660e01b8152600401610bbf93929190612d38565b6020604051808303816000875af1158015610bde573d6000803e3d6000fd5b505050506040513d601f19601f82011682018060405250810190610c029190612d84565b610c41576040517f08c379a0000000000000000000000000000000000000000000000000000000008152600401610c3890612dfd565b60405180910390fd5b610c4b848361179d565b50600190509392505050565b610c68610c62610f9d565b8361105e565b610ca7576040517f08c379a0000000000000000000000000000000000000000000000000000000008152600401610c9e90612c1a565b60405180910390fd5b610cb384848484611812565b50505050565b6060610cc482610f52565b6009600a600b604051602001610cdc93929190612fdb565b6040516020818303038152906040529050919050565b600d6020528160005260406000208181548110610d0e57600080fd5b90600052602060002001600091509150505481565b6000600560008473ffffffffffffffffffffffffffffffffffffffff1673ffffffffffffffffffffffffffffffffffffffff16815260200190815260200160002060008373ffffffffffffffffffffffffffffffffffffffff1673ffffffffffffffffffffffffffffffffffffffff16815260200190815260200160002060009054906101000a900460ff16905092915050565b600080610dc4600661186e565b9050610de084826040518060200160405280600081525061187c565b8215610e2d57604051806040016040528042815260200162ed4e00815250600c60008381526020019081526020016000206000820151816000015560208201518160010155905050610e6e565b60405180604001604052804281526020016000815250600c600083815260200190815260200160002060008201518160000155602082015181600101559050505b600d60008573ffffffffffffffffffffffffffffffffffffffff1673ffffffffffffffffffffffffffffffffffffffff168152602001908152602001600020819080600181540180825580915050600190039060005260206000200160009091909190915055610ede60066118d7565b8091505092915050565b60007f01ffc9a7000000000000000000000000000000000000000000000000000000007bffffffffffffffffffffffffffffffffffffffffffffffffffffffff1916827bffffffffffffffffffffffffffffffffffffffffffffffffffffffff1916149050919050565b610f5b816118ed565b610f9a576040517f08c379a0000000000000000000000000000000000000000000000000000000008152600401610f9190612c86565b60405180910390fd5b50565b600033905090565b816004600083815260200190815260200160002060006101000a81548173ffffffffffffffffffffffffffffffffffffffff021916908373ffffffffffffffffffffffffffffffffffffffff160217905550808273ffffffffffffffffffffffffffffffffffffffff1661101883610929565b73ffffffffffffffffffffffffffffffffffffffff167f8c5be1e5ebec7d5bd14f71427d1e84f3dd0314c0f7b2291e5b200ac8c7c3b92560405160405180910390a45050565b60008061106a83610929565b90508073ffffffffffffffffffffffffffffffffffffffff168473ffffffffffffffffffffffffffffffffffffffff1614806110ac57506110ab8185610d23565b5b806110ea57508373ffffffffffffffffffffffffffffffffffffffff166110d284610605565b73ffffffffffffffffffffffffffffffffffffffff16145b91505092915050565b8273ffffffffffffffffffffffffffffffffffffffff1661111382610929565b73ffffffffffffffffffffffffffffffffffffffff1614611169576040517f08c379a0000000000000000000000000000000000000000000000000000000008152600401611160906130aa565b60405180910390fd5b600073ffffffffffffffffffffffffffffffffffffffff168273ffffffffffffffffffffffffffffffffffffffff16036111d8576040517f08c379a00000000000000000000000000000000000000000000000000000000081526004016111cf9061313c565b60405180910390fd5b6111e5838383600161192e565b8273ffffffffffffffffffffffffffffffffffffffff1661120582610929565b73ffffffffffffffffffffffffffffffffffffffff161461125b576040517f08c379a0000000000000000000000000000000000000000000000000000000008152600401611252906130aa565b60405180910390fd5b6004600082815260200190815260200160002060006101000a81549073ffffffffffffffffffffffffffffffffffffffff02191690556001600360008573ffffffffffffffffffffffffffffffffffffffff1673ffffffffffffffffffffffffffffffffffffffff168152602001908152602001600020600082825403925050819055506001600360008473ffffffffffffffffffffffffffffffffffffffff1673ffffffffffffffffffffffffffffffffffffffff16815260200190815260200160002060008282540192505081905550816002600083815260200190815260200160002060006101000a81548173ffffffffffffffffffffffffffffffffffffffff021916908373ffffffffffffffffffffffffffffffffffffffff160217905550808273ffffffffffffffffffffffffffffffffffffffff168473ffffffffffffffffffffffffffffffffffffffff167fddf252ad1be2c89b69c2b068fc378daa952ba7f163c4a11628f55a4df523b3ef60405160405180910390a46113e78383836001611a34565b505050565b60006113f782610929565b905061140781600084600161192e565b61141082610929565b90506004600083815260200190815260200160002060006101000a81549073ffffffffffffffffffffffffffffffffffffffff02191690556001600360008373ffffffffffffffffffffffffffffffffffffffff1673ffffffffffffffffffffffffffffffffffffffff168152602001908152602001600020600082825403925050819055506002600083815260200190815260200160002060006101000a81549073ffffffffffffffffffffffffffffffffffffffff021916905581600073ffffffffffffffffffffffffffffffffffffffff168273ffffffffffffffffffffffffffffffffffffffff167fddf252ad1be2c89b69c2b068fc378daa952ba7f163c4a11628f55a4df523b3ef60405160405180910390a4611536816000846001611a34565b5050565b60006002600083815260200190815260200160002060009054906101000a900473ffffffffffffffffffffffffffffffffffffffff169050919050565b8173ffffffffffffffffffffffffffffffffffffffff168373ffffffffffffffffffffffffffffffffffffffff16036115e5576040517f08c379a00000000000000000000000000000000000000000000000000000000081526004016115dc906131a8565b60405180910390fd5b80600560008573ffffffffffffffffffffffffffffffffffffffff1673ffffffffffffffffffffffffffffffffffffffff16815260200190815260200160002060008473ffffffffffffffffffffffffffffffffffffffff1673ffffffffffffffffffffffffffffffffffffffff16815260200190815260200160002060006101000a81548160ff0219169083151502179055508173ffffffffffffffffffffffffffffffffffffffff168373ffffffffffffffffffffffffffffffffffffffff167f17307eab39ab6107e8899845ad3d59bd9653f200f220920489ca2b5937696c31836040516116d691906120dc565b60405180910390a3505050565b60008073ffffffffffffffffffffffffffffffffffffffff168273ffffffffffffffffffffffffffffffffffffffff1603611753576040517f08c379a000000000000000000000000000000000000000000000000000000000815260040161174a90613214565b60405180910390fd5b81600860006101000a81548173ffffffffffffffffffffffffffffffffffffffff021916908373ffffffffffffffffffffffffffffffffffffffff16021790555060019050919050565b60008083146117e457606483146117da5760c883146117d0576103e883146117c85762ed4e006117cb565b60005b6117d5565b6283d6005b6117df565b62ab63005b6117e9565b62ed4e005b62ffffff16600c6000848152602001908152602001600020600101819055506001905092915050565b61181d8484846110f3565b61182984848484611a3a565b611868576040517f08c379a000000000000000000000000000000000000000000000000000000000815260040161185f906132a6565b60405180910390fd5b50505050565b600081600001549050919050565b6118868383611bc1565b6118936000848484611a3a565b6118d2576040517f08c379a00000000000000000000000000000000000000000000000000000000081526004016118c9906132a6565b60405180910390fd5b505050565b6001816000016000828254019250508190555050565b60008073ffffffffffffffffffffffffffffffffffffffff1661190f8361153a565b73ffffffffffffffffffffffffffffffffffffffff1614159050919050565b61193e8484846001945084611dde565b600073ffffffffffffffffffffffffffffffffffffffff168473ffffffffffffffffffffffffffffffffffffffff1614611a2e57600c600083815260200190815260200160002060010154600c6000848152602001908152602001600020600001546119aa91906132f5565b4210156119cc600c600085815260200190815260200160002060010154611de4565b6040516020016119dc91906133a6565b60405160208183030381529060405290611a2c576040517f08c379a0000000000000000000000000000000000000000000000000000000008152600401611a239190612187565b60405180910390fd5b505b50505050565b50505050565b6000611a5b8473ffffffffffffffffffffffffffffffffffffffff16611eb2565b15611bb4578373ffffffffffffffffffffffffffffffffffffffff1663150b7a02611a84610f9d565b8786866040518563ffffffff1660e01b8152600401611aa6949392919061341d565b6020604051808303816000875af1925050508015611ae257506040513d601f19601f82011682018060405250810190611adf919061347e565b60015b611b64573d8060008114611b12576040519150601f19603f3d011682016040523d82523d6000602084013e611b17565b606091505b506000815103611b5c576040517f08c379a0000000000000000000000000000000000000000000000000000000008152600401611b53906132a6565b60405180910390fd5b805181602001fd5b63150b7a0260e01b7bffffffffffffffffffffffffffffffffffffffffffffffffffffffff1916817bffffffffffffffffffffffffffffffffffffffffffffffffffffffff191614915050611bb9565b600190505b949350505050565b600073ffffffffffffffffffffffffffffffffffffffff168273ffffffffffffffffffffffffffffffffffffffff1603611c30576040517f08c379a0000000000000000000000000000000000000000000000000000000008152600401611c27906134f7565b60405180910390fd5b611c39816118ed565b15611c79576040517f08c379a0000000000000000000000000000000000000000000000000000000008152600401611c7090613563565b60405180910390fd5b611c8760008383600161192e565b611c90816118ed565b15611cd0576040517f08c379a0000000000000000000000000000000000000000000000000000000008152600401611cc790613563565b60405180910390fd5b6001600360008473ffffffffffffffffffffffffffffffffffffffff1673ffffffffffffffffffffffffffffffffffffffff16815260200190815260200160002060008282540192505081905550816002600083815260200190815260200160002060006101000a81548173ffffffffffffffffffffffffffffffffffffffff021916908373ffffffffffffffffffffffffffffffffffffffff160217905550808273ffffffffffffffffffffffffffffffffffffffff16600073ffffffffffffffffffffffffffffffffffffffff167fddf252ad1be2c89b69c2b068fc378daa952ba7f163c4a11628f55a4df523b3ef60405160405180910390a4611dda600083836001611a34565b5050565b50505050565b606060006001611df384611ed5565b01905060008167ffffffffffffffff811115611e1257611e11612272565b5b6040519080825280601f01601f191660200182016040528015611e445781602001600182028036833780820191505090505b509050600082602001820190505b600115611ea7578080600190039150507f3031323334353637383961626364656600000000000000000000000000000000600a86061a8153600a8581611e9b57611e9a613583565b5b04945060008503611e52575b819350505050919050565b6000808273ffffffffffffffffffffffffffffffffffffffff163b119050919050565b600080600090507a184f03e93ff9f4daa797ed6e38ed64bf6a1f0100000000000000008310611f33577a184f03e93ff9f4daa797ed6e38ed64bf6a1f0100000000000000008381611f2957611f28613583565b5b0492506040810190505b6d04ee2d6d415b85acef81000000008310611f70576d04ee2d6d415b85acef81000000008381611f6657611f65613583565b5b0492506020810190505b662386f26fc100008310611f9f57662386f26fc100008381611f9557611f94613583565b5b0492506010810190505b6305f5e1008310611fc8576305f5e1008381611fbe57611fbd613583565b5b0492506008810190505b6127108310611fed576127108381611fe357611fe2613583565b5b0492506004810190505b60648310612010576064838161200657612005613583565b5b0492506002810190505b600a831061201f576001810190505b80915050919050565b6000604051905090565b600080fd5b600080fd5b60007fffffffff0000000000000000000000000000000000000000000000000000000082169050919050565b6120718161203c565b811461207c57600080fd5b50565b60008135905061208e81612068565b92915050565b6000602082840312156120aa576120a9612032565b5b60006120b88482850161207f565b91505092915050565b60008115159050919050565b6120d6816120c1565b82525050565b60006020820190506120f160008301846120cd565b92915050565b600081519050919050565b600082825260208201905092915050565b60005b83811015612131578082015181840152602081019050612116565b60008484015250505050565b6000601f19601f8301169050919050565b6000612159826120f7565b6121638185612102565b9350612173818560208601612113565b61217c8161213d565b840191505092915050565b600060208201905081810360008301526121a1818461214e565b905092915050565b6000819050919050565b6121bc816121a9565b81146121c757600080fd5b50565b6000813590506121d9816121b3565b92915050565b6000602082840312156121f5576121f4612032565b5b6000612203848285016121ca565b91505092915050565b600073ffffffffffffffffffffffffffffffffffffffff82169050919050565b60006122378261220c565b9050919050565b6122478161222c565b82525050565b6000602082019050612262600083018461223e565b92915050565b600080fd5b600080fd5b7f4e487b7100000000000000000000000000000000000000000000000000000000600052604160045260246000fd5b6122aa8261213d565b810181811067ffffffffffffffff821117156122c9576122c8612272565b5b80604052505050565b60006122dc612028565b90506122e882826122a1565b919050565b600067ffffffffffffffff82111561230857612307612272565b5b6123118261213d565b9050602081019050919050565b82818337600083830152505050565b600061234061233b846122ed565b6122d2565b90508281526020810184848401111561235c5761235b61226d565b5b61236784828561231e565b509392505050565b600082601f83011261238457612383612268565b5b813561239484826020860161232d565b91505092915050565b6000806000606084860312156123b6576123b5612032565b5b600084013567ffffffffffffffff8111156123d4576123d3612037565b5b6123e08682870161236f565b935050602084013567ffffffffffffffff81111561240157612400612037565b5b61240d8682870161236f565b925050604084013567ffffffffffffffff81111561242e5761242d612037565b5b61243a8682870161236f565b9150509250925092565b61244d8161222c565b811461245857600080fd5b50565b60008135905061246a81612444565b92915050565b6000806040838503121561248757612486612032565b5b60006124958582860161245b565b92505060206124a6858286016121ca565b9150509250929050565b6000806000606084860312156124c9576124c8612032565b5b60006124d78682870161245b565b93505060206124e88682870161245b565b92505060406124f9868287016121ca565b9150509250925092565b60006020828403121561251957612518612032565b5b60006125278482850161245b565b91505092915050565b612539816121a9565b82525050565b60006020820190506125546000830184612530565b92915050565b600060408201905061256f6000830185612530565b61257c6020830184612530565b9392505050565b61258c816120c1565b811461259757600080fd5b50565b6000813590506125a981612583565b92915050565b600080604083850312156125c6576125c5612032565b5b60006125d48582860161245b565b92505060206125e58582860161259a565b9150509250929050565b60008060006060848603121561260857612607612032565b5b6000612616868287016121ca565b93505060206126278682870161245b565b9250506040612638868287016121ca565b9150509250925092565b600067ffffffffffffffff82111561265d5761265c612272565b5b6126668261213d565b9050602081019050919050565b600061268661268184612642565b6122d2565b9050828152602081018484840111156126a2576126a161226d565b5b6126ad84828561231e565b509392505050565b600082601f8301126126ca576126c9612268565b5b81356126da848260208601612673565b91505092915050565b600080600080608085870312156126fd576126fc612032565b5b600061270b8782880161245b565b945050602061271c8782880161245b565b935050604061272d878288016121ca565b925050606085013567ffffffffffffffff81111561274e5761274d612037565b5b61275a878288016126b5565b91505092959194509250565b6000806040838503121561277d5761277c612032565b5b600061278b8582860161245b565b925050602061279c8582860161245b565b9150509250929050565b7f4e487b7100000000000000000000000000000000000000000000000000000000600052602260045260246000fd5b600060028204905060018216806127ed57607f821691505b602082108103612800576127ff6127a6565b5b50919050565b60008190508160005260206000209050919050565b60006020601f8301049050919050565b600082821b905092915050565b6000600883026128687fffffffffffffffffffffffffffffffffffffffffffffffffffffffffffffffff8261282b565b612872868361282b565b95508019841693508086168417925050509392505050565b6000819050919050565b60006128af6128aa6128a5846121a9565b61288a565b6121a9565b9050919050565b6000819050919050565b6128c983612894565b6128dd6128d5826128b6565b848454612838565b825550505050565b600090565b6128f26128e5565b6128fd8184846128c0565b505050565b5b81811015612921576129166000826128ea565b600181019050612903565b5050565b601f8211156129665761293781612806565b6129408461281b565b8101602085101561294f578190505b61296361295b8561281b565b830182612902565b50505b505050565b600082821c905092915050565b60006129896000198460080261296b565b1980831691505092915050565b60006129a28383612978565b9150826002028217905092915050565b6129bb826120f7565b67ffffffffffffffff8111156129d4576129d3612272565b5b6129de82546127d5565b6129e9828285612925565b600060209050601f831160018114612a1c5760008415612a0a578287015190505b612a148582612996565b865550612a7c565b601f198416612a2a86612806565b60005b82811015612a5257848901518255600182019150602085019450602081019050612a2d565b86831015612a6f5784890151612a6b601f891682612978565b8355505b6001600288020188555050505b505050505050565b7f4552433732313a20617070726f76616c20746f2063757272656e74206f776e6560008201527f7200000000000000000000000000000000000000000000000000000000000000602082015250565b6000612ae0602183612102565b9150612aeb82612a84565b604082019050919050565b60006020820190508181036000830152612b0f81612ad3565b9050919050565b7f4552433732313a20617070726f76652063616c6c6572206973206e6f7420746f60008201527f6b656e206f776e6572206f7220617070726f76656420666f7220616c6c000000602082015250565b6000612b72603d83612102565b9150612b7d82612b16565b604082019050919050565b60006020820190508181036000830152612ba181612b65565b9050919050565b7f4552433732313a2063616c6c6572206973206e6f7420746f6b656e206f776e6560008201527f72206f7220617070726f76656400000000000000000000000000000000000000602082015250565b6000612c04602d83612102565b9150612c0f82612ba8565b604082019050919050565b60006020820190508181036000830152612c3381612bf7565b9050919050565b7f4552433732313a20696e76616c696420746f6b656e2049440000000000000000600082015250565b6000612c70601883612102565b9150612c7b82612c3a565b602082019050919050565b60006020820190508181036000830152612c9f81612c63565b9050919050565b7f4552433732313a2061646472657373207a65726f206973206e6f74206120766160008201527f6c6964206f776e65720000000000000000000000000000000000000000000000602082015250565b6000612d02602983612102565b9150612d0d82612ca6565b604082019050919050565b60006020820190508181036000830152612d3181612cf5565b9050919050565b6000606082019050612d4d600083018661223e565b612d5a602083018561223e565b612d676040830184612530565b949350505050565b600081519050612d7e81612583565b92915050565b600060208284031215612d9a57612d99612032565b5b6000612da884828501612d6f565b91505092915050565b7f717665546f6b656e207472616e73666572206572726f72000000000000000000600082015250565b6000612de7601783612102565b9150612df282612db1565b602082019050919050565b60006020820190508181036000830152612e1681612dda565b9050919050565b600081905092915050565b7f646174613a6170706c69636174696f6e2f6a736f6e2c7b226e616d65223a2200600082015250565b6000612e5e601f83612e1d565b9150612e6982612e28565b601f82019050919050565b60008154612e81816127d5565b612e8b8186612e1d565b94506001821660008114612ea65760018114612ebb57612eee565b60ff1983168652811515820286019350612eee565b612ec485612806565b60005b83811015612ee657815481890152600182019150602081019050612ec7565b838801955050505b50505092915050565b7f222c20226465736372697074696f6e223a220000000000000000000000000000600082015250565b6000612f2d601283612e1d565b9150612f3882612ef7565b601282019050919050565b7f222c2022696d616765223a220000000000000000000000000000000000000000600082015250565b6000612f79600c83612e1d565b9150612f8482612f43565b600c82019050919050565b7f227d000000000000000000000000000000000000000000000000000000000000600082015250565b6000612fc5600283612e1d565b9150612fd082612f8f565b600282019050919050565b6000612fe682612e51565b9150612ff28286612e74565b9150612ffd82612f20565b91506130098285612e74565b915061301482612f6c565b91506130208284612e74565b915061302b82612fb8565b9150819050949350505050565b7f4552433732313a207472616e736665722066726f6d20696e636f72726563742060008201527f6f776e6572000000000000000000000000000000000000000000000000000000602082015250565b6000613094602583612102565b915061309f82613038565b604082019050919050565b600060208201905081810360008301526130c381613087565b9050919050565b7f4552433732313a207472616e7366657220746f20746865207a65726f2061646460008201527f7265737300000000000000000000000000000000000000000000000000000000602082015250565b6000613126602483612102565b9150613131826130ca565b604082019050919050565b6000602082019050818103600083015261315581613119565b9050919050565b7f4552433732313a20617070726f766520746f2063616c6c657200000000000000600082015250565b6000613192601983612102565b915061319d8261315c565b602082019050919050565b600060208201905081810360008301526131c181613185565b9050919050565b7f5f73657451564564656669206572726f72000000000000000000000000000000600082015250565b60006131fe601183612102565b9150613209826131c8565b602082019050919050565b6000602082019050818103600083015261322d816131f1565b9050919050565b7f4552433732313a207472616e7366657220746f206e6f6e20455243373231526560008201527f63656976657220696d706c656d656e7465720000000000000000000000000000602082015250565b6000613290603283612102565b915061329b82613234565b604082019050919050565b600060208201905081810360008301526132bf81613283565b9050919050565b7f4e487b7100000000000000000000000000000000000000000000000000000000600052601160045260246000fd5b6000613300826121a9565b915061330b836121a9565b9250828201905080821115613323576133226132c6565b5b92915050565b7f746f6b656e206973207374696c6c20696e206c6f636b20706572696f64000000600082015250565b600061335f601d83612e1d565b915061336a82613329565b601d82019050919050565b6000613380826120f7565b61338a8185612e1d565b935061339a818560208601612113565b80840191505092915050565b60006133b182613352565b91506133bd8284613375565b915081905092915050565b600081519050919050565b600082825260208201905092915050565b60006133ef826133c8565b6133f981856133d3565b9350613409818560208601612113565b6134128161213d565b840191505092915050565b6000608082019050613432600083018761223e565b61343f602083018661223e565b61344c6040830185612530565b818103606083015261345e81846133e4565b905095945050505050565b60008151905061347881612068565b92915050565b60006020828403121561349457613493612032565b5b60006134a284828501613469565b91505092915050565b7f4552433732313a206d696e7420746f20746865207a65726f2061646472657373600082015250565b60006134e1602083612102565b91506134ec826134ab565b602082019050919050565b60006020820190508181036000830152613510816134d4565b9050919050565b7f4552433732313a20746f6b656e20616c7265616479206d696e74656400000000600082015250565b600061354d601c83612102565b915061355882613517565b602082019050919050565b6000602082019050818103600083015261357c81613540565b9050919050565b7f4e487b7100000000000000000000000000000000000000000000000000000000600052601260045260246000fdfea26469706673582212200651c0b38dc59aa12ba4e46307bab01f9ba319a124cd9fdf74600b953d5d953c64736f6c63430008120033",
			"opcodes": "PUSH1 0x80 PUSH1 0x40 MSTORE CALLVALUE DUP1 ISZERO PUSH3 0x11 JUMPI PUSH1 0x0 DUP1 REVERT JUMPDEST POP PUSH1 0x40 MLOAD PUSH3 0x3B1A CODESIZE SUB DUP1 PUSH3 0x3B1A DUP4 CODECOPY DUP2 DUP2 ADD PUSH1 0x40 MSTORE DUP2 ADD SWAP1 PUSH3 0x37 SWAP2 SWAP1 PUSH3 0x18F JUMP JUMPDEST PUSH1 0x40 MLOAD DUP1 PUSH1 0x40 ADD PUSH1 0x40 MSTORE DUP1 PUSH1 0xB DUP2 MSTORE PUSH1 0x20 ADD PUSH32 0x5156455F7374616B696E67000000000000000000000000000000000000000000 DUP2 MSTORE POP PUSH1 0x40 MLOAD DUP1 PUSH1 0x40 ADD PUSH1 0x40 MSTORE DUP1 PUSH1 0xD DUP2 MSTORE PUSH1 0x20 ADD PUSH32 0x5156455F47554152414E54454500000000000000000000000000000000000000 DUP2 MSTORE POP DUP2 PUSH1 0x0 SWAP1 DUP2 PUSH3 0xB4 SWAP2 SWAP1 PUSH3 0x43B JUMP JUMPDEST POP DUP1 PUSH1 0x1 SWAP1 DUP2 PUSH3 0xC6 SWAP2 SWAP1 PUSH3 0x43B JUMP JUMPDEST POP POP POP DUP1 PUSH1 0x7 PUSH1 0x0 PUSH2 0x100 EXP DUP2 SLOAD DUP2 PUSH20 0xFFFFFFFFFFFFFFFFFFFFFFFFFFFFFFFFFFFFFFFF MUL NOT AND SWAP1 DUP4 PUSH20 0xFFFFFFFFFFFFFFFFFFFFFFFFFFFFFFFFFFFFFFFF AND MUL OR SWAP1 SSTORE POP POP PUSH3 0x522 JUMP JUMPDEST PUSH1 0x0 DUP1 REVERT JUMPDEST PUSH1 0x0 PUSH20 0xFFFFFFFFFFFFFFFFFFFFFFFFFFFFFFFFFFFFFFFF DUP3 AND SWAP1 POP SWAP2 SWAP1 POP JUMP JUMPDEST PUSH1 0x0 PUSH3 0x143 DUP3 PUSH3 0x116 JUMP JUMPDEST SWAP1 POP SWAP2 SWAP1 POP JUMP JUMPDEST PUSH1 0x0 PUSH3 0x157 DUP3 PUSH3 0x136 JUMP JUMPDEST SWAP1 POP SWAP2 SWAP1 POP JUMP JUMPDEST PUSH3 0x169 DUP2 PUSH3 0x14A JUMP JUMPDEST DUP2 EQ PUSH3 0x175 JUMPI PUSH1 0x0 DUP1 REVERT JUMPDEST POP JUMP JUMPDEST PUSH1 0x0 DUP2 MLOAD SWAP1 POP PUSH3 0x189 DUP2 PUSH3 0x15E JUMP JUMPDEST SWAP3 SWAP2 POP POP JUMP JUMPDEST PUSH1 0x0 PUSH1 0x20 DUP3 DUP5 SUB SLT ISZERO PUSH3 0x1A8 JUMPI PUSH3 0x1A7 PUSH3 0x111 JUMP JUMPDEST JUMPDEST PUSH1 0x0 PUSH3 0x1B8 DUP5 DUP3 DUP6 ADD PUSH3 0x178 JUMP JUMPDEST SWAP2 POP POP SWAP3 SWAP2 POP POP JUMP JUMPDEST PUSH1 0x0 DUP2 MLOAD SWAP1 POP SWAP2 SWAP1 POP JUMP JUMPDEST PUSH32 0x4E487B7100000000000000000000000000000000000000000000000000000000 PUSH1 0x0 MSTORE PUSH1 0x41 PUSH1 0x4 MSTORE PUSH1 0x24 PUSH1 0x0 REVERT JUMPDEST PUSH32 0x4E487B7100000000000000000000000000000000000000000000000000000000 PUSH1 0x0 MSTORE PUSH1 0x22 PUSH1 0x4 MSTORE PUSH1 0x24 PUSH1 0x0 REVERT JUMPDEST PUSH1 0x0 PUSH1 0x2 DUP3 DIV SWAP1 POP PUSH1 0x1 DUP3 AND DUP1 PUSH3 0x243 JUMPI PUSH1 0x7F DUP3 AND SWAP2 POP JUMPDEST PUSH1 0x20 DUP3 LT DUP2 SUB PUSH3 0x259 JUMPI PUSH3 0x258 PUSH3 0x1FB JUMP JUMPDEST JUMPDEST POP SWAP2 SWAP1 POP JUMP JUMPDEST PUSH1 0x0 DUP2 SWAP1 POP DUP2 PUSH1 0x0 MSTORE PUSH1 0x20 PUSH1 0x0 KECCAK256 SWAP1 POP SWAP2 SWAP1 POP JUMP JUMPDEST PUSH1 0x0 PUSH1 0x20 PUSH1 0x1F DUP4 ADD DIV SWAP1 POP SWAP2 SWAP1 POP JUMP JUMPDEST PUSH1 0x0 DUP3 DUP3 SHL SWAP1 POP SWAP3 SWAP2 POP POP JUMP JUMPDEST PUSH1 0x0 PUSH1 0x8 DUP4 MUL PUSH3 0x2C3 PUSH32 0xFFFFFFFFFFFFFFFFFFFFFFFFFFFFFFFFFFFFFFFFFFFFFFFFFFFFFFFFFFFFFFFF DUP3 PUSH3 0x284 JUMP JUMPDEST PUSH3 0x2CF DUP7 DUP4 PUSH3 0x284 JUMP JUMPDEST SWAP6 POP DUP1 NOT DUP5 AND SWAP4 POP DUP1 DUP7 AND DUP5 OR SWAP3 POP POP POP SWAP4 SWAP3 POP POP POP JUMP JUMPDEST PUSH1 0x0 DUP2 SWAP1 POP SWAP2 SWAP1 POP JUMP JUMPDEST PUSH1 0x0 DUP2 SWAP1 POP SWAP2 SWAP1 POP JUMP JUMPDEST PUSH1 0x0 PUSH3 0x31C PUSH3 0x316 PUSH3 0x310 DUP5 PUSH3 0x2E7 JUMP JUMPDEST PUSH3 0x2F1 JUMP JUMPDEST PUSH3 0x2E7 JUMP JUMPDEST SWAP1 POP SWAP2 SWAP1 POP JUMP JUMPDEST PUSH1 0x0 DUP2 SWAP1 POP SWAP2 SWAP1 POP JUMP JUMPDEST PUSH3 0x338 DUP4 PUSH3 0x2FB JUMP JUMPDEST PUSH3 0x350 PUSH3 0x347 DUP3 PUSH3 0x323 JUMP JUMPDEST DUP5 DUP5 SLOAD PUSH3 0x291 JUMP JUMPDEST DUP3 SSTORE POP POP POP POP JUMP JUMPDEST PUSH1 0x0 SWAP1 JUMP JUMPDEST PUSH3 0x367 PUSH3 0x358 JUMP JUMPDEST PUSH3 0x374 DUP2 DUP5 DUP5 PUSH3 0x32D JUMP JUMPDEST POP POP POP JUMP JUMPDEST JUMPDEST DUP2 DUP2 LT ISZERO PUSH3 0x39C JUMPI PUSH3 0x390 PUSH1 0x0 DUP3 PUSH3 0x35D JUMP JUMPDEST PUSH1 0x1 DUP2 ADD SWAP1 POP PUSH3 0x37A JUMP JUMPDEST POP POP JUMP JUMPDEST PUSH1 0x1F DUP3 GT ISZERO PUSH3 0x3EB JUMPI PUSH3 0x3B5 DUP2 PUSH3 0x25F JUMP JUMPDEST PUSH3 0x3C0 DUP5 PUSH3 0x274 JUMP JUMPDEST DUP2 ADD PUSH1 0x20 DUP6 LT ISZERO PUSH3 0x3D0 JUMPI DUP2 SWAP1 POP JUMPDEST PUSH3 0x3E8 PUSH3 0x3DF DUP6 PUSH3 0x274 JUMP JUMPDEST DUP4 ADD DUP3 PUSH3 0x379 JUMP JUMPDEST POP POP JUMPDEST POP POP POP JUMP JUMPDEST PUSH1 0x0 DUP3 DUP3 SHR SWAP1 POP SWAP3 SWAP2 POP POP JUMP JUMPDEST PUSH1 0x0 PUSH3 0x410 PUSH1 0x0 NOT DUP5 PUSH1 0x8 MUL PUSH3 0x3F0 JUMP JUMPDEST NOT DUP1 DUP4 AND SWAP2 POP POP SWAP3 SWAP2 POP POP JUMP JUMPDEST PUSH1 0x0 PUSH3 0x42B DUP4 DUP4 PUSH3 0x3FD JUMP JUMPDEST SWAP2 POP DUP3 PUSH1 0x2 MUL DUP3 OR SWAP1 POP SWAP3 SWAP2 POP POP JUMP JUMPDEST PUSH3 0x446 DUP3 PUSH3 0x1C1 JUMP JUMPDEST PUSH8 0xFFFFFFFFFFFFFFFF DUP2 GT ISZERO PUSH3 0x462 JUMPI PUSH3 0x461 PUSH3 0x1CC JUMP JUMPDEST JUMPDEST PUSH3 0x46E DUP3 SLOAD PUSH3 0x22A JUMP JUMPDEST PUSH3 0x47B DUP3 DUP3 DUP6 PUSH3 0x3A0 JUMP JUMPDEST PUSH1 0x0 PUSH1 0x20 SWAP1 POP PUSH1 0x1F DUP4 GT PUSH1 0x1 DUP2 EQ PUSH3 0x4B3 JUMPI PUSH1 0x0 DUP5 ISZERO PUSH3 0x49E JUMPI DUP3 DUP8 ADD MLOAD SWAP1 POP JUMPDEST PUSH3 0x4AA DUP6 DUP3 PUSH3 0x41D JUMP JUMPDEST DUP7 SSTORE POP PUSH3 0x51A JUMP JUMPDEST PUSH1 0x1F NOT DUP5 AND PUSH3 0x4C3 DUP7 PUSH3 0x25F JUMP JUMPDEST PUSH1 0x0 JUMPDEST DUP3 DUP2 LT ISZERO PUSH3 0x4ED JUMPI DUP5 DUP10 ADD MLOAD DUP3 SSTORE PUSH1 0x1 DUP3 ADD SWAP2 POP PUSH1 0x20 DUP6 ADD SWAP5 POP PUSH1 0x20 DUP2 ADD SWAP1 POP PUSH3 0x4C6 JUMP JUMPDEST DUP7 DUP4 LT ISZERO PUSH3 0x50D JUMPI DUP5 DUP10 ADD MLOAD PUSH3 0x509 PUSH1 0x1F DUP10 AND DUP3 PUSH3 0x3FD JUMP JUMPDEST DUP4 SSTORE POP JUMPDEST PUSH1 0x1 PUSH1 0x2 DUP9 MUL ADD DUP9 SSTORE POP POP POP JUMPDEST POP POP POP POP POP POP JUMP JUMPDEST PUSH2 0x35E8 DUP1 PUSH3 0x532 PUSH1 0x0 CODECOPY PUSH1 0x0 RETURN INVALID PUSH1 0x80 PUSH1 0x40 MSTORE CALLVALUE DUP1 ISZERO PUSH2 0x10 JUMPI PUSH1 0x0 DUP1 REVERT JUMPDEST POP PUSH1 0x4 CALLDATASIZE LT PUSH2 0x137 JUMPI PUSH1 0x0 CALLDATALOAD PUSH1 0xE0 SHR DUP1 PUSH4 0x6352211E GT PUSH2 0xB8 JUMPI DUP1 PUSH4 0xB2C3A717 GT PUSH2 0x7C JUMPI DUP1 PUSH4 0xB2C3A717 EQ PUSH2 0x385 JUMPI DUP1 PUSH4 0xB88D4FDE EQ PUSH2 0x3B5 JUMPI DUP1 PUSH4 0xC87B56DD EQ PUSH2 0x3D1 JUMPI DUP1 PUSH4 0xE149F036 EQ PUSH2 0x401 JUMPI DUP1 PUSH4 0xE985E9C5 EQ PUSH2 0x431 JUMPI DUP1 PUSH4 0xF42C69D6 EQ PUSH2 0x461 JUMPI PUSH2 0x137 JUMP JUMPDEST DUP1 PUSH4 0x6352211E EQ PUSH2 0x2BA JUMPI DUP1 PUSH4 0x70A08231 EQ PUSH2 0x2EA JUMPI DUP1 PUSH4 0x7D4CD847 EQ PUSH2 0x31A JUMPI DUP1 PUSH4 0x95D89B41 EQ PUSH2 0x34B JUMPI DUP1 PUSH4 0xA22CB465 EQ PUSH2 0x369 JUMPI PUSH2 0x137 JUMP JUMPDEST DUP1 PUSH4 0x23B872DD GT PUSH2 0xFF JUMPI DUP1 PUSH4 0x23B872DD EQ PUSH2 0x206 JUMPI DUP1 PUSH4 0x2890E0D7 EQ PUSH2 0x222 JUMPI DUP1 PUSH4 0x42842E0E EQ PUSH2 0x252 JUMPI DUP1 PUSH4 0x42966C68 EQ PUSH2 0x26E JUMPI DUP1 PUSH4 0x47FCF018 EQ PUSH2 0x28A JUMPI PUSH2 0x137 JUMP JUMPDEST DUP1 PUSH4 0x1FFC9A7 EQ PUSH2 0x13C JUMPI DUP1 PUSH4 0x6FDDE03 EQ PUSH2 0x16C JUMPI DUP1 PUSH4 0x81812FC EQ PUSH2 0x18A JUMPI DUP1 PUSH4 0x890D80C EQ PUSH2 0x1BA JUMPI DUP1 PUSH4 0x95EA7B3 EQ PUSH2 0x1EA JUMPI JUMPDEST PUSH1 0x0 DUP1 REVERT JUMPDEST PUSH2 0x156 PUSH1 0x4 DUP1 CALLDATASIZE SUB DUP2 ADD SWAP1 PUSH2 0x151 SWAP2 SWAP1 PUSH2 0x2094 JUMP JUMPDEST PUSH2 0x491 JUMP JUMPDEST PUSH1 0x40 MLOAD PUSH2 0x163 SWAP2 SWAP1 PUSH2 0x20DC JUMP JUMPDEST PUSH1 0x40 MLOAD DUP1 SWAP2 SUB SWAP1 RETURN JUMPDEST PUSH2 0x174 PUSH2 0x573 JUMP JUMPDEST PUSH1 0x40 MLOAD PUSH2 0x181 SWAP2 SWAP1 PUSH2 0x2187 JUMP JUMPDEST PUSH1 0x40 MLOAD DUP1 SWAP2 SUB SWAP1 RETURN JUMPDEST PUSH2 0x1A4 PUSH1 0x4 DUP1 CALLDATASIZE SUB DUP2 ADD SWAP1 PUSH2 0x19F SWAP2 SWAP1 PUSH2 0x21DF JUMP JUMPDEST PUSH2 0x605 JUMP JUMPDEST PUSH1 0x40 MLOAD PUSH2 0x1B1 SWAP2 SWAP1 PUSH2 0x224D JUMP JUMPDEST PUSH1 0x40 MLOAD DUP1 SWAP2 SUB SWAP1 RETURN JUMPDEST PUSH2 0x1D4 PUSH1 0x4 DUP1 CALLDATASIZE SUB DUP2 ADD SWAP1 PUSH2 0x1CF SWAP2 SWAP1 PUSH2 0x239D JUMP JUMPDEST PUSH2 0x64B JUMP JUMPDEST PUSH1 0x40 MLOAD PUSH2 0x1E1 SWAP2 SWAP1 PUSH2 0x20DC JUMP JUMPDEST PUSH1 0x40 MLOAD DUP1 SWAP2 SUB SWAP1 RETURN JUMPDEST PUSH2 0x204 PUSH1 0x4 DUP1 CALLDATASIZE SUB DUP2 ADD SWAP1 PUSH2 0x1FF SWAP2 SWAP1 PUSH2 0x2470 JUMP JUMPDEST PUSH2 0x688 JUMP JUMPDEST STOP JUMPDEST PUSH2 0x220 PUSH1 0x4 DUP1 CALLDATASIZE SUB DUP2 ADD SWAP1 PUSH2 0x21B SWAP2 SWAP1 PUSH2 0x24B0 JUMP JUMPDEST PUSH2 0x79F JUMP JUMPDEST STOP JUMPDEST PUSH2 0x23C PUSH1 0x4 DUP1 CALLDATASIZE SUB DUP2 ADD SWAP1 PUSH2 0x237 SWAP2 SWAP1 PUSH2 0x21DF JUMP JUMPDEST PUSH2 0x7FF JUMP JUMPDEST PUSH1 0x40 MLOAD PUSH2 0x249 SWAP2 SWAP1 PUSH2 0x20DC JUMP JUMPDEST PUSH1 0x40 MLOAD DUP1 SWAP2 SUB SWAP1 RETURN JUMPDEST PUSH2 0x26C PUSH1 0x4 DUP1 CALLDATASIZE SUB DUP2 ADD SWAP1 PUSH2 0x267 SWAP2 SWAP1 PUSH2 0x24B0 JUMP JUMPDEST PUSH2 0x84A JUMP JUMPDEST STOP JUMPDEST PUSH2 0x288 PUSH1 0x4 DUP1 CALLDATASIZE SUB DUP2 ADD SWAP1 PUSH2 0x283 SWAP2 SWAP1 PUSH2 0x21DF JUMP JUMPDEST PUSH2 0x86A JUMP JUMPDEST STOP JUMPDEST PUSH2 0x2A4 PUSH1 0x4 DUP1 CALLDATASIZE SUB DUP2 ADD SWAP1 PUSH2 0x29F SWAP2 SWAP1 PUSH2 0x2470 JUMP JUMPDEST PUSH2 0x8C6 JUMP JUMPDEST PUSH1 0x40 MLOAD PUSH2 0x2B1 SWAP2 SWAP1 PUSH2 0x20DC JUMP JUMPDEST PUSH1 0x40 MLOAD DUP1 SWAP2 SUB SWAP1 RETURN JUMPDEST PUSH2 0x2D4 PUSH1 0x4 DUP1 CALLDATASIZE SUB DUP2 ADD SWAP1 PUSH2 0x2CF SWAP2 SWAP1 PUSH2 0x21DF JUMP JUMPDEST PUSH2 0x929 JUMP JUMPDEST PUSH1 0x40 MLOAD PUSH2 0x2E1 SWAP2 SWAP1 PUSH2 0x224D JUMP JUMPDEST PUSH1 0x40 MLOAD DUP1 SWAP2 SUB SWAP1 RETURN JUMPDEST PUSH2 0x304 PUSH1 0x4 DUP1 CALLDATASIZE SUB DUP2 ADD SWAP1 PUSH2 0x2FF SWAP2 SWAP1 PUSH2 0x2503 JUMP JUMPDEST PUSH2 0x9AF JUMP JUMPDEST PUSH1 0x40 MLOAD PUSH2 0x311 SWAP2 SWAP1 PUSH2 0x253F JUMP JUMPDEST PUSH1 0x40 MLOAD DUP1 SWAP2 SUB SWAP1 RETURN JUMPDEST PUSH2 0x334 PUSH1 0x4 DUP1 CALLDATASIZE SUB DUP2 ADD SWAP1 PUSH2 0x32F SWAP2 SWAP1 PUSH2 0x21DF JUMP JUMPDEST PUSH2 0xA66 JUMP JUMPDEST PUSH1 0x40 MLOAD PUSH2 0x342 SWAP3 SWAP2 SWAP1 PUSH2 0x255A JUMP JUMPDEST PUSH1 0x40 MLOAD DUP1 SWAP2 SUB SWAP1 RETURN JUMPDEST PUSH2 0x353 PUSH2 0xA8A JUMP JUMPDEST PUSH1 0x40 MLOAD PUSH2 0x360 SWAP2 SWAP1 PUSH2 0x2187 JUMP JUMPDEST PUSH1 0x40 MLOAD DUP1 SWAP2 SUB SWAP1 RETURN JUMPDEST PUSH2 0x383 PUSH1 0x4 DUP1 CALLDATASIZE SUB DUP2 ADD SWAP1 PUSH2 0x37E SWAP2 SWAP1 PUSH2 0x25AF JUMP JUMPDEST PUSH2 0xB1C JUMP JUMPDEST STOP JUMPDEST PUSH2 0x39F PUSH1 0x4 DUP1 CALLDATASIZE SUB DUP2 ADD SWAP1 PUSH2 0x39A SWAP2 SWAP1 PUSH2 0x25EF JUMP JUMPDEST PUSH2 0xB32 JUMP JUMPDEST PUSH1 0x40 MLOAD PUSH2 0x3AC SWAP2 SWAP1 PUSH2 0x20DC JUMP JUMPDEST PUSH1 0x40 MLOAD DUP1 SWAP2 SUB SWAP1 RETURN JUMPDEST PUSH2 0x3CF PUSH1 0x4 DUP1 CALLDATASIZE SUB DUP2 ADD SWAP1 PUSH2 0x3CA SWAP2 SWAP1 PUSH2 0x26E3 JUMP JUMPDEST PUSH2 0xC57 JUMP JUMPDEST STOP JUMPDEST PUSH2 0x3EB PUSH1 0x4 DUP1 CALLDATASIZE SUB DUP2 ADD SWAP1 PUSH2 0x3E6 SWAP2 SWAP1 PUSH2 0x21DF JUMP JUMPDEST PUSH2 0xCB9 JUMP JUMPDEST PUSH1 0x40 MLOAD PUSH2 0x3F8 SWAP2 SWAP1 PUSH2 0x2187 JUMP JUMPDEST PUSH1 0x40 MLOAD DUP1 SWAP2 SUB SWAP1 RETURN JUMPDEST PUSH2 0x41B PUSH1 0x4 DUP1 CALLDATASIZE SUB DUP2 ADD SWAP1 PUSH2 0x416 SWAP2 SWAP1 PUSH2 0x2470 JUMP JUMPDEST PUSH2 0xCF2 JUMP JUMPDEST PUSH1 0x40 MLOAD PUSH2 0x428 SWAP2 SWAP1 PUSH2 0x253F JUMP JUMPDEST PUSH1 0x40 MLOAD DUP1 SWAP2 SUB SWAP1 RETURN JUMPDEST PUSH2 0x44B PUSH1 0x4 DUP1 CALLDATASIZE SUB DUP2 ADD SWAP1 PUSH2 0x446 SWAP2 SWAP1 PUSH2 0x2766 JUMP JUMPDEST PUSH2 0xD23 JUMP JUMPDEST PUSH1 0x40 MLOAD PUSH2 0x458 SWAP2 SWAP1 PUSH2 0x20DC JUMP JUMPDEST PUSH1 0x40 MLOAD DUP1 SWAP2 SUB SWAP1 RETURN JUMPDEST PUSH2 0x47B PUSH1 0x4 DUP1 CALLDATASIZE SUB DUP2 ADD SWAP1 PUSH2 0x476 SWAP2 SWAP1 PUSH2 0x25AF JUMP JUMPDEST PUSH2 0xDB7 JUMP JUMPDEST PUSH1 0x40 MLOAD PUSH2 0x488 SWAP2 SWAP1 PUSH2 0x253F JUMP JUMPDEST PUSH1 0x40 MLOAD DUP1 SWAP2 SUB SWAP1 RETURN JUMPDEST PUSH1 0x0 PUSH32 0x80AC58CD00000000000000000000000000000000000000000000000000000000 PUSH28 0xFFFFFFFFFFFFFFFFFFFFFFFFFFFFFFFFFFFFFFFFFFFFFFFFFFFFFFFF NOT AND DUP3 PUSH28 0xFFFFFFFFFFFFFFFFFFFFFFFFFFFFFFFFFFFFFFFFFFFFFFFFFFFFFFFF NOT AND EQ DUP1 PUSH2 0x55C JUMPI POP PUSH32 0x5B5E139F00000000000000000000000000000000000000000000000000000000 PUSH28 0xFFFFFFFFFFFFFFFFFFFFFFFFFFFFFFFFFFFFFFFFFFFFFFFFFFFFFFFF NOT AND DUP3 PUSH28 0xFFFFFFFFFFFFFFFFFFFFFFFFFFFFFFFFFFFFFFFFFFFFFFFFFFFFFFFF NOT AND EQ JUMPDEST DUP1 PUSH2 0x56C JUMPI POP PUSH2 0x56B DUP3 PUSH2 0xEE8 JUMP JUMPDEST JUMPDEST SWAP1 POP SWAP2 SWAP1 POP JUMP JUMPDEST PUSH1 0x60 PUSH1 0x0 DUP1 SLOAD PUSH2 0x582 SWAP1 PUSH2 0x27D5 JUMP JUMPDEST DUP1 PUSH1 0x1F ADD PUSH1 0x20 DUP1 SWAP2 DIV MUL PUSH1 0x20 ADD PUSH1 0x40 MLOAD SWAP1 DUP2 ADD PUSH1 0x40 MSTORE DUP1 SWAP3 SWAP2 SWAP1 DUP2 DUP2 MSTORE PUSH1 0x20 ADD DUP3 DUP1 SLOAD PUSH2 0x5AE SWAP1 PUSH2 0x27D5 JUMP JUMPDEST DUP1 ISZERO PUSH2 0x5FB JUMPI DUP1 PUSH1 0x1F LT PUSH2 0x5D0 JUMPI PUSH2 0x100 DUP1 DUP4 SLOAD DIV MUL DUP4 MSTORE SWAP2 PUSH1 0x20 ADD SWAP2 PUSH2 0x5FB JUMP JUMPDEST DUP3 ADD SWAP2 SWAP1 PUSH1 0x0 MSTORE PUSH1 0x20 PUSH1 0x0 KECCAK256 SWAP1 JUMPDEST DUP2 SLOAD DUP2 MSTORE SWAP1 PUSH1 0x1 ADD SWAP1 PUSH1 0x20 ADD DUP1 DUP4 GT PUSH2 0x5DE JUMPI DUP3 SWAP1 SUB PUSH1 0x1F AND DUP3 ADD SWAP2 JUMPDEST POP POP POP POP POP SWAP1 POP SWAP1 JUMP JUMPDEST PUSH1 0x0 PUSH2 0x610 DUP3 PUSH2 0xF52 JUMP JUMPDEST PUSH1 0x4 PUSH1 0x0 DUP4 DUP2 MSTORE PUSH1 0x20 ADD SWAP1 DUP2 MSTORE PUSH1 0x20 ADD PUSH1 0x0 KECCAK256 PUSH1 0x0 SWAP1 SLOAD SWAP1 PUSH2 0x100 EXP SWAP1 DIV PUSH20 0xFFFFFFFFFFFFFFFFFFFFFFFFFFFFFFFFFFFFFFFF AND SWAP1 POP SWAP2 SWAP1 POP JUMP JUMPDEST PUSH1 0x0 DUP4 PUSH1 0x9 SWAP1 DUP2 PUSH2 0x65C SWAP2 SWAP1 PUSH2 0x29B2 JUMP JUMPDEST POP DUP3 PUSH1 0xA SWAP1 DUP2 PUSH2 0x66C SWAP2 SWAP1 PUSH2 0x29B2 JUMP JUMPDEST POP DUP2 PUSH1 0xB SWAP1 DUP2 PUSH2 0x67C SWAP2 SWAP1 PUSH2 0x29B2 JUMP JUMPDEST POP PUSH1 0x1 SWAP1 POP SWAP4 SWAP3 POP POP POP JUMP JUMPDEST PUSH1 0x0 PUSH2 0x693 DUP3 PUSH2 0x929 JUMP JUMPDEST SWAP1 POP DUP1 PUSH20 0xFFFFFFFFFFFFFFFFFFFFFFFFFFFFFFFFFFFFFFFF AND DUP4 PUSH20 0xFFFFFFFFFFFFFFFFFFFFFFFFFFFFFFFFFFFFFFFF AND SUB PUSH2 0x703 JUMPI PUSH1 0x40 MLOAD PUSH32 0x8C379A000000000000000000000000000000000000000000000000000000000 DUP2 MSTORE PUSH1 0x4 ADD PUSH2 0x6FA SWAP1 PUSH2 0x2AF6 JUMP JUMPDEST PUSH1 0x40 MLOAD DUP1 SWAP2 SUB SWAP1 REVERT JUMPDEST DUP1 PUSH20 0xFFFFFFFFFFFFFFFFFFFFFFFFFFFFFFFFFFFFFFFF AND PUSH2 0x722 PUSH2 0xF9D JUMP JUMPDEST PUSH20 0xFFFFFFFFFFFFFFFFFFFFFFFFFFFFFFFFFFFFFFFF AND EQ DUP1 PUSH2 0x751 JUMPI POP PUSH2 0x750 DUP2 PUSH2 0x74B PUSH2 0xF9D JUMP JUMPDEST PUSH2 0xD23 JUMP JUMPDEST JUMPDEST PUSH2 0x790 JUMPI PUSH1 0x40 MLOAD PUSH32 0x8C379A000000000000000000000000000000000000000000000000000000000 DUP2 MSTORE PUSH1 0x4 ADD PUSH2 0x787 SWAP1 PUSH2 0x2B88 JUMP JUMPDEST PUSH1 0x40 MLOAD DUP1 SWAP2 SUB SWAP1 REVERT JUMPDEST PUSH2 0x79A DUP4 DUP4 PUSH2 0xFA5 JUMP JUMPDEST POP POP POP JUMP JUMPDEST PUSH2 0x7B0 PUSH2 0x7AA PUSH2 0xF9D JUMP JUMPDEST DUP3 PUSH2 0x105E JUMP JUMPDEST PUSH2 0x7EF JUMPI PUSH1 0x40 MLOAD PUSH32 0x8C379A000000000000000000000000000000000000000000000000000000000 DUP2 MSTORE PUSH1 0x4 ADD PUSH2 0x7E6 SWAP1 PUSH2 0x2C1A JUMP JUMPDEST PUSH1 0x40 MLOAD DUP1 SWAP2 SUB SWAP1 REVERT JUMPDEST PUSH2 0x7FA DUP4 DUP4 DUP4 PUSH2 0x10F3 JUMP JUMPDEST POP POP POP JUMP JUMPDEST PUSH1 0x0 PUSH2 0x80A DUP3 PUSH2 0x86A JUMP JUMPDEST PUSH32 0x2BEB25151320F46889820E034DC2F6D9639F8D91ACF4E9C549B4A49F7A619339 DUP3 PUSH1 0x40 MLOAD PUSH2 0x839 SWAP2 SWAP1 PUSH2 0x253F JUMP JUMPDEST PUSH1 0x40 MLOAD DUP1 SWAP2 SUB SWAP1 LOG1 PUSH1 0x1 SWAP1 POP SWAP2 SWAP1 POP JUMP JUMPDEST PUSH2 0x865 DUP4 DUP4 DUP4 PUSH1 0x40 MLOAD DUP1 PUSH1 0x20 ADD PUSH1 0x40 MSTORE DUP1 PUSH1 0x0 DUP2 MSTORE POP PUSH2 0xC57 JUMP JUMPDEST POP POP POP JUMP JUMPDEST PUSH2 0x87B PUSH2 0x875 PUSH2 0xF9D JUMP JUMPDEST DUP3 PUSH2 0x105E JUMP JUMPDEST PUSH2 0x8BA JUMPI PUSH1 0x40 MLOAD PUSH32 0x8C379A000000000000000000000000000000000000000000000000000000000 DUP2 MSTORE PUSH1 0x4 ADD PUSH2 0x8B1 SWAP1 PUSH2 0x2C1A JUMP JUMPDEST PUSH1 0x40 MLOAD DUP1 SWAP2 SUB SWAP1 REVERT JUMPDEST PUSH2 0x8C3 DUP2 PUSH2 0x13EC JUMP JUMPDEST POP JUMP JUMPDEST PUSH1 0x0 PUSH2 0x8D1 DUP3 PUSH2 0x86A JUMP JUMPDEST DUP3 PUSH20 0xFFFFFFFFFFFFFFFFFFFFFFFFFFFFFFFFFFFFFFFF AND PUSH32 0xD0129BC09C60B0431AA4790AD49AD5EFEAA5D10AED0D233E41CC332840DA11A DUP4 PUSH1 0x40 MLOAD PUSH2 0x917 SWAP2 SWAP1 PUSH2 0x253F JUMP JUMPDEST PUSH1 0x40 MLOAD DUP1 SWAP2 SUB SWAP1 LOG2 PUSH1 0x1 SWAP1 POP SWAP3 SWAP2 POP POP JUMP JUMPDEST PUSH1 0x0 DUP1 PUSH2 0x935 DUP4 PUSH2 0x153A JUMP JUMPDEST SWAP1 POP PUSH1 0x0 PUSH20 0xFFFFFFFFFFFFFFFFFFFFFFFFFFFFFFFFFFFFFFFF AND DUP2 PUSH20 0xFFFFFFFFFFFFFFFFFFFFFFFFFFFFFFFFFFFFFFFF AND SUB PUSH2 0x9A6 JUMPI PUSH1 0x40 MLOAD PUSH32 0x8C379A000000000000000000000000000000000000000000000000000000000 DUP2 MSTORE PUSH1 0x4 ADD PUSH2 0x99D SWAP1 PUSH2 0x2C86 JUMP JUMPDEST PUSH1 0x40 MLOAD DUP1 SWAP2 SUB SWAP1 REVERT JUMPDEST DUP1 SWAP2 POP POP SWAP2 SWAP1 POP JUMP JUMPDEST PUSH1 0x0 DUP1 PUSH20 0xFFFFFFFFFFFFFFFFFFFFFFFFFFFFFFFFFFFFFFFF AND DUP3 PUSH20 0xFFFFFFFFFFFFFFFFFFFFFFFFFFFFFFFFFFFFFFFF AND SUB PUSH2 0xA1F JUMPI PUSH1 0x40 MLOAD PUSH32 0x8C379A000000000000000000000000000000000000000000000000000000000 DUP2 MSTORE PUSH1 0x4 ADD PUSH2 0xA16 SWAP1 PUSH2 0x2D18 JUMP JUMPDEST PUSH1 0x40 MLOAD DUP1 SWAP2 SUB SWAP1 REVERT JUMPDEST PUSH1 0x3 PUSH1 0x0 DUP4 PUSH20 0xFFFFFFFFFFFFFFFFFFFFFFFFFFFFFFFFFFFFFFFF AND PUSH20 0xFFFFFFFFFFFFFFFFFFFFFFFFFFFFFFFFFFFFFFFF AND DUP2 MSTORE PUSH1 0x20 ADD SWAP1 DUP2 MSTORE PUSH1 0x20 ADD PUSH1 0x0 KECCAK256 SLOAD SWAP1 POP SWAP2 SWAP1 POP JUMP JUMPDEST PUSH1 0xC PUSH1 0x20 MSTORE DUP1 PUSH1 0x0 MSTORE PUSH1 0x40 PUSH1 0x0 KECCAK256 PUSH1 0x0 SWAP2 POP SWAP1 POP DUP1 PUSH1 0x0 ADD SLOAD SWAP1 DUP1 PUSH1 0x1 ADD SLOAD SWAP1 POP DUP3 JUMP JUMPDEST PUSH1 0x60 PUSH1 0x1 DUP1 SLOAD PUSH2 0xA99 SWAP1 PUSH2 0x27D5 JUMP JUMPDEST DUP1 PUSH1 0x1F ADD PUSH1 0x20 DUP1 SWAP2 DIV MUL PUSH1 0x20 ADD PUSH1 0x40 MLOAD SWAP1 DUP2 ADD PUSH1 0x40 MSTORE DUP1 SWAP3 SWAP2 SWAP1 DUP2 DUP2 MSTORE PUSH1 0x20 ADD DUP3 DUP1 SLOAD PUSH2 0xAC5 SWAP1 PUSH2 0x27D5 JUMP JUMPDEST DUP1 ISZERO PUSH2 0xB12 JUMPI DUP1 PUSH1 0x1F LT PUSH2 0xAE7 JUMPI PUSH2 0x100 DUP1 DUP4 SLOAD DIV MUL DUP4 MSTORE SWAP2 PUSH1 0x20 ADD SWAP2 PUSH2 0xB12 JUMP JUMPDEST DUP3 ADD SWAP2 SWAP1 PUSH1 0x0 MSTORE PUSH1 0x20 PUSH1 0x0 KECCAK256 SWAP1 JUMPDEST DUP2 SLOAD DUP2 MSTORE SWAP1 PUSH1 0x1 ADD SWAP1 PUSH1 0x20 ADD DUP1 DUP4 GT PUSH2 0xAF5 JUMPI DUP3 SWAP1 SUB PUSH1 0x1F AND DUP3 ADD SWAP2 JUMPDEST POP POP POP POP POP SWAP1 POP SWAP1 JUMP JUMPDEST PUSH2 0xB2E PUSH2 0xB27 PUSH2 0xF9D JUMP JUMPDEST DUP4 DUP4 PUSH2 0x1577 JUMP JUMPDEST POP POP JUMP JUMPDEST PUSH1 0x0 PUSH2 0xB3D DUP4 PUSH2 0x16E3 JUMP JUMPDEST POP PUSH1 0x7 PUSH1 0x0 SWAP1 SLOAD SWAP1 PUSH2 0x100 EXP SWAP1 DIV PUSH20 0xFFFFFFFFFFFFFFFFFFFFFFFFFFFFFFFFFFFFFFFF AND PUSH20 0xFFFFFFFFFFFFFFFFFFFFFFFFFFFFFFFFFFFFFFFF AND PUSH4 0x469895C8 CALLER PUSH1 0x8 PUSH1 0x0 SWAP1 SLOAD SWAP1 PUSH2 0x100 EXP SWAP1 DIV PUSH20 0xFFFFFFFFFFFFFFFFFFFFFFFFFFFFFFFFFFFFFFFF AND DUP8 PUSH1 0x40 MLOAD DUP5 PUSH4 0xFFFFFFFF AND PUSH1 0xE0 SHL DUP2 MSTORE PUSH1 0x4 ADD PUSH2 0xBBF SWAP4 SWAP3 SWAP2 SWAP1 PUSH2 0x2D38 JUMP JUMPDEST PUSH1 0x20 PUSH1 0x40 MLOAD DUP1 DUP4 SUB DUP2 PUSH1 0x0 DUP8 GAS CALL ISZERO DUP1 ISZERO PUSH2 0xBDE JUMPI RETURNDATASIZE PUSH1 0x0 DUP1 RETURNDATACOPY RETURNDATASIZE PUSH1 0x0 REVERT JUMPDEST POP POP POP POP PUSH1 0x40 MLOAD RETURNDATASIZE PUSH1 0x1F NOT PUSH1 0x1F DUP3 ADD AND DUP3 ADD DUP1 PUSH1 0x40 MSTORE POP DUP2 ADD SWAP1 PUSH2 0xC02 SWAP2 SWAP1 PUSH2 0x2D84 JUMP JUMPDEST PUSH2 0xC41 JUMPI PUSH1 0x40 MLOAD PUSH32 0x8C379A000000000000000000000000000000000000000000000000000000000 DUP2 MSTORE PUSH1 0x4 ADD PUSH2 0xC38 SWAP1 PUSH2 0x2DFD JUMP JUMPDEST PUSH1 0x40 MLOAD DUP1 SWAP2 SUB SWAP1 REVERT JUMPDEST PUSH2 0xC4B DUP5 DUP4 PUSH2 0x179D JUMP JUMPDEST POP PUSH1 0x1 SWAP1 POP SWAP4 SWAP3 POP POP POP JUMP JUMPDEST PUSH2 0xC68 PUSH2 0xC62 PUSH2 0xF9D JUMP JUMPDEST DUP4 PUSH2 0x105E JUMP JUMPDEST PUSH2 0xCA7 JUMPI PUSH1 0x40 MLOAD PUSH32 0x8C379A000000000000000000000000000000000000000000000000000000000 DUP2 MSTORE PUSH1 0x4 ADD PUSH2 0xC9E SWAP1 PUSH2 0x2C1A JUMP JUMPDEST PUSH1 0x40 MLOAD DUP1 SWAP2 SUB SWAP1 REVERT JUMPDEST PUSH2 0xCB3 DUP5 DUP5 DUP5 DUP5 PUSH2 0x1812 JUMP JUMPDEST POP POP POP POP JUMP JUMPDEST PUSH1 0x60 PUSH2 0xCC4 DUP3 PUSH2 0xF52 JUMP JUMPDEST PUSH1 0x9 PUSH1 0xA PUSH1 0xB PUSH1 0x40 MLOAD PUSH1 0x20 ADD PUSH2 0xCDC SWAP4 SWAP3 SWAP2 SWAP1 PUSH2 0x2FDB JUMP JUMPDEST PUSH1 0x40 MLOAD PUSH1 0x20 DUP2 DUP4 SUB SUB DUP2 MSTORE SWAP1 PUSH1 0x40 MSTORE SWAP1 POP SWAP2 SWAP1 POP JUMP JUMPDEST PUSH1 0xD PUSH1 0x20 MSTORE DUP2 PUSH1 0x0 MSTORE PUSH1 0x40 PUSH1 0x0 KECCAK256 DUP2 DUP2 SLOAD DUP2 LT PUSH2 0xD0E JUMPI PUSH1 0x0 DUP1 REVERT JUMPDEST SWAP1 PUSH1 0x0 MSTORE PUSH1 0x20 PUSH1 0x0 KECCAK256 ADD PUSH1 0x0 SWAP2 POP SWAP2 POP POP SLOAD DUP2 JUMP JUMPDEST PUSH1 0x0 PUSH1 0x5 PUSH1 0x0 DUP5 PUSH20 0xFFFFFFFFFFFFFFFFFFFFFFFFFFFFFFFFFFFFFFFF AND PUSH20 0xFFFFFFFFFFFFFFFFFFFFFFFFFFFFFFFFFFFFFFFF AND DUP2 MSTORE PUSH1 0x20 ADD SWAP1 DUP2 MSTORE PUSH1 0x20 ADD PUSH1 0x0 KECCAK256 PUSH1 0x0 DUP4 PUSH20 0xFFFFFFFFFFFFFFFFFFFFFFFFFFFFFFFFFFFFFFFF AND PUSH20 0xFFFFFFFFFFFFFFFFFFFFFFFFFFFFFFFFFFFFFFFF AND DUP2 MSTORE PUSH1 0x20 ADD SWAP1 DUP2 MSTORE PUSH1 0x20 ADD PUSH1 0x0 KECCAK256 PUSH1 0x0 SWAP1 SLOAD SWAP1 PUSH2 0x100 EXP SWAP1 DIV PUSH1 0xFF AND SWAP1 POP SWAP3 SWAP2 POP POP JUMP JUMPDEST PUSH1 0x0 DUP1 PUSH2 0xDC4 PUSH1 0x6 PUSH2 0x186E JUMP JUMPDEST SWAP1 POP PUSH2 0xDE0 DUP5 DUP3 PUSH1 0x40 MLOAD DUP1 PUSH1 0x20 ADD PUSH1 0x40 MSTORE DUP1 PUSH1 0x0 DUP2 MSTORE POP PUSH2 0x187C JUMP JUMPDEST DUP3 ISZERO PUSH2 0xE2D JUMPI PUSH1 0x40 MLOAD DUP1 PUSH1 0x40 ADD PUSH1 0x40 MSTORE DUP1 TIMESTAMP DUP2 MSTORE PUSH1 0x20 ADD PUSH3 0xED4E00 DUP2 MSTORE POP PUSH1 0xC PUSH1 0x0 DUP4 DUP2 MSTORE PUSH1 0x20 ADD SWAP1 DUP2 MSTORE PUSH1 0x20 ADD PUSH1 0x0 KECCAK256 PUSH1 0x0 DUP3 ADD MLOAD DUP2 PUSH1 0x0 ADD SSTORE PUSH1 0x20 DUP3 ADD MLOAD DUP2 PUSH1 0x1 ADD SSTORE SWAP1 POP POP PUSH2 0xE6E JUMP JUMPDEST PUSH1 0x40 MLOAD DUP1 PUSH1 0x40 ADD PUSH1 0x40 MSTORE DUP1 TIMESTAMP DUP2 MSTORE PUSH1 0x20 ADD PUSH1 0x0 DUP2 MSTORE POP PUSH1 0xC PUSH1 0x0 DUP4 DUP2 MSTORE PUSH1 0x20 ADD SWAP1 DUP2 MSTORE PUSH1 0x20 ADD PUSH1 0x0 KECCAK256 PUSH1 0x0 DUP3 ADD MLOAD DUP2 PUSH1 0x0 ADD SSTORE PUSH1 0x20 DUP3 ADD MLOAD DUP2 PUSH1 0x1 ADD SSTORE SWAP1 POP POP JUMPDEST PUSH1 0xD PUSH1 0x0 DUP6 PUSH20 0xFFFFFFFFFFFFFFFFFFFFFFFFFFFFFFFFFFFFFFFF AND PUSH20 0xFFFFFFFFFFFFFFFFFFFFFFFFFFFFFFFFFFFFFFFF AND DUP2 MSTORE PUSH1 0x20 ADD SWAP1 DUP2 MSTORE PUSH1 0x20 ADD PUSH1 0x0 KECCAK256 DUP2 SWAP1 DUP1 PUSH1 0x1 DUP2 SLOAD ADD DUP1 DUP3 SSTORE DUP1 SWAP2 POP POP PUSH1 0x1 SWAP1 SUB SWAP1 PUSH1 0x0 MSTORE PUSH1 0x20 PUSH1 0x0 KECCAK256 ADD PUSH1 0x0 SWAP1 SWAP2 SWAP1 SWAP2 SWAP1 SWAP2 POP SSTORE PUSH2 0xEDE PUSH1 0x6 PUSH2 0x18D7 JUMP JUMPDEST DUP1 SWAP2 POP POP SWAP3 SWAP2 POP POP JUMP JUMPDEST PUSH1 0x0 PUSH32 0x1FFC9A700000000000000000000000000000000000000000000000000000000 PUSH28 0xFFFFFFFFFFFFFFFFFFFFFFFFFFFFFFFFFFFFFFFFFFFFFFFFFFFFFFFF NOT AND DUP3 PUSH28 0xFFFFFFFFFFFFFFFFFFFFFFFFFFFFFFFFFFFFFFFFFFFFFFFFFFFFFFFF NOT AND EQ SWAP1 POP SWAP2 SWAP1 POP JUMP JUMPDEST PUSH2 0xF5B DUP2 PUSH2 0x18ED JUMP JUMPDEST PUSH2 0xF9A JUMPI PUSH1 0x40 MLOAD PUSH32 0x8C379A000000000000000000000000000000000000000000000000000000000 DUP2 MSTORE PUSH1 0x4 ADD PUSH2 0xF91 SWAP1 PUSH2 0x2C86 JUMP JUMPDEST PUSH1 0x40 MLOAD DUP1 SWAP2 SUB SWAP1 REVERT JUMPDEST POP JUMP JUMPDEST PUSH1 0x0 CALLER SWAP1 POP SWAP1 JUMP JUMPDEST DUP2 PUSH1 0x4 PUSH1 0x0 DUP4 DUP2 MSTORE PUSH1 0x20 ADD SWAP1 DUP2 MSTORE PUSH1 0x20 ADD PUSH1 0x0 KECCAK256 PUSH1 0x0 PUSH2 0x100 EXP DUP2 SLOAD DUP2 PUSH20 0xFFFFFFFFFFFFFFFFFFFFFFFFFFFFFFFFFFFFFFFF MUL NOT AND SWAP1 DUP4 PUSH20 0xFFFFFFFFFFFFFFFFFFFFFFFFFFFFFFFFFFFFFFFF AND MUL OR SWAP1 SSTORE POP DUP1 DUP3 PUSH20 0xFFFFFFFFFFFFFFFFFFFFFFFFFFFFFFFFFFFFFFFF AND PUSH2 0x1018 DUP4 PUSH2 0x929 JUMP JUMPDEST PUSH20 0xFFFFFFFFFFFFFFFFFFFFFFFFFFFFFFFFFFFFFFFF AND PUSH32 0x8C5BE1E5EBEC7D5BD14F71427D1E84F3DD0314C0F7B2291E5B200AC8C7C3B925 PUSH1 0x40 MLOAD PUSH1 0x40 MLOAD DUP1 SWAP2 SUB SWAP1 LOG4 POP POP JUMP JUMPDEST PUSH1 0x0 DUP1 PUSH2 0x106A DUP4 PUSH2 0x929 JUMP JUMPDEST SWAP1 POP DUP1 PUSH20 0xFFFFFFFFFFFFFFFFFFFFFFFFFFFFFFFFFFFFFFFF AND DUP5 PUSH20 0xFFFFFFFFFFFFFFFFFFFFFFFFFFFFFFFFFFFFFFFF AND EQ DUP1 PUSH2 0x10AC JUMPI POP PUSH2 0x10AB DUP2 DUP6 PUSH2 0xD23 JUMP JUMPDEST JUMPDEST DUP1 PUSH2 0x10EA JUMPI POP DUP4 PUSH20 0xFFFFFFFFFFFFFFFFFFFFFFFFFFFFFFFFFFFFFFFF AND PUSH2 0x10D2 DUP5 PUSH2 0x605 JUMP JUMPDEST PUSH20 0xFFFFFFFFFFFFFFFFFFFFFFFFFFFFFFFFFFFFFFFF AND EQ JUMPDEST SWAP2 POP POP SWAP3 SWAP2 POP POP JUMP JUMPDEST DUP3 PUSH20 0xFFFFFFFFFFFFFFFFFFFFFFFFFFFFFFFFFFFFFFFF AND PUSH2 0x1113 DUP3 PUSH2 0x929 JUMP JUMPDEST PUSH20 0xFFFFFFFFFFFFFFFFFFFFFFFFFFFFFFFFFFFFFFFF AND EQ PUSH2 0x1169 JUMPI PUSH1 0x40 MLOAD PUSH32 0x8C379A000000000000000000000000000000000000000000000000000000000 DUP2 MSTORE PUSH1 0x4 ADD PUSH2 0x1160 SWAP1 PUSH2 0x30AA JUMP JUMPDEST PUSH1 0x40 MLOAD DUP1 SWAP2 SUB SWAP1 REVERT JUMPDEST PUSH1 0x0 PUSH20 0xFFFFFFFFFFFFFFFFFFFFFFFFFFFFFFFFFFFFFFFF AND DUP3 PUSH20 0xFFFFFFFFFFFFFFFFFFFFFFFFFFFFFFFFFFFFFFFF AND SUB PUSH2 0x11D8 JUMPI PUSH1 0x40 MLOAD PUSH32 0x8C379A000000000000000000000000000000000000000000000000000000000 DUP2 MSTORE PUSH1 0x4 ADD PUSH2 0x11CF SWAP1 PUSH2 0x313C JUMP JUMPDEST PUSH1 0x40 MLOAD DUP1 SWAP2 SUB SWAP1 REVERT JUMPDEST PUSH2 0x11E5 DUP4 DUP4 DUP4 PUSH1 0x1 PUSH2 0x192E JUMP JUMPDEST DUP3 PUSH20 0xFFFFFFFFFFFFFFFFFFFFFFFFFFFFFFFFFFFFFFFF AND PUSH2 0x1205 DUP3 PUSH2 0x929 JUMP JUMPDEST PUSH20 0xFFFFFFFFFFFFFFFFFFFFFFFFFFFFFFFFFFFFFFFF AND EQ PUSH2 0x125B JUMPI PUSH1 0x40 MLOAD PUSH32 0x8C379A000000000000000000000000000000000000000000000000000000000 DUP2 MSTORE PUSH1 0x4 ADD PUSH2 0x1252 SWAP1 PUSH2 0x30AA JUMP JUMPDEST PUSH1 0x40 MLOAD DUP1 SWAP2 SUB SWAP1 REVERT JUMPDEST PUSH1 0x4 PUSH1 0x0 DUP3 DUP2 MSTORE PUSH1 0x20 ADD SWAP1 DUP2 MSTORE PUSH1 0x20 ADD PUSH1 0x0 KECCAK256 PUSH1 0x0 PUSH2 0x100 EXP DUP2 SLOAD SWAP1 PUSH20 0xFFFFFFFFFFFFFFFFFFFFFFFFFFFFFFFFFFFFFFFF MUL NOT AND SWAP1 SSTORE PUSH1 0x1 PUSH1 0x3 PUSH1 0x0 DUP6 PUSH20 0xFFFFFFFFFFFFFFFFFFFFFFFFFFFFFFFFFFFFFFFF AND PUSH20 0xFFFFFFFFFFFFFFFFFFFFFFFFFFFFFFFFFFFFFFFF AND DUP2 MSTORE PUSH1 0x20 ADD SWAP1 DUP2 MSTORE PUSH1 0x20 ADD PUSH1 0x0 KECCAK256 PUSH1 0x0 DUP3 DUP3 SLOAD SUB SWAP3 POP POP DUP2 SWAP1 SSTORE POP PUSH1 0x1 PUSH1 0x3 PUSH1 0x0 DUP5 PUSH20 0xFFFFFFFFFFFFFFFFFFFFFFFFFFFFFFFFFFFFFFFF AND PUSH20 0xFFFFFFFFFFFFFFFFFFFFFFFFFFFFFFFFFFFFFFFF AND DUP2 MSTORE PUSH1 0x20 ADD SWAP1 DUP2 MSTORE PUSH1 0x20 ADD PUSH1 0x0 KECCAK256 PUSH1 0x0 DUP3 DUP3 SLOAD ADD SWAP3 POP POP DUP2 SWAP1 SSTORE POP DUP2 PUSH1 0x2 PUSH1 0x0 DUP4 DUP2 MSTORE PUSH1 0x20 ADD SWAP1 DUP2 MSTORE PUSH1 0x20 ADD PUSH1 0x0 KECCAK256 PUSH1 0x0 PUSH2 0x100 EXP DUP2 SLOAD DUP2 PUSH20 0xFFFFFFFFFFFFFFFFFFFFFFFFFFFFFFFFFFFFFFFF MUL NOT AND SWAP1 DUP4 PUSH20 0xFFFFFFFFFFFFFFFFFFFFFFFFFFFFFFFFFFFFFFFF AND MUL OR SWAP1 SSTORE POP DUP1 DUP3 PUSH20 0xFFFFFFFFFFFFFFFFFFFFFFFFFFFFFFFFFFFFFFFF AND DUP5 PUSH20 0xFFFFFFFFFFFFFFFFFFFFFFFFFFFFFFFFFFFFFFFF AND PUSH32 0xDDF252AD1BE2C89B69C2B068FC378DAA952BA7F163C4A11628F55A4DF523B3EF PUSH1 0x40 MLOAD PUSH1 0x40 MLOAD DUP1 SWAP2 SUB SWAP1 LOG4 PUSH2 0x13E7 DUP4 DUP4 DUP4 PUSH1 0x1 PUSH2 0x1A34 JUMP JUMPDEST POP POP POP JUMP JUMPDEST PUSH1 0x0 PUSH2 0x13F7 DUP3 PUSH2 0x929 JUMP JUMPDEST SWAP1 POP PUSH2 0x1407 DUP2 PUSH1 0x0 DUP5 PUSH1 0x1 PUSH2 0x192E JUMP JUMPDEST PUSH2 0x1410 DUP3 PUSH2 0x929 JUMP JUMPDEST SWAP1 POP PUSH1 0x4 PUSH1 0x0 DUP4 DUP2 MSTORE PUSH1 0x20 ADD SWAP1 DUP2 MSTORE PUSH1 0x20 ADD PUSH1 0x0 KECCAK256 PUSH1 0x0 PUSH2 0x100 EXP DUP2 SLOAD SWAP1 PUSH20 0xFFFFFFFFFFFFFFFFFFFFFFFFFFFFFFFFFFFFFFFF MUL NOT AND SWAP1 SSTORE PUSH1 0x1 PUSH1 0x3 PUSH1 0x0 DUP4 PUSH20 0xFFFFFFFFFFFFFFFFFFFFFFFFFFFFFFFFFFFFFFFF AND PUSH20 0xFFFFFFFFFFFFFFFFFFFFFFFFFFFFFFFFFFFFFFFF AND DUP2 MSTORE PUSH1 0x20 ADD SWAP1 DUP2 MSTORE PUSH1 0x20 ADD PUSH1 0x0 KECCAK256 PUSH1 0x0 DUP3 DUP3 SLOAD SUB SWAP3 POP POP DUP2 SWAP1 SSTORE POP PUSH1 0x2 PUSH1 0x0 DUP4 DUP2 MSTORE PUSH1 0x20 ADD SWAP1 DUP2 MSTORE PUSH1 0x20 ADD PUSH1 0x0 KECCAK256 PUSH1 0x0 PUSH2 0x100 EXP DUP2 SLOAD SWAP1 PUSH20 0xFFFFFFFFFFFFFFFFFFFFFFFFFFFFFFFFFFFFFFFF MUL NOT AND SWAP1 SSTORE DUP2 PUSH1 0x0 PUSH20 0xFFFFFFFFFFFFFFFFFFFFFFFFFFFFFFFFFFFFFFFF AND DUP3 PUSH20 0xFFFFFFFFFFFFFFFFFFFFFFFFFFFFFFFFFFFFFFFF AND PUSH32 0xDDF252AD1BE2C89B69C2B068FC378DAA952BA7F163C4A11628F55A4DF523B3EF PUSH1 0x40 MLOAD PUSH1 0x40 MLOAD DUP1 SWAP2 SUB SWAP1 LOG4 PUSH2 0x1536 DUP2 PUSH1 0x0 DUP5 PUSH1 0x1 PUSH2 0x1A34 JUMP JUMPDEST POP POP JUMP JUMPDEST PUSH1 0x0 PUSH1 0x2 PUSH1 0x0 DUP4 DUP2 MSTORE PUSH1 0x20 ADD SWAP1 DUP2 MSTORE PUSH1 0x20 ADD PUSH1 0x0 KECCAK256 PUSH1 0x0 SWAP1 SLOAD SWAP1 PUSH2 0x100 EXP SWAP1 DIV PUSH20 0xFFFFFFFFFFFFFFFFFFFFFFFFFFFFFFFFFFFFFFFF AND SWAP1 POP SWAP2 SWAP1 POP JUMP JUMPDEST DUP2 PUSH20 0xFFFFFFFFFFFFFFFFFFFFFFFFFFFFFFFFFFFFFFFF AND DUP4 PUSH20 0xFFFFFFFFFFFFFFFFFFFFFFFFFFFFFFFFFFFFFFFF AND SUB PUSH2 0x15E5 JUMPI PUSH1 0x40 MLOAD PUSH32 0x8C379A000000000000000000000000000000000000000000000000000000000 DUP2 MSTORE PUSH1 0x4 ADD PUSH2 0x15DC SWAP1 PUSH2 0x31A8 JUMP JUMPDEST PUSH1 0x40 MLOAD DUP1 SWAP2 SUB SWAP1 REVERT JUMPDEST DUP1 PUSH1 0x5 PUSH1 0x0 DUP6 PUSH20 0xFFFFFFFFFFFFFFFFFFFFFFFFFFFFFFFFFFFFFFFF AND PUSH20 0xFFFFFFFFFFFFFFFFFFFFFFFFFFFFFFFFFFFFFFFF AND DUP2 MSTORE PUSH1 0x20 ADD SWAP1 DUP2 MSTORE PUSH1 0x20 ADD PUSH1 0x0 KECCAK256 PUSH1 0x0 DUP5 PUSH20 0xFFFFFFFFFFFFFFFFFFFFFFFFFFFFFFFFFFFFFFFF AND PUSH20 0xFFFFFFFFFFFFFFFFFFFFFFFFFFFFFFFFFFFFFFFF AND DUP2 MSTORE PUSH1 0x20 ADD SWAP1 DUP2 MSTORE PUSH1 0x20 ADD PUSH1 0x0 KECCAK256 PUSH1 0x0 PUSH2 0x100 EXP DUP2 SLOAD DUP2 PUSH1 0xFF MUL NOT AND SWAP1 DUP4 ISZERO ISZERO MUL OR SWAP1 SSTORE POP DUP2 PUSH20 0xFFFFFFFFFFFFFFFFFFFFFFFFFFFFFFFFFFFFFFFF AND DUP4 PUSH20 0xFFFFFFFFFFFFFFFFFFFFFFFFFFFFFFFFFFFFFFFF AND PUSH32 0x17307EAB39AB6107E8899845AD3D59BD9653F200F220920489CA2B5937696C31 DUP4 PUSH1 0x40 MLOAD PUSH2 0x16D6 SWAP2 SWAP1 PUSH2 0x20DC JUMP JUMPDEST PUSH1 0x40 MLOAD DUP1 SWAP2 SUB SWAP1 LOG3 POP POP POP JUMP JUMPDEST PUSH1 0x0 DUP1 PUSH20 0xFFFFFFFFFFFFFFFFFFFFFFFFFFFFFFFFFFFFFFFF AND DUP3 PUSH20 0xFFFFFFFFFFFFFFFFFFFFFFFFFFFFFFFFFFFFFFFF AND SUB PUSH2 0x1753 JUMPI PUSH1 0x40 MLOAD PUSH32 0x8C379A000000000000000000000000000000000000000000000000000000000 DUP2 MSTORE PUSH1 0x4 ADD PUSH2 0x174A SWAP1 PUSH2 0x3214 JUMP JUMPDEST PUSH1 0x40 MLOAD DUP1 SWAP2 SUB SWAP1 REVERT JUMPDEST DUP2 PUSH1 0x8 PUSH1 0x0 PUSH2 0x100 EXP DUP2 SLOAD DUP2 PUSH20 0xFFFFFFFFFFFFFFFFFFFFFFFFFFFFFFFFFFFFFFFF MUL NOT AND SWAP1 DUP4 PUSH20 0xFFFFFFFFFFFFFFFFFFFFFFFFFFFFFFFFFFFFFFFF AND MUL OR SWAP1 SSTORE POP PUSH1 0x1 SWAP1 POP SWAP2 SWAP1 POP JUMP JUMPDEST PUSH1 0x0 DUP1 DUP4 EQ PUSH2 0x17E4 JUMPI PUSH1 0x64 DUP4 EQ PUSH2 0x17DA JUMPI PUSH1 0xC8 DUP4 EQ PUSH2 0x17D0 JUMPI PUSH2 0x3E8 DUP4 EQ PUSH2 0x17C8 JUMPI PUSH3 0xED4E00 PUSH2 0x17CB JUMP JUMPDEST PUSH1 0x0 JUMPDEST PUSH2 0x17D5 JUMP JUMPDEST PUSH3 0x83D600 JUMPDEST PUSH2 0x17DF JUMP JUMPDEST PUSH3 0xAB6300 JUMPDEST PUSH2 0x17E9 JUMP JUMPDEST PUSH3 0xED4E00 JUMPDEST PUSH3 0xFFFFFF AND PUSH1 0xC PUSH1 0x0 DUP5 DUP2 MSTORE PUSH1 0x20 ADD SWAP1 DUP2 MSTORE PUSH1 0x20 ADD PUSH1 0x0 KECCAK256 PUSH1 0x1 ADD DUP2 SWAP1 SSTORE POP PUSH1 0x1 SWAP1 POP SWAP3 SWAP2 POP POP JUMP JUMPDEST PUSH2 0x181D DUP5 DUP5 DUP5 PUSH2 0x10F3 JUMP JUMPDEST PUSH2 0x1829 DUP5 DUP5 DUP5 DUP5 PUSH2 0x1A3A JUMP JUMPDEST PUSH2 0x1868 JUMPI PUSH1 0x40 MLOAD PUSH32 0x8C379A000000000000000000000000000000000000000000000000000000000 DUP2 MSTORE PUSH1 0x4 ADD PUSH2 0x185F SWAP1 PUSH2 0x32A6 JUMP JUMPDEST PUSH1 0x40 MLOAD DUP1 SWAP2 SUB SWAP1 REVERT JUMPDEST POP POP POP POP JUMP JUMPDEST PUSH1 0x0 DUP2 PUSH1 0x0 ADD SLOAD SWAP1 POP SWAP2 SWAP1 POP JUMP JUMPDEST PUSH2 0x1886 DUP4 DUP4 PUSH2 0x1BC1 JUMP JUMPDEST PUSH2 0x1893 PUSH1 0x0 DUP5 DUP5 DUP5 PUSH2 0x1A3A JUMP JUMPDEST PUSH2 0x18D2 JUMPI PUSH1 0x40 MLOAD PUSH32 0x8C379A000000000000000000000000000000000000000000000000000000000 DUP2 MSTORE PUSH1 0x4 ADD PUSH2 0x18C9 SWAP1 PUSH2 0x32A6 JUMP JUMPDEST PUSH1 0x40 MLOAD DUP1 SWAP2 SUB SWAP1 REVERT JUMPDEST POP POP POP JUMP JUMPDEST PUSH1 0x1 DUP2 PUSH1 0x0 ADD PUSH1 0x0 DUP3 DUP3 SLOAD ADD SWAP3 POP POP DUP2 SWAP1 SSTORE POP POP JUMP JUMPDEST PUSH1 0x0 DUP1 PUSH20 0xFFFFFFFFFFFFFFFFFFFFFFFFFFFFFFFFFFFFFFFF AND PUSH2 0x190F DUP4 PUSH2 0x153A JUMP JUMPDEST PUSH20 0xFFFFFFFFFFFFFFFFFFFFFFFFFFFFFFFFFFFFFFFF AND EQ ISZERO SWAP1 POP SWAP2 SWAP1 POP JUMP JUMPDEST PUSH2 0x193E DUP5 DUP5 DUP5 PUSH1 0x1 SWAP5 POP DUP5 PUSH2 0x1DDE JUMP JUMPDEST PUSH1 0x0 PUSH20 0xFFFFFFFFFFFFFFFFFFFFFFFFFFFFFFFFFFFFFFFF AND DUP5 PUSH20 0xFFFFFFFFFFFFFFFFFFFFFFFFFFFFFFFFFFFFFFFF AND EQ PUSH2 0x1A2E JUMPI PUSH1 0xC PUSH1 0x0 DUP4 DUP2 MSTORE PUSH1 0x20 ADD SWAP1 DUP2 MSTORE PUSH1 0x20 ADD PUSH1 0x0 KECCAK256 PUSH1 0x1 ADD SLOAD PUSH1 0xC PUSH1 0x0 DUP5 DUP2 MSTORE PUSH1 0x20 ADD SWAP1 DUP2 MSTORE PUSH1 0x20 ADD PUSH1 0x0 KECCAK256 PUSH1 0x0 ADD SLOAD PUSH2 0x19AA SWAP2 SWAP1 PUSH2 0x32F5 JUMP JUMPDEST TIMESTAMP LT ISZERO PUSH2 0x19CC PUSH1 0xC PUSH1 0x0 DUP6 DUP2 MSTORE PUSH1 0x20 ADD SWAP1 DUP2 MSTORE PUSH1 0x20 ADD PUSH1 0x0 KECCAK256 PUSH1 0x1 ADD SLOAD PUSH2 0x1DE4 JUMP JUMPDEST PUSH1 0x40 MLOAD PUSH1 0x20 ADD PUSH2 0x19DC SWAP2 SWAP1 PUSH2 0x33A6 JUMP JUMPDEST PUSH1 0x40 MLOAD PUSH1 0x20 DUP2 DUP4 SUB SUB DUP2 MSTORE SWAP1 PUSH1 0x40 MSTORE SWAP1 PUSH2 0x1A2C JUMPI PUSH1 0x40 MLOAD PUSH32 0x8C379A000000000000000000000000000000000000000000000000000000000 DUP2 MSTORE PUSH1 0x4 ADD PUSH2 0x1A23 SWAP2 SWAP1 PUSH2 0x2187 JUMP JUMPDEST PUSH1 0x40 MLOAD DUP1 SWAP2 SUB SWAP1 REVERT JUMPDEST POP JUMPDEST POP POP POP POP JUMP JUMPDEST POP POP POP POP JUMP JUMPDEST PUSH1 0x0 PUSH2 0x1A5B DUP5 PUSH20 0xFFFFFFFFFFFFFFFFFFFFFFFFFFFFFFFFFFFFFFFF AND PUSH2 0x1EB2 JUMP JUMPDEST ISZERO PUSH2 0x1BB4 JUMPI DUP4 PUSH20 0xFFFFFFFFFFFFFFFFFFFFFFFFFFFFFFFFFFFFFFFF AND PUSH4 0x150B7A02 PUSH2 0x1A84 PUSH2 0xF9D JUMP JUMPDEST DUP8 DUP7 DUP7 PUSH1 0x40 MLOAD DUP6 PUSH4 0xFFFFFFFF AND PUSH1 0xE0 SHL DUP2 MSTORE PUSH1 0x4 ADD PUSH2 0x1AA6 SWAP5 SWAP4 SWAP3 SWAP2 SWAP1 PUSH2 0x341D JUMP JUMPDEST PUSH1 0x20 PUSH1 0x40 MLOAD DUP1 DUP4 SUB DUP2 PUSH1 0x0 DUP8 GAS CALL SWAP3 POP POP POP DUP1 ISZERO PUSH2 0x1AE2 JUMPI POP PUSH1 0x40 MLOAD RETURNDATASIZE PUSH1 0x1F NOT PUSH1 0x1F DUP3 ADD AND DUP3 ADD DUP1 PUSH1 0x40 MSTORE POP DUP2 ADD SWAP1 PUSH2 0x1ADF SWAP2 SWAP1 PUSH2 0x347E JUMP JUMPDEST PUSH1 0x1 JUMPDEST PUSH2 0x1B64 JUMPI RETURNDATASIZE DUP1 PUSH1 0x0 DUP2 EQ PUSH2 0x1B12 JUMPI PUSH1 0x40 MLOAD SWAP2 POP PUSH1 0x1F NOT PUSH1 0x3F RETURNDATASIZE ADD AND DUP3 ADD PUSH1 0x40 MSTORE RETURNDATASIZE DUP3 MSTORE RETURNDATASIZE PUSH1 0x0 PUSH1 0x20 DUP5 ADD RETURNDATACOPY PUSH2 0x1B17 JUMP JUMPDEST PUSH1 0x60 SWAP2 POP JUMPDEST POP PUSH1 0x0 DUP2 MLOAD SUB PUSH2 0x1B5C JUMPI PUSH1 0x40 MLOAD PUSH32 0x8C379A000000000000000000000000000000000000000000000000000000000 DUP2 MSTORE PUSH1 0x4 ADD PUSH2 0x1B53 SWAP1 PUSH2 0x32A6 JUMP JUMPDEST PUSH1 0x40 MLOAD DUP1 SWAP2 SUB SWAP1 REVERT JUMPDEST DUP1 MLOAD DUP2 PUSH1 0x20 ADD REVERT JUMPDEST PUSH4 0x150B7A02 PUSH1 0xE0 SHL PUSH28 0xFFFFFFFFFFFFFFFFFFFFFFFFFFFFFFFFFFFFFFFFFFFFFFFFFFFFFFFF NOT AND DUP2 PUSH28 0xFFFFFFFFFFFFFFFFFFFFFFFFFFFFFFFFFFFFFFFFFFFFFFFFFFFFFFFF NOT AND EQ SWAP2 POP POP PUSH2 0x1BB9 JUMP JUMPDEST PUSH1 0x1 SWAP1 POP JUMPDEST SWAP5 SWAP4 POP POP POP POP JUMP JUMPDEST PUSH1 0x0 PUSH20 0xFFFFFFFFFFFFFFFFFFFFFFFFFFFFFFFFFFFFFFFF AND DUP3 PUSH20 0xFFFFFFFFFFFFFFFFFFFFFFFFFFFFFFFFFFFFFFFF AND SUB PUSH2 0x1C30 JUMPI PUSH1 0x40 MLOAD PUSH32 0x8C379A000000000000000000000000000000000000000000000000000000000 DUP2 MSTORE PUSH1 0x4 ADD PUSH2 0x1C27 SWAP1 PUSH2 0x34F7 JUMP JUMPDEST PUSH1 0x40 MLOAD DUP1 SWAP2 SUB SWAP1 REVERT JUMPDEST PUSH2 0x1C39 DUP2 PUSH2 0x18ED JUMP JUMPDEST ISZERO PUSH2 0x1C79 JUMPI PUSH1 0x40 MLOAD PUSH32 0x8C379A000000000000000000000000000000000000000000000000000000000 DUP2 MSTORE PUSH1 0x4 ADD PUSH2 0x1C70 SWAP1 PUSH2 0x3563 JUMP JUMPDEST PUSH1 0x40 MLOAD DUP1 SWAP2 SUB SWAP1 REVERT JUMPDEST PUSH2 0x1C87 PUSH1 0x0 DUP4 DUP4 PUSH1 0x1 PUSH2 0x192E JUMP JUMPDEST PUSH2 0x1C90 DUP2 PUSH2 0x18ED JUMP JUMPDEST ISZERO PUSH2 0x1CD0 JUMPI PUSH1 0x40 MLOAD PUSH32 0x8C379A000000000000000000000000000000000000000000000000000000000 DUP2 MSTORE PUSH1 0x4 ADD PUSH2 0x1CC7 SWAP1 PUSH2 0x3563 JUMP JUMPDEST PUSH1 0x40 MLOAD DUP1 SWAP2 SUB SWAP1 REVERT JUMPDEST PUSH1 0x1 PUSH1 0x3 PUSH1 0x0 DUP5 PUSH20 0xFFFFFFFFFFFFFFFFFFFFFFFFFFFFFFFFFFFFFFFF AND PUSH20 0xFFFFFFFFFFFFFFFFFFFFFFFFFFFFFFFFFFFFFFFF AND DUP2 MSTORE PUSH1 0x20 ADD SWAP1 DUP2 MSTORE PUSH1 0x20 ADD PUSH1 0x0 KECCAK256 PUSH1 0x0 DUP3 DUP3 SLOAD ADD SWAP3 POP POP DUP2 SWAP1 SSTORE POP DUP2 PUSH1 0x2 PUSH1 0x0 DUP4 DUP2 MSTORE PUSH1 0x20 ADD SWAP1 DUP2 MSTORE PUSH1 0x20 ADD PUSH1 0x0 KECCAK256 PUSH1 0x0 PUSH2 0x100 EXP DUP2 SLOAD DUP2 PUSH20 0xFFFFFFFFFFFFFFFFFFFFFFFFFFFFFFFFFFFFFFFF MUL NOT AND SWAP1 DUP4 PUSH20 0xFFFFFFFFFFFFFFFFFFFFFFFFFFFFFFFFFFFFFFFF AND MUL OR SWAP1 SSTORE POP DUP1 DUP3 PUSH20 0xFFFFFFFFFFFFFFFFFFFFFFFFFFFFFFFFFFFFFFFF AND PUSH1 0x0 PUSH20 0xFFFFFFFFFFFFFFFFFFFFFFFFFFFFFFFFFFFFFFFF AND PUSH32 0xDDF252AD1BE2C89B69C2B068FC378DAA952BA7F163C4A11628F55A4DF523B3EF PUSH1 0x40 MLOAD PUSH1 0x40 MLOAD DUP1 SWAP2 SUB SWAP1 LOG4 PUSH2 0x1DDA PUSH1 0x0 DUP4 DUP4 PUSH1 0x1 PUSH2 0x1A34 JUMP JUMPDEST POP POP JUMP JUMPDEST POP POP POP POP JUMP JUMPDEST PUSH1 0x60 PUSH1 0x0 PUSH1 0x1 PUSH2 0x1DF3 DUP5 PUSH2 0x1ED5 JUMP JUMPDEST ADD SWAP1 POP PUSH1 0x0 DUP2 PUSH8 0xFFFFFFFFFFFFFFFF DUP2 GT ISZERO PUSH2 0x1E12 JUMPI PUSH2 0x1E11 PUSH2 0x2272 JUMP JUMPDEST JUMPDEST PUSH1 0x40 MLOAD SWAP1 DUP1 DUP3 MSTORE DUP1 PUSH1 0x1F ADD PUSH1 0x1F NOT AND PUSH1 0x20 ADD DUP3 ADD PUSH1 0x40 MSTORE DUP1 ISZERO PUSH2 0x1E44 JUMPI DUP2 PUSH1 0x20 ADD PUSH1 0x1 DUP3 MUL DUP1 CALLDATASIZE DUP4 CALLDATACOPY DUP1 DUP3 ADD SWAP2 POP POP SWAP1 POP JUMPDEST POP SWAP1 POP PUSH1 0x0 DUP3 PUSH1 0x20 ADD DUP3 ADD SWAP1 POP JUMPDEST PUSH1 0x1 ISZERO PUSH2 0x1EA7 JUMPI DUP1 DUP1 PUSH1 0x1 SWAP1 SUB SWAP2 POP POP PUSH32 0x3031323334353637383961626364656600000000000000000000000000000000 PUSH1 0xA DUP7 MOD BYTE DUP2 MSTORE8 PUSH1 0xA DUP6 DUP2 PUSH2 0x1E9B JUMPI PUSH2 0x1E9A PUSH2 0x3583 JUMP JUMPDEST JUMPDEST DIV SWAP5 POP PUSH1 0x0 DUP6 SUB PUSH2 0x1E52 JUMPI JUMPDEST DUP2 SWAP4 POP POP POP POP SWAP2 SWAP1 POP JUMP JUMPDEST PUSH1 0x0 DUP1 DUP3 PUSH20 0xFFFFFFFFFFFFFFFFFFFFFFFFFFFFFFFFFFFFFFFF AND EXTCODESIZE GT SWAP1 POP SWAP2 SWAP1 POP JUMP JUMPDEST PUSH1 0x0 DUP1 PUSH1 0x0 SWAP1 POP PUSH27 0x184F03E93FF9F4DAA797ED6E38ED64BF6A1F010000000000000000 DUP4 LT PUSH2 0x1F33 JUMPI PUSH27 0x184F03E93FF9F4DAA797ED6E38ED64BF6A1F010000000000000000 DUP4 DUP2 PUSH2 0x1F29 JUMPI PUSH2 0x1F28 PUSH2 0x3583 JUMP JUMPDEST JUMPDEST DIV SWAP3 POP PUSH1 0x40 DUP2 ADD SWAP1 POP JUMPDEST PUSH14 0x4EE2D6D415B85ACEF8100000000 DUP4 LT PUSH2 0x1F70 JUMPI PUSH14 0x4EE2D6D415B85ACEF8100000000 DUP4 DUP2 PUSH2 0x1F66 JUMPI PUSH2 0x1F65 PUSH2 0x3583 JUMP JUMPDEST JUMPDEST DIV SWAP3 POP PUSH1 0x20 DUP2 ADD SWAP1 POP JUMPDEST PUSH7 0x2386F26FC10000 DUP4 LT PUSH2 0x1F9F JUMPI PUSH7 0x2386F26FC10000 DUP4 DUP2 PUSH2 0x1F95 JUMPI PUSH2 0x1F94 PUSH2 0x3583 JUMP JUMPDEST JUMPDEST DIV SWAP3 POP PUSH1 0x10 DUP2 ADD SWAP1 POP JUMPDEST PUSH4 0x5F5E100 DUP4 LT PUSH2 0x1FC8 JUMPI PUSH4 0x5F5E100 DUP4 DUP2 PUSH2 0x1FBE JUMPI PUSH2 0x1FBD PUSH2 0x3583 JUMP JUMPDEST JUMPDEST DIV SWAP3 POP PUSH1 0x8 DUP2 ADD SWAP1 POP JUMPDEST PUSH2 0x2710 DUP4 LT PUSH2 0x1FED JUMPI PUSH2 0x2710 DUP4 DUP2 PUSH2 0x1FE3 JUMPI PUSH2 0x1FE2 PUSH2 0x3583 JUMP JUMPDEST JUMPDEST DIV SWAP3 POP PUSH1 0x4 DUP2 ADD SWAP1 POP JUMPDEST PUSH1 0x64 DUP4 LT PUSH2 0x2010 JUMPI PUSH1 0x64 DUP4 DUP2 PUSH2 0x2006 JUMPI PUSH2 0x2005 PUSH2 0x3583 JUMP JUMPDEST JUMPDEST DIV SWAP3 POP PUSH1 0x2 DUP2 ADD SWAP1 POP JUMPDEST PUSH1 0xA DUP4 LT PUSH2 0x201F JUMPI PUSH1 0x1 DUP2 ADD SWAP1 POP JUMPDEST DUP1 SWAP2 POP POP SWAP2 SWAP1 POP JUMP JUMPDEST PUSH1 0x0 PUSH1 0x40 MLOAD SWAP1 POP SWAP1 JUMP JUMPDEST PUSH1 0x0 DUP1 REVERT JUMPDEST PUSH1 0x0 DUP1 REVERT JUMPDEST PUSH1 0x0 PUSH32 0xFFFFFFFF00000000000000000000000000000000000000000000000000000000 DUP3 AND SWAP1 POP SWAP2 SWAP1 POP JUMP JUMPDEST PUSH2 0x2071 DUP2 PUSH2 0x203C JUMP JUMPDEST DUP2 EQ PUSH2 0x207C JUMPI PUSH1 0x0 DUP1 REVERT JUMPDEST POP JUMP JUMPDEST PUSH1 0x0 DUP2 CALLDATALOAD SWAP1 POP PUSH2 0x208E DUP2 PUSH2 0x2068 JUMP JUMPDEST SWAP3 SWAP2 POP POP JUMP JUMPDEST PUSH1 0x0 PUSH1 0x20 DUP3 DUP5 SUB SLT ISZERO PUSH2 0x20AA JUMPI PUSH2 0x20A9 PUSH2 0x2032 JUMP JUMPDEST JUMPDEST PUSH1 0x0 PUSH2 0x20B8 DUP5 DUP3 DUP6 ADD PUSH2 0x207F JUMP JUMPDEST SWAP2 POP POP SWAP3 SWAP2 POP POP JUMP JUMPDEST PUSH1 0x0 DUP2 ISZERO ISZERO SWAP1 POP SWAP2 SWAP1 POP JUMP JUMPDEST PUSH2 0x20D6 DUP2 PUSH2 0x20C1 JUMP JUMPDEST DUP3 MSTORE POP POP JUMP JUMPDEST PUSH1 0x0 PUSH1 0x20 DUP3 ADD SWAP1 POP PUSH2 0x20F1 PUSH1 0x0 DUP4 ADD DUP5 PUSH2 0x20CD JUMP JUMPDEST SWAP3 SWAP2 POP POP JUMP JUMPDEST PUSH1 0x0 DUP2 MLOAD SWAP1 POP SWAP2 SWAP1 POP JUMP JUMPDEST PUSH1 0x0 DUP3 DUP3 MSTORE PUSH1 0x20 DUP3 ADD SWAP1 POP SWAP3 SWAP2 POP POP JUMP JUMPDEST PUSH1 0x0 JUMPDEST DUP4 DUP2 LT ISZERO PUSH2 0x2131 JUMPI DUP1 DUP3 ADD MLOAD DUP2 DUP5 ADD MSTORE PUSH1 0x20 DUP2 ADD SWAP1 POP PUSH2 0x2116 JUMP JUMPDEST PUSH1 0x0 DUP5 DUP5 ADD MSTORE POP POP POP POP JUMP JUMPDEST PUSH1 0x0 PUSH1 0x1F NOT PUSH1 0x1F DUP4 ADD AND SWAP1 POP SWAP2 SWAP1 POP JUMP JUMPDEST PUSH1 0x0 PUSH2 0x2159 DUP3 PUSH2 0x20F7 JUMP JUMPDEST PUSH2 0x2163 DUP2 DUP6 PUSH2 0x2102 JUMP JUMPDEST SWAP4 POP PUSH2 0x2173 DUP2 DUP6 PUSH1 0x20 DUP7 ADD PUSH2 0x2113 JUMP JUMPDEST PUSH2 0x217C DUP2 PUSH2 0x213D JUMP JUMPDEST DUP5 ADD SWAP2 POP POP SWAP3 SWAP2 POP POP JUMP JUMPDEST PUSH1 0x0 PUSH1 0x20 DUP3 ADD SWAP1 POP DUP2 DUP2 SUB PUSH1 0x0 DUP4 ADD MSTORE PUSH2 0x21A1 DUP2 DUP5 PUSH2 0x214E JUMP JUMPDEST SWAP1 POP SWAP3 SWAP2 POP POP JUMP JUMPDEST PUSH1 0x0 DUP2 SWAP1 POP SWAP2 SWAP1 POP JUMP JUMPDEST PUSH2 0x21BC DUP2 PUSH2 0x21A9 JUMP JUMPDEST DUP2 EQ PUSH2 0x21C7 JUMPI PUSH1 0x0 DUP1 REVERT JUMPDEST POP JUMP JUMPDEST PUSH1 0x0 DUP2 CALLDATALOAD SWAP1 POP PUSH2 0x21D9 DUP2 PUSH2 0x21B3 JUMP JUMPDEST SWAP3 SWAP2 POP POP JUMP JUMPDEST PUSH1 0x0 PUSH1 0x20 DUP3 DUP5 SUB SLT ISZERO PUSH2 0x21F5 JUMPI PUSH2 0x21F4 PUSH2 0x2032 JUMP JUMPDEST JUMPDEST PUSH1 0x0 PUSH2 0x2203 DUP5 DUP3 DUP6 ADD PUSH2 0x21CA JUMP JUMPDEST SWAP2 POP POP SWAP3 SWAP2 POP POP JUMP JUMPDEST PUSH1 0x0 PUSH20 0xFFFFFFFFFFFFFFFFFFFFFFFFFFFFFFFFFFFFFFFF DUP3 AND SWAP1 POP SWAP2 SWAP1 POP JUMP JUMPDEST PUSH1 0x0 PUSH2 0x2237 DUP3 PUSH2 0x220C JUMP JUMPDEST SWAP1 POP SWAP2 SWAP1 POP JUMP JUMPDEST PUSH2 0x2247 DUP2 PUSH2 0x222C JUMP JUMPDEST DUP3 MSTORE POP POP JUMP JUMPDEST PUSH1 0x0 PUSH1 0x20 DUP3 ADD SWAP1 POP PUSH2 0x2262 PUSH1 0x0 DUP4 ADD DUP5 PUSH2 0x223E JUMP JUMPDEST SWAP3 SWAP2 POP POP JUMP JUMPDEST PUSH1 0x0 DUP1 REVERT JUMPDEST PUSH1 0x0 DUP1 REVERT JUMPDEST PUSH32 0x4E487B7100000000000000000000000000000000000000000000000000000000 PUSH1 0x0 MSTORE PUSH1 0x41 PUSH1 0x4 MSTORE PUSH1 0x24 PUSH1 0x0 REVERT JUMPDEST PUSH2 0x22AA DUP3 PUSH2 0x213D JUMP JUMPDEST DUP2 ADD DUP2 DUP2 LT PUSH8 0xFFFFFFFFFFFFFFFF DUP3 GT OR ISZERO PUSH2 0x22C9 JUMPI PUSH2 0x22C8 PUSH2 0x2272 JUMP JUMPDEST JUMPDEST DUP1 PUSH1 0x40 MSTORE POP POP POP JUMP JUMPDEST PUSH1 0x0 PUSH2 0x22DC PUSH2 0x2028 JUMP JUMPDEST SWAP1 POP PUSH2 0x22E8 DUP3 DUP3 PUSH2 0x22A1 JUMP JUMPDEST SWAP2 SWAP1 POP JUMP JUMPDEST PUSH1 0x0 PUSH8 0xFFFFFFFFFFFFFFFF DUP3 GT ISZERO PUSH2 0x2308 JUMPI PUSH2 0x2307 PUSH2 0x2272 JUMP JUMPDEST JUMPDEST PUSH2 0x2311 DUP3 PUSH2 0x213D JUMP JUMPDEST SWAP1 POP PUSH1 0x20 DUP2 ADD SWAP1 POP SWAP2 SWAP1 POP JUMP JUMPDEST DUP3 DUP2 DUP4 CALLDATACOPY PUSH1 0x0 DUP4 DUP4 ADD MSTORE POP POP POP JUMP JUMPDEST PUSH1 0x0 PUSH2 0x2340 PUSH2 0x233B DUP5 PUSH2 0x22ED JUMP JUMPDEST PUSH2 0x22D2 JUMP JUMPDEST SWAP1 POP DUP3 DUP2 MSTORE PUSH1 0x20 DUP2 ADD DUP5 DUP5 DUP5 ADD GT ISZERO PUSH2 0x235C JUMPI PUSH2 0x235B PUSH2 0x226D JUMP JUMPDEST JUMPDEST PUSH2 0x2367 DUP5 DUP3 DUP6 PUSH2 0x231E JUMP JUMPDEST POP SWAP4 SWAP3 POP POP POP JUMP JUMPDEST PUSH1 0x0 DUP3 PUSH1 0x1F DUP4 ADD SLT PUSH2 0x2384 JUMPI PUSH2 0x2383 PUSH2 0x2268 JUMP JUMPDEST JUMPDEST DUP2 CALLDATALOAD PUSH2 0x2394 DUP5 DUP3 PUSH1 0x20 DUP7 ADD PUSH2 0x232D JUMP JUMPDEST SWAP2 POP POP SWAP3 SWAP2 POP POP JUMP JUMPDEST PUSH1 0x0 DUP1 PUSH1 0x0 PUSH1 0x60 DUP5 DUP7 SUB SLT ISZERO PUSH2 0x23B6 JUMPI PUSH2 0x23B5 PUSH2 0x2032 JUMP JUMPDEST JUMPDEST PUSH1 0x0 DUP5 ADD CALLDATALOAD PUSH8 0xFFFFFFFFFFFFFFFF DUP2 GT ISZERO PUSH2 0x23D4 JUMPI PUSH2 0x23D3 PUSH2 0x2037 JUMP JUMPDEST JUMPDEST PUSH2 0x23E0 DUP7 DUP3 DUP8 ADD PUSH2 0x236F JUMP JUMPDEST SWAP4 POP POP PUSH1 0x20 DUP5 ADD CALLDATALOAD PUSH8 0xFFFFFFFFFFFFFFFF DUP2 GT ISZERO PUSH2 0x2401 JUMPI PUSH2 0x2400 PUSH2 0x2037 JUMP JUMPDEST JUMPDEST PUSH2 0x240D DUP7 DUP3 DUP8 ADD PUSH2 0x236F JUMP JUMPDEST SWAP3 POP POP PUSH1 0x40 DUP5 ADD CALLDATALOAD PUSH8 0xFFFFFFFFFFFFFFFF DUP2 GT ISZERO PUSH2 0x242E JUMPI PUSH2 0x242D PUSH2 0x2037 JUMP JUMPDEST JUMPDEST PUSH2 0x243A DUP7 DUP3 DUP8 ADD PUSH2 0x236F JUMP JUMPDEST SWAP2 POP POP SWAP3 POP SWAP3 POP SWAP3 JUMP JUMPDEST PUSH2 0x244D DUP2 PUSH2 0x222C JUMP JUMPDEST DUP2 EQ PUSH2 0x2458 JUMPI PUSH1 0x0 DUP1 REVERT JUMPDEST POP JUMP JUMPDEST PUSH1 0x0 DUP2 CALLDATALOAD SWAP1 POP PUSH2 0x246A DUP2 PUSH2 0x2444 JUMP JUMPDEST SWAP3 SWAP2 POP POP JUMP JUMPDEST PUSH1 0x0 DUP1 PUSH1 0x40 DUP4 DUP6 SUB SLT ISZERO PUSH2 0x2487 JUMPI PUSH2 0x2486 PUSH2 0x2032 JUMP JUMPDEST JUMPDEST PUSH1 0x0 PUSH2 0x2495 DUP6 DUP3 DUP7 ADD PUSH2 0x245B JUMP JUMPDEST SWAP3 POP POP PUSH1 0x20 PUSH2 0x24A6 DUP6 DUP3 DUP7 ADD PUSH2 0x21CA JUMP JUMPDEST SWAP2 POP POP SWAP3 POP SWAP3 SWAP1 POP JUMP JUMPDEST PUSH1 0x0 DUP1 PUSH1 0x0 PUSH1 0x60 DUP5 DUP7 SUB SLT ISZERO PUSH2 0x24C9 JUMPI PUSH2 0x24C8 PUSH2 0x2032 JUMP JUMPDEST JUMPDEST PUSH1 0x0 PUSH2 0x24D7 DUP7 DUP3 DUP8 ADD PUSH2 0x245B JUMP JUMPDEST SWAP4 POP POP PUSH1 0x20 PUSH2 0x24E8 DUP7 DUP3 DUP8 ADD PUSH2 0x245B JUMP JUMPDEST SWAP3 POP POP PUSH1 0x40 PUSH2 0x24F9 DUP7 DUP3 DUP8 ADD PUSH2 0x21CA JUMP JUMPDEST SWAP2 POP POP SWAP3 POP SWAP3 POP SWAP3 JUMP JUMPDEST PUSH1 0x0 PUSH1 0x20 DUP3 DUP5 SUB SLT ISZERO PUSH2 0x2519 JUMPI PUSH2 0x2518 PUSH2 0x2032 JUMP JUMPDEST JUMPDEST PUSH1 0x0 PUSH2 0x2527 DUP5 DUP3 DUP6 ADD PUSH2 0x245B JUMP JUMPDEST SWAP2 POP POP SWAP3 SWAP2 POP POP JUMP JUMPDEST PUSH2 0x2539 DUP2 PUSH2 0x21A9 JUMP JUMPDEST DUP3 MSTORE POP POP JUMP JUMPDEST PUSH1 0x0 PUSH1 0x20 DUP3 ADD SWAP1 POP PUSH2 0x2554 PUSH1 0x0 DUP4 ADD DUP5 PUSH2 0x2530 JUMP JUMPDEST SWAP3 SWAP2 POP POP JUMP JUMPDEST PUSH1 0x0 PUSH1 0x40 DUP3 ADD SWAP1 POP PUSH2 0x256F PUSH1 0x0 DUP4 ADD DUP6 PUSH2 0x2530 JUMP JUMPDEST PUSH2 0x257C PUSH1 0x20 DUP4 ADD DUP5 PUSH2 0x2530 JUMP JUMPDEST SWAP4 SWAP3 POP POP POP JUMP JUMPDEST PUSH2 0x258C DUP2 PUSH2 0x20C1 JUMP JUMPDEST DUP2 EQ PUSH2 0x2597 JUMPI PUSH1 0x0 DUP1 REVERT JUMPDEST POP JUMP JUMPDEST PUSH1 0x0 DUP2 CALLDATALOAD SWAP1 POP PUSH2 0x25A9 DUP2 PUSH2 0x2583 JUMP JUMPDEST SWAP3 SWAP2 POP POP JUMP JUMPDEST PUSH1 0x0 DUP1 PUSH1 0x40 DUP4 DUP6 SUB SLT ISZERO PUSH2 0x25C6 JUMPI PUSH2 0x25C5 PUSH2 0x2032 JUMP JUMPDEST JUMPDEST PUSH1 0x0 PUSH2 0x25D4 DUP6 DUP3 DUP7 ADD PUSH2 0x245B JUMP JUMPDEST SWAP3 POP POP PUSH1 0x20 PUSH2 0x25E5 DUP6 DUP3 DUP7 ADD PUSH2 0x259A JUMP JUMPDEST SWAP2 POP POP SWAP3 POP SWAP3 SWAP1 POP JUMP JUMPDEST PUSH1 0x0 DUP1 PUSH1 0x0 PUSH1 0x60 DUP5 DUP7 SUB SLT ISZERO PUSH2 0x2608 JUMPI PUSH2 0x2607 PUSH2 0x2032 JUMP JUMPDEST JUMPDEST PUSH1 0x0 PUSH2 0x2616 DUP7 DUP3 DUP8 ADD PUSH2 0x21CA JUMP JUMPDEST SWAP4 POP POP PUSH1 0x20 PUSH2 0x2627 DUP7 DUP3 DUP8 ADD PUSH2 0x245B JUMP JUMPDEST SWAP3 POP POP PUSH1 0x40 PUSH2 0x2638 DUP7 DUP3 DUP8 ADD PUSH2 0x21CA JUMP JUMPDEST SWAP2 POP POP SWAP3 POP SWAP3 POP SWAP3 JUMP JUMPDEST PUSH1 0x0 PUSH8 0xFFFFFFFFFFFFFFFF DUP3 GT ISZERO PUSH2 0x265D JUMPI PUSH2 0x265C PUSH2 0x2272 JUMP JUMPDEST JUMPDEST PUSH2 0x2666 DUP3 PUSH2 0x213D JUMP JUMPDEST SWAP1 POP PUSH1 0x20 DUP2 ADD SWAP1 POP SWAP2 SWAP1 POP JUMP JUMPDEST PUSH1 0x0 PUSH2 0x2686 PUSH2 0x2681 DUP5 PUSH2 0x2642 JUMP JUMPDEST PUSH2 0x22D2 JUMP JUMPDEST SWAP1 POP DUP3 DUP2 MSTORE PUSH1 0x20 DUP2 ADD DUP5 DUP5 DUP5 ADD GT ISZERO PUSH2 0x26A2 JUMPI PUSH2 0x26A1 PUSH2 0x226D JUMP JUMPDEST JUMPDEST PUSH2 0x26AD DUP5 DUP3 DUP6 PUSH2 0x231E JUMP JUMPDEST POP SWAP4 SWAP3 POP POP POP JUMP JUMPDEST PUSH1 0x0 DUP3 PUSH1 0x1F DUP4 ADD SLT PUSH2 0x26CA JUMPI PUSH2 0x26C9 PUSH2 0x2268 JUMP JUMPDEST JUMPDEST DUP2 CALLDATALOAD PUSH2 0x26DA DUP5 DUP3 PUSH1 0x20 DUP7 ADD PUSH2 0x2673 JUMP JUMPDEST SWAP2 POP POP SWAP3 SWAP2 POP POP JUMP JUMPDEST PUSH1 0x0 DUP1 PUSH1 0x0 DUP1 PUSH1 0x80 DUP6 DUP8 SUB SLT ISZERO PUSH2 0x26FD JUMPI PUSH2 0x26FC PUSH2 0x2032 JUMP JUMPDEST JUMPDEST PUSH1 0x0 PUSH2 0x270B DUP8 DUP3 DUP9 ADD PUSH2 0x245B JUMP JUMPDEST SWAP5 POP POP PUSH1 0x20 PUSH2 0x271C DUP8 DUP3 DUP9 ADD PUSH2 0x245B JUMP JUMPDEST SWAP4 POP POP PUSH1 0x40 PUSH2 0x272D DUP8 DUP3 DUP9 ADD PUSH2 0x21CA JUMP JUMPDEST SWAP3 POP POP PUSH1 0x60 DUP6 ADD CALLDATALOAD PUSH8 0xFFFFFFFFFFFFFFFF DUP2 GT ISZERO PUSH2 0x274E JUMPI PUSH2 0x274D PUSH2 0x2037 JUMP JUMPDEST JUMPDEST PUSH2 0x275A DUP8 DUP3 DUP9 ADD PUSH2 0x26B5 JUMP JUMPDEST SWAP2 POP POP SWAP3 SWAP6 SWAP2 SWAP5 POP SWAP3 POP JUMP JUMPDEST PUSH1 0x0 DUP1 PUSH1 0x40 DUP4 DUP6 SUB SLT ISZERO PUSH2 0x277D JUMPI PUSH2 0x277C PUSH2 0x2032 JUMP JUMPDEST JUMPDEST PUSH1 0x0 PUSH2 0x278B DUP6 DUP3 DUP7 ADD PUSH2 0x245B JUMP JUMPDEST SWAP3 POP POP PUSH1 0x20 PUSH2 0x279C DUP6 DUP3 DUP7 ADD PUSH2 0x245B JUMP JUMPDEST SWAP2 POP POP SWAP3 POP SWAP3 SWAP1 POP JUMP JUMPDEST PUSH32 0x4E487B7100000000000000000000000000000000000000000000000000000000 PUSH1 0x0 MSTORE PUSH1 0x22 PUSH1 0x4 MSTORE PUSH1 0x24 PUSH1 0x0 REVERT JUMPDEST PUSH1 0x0 PUSH1 0x2 DUP3 DIV SWAP1 POP PUSH1 0x1 DUP3 AND DUP1 PUSH2 0x27ED JUMPI PUSH1 0x7F DUP3 AND SWAP2 POP JUMPDEST PUSH1 0x20 DUP3 LT DUP2 SUB PUSH2 0x2800 JUMPI PUSH2 0x27FF PUSH2 0x27A6 JUMP JUMPDEST JUMPDEST POP SWAP2 SWAP1 POP JUMP JUMPDEST PUSH1 0x0 DUP2 SWAP1 POP DUP2 PUSH1 0x0 MSTORE PUSH1 0x20 PUSH1 0x0 KECCAK256 SWAP1 POP SWAP2 SWAP1 POP JUMP JUMPDEST PUSH1 0x0 PUSH1 0x20 PUSH1 0x1F DUP4 ADD DIV SWAP1 POP SWAP2 SWAP1 POP JUMP JUMPDEST PUSH1 0x0 DUP3 DUP3 SHL SWAP1 POP SWAP3 SWAP2 POP POP JUMP JUMPDEST PUSH1 0x0 PUSH1 0x8 DUP4 MUL PUSH2 0x2868 PUSH32 0xFFFFFFFFFFFFFFFFFFFFFFFFFFFFFFFFFFFFFFFFFFFFFFFFFFFFFFFFFFFFFFFF DUP3 PUSH2 0x282B JUMP JUMPDEST PUSH2 0x2872 DUP7 DUP4 PUSH2 0x282B JUMP JUMPDEST SWAP6 POP DUP1 NOT DUP5 AND SWAP4 POP DUP1 DUP7 AND DUP5 OR SWAP3 POP POP POP SWAP4 SWAP3 POP POP POP JUMP JUMPDEST PUSH1 0x0 DUP2 SWAP1 POP SWAP2 SWAP1 POP JUMP JUMPDEST PUSH1 0x0 PUSH2 0x28AF PUSH2 0x28AA PUSH2 0x28A5 DUP5 PUSH2 0x21A9 JUMP JUMPDEST PUSH2 0x288A JUMP JUMPDEST PUSH2 0x21A9 JUMP JUMPDEST SWAP1 POP SWAP2 SWAP1 POP JUMP JUMPDEST PUSH1 0x0 DUP2 SWAP1 POP SWAP2 SWAP1 POP JUMP JUMPDEST PUSH2 0x28C9 DUP4 PUSH2 0x2894 JUMP JUMPDEST PUSH2 0x28DD PUSH2 0x28D5 DUP3 PUSH2 0x28B6 JUMP JUMPDEST DUP5 DUP5 SLOAD PUSH2 0x2838 JUMP JUMPDEST DUP3 SSTORE POP POP POP POP JUMP JUMPDEST PUSH1 0x0 SWAP1 JUMP JUMPDEST PUSH2 0x28F2 PUSH2 0x28E5 JUMP JUMPDEST PUSH2 0x28FD DUP2 DUP5 DUP5 PUSH2 0x28C0 JUMP JUMPDEST POP POP POP JUMP JUMPDEST JUMPDEST DUP2 DUP2 LT ISZERO PUSH2 0x2921 JUMPI PUSH2 0x2916 PUSH1 0x0 DUP3 PUSH2 0x28EA JUMP JUMPDEST PUSH1 0x1 DUP2 ADD SWAP1 POP PUSH2 0x2903 JUMP JUMPDEST POP POP JUMP JUMPDEST PUSH1 0x1F DUP3 GT ISZERO PUSH2 0x2966 JUMPI PUSH2 0x2937 DUP2 PUSH2 0x2806 JUMP JUMPDEST PUSH2 0x2940 DUP5 PUSH2 0x281B JUMP JUMPDEST DUP2 ADD PUSH1 0x20 DUP6 LT ISZERO PUSH2 0x294F JUMPI DUP2 SWAP1 POP JUMPDEST PUSH2 0x2963 PUSH2 0x295B DUP6 PUSH2 0x281B JUMP JUMPDEST DUP4 ADD DUP3 PUSH2 0x2902 JUMP JUMPDEST POP POP JUMPDEST POP POP POP JUMP JUMPDEST PUSH1 0x0 DUP3 DUP3 SHR SWAP1 POP SWAP3 SWAP2 POP POP JUMP JUMPDEST PUSH1 0x0 PUSH2 0x2989 PUSH1 0x0 NOT DUP5 PUSH1 0x8 MUL PUSH2 0x296B JUMP JUMPDEST NOT DUP1 DUP4 AND SWAP2 POP POP SWAP3 SWAP2 POP POP JUMP JUMPDEST PUSH1 0x0 PUSH2 0x29A2 DUP4 DUP4 PUSH2 0x2978 JUMP JUMPDEST SWAP2 POP DUP3 PUSH1 0x2 MUL DUP3 OR SWAP1 POP SWAP3 SWAP2 POP POP JUMP JUMPDEST PUSH2 0x29BB DUP3 PUSH2 0x20F7 JUMP JUMPDEST PUSH8 0xFFFFFFFFFFFFFFFF DUP2 GT ISZERO PUSH2 0x29D4 JUMPI PUSH2 0x29D3 PUSH2 0x2272 JUMP JUMPDEST JUMPDEST PUSH2 0x29DE DUP3 SLOAD PUSH2 0x27D5 JUMP JUMPDEST PUSH2 0x29E9 DUP3 DUP3 DUP6 PUSH2 0x2925 JUMP JUMPDEST PUSH1 0x0 PUSH1 0x20 SWAP1 POP PUSH1 0x1F DUP4 GT PUSH1 0x1 DUP2 EQ PUSH2 0x2A1C JUMPI PUSH1 0x0 DUP5 ISZERO PUSH2 0x2A0A JUMPI DUP3 DUP8 ADD MLOAD SWAP1 POP JUMPDEST PUSH2 0x2A14 DUP6 DUP3 PUSH2 0x2996 JUMP JUMPDEST DUP7 SSTORE POP PUSH2 0x2A7C JUMP JUMPDEST PUSH1 0x1F NOT DUP5 AND PUSH2 0x2A2A DUP7 PUSH2 0x2806 JUMP JUMPDEST PUSH1 0x0 JUMPDEST DUP3 DUP2 LT ISZERO PUSH2 0x2A52 JUMPI DUP5 DUP10 ADD MLOAD DUP3 SSTORE PUSH1 0x1 DUP3 ADD SWAP2 POP PUSH1 0x20 DUP6 ADD SWAP5 POP PUSH1 0x20 DUP2 ADD SWAP1 POP PUSH2 0x2A2D JUMP JUMPDEST DUP7 DUP4 LT ISZERO PUSH2 0x2A6F JUMPI DUP5 DUP10 ADD MLOAD PUSH2 0x2A6B PUSH1 0x1F DUP10 AND DUP3 PUSH2 0x2978 JUMP JUMPDEST DUP4 SSTORE POP JUMPDEST PUSH1 0x1 PUSH1 0x2 DUP9 MUL ADD DUP9 SSTORE POP POP POP JUMPDEST POP POP POP POP POP POP JUMP JUMPDEST PUSH32 0x4552433732313A20617070726F76616C20746F2063757272656E74206F776E65 PUSH1 0x0 DUP3 ADD MSTORE PUSH32 0x7200000000000000000000000000000000000000000000000000000000000000 PUSH1 0x20 DUP3 ADD MSTORE POP JUMP JUMPDEST PUSH1 0x0 PUSH2 0x2AE0 PUSH1 0x21 DUP4 PUSH2 0x2102 JUMP JUMPDEST SWAP2 POP PUSH2 0x2AEB DUP3 PUSH2 0x2A84 JUMP JUMPDEST PUSH1 0x40 DUP3 ADD SWAP1 POP SWAP2 SWAP1 POP JUMP JUMPDEST PUSH1 0x0 PUSH1 0x20 DUP3 ADD SWAP1 POP DUP2 DUP2 SUB PUSH1 0x0 DUP4 ADD MSTORE PUSH2 0x2B0F DUP2 PUSH2 0x2AD3 JUMP JUMPDEST SWAP1 POP SWAP2 SWAP1 POP JUMP JUMPDEST PUSH32 0x4552433732313A20617070726F76652063616C6C6572206973206E6F7420746F PUSH1 0x0 DUP3 ADD MSTORE PUSH32 0x6B656E206F776E6572206F7220617070726F76656420666F7220616C6C000000 PUSH1 0x20 DUP3 ADD MSTORE POP JUMP JUMPDEST PUSH1 0x0 PUSH2 0x2B72 PUSH1 0x3D DUP4 PUSH2 0x2102 JUMP JUMPDEST SWAP2 POP PUSH2 0x2B7D DUP3 PUSH2 0x2B16 JUMP JUMPDEST PUSH1 0x40 DUP3 ADD SWAP1 POP SWAP2 SWAP1 POP JUMP JUMPDEST PUSH1 0x0 PUSH1 0x20 DUP3 ADD SWAP1 POP DUP2 DUP2 SUB PUSH1 0x0 DUP4 ADD MSTORE PUSH2 0x2BA1 DUP2 PUSH2 0x2B65 JUMP JUMPDEST SWAP1 POP SWAP2 SWAP1 POP JUMP JUMPDEST PUSH32 0x4552433732313A2063616C6C6572206973206E6F7420746F6B656E206F776E65 PUSH1 0x0 DUP3 ADD MSTORE PUSH32 0x72206F7220617070726F76656400000000000000000000000000000000000000 PUSH1 0x20 DUP3 ADD MSTORE POP JUMP JUMPDEST PUSH1 0x0 PUSH2 0x2C04 PUSH1 0x2D DUP4 PUSH2 0x2102 JUMP JUMPDEST SWAP2 POP PUSH2 0x2C0F DUP3 PUSH2 0x2BA8 JUMP JUMPDEST PUSH1 0x40 DUP3 ADD SWAP1 POP SWAP2 SWAP1 POP JUMP JUMPDEST PUSH1 0x0 PUSH1 0x20 DUP3 ADD SWAP1 POP DUP2 DUP2 SUB PUSH1 0x0 DUP4 ADD MSTORE PUSH2 0x2C33 DUP2 PUSH2 0x2BF7 JUMP JUMPDEST SWAP1 POP SWAP2 SWAP1 POP JUMP JUMPDEST PUSH32 0x4552433732313A20696E76616C696420746F6B656E2049440000000000000000 PUSH1 0x0 DUP3 ADD MSTORE POP JUMP JUMPDEST PUSH1 0x0 PUSH2 0x2C70 PUSH1 0x18 DUP4 PUSH2 0x2102 JUMP JUMPDEST SWAP2 POP PUSH2 0x2C7B DUP3 PUSH2 0x2C3A JUMP JUMPDEST PUSH1 0x20 DUP3 ADD SWAP1 POP SWAP2 SWAP1 POP JUMP JUMPDEST PUSH1 0x0 PUSH1 0x20 DUP3 ADD SWAP1 POP DUP2 DUP2 SUB PUSH1 0x0 DUP4 ADD MSTORE PUSH2 0x2C9F DUP2 PUSH2 0x2C63 JUMP JUMPDEST SWAP1 POP SWAP2 SWAP1 POP JUMP JUMPDEST PUSH32 0x4552433732313A2061646472657373207A65726F206973206E6F742061207661 PUSH1 0x0 DUP3 ADD MSTORE PUSH32 0x6C6964206F776E65720000000000000000000000000000000000000000000000 PUSH1 0x20 DUP3 ADD MSTORE POP JUMP JUMPDEST PUSH1 0x0 PUSH2 0x2D02 PUSH1 0x29 DUP4 PUSH2 0x2102 JUMP JUMPDEST SWAP2 POP PUSH2 0x2D0D DUP3 PUSH2 0x2CA6 JUMP JUMPDEST PUSH1 0x40 DUP3 ADD SWAP1 POP SWAP2 SWAP1 POP JUMP JUMPDEST PUSH1 0x0 PUSH1 0x20 DUP3 ADD SWAP1 POP DUP2 DUP2 SUB PUSH1 0x0 DUP4 ADD MSTORE PUSH2 0x2D31 DUP2 PUSH2 0x2CF5 JUMP JUMPDEST SWAP1 POP SWAP2 SWAP1 POP JUMP JUMPDEST PUSH1 0x0 PUSH1 0x60 DUP3 ADD SWAP1 POP PUSH2 0x2D4D PUSH1 0x0 DUP4 ADD DUP7 PUSH2 0x223E JUMP JUMPDEST PUSH2 0x2D5A PUSH1 0x20 DUP4 ADD DUP6 PUSH2 0x223E JUMP JUMPDEST PUSH2 0x2D67 PUSH1 0x40 DUP4 ADD DUP5 PUSH2 0x2530 JUMP JUMPDEST SWAP5 SWAP4 POP POP POP POP JUMP JUMPDEST PUSH1 0x0 DUP2 MLOAD SWAP1 POP PUSH2 0x2D7E DUP2 PUSH2 0x2583 JUMP JUMPDEST SWAP3 SWAP2 POP POP JUMP JUMPDEST PUSH1 0x0 PUSH1 0x20 DUP3 DUP5 SUB SLT ISZERO PUSH2 0x2D9A JUMPI PUSH2 0x2D99 PUSH2 0x2032 JUMP JUMPDEST JUMPDEST PUSH1 0x0 PUSH2 0x2DA8 DUP5 DUP3 DUP6 ADD PUSH2 0x2D6F JUMP JUMPDEST SWAP2 POP POP SWAP3 SWAP2 POP POP JUMP JUMPDEST PUSH32 0x717665546F6B656E207472616E73666572206572726F72000000000000000000 PUSH1 0x0 DUP3 ADD MSTORE POP JUMP JUMPDEST PUSH1 0x0 PUSH2 0x2DE7 PUSH1 0x17 DUP4 PUSH2 0x2102 JUMP JUMPDEST SWAP2 POP PUSH2 0x2DF2 DUP3 PUSH2 0x2DB1 JUMP JUMPDEST PUSH1 0x20 DUP3 ADD SWAP1 POP SWAP2 SWAP1 POP JUMP JUMPDEST PUSH1 0x0 PUSH1 0x20 DUP3 ADD SWAP1 POP DUP2 DUP2 SUB PUSH1 0x0 DUP4 ADD MSTORE PUSH2 0x2E16 DUP2 PUSH2 0x2DDA JUMP JUMPDEST SWAP1 POP SWAP2 SWAP1 POP JUMP JUMPDEST PUSH1 0x0 DUP2 SWAP1 POP SWAP3 SWAP2 POP POP JUMP JUMPDEST PUSH32 0x646174613A6170706C69636174696F6E2F6A736F6E2C7B226E616D65223A2200 PUSH1 0x0 DUP3 ADD MSTORE POP JUMP JUMPDEST PUSH1 0x0 PUSH2 0x2E5E PUSH1 0x1F DUP4 PUSH2 0x2E1D JUMP JUMPDEST SWAP2 POP PUSH2 0x2E69 DUP3 PUSH2 0x2E28 JUMP JUMPDEST PUSH1 0x1F DUP3 ADD SWAP1 POP SWAP2 SWAP1 POP JUMP JUMPDEST PUSH1 0x0 DUP2 SLOAD PUSH2 0x2E81 DUP2 PUSH2 0x27D5 JUMP JUMPDEST PUSH2 0x2E8B DUP2 DUP7 PUSH2 0x2E1D JUMP JUMPDEST SWAP5 POP PUSH1 0x1 DUP3 AND PUSH1 0x0 DUP2 EQ PUSH2 0x2EA6 JUMPI PUSH1 0x1 DUP2 EQ PUSH2 0x2EBB JUMPI PUSH2 0x2EEE JUMP JUMPDEST PUSH1 0xFF NOT DUP4 AND DUP7 MSTORE DUP2 ISZERO ISZERO DUP3 MUL DUP7 ADD SWAP4 POP PUSH2 0x2EEE JUMP JUMPDEST PUSH2 0x2EC4 DUP6 PUSH2 0x2806 JUMP JUMPDEST PUSH1 0x0 JUMPDEST DUP4 DUP2 LT ISZERO PUSH2 0x2EE6 JUMPI DUP2 SLOAD DUP2 DUP10 ADD MSTORE PUSH1 0x1 DUP3 ADD SWAP2 POP PUSH1 0x20 DUP2 ADD SWAP1 POP PUSH2 0x2EC7 JUMP JUMPDEST DUP4 DUP9 ADD SWAP6 POP POP POP JUMPDEST POP POP POP SWAP3 SWAP2 POP POP JUMP JUMPDEST PUSH32 0x222C20226465736372697074696F6E223A220000000000000000000000000000 PUSH1 0x0 DUP3 ADD MSTORE POP JUMP JUMPDEST PUSH1 0x0 PUSH2 0x2F2D PUSH1 0x12 DUP4 PUSH2 0x2E1D JUMP JUMPDEST SWAP2 POP PUSH2 0x2F38 DUP3 PUSH2 0x2EF7 JUMP JUMPDEST PUSH1 0x12 DUP3 ADD SWAP1 POP SWAP2 SWAP1 POP JUMP JUMPDEST PUSH32 0x222C2022696D616765223A220000000000000000000000000000000000000000 PUSH1 0x0 DUP3 ADD MSTORE POP JUMP JUMPDEST PUSH1 0x0 PUSH2 0x2F79 PUSH1 0xC DUP4 PUSH2 0x2E1D JUMP JUMPDEST SWAP2 POP PUSH2 0x2F84 DUP3 PUSH2 0x2F43 JUMP JUMPDEST PUSH1 0xC DUP3 ADD SWAP1 POP SWAP2 SWAP1 POP JUMP JUMPDEST PUSH32 0x227D000000000000000000000000000000000000000000000000000000000000 PUSH1 0x0 DUP3 ADD MSTORE POP JUMP JUMPDEST PUSH1 0x0 PUSH2 0x2FC5 PUSH1 0x2 DUP4 PUSH2 0x2E1D JUMP JUMPDEST SWAP2 POP PUSH2 0x2FD0 DUP3 PUSH2 0x2F8F JUMP JUMPDEST PUSH1 0x2 DUP3 ADD SWAP1 POP SWAP2 SWAP1 POP JUMP JUMPDEST PUSH1 0x0 PUSH2 0x2FE6 DUP3 PUSH2 0x2E51 JUMP JUMPDEST SWAP2 POP PUSH2 0x2FF2 DUP3 DUP7 PUSH2 0x2E74 JUMP JUMPDEST SWAP2 POP PUSH2 0x2FFD DUP3 PUSH2 0x2F20 JUMP JUMPDEST SWAP2 POP PUSH2 0x3009 DUP3 DUP6 PUSH2 0x2E74 JUMP JUMPDEST SWAP2 POP PUSH2 0x3014 DUP3 PUSH2 0x2F6C JUMP JUMPDEST SWAP2 POP PUSH2 0x3020 DUP3 DUP5 PUSH2 0x2E74 JUMP JUMPDEST SWAP2 POP PUSH2 0x302B DUP3 PUSH2 0x2FB8 JUMP JUMPDEST SWAP2 POP DUP2 SWAP1 POP SWAP5 SWAP4 POP POP POP POP JUMP JUMPDEST PUSH32 0x4552433732313A207472616E736665722066726F6D20696E636F727265637420 PUSH1 0x0 DUP3 ADD MSTORE PUSH32 0x6F776E6572000000000000000000000000000000000000000000000000000000 PUSH1 0x20 DUP3 ADD MSTORE POP JUMP JUMPDEST PUSH1 0x0 PUSH2 0x3094 PUSH1 0x25 DUP4 PUSH2 0x2102 JUMP JUMPDEST SWAP2 POP PUSH2 0x309F DUP3 PUSH2 0x3038 JUMP JUMPDEST PUSH1 0x40 DUP3 ADD SWAP1 POP SWAP2 SWAP1 POP JUMP JUMPDEST PUSH1 0x0 PUSH1 0x20 DUP3 ADD SWAP1 POP DUP2 DUP2 SUB PUSH1 0x0 DUP4 ADD MSTORE PUSH2 0x30C3 DUP2 PUSH2 0x3087 JUMP JUMPDEST SWAP1 POP SWAP2 SWAP1 POP JUMP JUMPDEST PUSH32 0x4552433732313A207472616E7366657220746F20746865207A65726F20616464 PUSH1 0x0 DUP3 ADD MSTORE PUSH32 0x7265737300000000000000000000000000000000000000000000000000000000 PUSH1 0x20 DUP3 ADD MSTORE POP JUMP JUMPDEST PUSH1 0x0 PUSH2 0x3126 PUSH1 0x24 DUP4 PUSH2 0x2102 JUMP JUMPDEST SWAP2 POP PUSH2 0x3131 DUP3 PUSH2 0x30CA JUMP JUMPDEST PUSH1 0x40 DUP3 ADD SWAP1 POP SWAP2 SWAP1 POP JUMP JUMPDEST PUSH1 0x0 PUSH1 0x20 DUP3 ADD SWAP1 POP DUP2 DUP2 SUB PUSH1 0x0 DUP4 ADD MSTORE PUSH2 0x3155 DUP2 PUSH2 0x3119 JUMP JUMPDEST SWAP1 POP SWAP2 SWAP1 POP JUMP JUMPDEST PUSH32 0x4552433732313A20617070726F766520746F2063616C6C657200000000000000 PUSH1 0x0 DUP3 ADD MSTORE POP JUMP JUMPDEST PUSH1 0x0 PUSH2 0x3192 PUSH1 0x19 DUP4 PUSH2 0x2102 JUMP JUMPDEST SWAP2 POP PUSH2 0x319D DUP3 PUSH2 0x315C JUMP JUMPDEST PUSH1 0x20 DUP3 ADD SWAP1 POP SWAP2 SWAP1 POP JUMP JUMPDEST PUSH1 0x0 PUSH1 0x20 DUP3 ADD SWAP1 POP DUP2 DUP2 SUB PUSH1 0x0 DUP4 ADD MSTORE PUSH2 0x31C1 DUP2 PUSH2 0x3185 JUMP JUMPDEST SWAP1 POP SWAP2 SWAP1 POP JUMP JUMPDEST PUSH32 0x5F73657451564564656669206572726F72000000000000000000000000000000 PUSH1 0x0 DUP3 ADD MSTORE POP JUMP JUMPDEST PUSH1 0x0 PUSH2 0x31FE PUSH1 0x11 DUP4 PUSH2 0x2102 JUMP JUMPDEST SWAP2 POP PUSH2 0x3209 DUP3 PUSH2 0x31C8 JUMP JUMPDEST PUSH1 0x20 DUP3 ADD SWAP1 POP SWAP2 SWAP1 POP JUMP JUMPDEST PUSH1 0x0 PUSH1 0x20 DUP3 ADD SWAP1 POP DUP2 DUP2 SUB PUSH1 0x0 DUP4 ADD MSTORE PUSH2 0x322D DUP2 PUSH2 0x31F1 JUMP JUMPDEST SWAP1 POP SWAP2 SWAP1 POP JUMP JUMPDEST PUSH32 0x4552433732313A207472616E7366657220746F206E6F6E204552433732315265 PUSH1 0x0 DUP3 ADD MSTORE PUSH32 0x63656976657220696D706C656D656E7465720000000000000000000000000000 PUSH1 0x20 DUP3 ADD MSTORE POP JUMP JUMPDEST PUSH1 0x0 PUSH2 0x3290 PUSH1 0x32 DUP4 PUSH2 0x2102 JUMP JUMPDEST SWAP2 POP PUSH2 0x329B DUP3 PUSH2 0x3234 JUMP JUMPDEST PUSH1 0x40 DUP3 ADD SWAP1 POP SWAP2 SWAP1 POP JUMP JUMPDEST PUSH1 0x0 PUSH1 0x20 DUP3 ADD SWAP1 POP DUP2 DUP2 SUB PUSH1 0x0 DUP4 ADD MSTORE PUSH2 0x32BF DUP2 PUSH2 0x3283 JUMP JUMPDEST SWAP1 POP SWAP2 SWAP1 POP JUMP JUMPDEST PUSH32 0x4E487B7100000000000000000000000000000000000000000000000000000000 PUSH1 0x0 MSTORE PUSH1 0x11 PUSH1 0x4 MSTORE PUSH1 0x24 PUSH1 0x0 REVERT JUMPDEST PUSH1 0x0 PUSH2 0x3300 DUP3 PUSH2 0x21A9 JUMP JUMPDEST SWAP2 POP PUSH2 0x330B DUP4 PUSH2 0x21A9 JUMP JUMPDEST SWAP3 POP DUP3 DUP3 ADD SWAP1 POP DUP1 DUP3 GT ISZERO PUSH2 0x3323 JUMPI PUSH2 0x3322 PUSH2 0x32C6 JUMP JUMPDEST JUMPDEST SWAP3 SWAP2 POP POP JUMP JUMPDEST PUSH32 0x746F6B656E206973207374696C6C20696E206C6F636B20706572696F64000000 PUSH1 0x0 DUP3 ADD MSTORE POP JUMP JUMPDEST PUSH1 0x0 PUSH2 0x335F PUSH1 0x1D DUP4 PUSH2 0x2E1D JUMP JUMPDEST SWAP2 POP PUSH2 0x336A DUP3 PUSH2 0x3329 JUMP JUMPDEST PUSH1 0x1D DUP3 ADD SWAP1 POP SWAP2 SWAP1 POP JUMP JUMPDEST PUSH1 0x0 PUSH2 0x3380 DUP3 PUSH2 0x20F7 JUMP JUMPDEST PUSH2 0x338A DUP2 DUP6 PUSH2 0x2E1D JUMP JUMPDEST SWAP4 POP PUSH2 0x339A DUP2 DUP6 PUSH1 0x20 DUP7 ADD PUSH2 0x2113 JUMP JUMPDEST DUP1 DUP5 ADD SWAP2 POP POP SWAP3 SWAP2 POP POP JUMP JUMPDEST PUSH1 0x0 PUSH2 0x33B1 DUP3 PUSH2 0x3352 JUMP JUMPDEST SWAP2 POP PUSH2 0x33BD DUP3 DUP5 PUSH2 0x3375 JUMP JUMPDEST SWAP2 POP DUP2 SWAP1 POP SWAP3 SWAP2 POP POP JUMP JUMPDEST PUSH1 0x0 DUP2 MLOAD SWAP1 POP SWAP2 SWAP1 POP JUMP JUMPDEST PUSH1 0x0 DUP3 DUP3 MSTORE PUSH1 0x20 DUP3 ADD SWAP1 POP SWAP3 SWAP2 POP POP JUMP JUMPDEST PUSH1 0x0 PUSH2 0x33EF DUP3 PUSH2 0x33C8 JUMP JUMPDEST PUSH2 0x33F9 DUP2 DUP6 PUSH2 0x33D3 JUMP JUMPDEST SWAP4 POP PUSH2 0x3409 DUP2 DUP6 PUSH1 0x20 DUP7 ADD PUSH2 0x2113 JUMP JUMPDEST PUSH2 0x3412 DUP2 PUSH2 0x213D JUMP JUMPDEST DUP5 ADD SWAP2 POP POP SWAP3 SWAP2 POP POP JUMP JUMPDEST PUSH1 0x0 PUSH1 0x80 DUP3 ADD SWAP1 POP PUSH2 0x3432 PUSH1 0x0 DUP4 ADD DUP8 PUSH2 0x223E JUMP JUMPDEST PUSH2 0x343F PUSH1 0x20 DUP4 ADD DUP7 PUSH2 0x223E JUMP JUMPDEST PUSH2 0x344C PUSH1 0x40 DUP4 ADD DUP6 PUSH2 0x2530 JUMP JUMPDEST DUP2 DUP2 SUB PUSH1 0x60 DUP4 ADD MSTORE PUSH2 0x345E DUP2 DUP5 PUSH2 0x33E4 JUMP JUMPDEST SWAP1 POP SWAP6 SWAP5 POP POP POP POP POP JUMP JUMPDEST PUSH1 0x0 DUP2 MLOAD SWAP1 POP PUSH2 0x3478 DUP2 PUSH2 0x2068 JUMP JUMPDEST SWAP3 SWAP2 POP POP JUMP JUMPDEST PUSH1 0x0 PUSH1 0x20 DUP3 DUP5 SUB SLT ISZERO PUSH2 0x3494 JUMPI PUSH2 0x3493 PUSH2 0x2032 JUMP JUMPDEST JUMPDEST PUSH1 0x0 PUSH2 0x34A2 DUP5 DUP3 DUP6 ADD PUSH2 0x3469 JUMP JUMPDEST SWAP2 POP POP SWAP3 SWAP2 POP POP JUMP JUMPDEST PUSH32 0x4552433732313A206D696E7420746F20746865207A65726F2061646472657373 PUSH1 0x0 DUP3 ADD MSTORE POP JUMP JUMPDEST PUSH1 0x0 PUSH2 0x34E1 PUSH1 0x20 DUP4 PUSH2 0x2102 JUMP JUMPDEST SWAP2 POP PUSH2 0x34EC DUP3 PUSH2 0x34AB JUMP JUMPDEST PUSH1 0x20 DUP3 ADD SWAP1 POP SWAP2 SWAP1 POP JUMP JUMPDEST PUSH1 0x0 PUSH1 0x20 DUP3 ADD SWAP1 POP DUP2 DUP2 SUB PUSH1 0x0 DUP4 ADD MSTORE PUSH2 0x3510 DUP2 PUSH2 0x34D4 JUMP JUMPDEST SWAP1 POP SWAP2 SWAP1 POP JUMP JUMPDEST PUSH32 0x4552433732313A20746F6B656E20616C7265616479206D696E74656400000000 PUSH1 0x0 DUP3 ADD MSTORE POP JUMP JUMPDEST PUSH1 0x0 PUSH2 0x354D PUSH1 0x1C DUP4 PUSH2 0x2102 JUMP JUMPDEST SWAP2 POP PUSH2 0x3558 DUP3 PUSH2 0x3517 JUMP JUMPDEST PUSH1 0x20 DUP3 ADD SWAP1 POP SWAP2 SWAP1 POP JUMP JUMPDEST PUSH1 0x0 PUSH1 0x20 DUP3 ADD SWAP1 POP DUP2 DUP2 SUB PUSH1 0x0 DUP4 ADD MSTORE PUSH2 0x357C DUP2 PUSH2 0x3540 JUMP JUMPDEST SWAP1 POP SWAP2 SWAP1 POP JUMP JUMPDEST PUSH32 0x4E487B7100000000000000000000000000000000000000000000000000000000 PUSH1 0x0 MSTORE PUSH1 0x12 PUSH1 0x4 MSTORE PUSH1 0x24 PUSH1 0x0 REVERT INVALID LOG2 PUSH5 0x6970667358 0x22 SLT KECCAK256 MOD MLOAD 0xC0 0xB3 DUP14 0xC5 SWAP11 LOG1 0x2B LOG4 0xE4 PUSH4 0x7BAB01F SWAP12 LOG3 NOT LOG1 0x24 0xCD SWAP16 0xDF PUSH21 0x600B953D5D953C64736F6C63430008120033000000 "
		},
		"gasEstimates": {
			"creation": {
				"codeDepositCost": "2760000",
				"executionCost": "infinite",
				"totalCost": "infinite"
			},
			"external": {
				"approve(address,uint256)": "infinite",
				"balanceOf(address)": "2921",
				"burn(uint256)": "infinite",
				"burnNFT(address,uint256)": "infinite",
				"burnNFT(uint256)": "infinite",
				"getApproved(uint256)": "5300",
				"isApprovedForAll(address,address)": "infinite",
				"mintStakingGuarantee(address,bool)": "infinite",
				"name()": "infinite",
				"nftDetails(uint256)": "infinite",
				"ownedTokens(address,uint256)": "infinite",
				"ownerOf(uint256)": "3022",
				"safeTransferFrom(address,address,uint256)": "infinite",
				"safeTransferFrom(address,address,uint256,bytes)": "infinite",
				"setApprovalForAll(address,bool)": "infinite",
				"setMetadata(string,string,string)": "infinite",
				"shortenLockup(uint256,address,uint256)": "infinite",
				"supportsInterface(bytes4)": "797",
				"symbol()": "infinite",
				"tokenURI(uint256)": "infinite",
				"transferFrom(address,address,uint256)": "infinite"
			},
			"internal": {
				"_beforeTokenTransfer(address,address,uint256,uint256)": "infinite",
				"_setLockup(uint256,uint256)": "22376",
				"_setQVEdefi(address)": "infinite"
			}
		},
		"methodIdentifiers": {
			"approve(address,uint256)": "095ea7b3",
			"balanceOf(address)": "70a08231",
			"burn(uint256)": "42966c68",
			"burnNFT(address,uint256)": "47fcf018",
			"burnNFT(uint256)": "2890e0d7",
			"getApproved(uint256)": "081812fc",
			"isApprovedForAll(address,address)": "e985e9c5",
			"mintStakingGuarantee(address,bool)": "f42c69d6",
			"name()": "06fdde03",
			"nftDetails(uint256)": "7d4cd847",
			"ownedTokens(address,uint256)": "e149f036",
			"ownerOf(uint256)": "6352211e",
			"safeTransferFrom(address,address,uint256)": "42842e0e",
			"safeTransferFrom(address,address,uint256,bytes)": "b88d4fde",
			"setApprovalForAll(address,bool)": "a22cb465",
			"setMetadata(string,string,string)": "0890d80c",
			"shortenLockup(uint256,address,uint256)": "b2c3a717",
			"supportsInterface(bytes4)": "01ffc9a7",
			"symbol()": "95d89b41",
			"tokenURI(uint256)": "c87b56dd",
			"transferFrom(address,address,uint256)": "23b872dd"
		}
	},
	"abi": [
		{
			"inputs": [
				{
					"internalType": "contract QVEtoken",
					"name": "_qveToken",
					"type": "address"
				}
			],
			"stateMutability": "nonpayable",
			"type": "constructor"
		},
		{
			"anonymous": false,
			"inputs": [
				{
					"indexed": true,
					"internalType": "address",
					"name": "owner",
					"type": "address"
				},
				{
					"indexed": true,
					"internalType": "address",
					"name": "approved",
					"type": "address"
				},
				{
					"indexed": true,
					"internalType": "uint256",
					"name": "tokenId",
					"type": "uint256"
				}
			],
			"name": "Approval",
			"type": "event"
		},
		{
			"anonymous": false,
			"inputs": [
				{
					"indexed": true,
					"internalType": "address",
					"name": "owner",
					"type": "address"
				},
				{
					"indexed": true,
					"internalType": "address",
					"name": "operator",
					"type": "address"
				},
				{
					"indexed": false,
					"internalType": "bool",
					"name": "approved",
					"type": "bool"
				}
			],
			"name": "ApprovalForAll",
			"type": "event"
		},
		{
			"anonymous": false,
			"inputs": [
				{
					"indexed": false,
					"internalType": "uint256",
					"name": "tokenId",
					"type": "uint256"
				}
			],
			"name": "NFTburnEvent",
			"type": "event"
		},
		{
			"anonymous": false,
			"inputs": [
				{
					"indexed": true,
					"internalType": "address",
					"name": "from",
					"type": "address"
				},
				{
					"indexed": false,
					"internalType": "uint256",
					"name": "tokenId",
					"type": "uint256"
				}
			],
			"name": "NFTburnEvent",
			"type": "event"
		},
		{
			"anonymous": false,
			"inputs": [
				{
					"indexed": true,
					"internalType": "address",
					"name": "from",
					"type": "address"
				},
				{
					"indexed": true,
					"internalType": "address",
					"name": "to",
					"type": "address"
				},
				{
					"indexed": true,
					"internalType": "uint256",
					"name": "tokenId",
					"type": "uint256"
				}
			],
			"name": "Transfer",
			"type": "event"
		},
		{
			"inputs": [
				{
					"internalType": "address",
					"name": "to",
					"type": "address"
				},
				{
					"internalType": "uint256",
					"name": "tokenId",
					"type": "uint256"
				}
			],
			"name": "approve",
			"outputs": [],
			"stateMutability": "nonpayable",
			"type": "function"
		},
		{
			"inputs": [
				{
					"internalType": "address",
					"name": "owner",
					"type": "address"
				}
			],
			"name": "balanceOf",
			"outputs": [
				{
					"internalType": "uint256",
					"name": "",
					"type": "uint256"
				}
			],
			"stateMutability": "view",
			"type": "function"
		},
		{
			"inputs": [
				{
					"internalType": "uint256",
					"name": "tokenId",
					"type": "uint256"
				}
			],
			"name": "burn",
			"outputs": [],
			"stateMutability": "nonpayable",
			"type": "function"
		},
		{
			"inputs": [
				{
					"internalType": "uint256",
					"name": "tokenId",
					"type": "uint256"
				}
			],
			"name": "burnNFT",
			"outputs": [
				{
					"internalType": "bool",
					"name": "",
					"type": "bool"
				}
			],
			"stateMutability": "nonpayable",
			"type": "function"
		},
		{
			"inputs": [
				{
					"internalType": "address",
					"name": "nftHolder",
					"type": "address"
				},
				{
					"internalType": "uint256",
					"name": "tokenId",
					"type": "uint256"
				}
			],
			"name": "burnNFT",
			"outputs": [
				{
					"internalType": "bool",
					"name": "",
					"type": "bool"
				}
			],
			"stateMutability": "nonpayable",
			"type": "function"
		},
		{
			"inputs": [
				{
					"internalType": "uint256",
					"name": "tokenId",
					"type": "uint256"
				}
			],
			"name": "getApproved",
			"outputs": [
				{
					"internalType": "address",
					"name": "",
					"type": "address"
				}
			],
			"stateMutability": "view",
			"type": "function"
		},
		{
			"inputs": [
				{
					"internalType": "address",
					"name": "owner",
					"type": "address"
				},
				{
					"internalType": "address",
					"name": "operator",
					"type": "address"
				}
			],
			"name": "isApprovedForAll",
			"outputs": [
				{
					"internalType": "bool",
					"name": "",
					"type": "bool"
				}
			],
			"stateMutability": "view",
			"type": "function"
		},
		{
			"inputs": [
				{
					"internalType": "address",
					"name": "staker",
					"type": "address"
				},
				{
					"internalType": "bool",
					"name": "lockup",
					"type": "bool"
				}
			],
			"name": "mintStakingGuarantee",
			"outputs": [
				{
					"internalType": "uint256",
					"name": "",
					"type": "uint256"
				}
			],
			"stateMutability": "nonpayable",
			"type": "function"
		},
		{
			"inputs": [],
			"name": "name",
			"outputs": [
				{
					"internalType": "string",
					"name": "",
					"type": "string"
				}
			],
			"stateMutability": "view",
			"type": "function"
		},
		{
			"inputs": [
				{
					"internalType": "uint256",
					"name": "",
					"type": "uint256"
				}
			],
			"name": "nftDetails",
			"outputs": [
				{
					"internalType": "uint256",
					"name": "mintTime",
					"type": "uint256"
				},
				{
					"internalType": "uint256",
					"name": "lockupTime",
					"type": "uint256"
				}
			],
			"stateMutability": "view",
			"type": "function"
		},
		{
			"inputs": [
				{
					"internalType": "address",
					"name": "",
					"type": "address"
				},
				{
					"internalType": "uint256",
					"name": "",
					"type": "uint256"
				}
			],
			"name": "ownedTokens",
			"outputs": [
				{
					"internalType": "uint256",
					"name": "",
					"type": "uint256"
				}
			],
			"stateMutability": "view",
			"type": "function"
		},
		{
			"inputs": [
				{
					"internalType": "uint256",
					"name": "tokenId",
					"type": "uint256"
				}
			],
			"name": "ownerOf",
			"outputs": [
				{
					"internalType": "address",
					"name": "",
					"type": "address"
				}
			],
			"stateMutability": "view",
			"type": "function"
		},
		{
			"inputs": [
				{
					"internalType": "address",
					"name": "from",
					"type": "address"
				},
				{
					"internalType": "address",
					"name": "to",
					"type": "address"
				},
				{
					"internalType": "uint256",
					"name": "tokenId",
					"type": "uint256"
				}
			],
			"name": "safeTransferFrom",
			"outputs": [],
			"stateMutability": "nonpayable",
			"type": "function"
		},
		{
			"inputs": [
				{
					"internalType": "address",
					"name": "from",
					"type": "address"
				},
				{
					"internalType": "address",
					"name": "to",
					"type": "address"
				},
				{
					"internalType": "uint256",
					"name": "tokenId",
					"type": "uint256"
				},
				{
					"internalType": "bytes",
					"name": "data",
					"type": "bytes"
				}
			],
			"name": "safeTransferFrom",
			"outputs": [],
			"stateMutability": "nonpayable",
			"type": "function"
		},
		{
			"inputs": [
				{
					"internalType": "address",
					"name": "operator",
					"type": "address"
				},
				{
					"internalType": "bool",
					"name": "approved",
					"type": "bool"
				}
			],
			"name": "setApprovalForAll",
			"outputs": [],
			"stateMutability": "nonpayable",
			"type": "function"
		},
		{
			"inputs": [
				{
					"internalType": "string",
					"name": "name_",
					"type": "string"
				},
				{
					"internalType": "string",
					"name": "description_",
					"type": "string"
				},
				{
					"internalType": "string",
					"name": "imageUri_",
					"type": "string"
				}
			],
			"name": "setMetadata",
			"outputs": [
				{
					"internalType": "bool",
					"name": "",
					"type": "bool"
				}
			],
			"stateMutability": "nonpayable",
			"type": "function"
		},
		{
			"inputs": [
				{
					"internalType": "uint256",
					"name": "QVEamount",
					"type": "uint256"
				},
				{
					"internalType": "address",
					"name": "_qveDefiAddress",
					"type": "address"
				},
				{
					"internalType": "uint256",
					"name": "tokenId",
					"type": "uint256"
				}
			],
			"name": "shortenLockup",
			"outputs": [
				{
					"internalType": "bool",
					"name": "",
					"type": "bool"
				}
			],
			"stateMutability": "nonpayable",
			"type": "function"
		},
		{
			"inputs": [
				{
					"internalType": "bytes4",
					"name": "interfaceId",
					"type": "bytes4"
				}
			],
			"name": "supportsInterface",
			"outputs": [
				{
					"internalType": "bool",
					"name": "",
					"type": "bool"
				}
			],
			"stateMutability": "view",
			"type": "function"
		},
		{
			"inputs": [],
			"name": "symbol",
			"outputs": [
				{
					"internalType": "string",
					"name": "",
					"type": "string"
				}
			],
			"stateMutability": "view",
			"type": "function"
		},
		{
			"inputs": [
				{
					"internalType": "uint256",
					"name": "tokenId",
					"type": "uint256"
				}
			],
			"name": "tokenURI",
			"outputs": [
				{
					"internalType": "string",
					"name": "",
					"type": "string"
				}
			],
			"stateMutability": "view",
			"type": "function"
		},
		{
			"inputs": [
				{
					"internalType": "address",
					"name": "from",
					"type": "address"
				},
				{
					"internalType": "address",
					"name": "to",
					"type": "address"
				},
				{
					"internalType": "uint256",
					"name": "tokenId",
					"type": "uint256"
				}
			],
			"name": "transferFrom",
			"outputs": [],
			"stateMutability": "nonpayable",
			"type": "function"
		}
	]
}