{
	"data": {
		"bytecode": {
			"linkReferences": {},
			"object": "608060405260006006553480156200001657600080fd5b5060405162001b5f38038062001b5f83398181016040528101906200003c919062000235565b600073ffffffffffffffffffffffffffffffffffffffff168273ffffffffffffffffffffffffffffffffffffffff1614156040518060400160405280601b81526020017f496e76616c69642062656e65666963696172792061646472657373000000000081525090620000e7576040517f08c379a0000000000000000000000000000000000000000000000000000000008152600401620000de919062000316565b60405180910390fd5b5081600260006101000a81548173ffffffffffffffffffffffffffffffffffffffff021916908373ffffffffffffffffffffffffffffffffffffffff16021790555080600360006101000a81548173ffffffffffffffffffffffffffffffffffffffff021916908373ffffffffffffffffffffffffffffffffffffffff16021790555050506200033a565b600080fd5b600073ffffffffffffffffffffffffffffffffffffffff82169050919050565b6000620001a48262000177565b9050919050565b6000620001b88262000197565b9050919050565b620001ca81620001ab565b8114620001d657600080fd5b50565b600081519050620001ea81620001bf565b92915050565b6000620001fd8262000197565b9050919050565b6200020f81620001f0565b81146200021b57600080fd5b50565b6000815190506200022f8162000204565b92915050565b600080604083850312156200024f576200024e62000172565b5b60006200025f85828601620001d9565b925050602062000272858286016200021e565b9150509250929050565b600081519050919050565b600082825260208201905092915050565b60005b83811015620002b85780820151818401526020810190506200029b565b60008484015250505050565b6000601f19601f8301169050919050565b6000620002e2826200027c565b620002ee818562000287565b93506200030081856020860162000298565b6200030b81620002c4565b840191505092915050565b60006020820190508181036000830152620003328184620002d5565b905092915050565b611815806200034a6000396000f3fe608060405234801561001057600080fd5b50600436106100a95760003560e01c80638bf7d700116100715780638bf7d7001461018f578063b1e6abc5146101ab578063c4730d5d146101db578063cbd09371146101f9578063cdb51cdf14610229578063fc0c546a14610259576100a9565b80630197d972146100ae5780631ea5c1cd146100cc578063302df083146100fc57806355f9ecba1461012c578063821bee731461015c575b600080fd5b6100b6610277565b6040516100c3919061118a565b60405180910390f35b6100e660048036038101906100e19190611234565b61027c565b6040516100f3919061118a565b60405180910390f35b61011660048036038101906101119190611274565b6103e3565b60405161012391906112b0565b60405180910390f35b61014660048036038101906101419190611274565b610423565b604051610153919061118a565b60405180910390f35b61017660048036038101906101719190611274565b610443565b60405161018694939291906112e6565b60405180910390f35b6101a960048036038101906101a49190611234565b6104a0565b005b6101c560048036038101906101c0919061132b565b6108c7565b6040516101d2919061118a565b60405180910390f35b6101e36108f8565b6040516101f0919061118a565b60405180910390f35b610213600480360381019061020e9190611274565b6108fe565b604051610220919061118a565b60405180910390f35b610243600480360381019061023e9190611234565b61091e565b604051610250919061136b565b60405180910390f35b610261610c18565b60405161026e91906113e5565b60405180910390f35b600081565b600080600560008473ffffffffffffffffffffffffffffffffffffffff1673ffffffffffffffffffffffffffffffffffffffff16815260200190815260200160002080549050116040518060400160405280601981526020017f596f7520646f6e277420686176652076657374656420515645000000000000008152509061033a576040517f08c379a00000000000000000000000000000000000000000000000000000000081526004016103319190611490565b60405180910390fd5b506000610366600460008681526020019081526020016000206000015442610c4290919063ffffffff16565b90506103b96103aa620186a061039c6003600460008a815260200190815260200160002060010154610c5890919063ffffffff16565b610c6e90919063ffffffff16565b82610c5890919063ffffffff16565b60046000868152602001908152602001600020600101546103da91906114e1565b91505092915050565b60006004600083815260200190815260200160002060020160009054906101000a900473ffffffffffffffffffffffffffffffffffffffff169050919050565b600060046000838152602001908152602001600020600001549050919050565b60046020528060005260406000206000915090508060000154908060010154908060020160009054906101000a900473ffffffffffffffffffffffffffffffffffffffff16908060020160149054906101000a900460ff16905084565b60008054906101000a900460ff16156104ee576040517f08c379a00000000000000000000000000000000000000000000000000000000081526004016104e590611561565b60405180910390fd5b60016000806101000a81548160ff02191690831515021790555060006004600084815260200190815260200160002090506000600560008473ffffffffffffffffffffffffffffffffffffffff1673ffffffffffffffffffffffffffffffffffffffff16815260200190815260200160002080549050116040518060400160405280601981526020017f596f7520646f6e27742068617665207665737465642051564500000000000000815250906105dc576040517f08c379a00000000000000000000000000000000000000000000000000000000081526004016105d39190611490565b60405180910390fd5b5080600001544210156040518060400160405280601981526020017f596f7520646f6e277420686176652076657374656420515645000000000000008152509061065c576040517f08c379a00000000000000000000000000000000000000000000000000000000081526004016106539190611490565b60405180910390fd5b50600081600001544261066f9190611581565b10156040518060400160405280601e81526020017f5765206861766520546f6b656e27732076657374696e6720706572696f640000815250906106e8576040517f08c379a00000000000000000000000000000000000000000000000000000000081526004016106df9190611490565b60405180910390fd5b508060020160149054906101000a900460ff16156040518060400160405280601881526020017f56657374696e6720616c72656164792072656c6561736564000000000000000081525090610773576040517f08c379a000000000000000000000000000000000000000000000000000000000815260040161076a9190611490565b60405180910390fd5b5061077e8383610c84565b50600360009054906101000a900473ffffffffffffffffffffffffffffffffffffffff1673ffffffffffffffffffffffffffffffffffffffff1663fc029c8f8260010154306040518363ffffffff1660e01b81526004016107e09291906115b5565b6020604051808303816000875af11580156107ff573d6000803e3d6000fd5b505050506040513d601f19601f82011682018060405250810190610823919061160a565b5061083083836001610d42565b508060020160009054906101000a900473ffffffffffffffffffffffffffffffffffffffff1673ffffffffffffffffffffffffffffffffffffffff16837f295ac83a3c5cf518a125ba974be97dca6a668bae6dd90b6902b2618cdff1fcc683600101546040516108a0919061118a565b60405180910390a35060008060006101000a81548160ff0219169083151502179055505050565b600560205281600052604060002081815481106108e357600080fd5b90600052602060002001600091509150505481565b60065481565b600060046000838152602001908152602001600020600101549050919050565b60008060009054906101000a900460ff161561096f576040517f08c379a000000000000000000000000000000000000000000000000000000000815260040161096690611561565b60405180910390fd5b60016000806101000a81548160ff021916908315150217905550600360009054906101000a900473ffffffffffffffffffffffffffffffffffffffff1673ffffffffffffffffffffffffffffffffffffffff1663469895c88330866040518463ffffffff1660e01b81526004016109e893929190611637565b6020604051808303816000875af1158015610a07573d6000803e3d6000fd5b505050506040513d601f19601f82011682018060405250810190610a2b919061160a565b610a3457600080fd5b610a498360065461113790919063ffffffff16565b60068190555060405180608001604052804281526020018481526020018373ffffffffffffffffffffffffffffffffffffffff1681526020016000151581525060046000610a97600161114d565b8152602001908152602001600020600082015181600001556020820151816001015560408201518160020160006101000a81548173ffffffffffffffffffffffffffffffffffffffff021916908373ffffffffffffffffffffffffffffffffffffffff16021790555060608201518160020160146101000a81548160ff021916908315150217905550905050600560008373ffffffffffffffffffffffffffffffffffffffff1673ffffffffffffffffffffffffffffffffffffffff168152602001908152602001600020610b6c600161114d565b90806001815401808255809150506001900390600052602060002001600090919091909150558173ffffffffffffffffffffffffffffffffffffffff16610bb3600161114d565b7ffbd41c6118c5ed14f196c270a1793d95e8517e43031d9bb61aa71cb2a38bf55785604051610be2919061118a565b60405180910390a3610bf4600161115b565b6001905060008060006101000a81548160ff02191690831515021790555092915050565b6000600260009054906101000a900473ffffffffffffffffffffffffffffffffffffffff16905090565b60008183610c509190611581565b905092915050565b60008183610c66919061166e565b905092915050565b60008183610c7c91906116df565b905092915050565b6000600260009054906101000a900473ffffffffffffffffffffffffffffffffffffffff1673ffffffffffffffffffffffffffffffffffffffff16635f367b0383610ccf868661027c565b6040518363ffffffff1660e01b8152600401610cec929190611710565b6020604051808303816000875af1158015610d0b573d6000803e3d6000fd5b505050506040513d601f19601f82011682018060405250810190610d2f919061160a565b610d3857600080fd5b6001905092915050565b6000826000600560008373ffffffffffffffffffffffffffffffffffffffff1673ffffffffffffffffffffffffffffffffffffffff16815260200190815260200160002080549050116040518060400160405280601981526020017f596f7520646f6e2774206861766520766573746564205156450000000000000081525090610e02576040517f08c379a0000000000000000000000000000000000000000000000000000000008152600401610df99190611490565b60405180910390fd5b506000600560008673ffffffffffffffffffffffffffffffffffffffff1673ffffffffffffffffffffffffffffffffffffffff16815260200190815260200160002090506000600460008881526020019081526020016000209050600073ffffffffffffffffffffffffffffffffffffffff168160020160009054906101000a900473ffffffffffffffffffffffffffffffffffffffff1673ffffffffffffffffffffffffffffffffffffffff1614156040518060400160405280601b81526020017f496e76616c69642062656e65666963696172792061646472657373000000000081525090610f29576040517f08c379a0000000000000000000000000000000000000000000000000000000008152600401610f209190611490565b60405180910390fd5b508060020160149054906101000a900460ff16156040518060400160405280601881526020017f56657374696e6720616c72656164792072656c6561736564000000000000000081525090610fb4576040517f08c379a0000000000000000000000000000000000000000000000000000000008152600401610fab9190611490565b60405180910390fd5b50610fce8160010154600654610c4290919063ffffffff16565b60068190555060005b82805490508110156110b15787838281548110610ff757610ff6611739565b5b90600052602060002001540361109e5782600184805490506110199190611581565b8154811061102a57611029611739565b5b906000526020600020015483828154811061104857611047611739565b5b90600052602060002001819055508280548061106757611066611768565b5b60019003818190600052602060002001600090559055858260020160146101000a81548160ff0219169083151502179055506110b1565b80806110a990611797565b915050610fd7565b508060020160009054906101000a900473ffffffffffffffffffffffffffffffffffffffff1673ffffffffffffffffffffffffffffffffffffffff16877fdc8b9c8cc0c8d05e10824e69ee88995716a539af94a1c60fb9898367f613477c8360010154604051611121919061118a565b60405180910390a3600193505050509392505050565b6000818361114591906114e1565b905092915050565b600081600001549050919050565b6001816000016000828254019250508190555050565b6000819050919050565b61118481611171565b82525050565b600060208201905061119f600083018461117b565b92915050565b600080fd5b6111b381611171565b81146111be57600080fd5b50565b6000813590506111d0816111aa565b92915050565b600073ffffffffffffffffffffffffffffffffffffffff82169050919050565b6000611201826111d6565b9050919050565b611211816111f6565b811461121c57600080fd5b50565b60008135905061122e81611208565b92915050565b6000806040838503121561124b5761124a6111a5565b5b6000611259858286016111c1565b925050602061126a8582860161121f565b9150509250929050565b60006020828403121561128a576112896111a5565b5b6000611298848285016111c1565b91505092915050565b6112aa816111f6565b82525050565b60006020820190506112c560008301846112a1565b92915050565b60008115159050919050565b6112e0816112cb565b82525050565b60006080820190506112fb600083018761117b565b611308602083018661117b565b61131560408301856112a1565b61132260608301846112d7565b95945050505050565b60008060408385031215611342576113416111a5565b5b60006113508582860161121f565b9250506020611361858286016111c1565b9150509250929050565b600060208201905061138060008301846112d7565b92915050565b6000819050919050565b60006113ab6113a66113a1846111d6565b611386565b6111d6565b9050919050565b60006113bd82611390565b9050919050565b60006113cf826113b2565b9050919050565b6113df816113c4565b82525050565b60006020820190506113fa60008301846113d6565b92915050565b600081519050919050565b600082825260208201905092915050565b60005b8381101561143a57808201518184015260208101905061141f565b60008484015250505050565b6000601f19601f8301169050919050565b600061146282611400565b61146c818561140b565b935061147c81856020860161141c565b61148581611446565b840191505092915050565b600060208201905081810360008301526114aa8184611457565b905092915050565b7f4e487b7100000000000000000000000000000000000000000000000000000000600052601160045260246000fd5b60006114ec82611171565b91506114f783611171565b925082820190508082111561150f5761150e6114b2565b5b92915050565b7f4e6f205265456e7472616e637900000000000000000000000000000000000000600082015250565b600061154b600d8361140b565b915061155682611515565b602082019050919050565b6000602082019050818103600083015261157a8161153e565b9050919050565b600061158c82611171565b915061159783611171565b92508282039050818111156115af576115ae6114b2565b5b92915050565b60006040820190506115ca600083018561117b565b6115d760208301846112a1565b9392505050565b6115e7816112cb565b81146115f257600080fd5b50565b600081519050611604816115de565b92915050565b6000602082840312156116205761161f6111a5565b5b600061162e848285016115f5565b91505092915050565b600060608201905061164c60008301866112a1565b61165960208301856112a1565b611666604083018461117b565b949350505050565b600061167982611171565b915061168483611171565b925082820261169281611171565b915082820484148315176116a9576116a86114b2565b5b5092915050565b7f4e487b7100000000000000000000000000000000000000000000000000000000600052601260045260246000fd5b60006116ea82611171565b91506116f583611171565b925082611705576117046116b0565b5b828204905092915050565b600060408201905061172560008301856112a1565b611732602083018461117b565b9392505050565b7f4e487b7100000000000000000000000000000000000000000000000000000000600052603260045260246000fd5b7f4e487b7100000000000000000000000000000000000000000000000000000000600052603160045260246000fd5b60006117a282611171565b91507fffffffffffffffffffffffffffffffffffffffffffffffffffffffffffffffff82036117d4576117d36114b2565b5b60018201905091905056fea26469706673582212201cde933351cdaff2905892d1899caae8aafe8c860b08b13297b6bb1f66bd6ad264736f6c63430008120033",
			"opcodes": "PUSH1 0x80 PUSH1 0x40 MSTORE PUSH1 0x0 PUSH1 0x6 SSTORE CALLVALUE DUP1 ISZERO PUSH3 0x16 JUMPI PUSH1 0x0 DUP1 REVERT JUMPDEST POP PUSH1 0x40 MLOAD PUSH3 0x1B5F CODESIZE SUB DUP1 PUSH3 0x1B5F DUP4 CODECOPY DUP2 DUP2 ADD PUSH1 0x40 MSTORE DUP2 ADD SWAP1 PUSH3 0x3C SWAP2 SWAP1 PUSH3 0x235 JUMP JUMPDEST PUSH1 0x0 PUSH20 0xFFFFFFFFFFFFFFFFFFFFFFFFFFFFFFFFFFFFFFFF AND DUP3 PUSH20 0xFFFFFFFFFFFFFFFFFFFFFFFFFFFFFFFFFFFFFFFF AND EQ ISZERO PUSH1 0x40 MLOAD DUP1 PUSH1 0x40 ADD PUSH1 0x40 MSTORE DUP1 PUSH1 0x1B DUP2 MSTORE PUSH1 0x20 ADD PUSH32 0x496E76616C69642062656E656669636961727920616464726573730000000000 DUP2 MSTORE POP SWAP1 PUSH3 0xE7 JUMPI PUSH1 0x40 MLOAD PUSH32 0x8C379A000000000000000000000000000000000000000000000000000000000 DUP2 MSTORE PUSH1 0x4 ADD PUSH3 0xDE SWAP2 SWAP1 PUSH3 0x316 JUMP JUMPDEST PUSH1 0x40 MLOAD DUP1 SWAP2 SUB SWAP1 REVERT JUMPDEST POP DUP2 PUSH1 0x2 PUSH1 0x0 PUSH2 0x100 EXP DUP2 SLOAD DUP2 PUSH20 0xFFFFFFFFFFFFFFFFFFFFFFFFFFFFFFFFFFFFFFFF MUL NOT AND SWAP1 DUP4 PUSH20 0xFFFFFFFFFFFFFFFFFFFFFFFFFFFFFFFFFFFFFFFF AND MUL OR SWAP1 SSTORE POP DUP1 PUSH1 0x3 PUSH1 0x0 PUSH2 0x100 EXP DUP2 SLOAD DUP2 PUSH20 0xFFFFFFFFFFFFFFFFFFFFFFFFFFFFFFFFFFFFFFFF MUL NOT AND SWAP1 DUP4 PUSH20 0xFFFFFFFFFFFFFFFFFFFFFFFFFFFFFFFFFFFFFFFF AND MUL OR SWAP1 SSTORE POP POP POP PUSH3 0x33A JUMP JUMPDEST PUSH1 0x0 DUP1 REVERT JUMPDEST PUSH1 0x0 PUSH20 0xFFFFFFFFFFFFFFFFFFFFFFFFFFFFFFFFFFFFFFFF DUP3 AND SWAP1 POP SWAP2 SWAP1 POP JUMP JUMPDEST PUSH1 0x0 PUSH3 0x1A4 DUP3 PUSH3 0x177 JUMP JUMPDEST SWAP1 POP SWAP2 SWAP1 POP JUMP JUMPDEST PUSH1 0x0 PUSH3 0x1B8 DUP3 PUSH3 0x197 JUMP JUMPDEST SWAP1 POP SWAP2 SWAP1 POP JUMP JUMPDEST PUSH3 0x1CA DUP2 PUSH3 0x1AB JUMP JUMPDEST DUP2 EQ PUSH3 0x1D6 JUMPI PUSH1 0x0 DUP1 REVERT JUMPDEST POP JUMP JUMPDEST PUSH1 0x0 DUP2 MLOAD SWAP1 POP PUSH3 0x1EA DUP2 PUSH3 0x1BF JUMP JUMPDEST SWAP3 SWAP2 POP POP JUMP JUMPDEST PUSH1 0x0 PUSH3 0x1FD DUP3 PUSH3 0x197 JUMP JUMPDEST SWAP1 POP SWAP2 SWAP1 POP JUMP JUMPDEST PUSH3 0x20F DUP2 PUSH3 0x1F0 JUMP JUMPDEST DUP2 EQ PUSH3 0x21B JUMPI PUSH1 0x0 DUP1 REVERT JUMPDEST POP JUMP JUMPDEST PUSH1 0x0 DUP2 MLOAD SWAP1 POP PUSH3 0x22F DUP2 PUSH3 0x204 JUMP JUMPDEST SWAP3 SWAP2 POP POP JUMP JUMPDEST PUSH1 0x0 DUP1 PUSH1 0x40 DUP4 DUP6 SUB SLT ISZERO PUSH3 0x24F JUMPI PUSH3 0x24E PUSH3 0x172 JUMP JUMPDEST JUMPDEST PUSH1 0x0 PUSH3 0x25F DUP6 DUP3 DUP7 ADD PUSH3 0x1D9 JUMP JUMPDEST SWAP3 POP POP PUSH1 0x20 PUSH3 0x272 DUP6 DUP3 DUP7 ADD PUSH3 0x21E JUMP JUMPDEST SWAP2 POP POP SWAP3 POP SWAP3 SWAP1 POP JUMP JUMPDEST PUSH1 0x0 DUP2 MLOAD SWAP1 POP SWAP2 SWAP1 POP JUMP JUMPDEST PUSH1 0x0 DUP3 DUP3 MSTORE PUSH1 0x20 DUP3 ADD SWAP1 POP SWAP3 SWAP2 POP POP JUMP JUMPDEST PUSH1 0x0 JUMPDEST DUP4 DUP2 LT ISZERO PUSH3 0x2B8 JUMPI DUP1 DUP3 ADD MLOAD DUP2 DUP5 ADD MSTORE PUSH1 0x20 DUP2 ADD SWAP1 POP PUSH3 0x29B JUMP JUMPDEST PUSH1 0x0 DUP5 DUP5 ADD MSTORE POP POP POP POP JUMP JUMPDEST PUSH1 0x0 PUSH1 0x1F NOT PUSH1 0x1F DUP4 ADD AND SWAP1 POP SWAP2 SWAP1 POP JUMP JUMPDEST PUSH1 0x0 PUSH3 0x2E2 DUP3 PUSH3 0x27C JUMP JUMPDEST PUSH3 0x2EE DUP2 DUP6 PUSH3 0x287 JUMP JUMPDEST SWAP4 POP PUSH3 0x300 DUP2 DUP6 PUSH1 0x20 DUP7 ADD PUSH3 0x298 JUMP JUMPDEST PUSH3 0x30B DUP2 PUSH3 0x2C4 JUMP JUMPDEST DUP5 ADD SWAP2 POP POP SWAP3 SWAP2 POP POP JUMP JUMPDEST PUSH1 0x0 PUSH1 0x20 DUP3 ADD SWAP1 POP DUP2 DUP2 SUB PUSH1 0x0 DUP4 ADD MSTORE PUSH3 0x332 DUP2 DUP5 PUSH3 0x2D5 JUMP JUMPDEST SWAP1 POP SWAP3 SWAP2 POP POP JUMP JUMPDEST PUSH2 0x1815 DUP1 PUSH3 0x34A PUSH1 0x0 CODECOPY PUSH1 0x0 RETURN INVALID PUSH1 0x80 PUSH1 0x40 MSTORE CALLVALUE DUP1 ISZERO PUSH2 0x10 JUMPI PUSH1 0x0 DUP1 REVERT JUMPDEST POP PUSH1 0x4 CALLDATASIZE LT PUSH2 0xA9 JUMPI PUSH1 0x0 CALLDATALOAD PUSH1 0xE0 SHR DUP1 PUSH4 0x8BF7D700 GT PUSH2 0x71 JUMPI DUP1 PUSH4 0x8BF7D700 EQ PUSH2 0x18F JUMPI DUP1 PUSH4 0xB1E6ABC5 EQ PUSH2 0x1AB JUMPI DUP1 PUSH4 0xC4730D5D EQ PUSH2 0x1DB JUMPI DUP1 PUSH4 0xCBD09371 EQ PUSH2 0x1F9 JUMPI DUP1 PUSH4 0xCDB51CDF EQ PUSH2 0x229 JUMPI DUP1 PUSH4 0xFC0C546A EQ PUSH2 0x259 JUMPI PUSH2 0xA9 JUMP JUMPDEST DUP1 PUSH4 0x197D972 EQ PUSH2 0xAE JUMPI DUP1 PUSH4 0x1EA5C1CD EQ PUSH2 0xCC JUMPI DUP1 PUSH4 0x302DF083 EQ PUSH2 0xFC JUMPI DUP1 PUSH4 0x55F9ECBA EQ PUSH2 0x12C JUMPI DUP1 PUSH4 0x821BEE73 EQ PUSH2 0x15C JUMPI JUMPDEST PUSH1 0x0 DUP1 REVERT JUMPDEST PUSH2 0xB6 PUSH2 0x277 JUMP JUMPDEST PUSH1 0x40 MLOAD PUSH2 0xC3 SWAP2 SWAP1 PUSH2 0x118A JUMP JUMPDEST PUSH1 0x40 MLOAD DUP1 SWAP2 SUB SWAP1 RETURN JUMPDEST PUSH2 0xE6 PUSH1 0x4 DUP1 CALLDATASIZE SUB DUP2 ADD SWAP1 PUSH2 0xE1 SWAP2 SWAP1 PUSH2 0x1234 JUMP JUMPDEST PUSH2 0x27C JUMP JUMPDEST PUSH1 0x40 MLOAD PUSH2 0xF3 SWAP2 SWAP1 PUSH2 0x118A JUMP JUMPDEST PUSH1 0x40 MLOAD DUP1 SWAP2 SUB SWAP1 RETURN JUMPDEST PUSH2 0x116 PUSH1 0x4 DUP1 CALLDATASIZE SUB DUP2 ADD SWAP1 PUSH2 0x111 SWAP2 SWAP1 PUSH2 0x1274 JUMP JUMPDEST PUSH2 0x3E3 JUMP JUMPDEST PUSH1 0x40 MLOAD PUSH2 0x123 SWAP2 SWAP1 PUSH2 0x12B0 JUMP JUMPDEST PUSH1 0x40 MLOAD DUP1 SWAP2 SUB SWAP1 RETURN JUMPDEST PUSH2 0x146 PUSH1 0x4 DUP1 CALLDATASIZE SUB DUP2 ADD SWAP1 PUSH2 0x141 SWAP2 SWAP1 PUSH2 0x1274 JUMP JUMPDEST PUSH2 0x423 JUMP JUMPDEST PUSH1 0x40 MLOAD PUSH2 0x153 SWAP2 SWAP1 PUSH2 0x118A JUMP JUMPDEST PUSH1 0x40 MLOAD DUP1 SWAP2 SUB SWAP1 RETURN JUMPDEST PUSH2 0x176 PUSH1 0x4 DUP1 CALLDATASIZE SUB DUP2 ADD SWAP1 PUSH2 0x171 SWAP2 SWAP1 PUSH2 0x1274 JUMP JUMPDEST PUSH2 0x443 JUMP JUMPDEST PUSH1 0x40 MLOAD PUSH2 0x186 SWAP5 SWAP4 SWAP3 SWAP2 SWAP1 PUSH2 0x12E6 JUMP JUMPDEST PUSH1 0x40 MLOAD DUP1 SWAP2 SUB SWAP1 RETURN JUMPDEST PUSH2 0x1A9 PUSH1 0x4 DUP1 CALLDATASIZE SUB DUP2 ADD SWAP1 PUSH2 0x1A4 SWAP2 SWAP1 PUSH2 0x1234 JUMP JUMPDEST PUSH2 0x4A0 JUMP JUMPDEST STOP JUMPDEST PUSH2 0x1C5 PUSH1 0x4 DUP1 CALLDATASIZE SUB DUP2 ADD SWAP1 PUSH2 0x1C0 SWAP2 SWAP1 PUSH2 0x132B JUMP JUMPDEST PUSH2 0x8C7 JUMP JUMPDEST PUSH1 0x40 MLOAD PUSH2 0x1D2 SWAP2 SWAP1 PUSH2 0x118A JUMP JUMPDEST PUSH1 0x40 MLOAD DUP1 SWAP2 SUB SWAP1 RETURN JUMPDEST PUSH2 0x1E3 PUSH2 0x8F8 JUMP JUMPDEST PUSH1 0x40 MLOAD PUSH2 0x1F0 SWAP2 SWAP1 PUSH2 0x118A JUMP JUMPDEST PUSH1 0x40 MLOAD DUP1 SWAP2 SUB SWAP1 RETURN JUMPDEST PUSH2 0x213 PUSH1 0x4 DUP1 CALLDATASIZE SUB DUP2 ADD SWAP1 PUSH2 0x20E SWAP2 SWAP1 PUSH2 0x1274 JUMP JUMPDEST PUSH2 0x8FE JUMP JUMPDEST PUSH1 0x40 MLOAD PUSH2 0x220 SWAP2 SWAP1 PUSH2 0x118A JUMP JUMPDEST PUSH1 0x40 MLOAD DUP1 SWAP2 SUB SWAP1 RETURN JUMPDEST PUSH2 0x243 PUSH1 0x4 DUP1 CALLDATASIZE SUB DUP2 ADD SWAP1 PUSH2 0x23E SWAP2 SWAP1 PUSH2 0x1234 JUMP JUMPDEST PUSH2 0x91E JUMP JUMPDEST PUSH1 0x40 MLOAD PUSH2 0x250 SWAP2 SWAP1 PUSH2 0x136B JUMP JUMPDEST PUSH1 0x40 MLOAD DUP1 SWAP2 SUB SWAP1 RETURN JUMPDEST PUSH2 0x261 PUSH2 0xC18 JUMP JUMPDEST PUSH1 0x40 MLOAD PUSH2 0x26E SWAP2 SWAP1 PUSH2 0x13E5 JUMP JUMPDEST PUSH1 0x40 MLOAD DUP1 SWAP2 SUB SWAP1 RETURN JUMPDEST PUSH1 0x0 DUP2 JUMP JUMPDEST PUSH1 0x0 DUP1 PUSH1 0x5 PUSH1 0x0 DUP5 PUSH20 0xFFFFFFFFFFFFFFFFFFFFFFFFFFFFFFFFFFFFFFFF AND PUSH20 0xFFFFFFFFFFFFFFFFFFFFFFFFFFFFFFFFFFFFFFFF AND DUP2 MSTORE PUSH1 0x20 ADD SWAP1 DUP2 MSTORE PUSH1 0x20 ADD PUSH1 0x0 KECCAK256 DUP1 SLOAD SWAP1 POP GT PUSH1 0x40 MLOAD DUP1 PUSH1 0x40 ADD PUSH1 0x40 MSTORE DUP1 PUSH1 0x19 DUP2 MSTORE PUSH1 0x20 ADD PUSH32 0x596F7520646F6E27742068617665207665737465642051564500000000000000 DUP2 MSTORE POP SWAP1 PUSH2 0x33A JUMPI PUSH1 0x40 MLOAD PUSH32 0x8C379A000000000000000000000000000000000000000000000000000000000 DUP2 MSTORE PUSH1 0x4 ADD PUSH2 0x331 SWAP2 SWAP1 PUSH2 0x1490 JUMP JUMPDEST PUSH1 0x40 MLOAD DUP1 SWAP2 SUB SWAP1 REVERT JUMPDEST POP PUSH1 0x0 PUSH2 0x366 PUSH1 0x4 PUSH1 0x0 DUP7 DUP2 MSTORE PUSH1 0x20 ADD SWAP1 DUP2 MSTORE PUSH1 0x20 ADD PUSH1 0x0 KECCAK256 PUSH1 0x0 ADD SLOAD TIMESTAMP PUSH2 0xC42 SWAP1 SWAP2 SWAP1 PUSH4 0xFFFFFFFF AND JUMP JUMPDEST SWAP1 POP PUSH2 0x3B9 PUSH2 0x3AA PUSH3 0x186A0 PUSH2 0x39C PUSH1 0x3 PUSH1 0x4 PUSH1 0x0 DUP11 DUP2 MSTORE PUSH1 0x20 ADD SWAP1 DUP2 MSTORE PUSH1 0x20 ADD PUSH1 0x0 KECCAK256 PUSH1 0x1 ADD SLOAD PUSH2 0xC58 SWAP1 SWAP2 SWAP1 PUSH4 0xFFFFFFFF AND JUMP JUMPDEST PUSH2 0xC6E SWAP1 SWAP2 SWAP1 PUSH4 0xFFFFFFFF AND JUMP JUMPDEST DUP3 PUSH2 0xC58 SWAP1 SWAP2 SWAP1 PUSH4 0xFFFFFFFF AND JUMP JUMPDEST PUSH1 0x4 PUSH1 0x0 DUP7 DUP2 MSTORE PUSH1 0x20 ADD SWAP1 DUP2 MSTORE PUSH1 0x20 ADD PUSH1 0x0 KECCAK256 PUSH1 0x1 ADD SLOAD PUSH2 0x3DA SWAP2 SWAP1 PUSH2 0x14E1 JUMP JUMPDEST SWAP2 POP POP SWAP3 SWAP2 POP POP JUMP JUMPDEST PUSH1 0x0 PUSH1 0x4 PUSH1 0x0 DUP4 DUP2 MSTORE PUSH1 0x20 ADD SWAP1 DUP2 MSTORE PUSH1 0x20 ADD PUSH1 0x0 KECCAK256 PUSH1 0x2 ADD PUSH1 0x0 SWAP1 SLOAD SWAP1 PUSH2 0x100 EXP SWAP1 DIV PUSH20 0xFFFFFFFFFFFFFFFFFFFFFFFFFFFFFFFFFFFFFFFF AND SWAP1 POP SWAP2 SWAP1 POP JUMP JUMPDEST PUSH1 0x0 PUSH1 0x4 PUSH1 0x0 DUP4 DUP2 MSTORE PUSH1 0x20 ADD SWAP1 DUP2 MSTORE PUSH1 0x20 ADD PUSH1 0x0 KECCAK256 PUSH1 0x0 ADD SLOAD SWAP1 POP SWAP2 SWAP1 POP JUMP JUMPDEST PUSH1 0x4 PUSH1 0x20 MSTORE DUP1 PUSH1 0x0 MSTORE PUSH1 0x40 PUSH1 0x0 KECCAK256 PUSH1 0x0 SWAP2 POP SWAP1 POP DUP1 PUSH1 0x0 ADD SLOAD SWAP1 DUP1 PUSH1 0x1 ADD SLOAD SWAP1 DUP1 PUSH1 0x2 ADD PUSH1 0x0 SWAP1 SLOAD SWAP1 PUSH2 0x100 EXP SWAP1 DIV PUSH20 0xFFFFFFFFFFFFFFFFFFFFFFFFFFFFFFFFFFFFFFFF AND SWAP1 DUP1 PUSH1 0x2 ADD PUSH1 0x14 SWAP1 SLOAD SWAP1 PUSH2 0x100 EXP SWAP1 DIV PUSH1 0xFF AND SWAP1 POP DUP5 JUMP JUMPDEST PUSH1 0x0 DUP1 SLOAD SWAP1 PUSH2 0x100 EXP SWAP1 DIV PUSH1 0xFF AND ISZERO PUSH2 0x4EE JUMPI PUSH1 0x40 MLOAD PUSH32 0x8C379A000000000000000000000000000000000000000000000000000000000 DUP2 MSTORE PUSH1 0x4 ADD PUSH2 0x4E5 SWAP1 PUSH2 0x1561 JUMP JUMPDEST PUSH1 0x40 MLOAD DUP1 SWAP2 SUB SWAP1 REVERT JUMPDEST PUSH1 0x1 PUSH1 0x0 DUP1 PUSH2 0x100 EXP DUP2 SLOAD DUP2 PUSH1 0xFF MUL NOT AND SWAP1 DUP4 ISZERO ISZERO MUL OR SWAP1 SSTORE POP PUSH1 0x0 PUSH1 0x4 PUSH1 0x0 DUP5 DUP2 MSTORE PUSH1 0x20 ADD SWAP1 DUP2 MSTORE PUSH1 0x20 ADD PUSH1 0x0 KECCAK256 SWAP1 POP PUSH1 0x0 PUSH1 0x5 PUSH1 0x0 DUP5 PUSH20 0xFFFFFFFFFFFFFFFFFFFFFFFFFFFFFFFFFFFFFFFF AND PUSH20 0xFFFFFFFFFFFFFFFFFFFFFFFFFFFFFFFFFFFFFFFF AND DUP2 MSTORE PUSH1 0x20 ADD SWAP1 DUP2 MSTORE PUSH1 0x20 ADD PUSH1 0x0 KECCAK256 DUP1 SLOAD SWAP1 POP GT PUSH1 0x40 MLOAD DUP1 PUSH1 0x40 ADD PUSH1 0x40 MSTORE DUP1 PUSH1 0x19 DUP2 MSTORE PUSH1 0x20 ADD PUSH32 0x596F7520646F6E27742068617665207665737465642051564500000000000000 DUP2 MSTORE POP SWAP1 PUSH2 0x5DC JUMPI PUSH1 0x40 MLOAD PUSH32 0x8C379A000000000000000000000000000000000000000000000000000000000 DUP2 MSTORE PUSH1 0x4 ADD PUSH2 0x5D3 SWAP2 SWAP1 PUSH2 0x1490 JUMP JUMPDEST PUSH1 0x40 MLOAD DUP1 SWAP2 SUB SWAP1 REVERT JUMPDEST POP DUP1 PUSH1 0x0 ADD SLOAD TIMESTAMP LT ISZERO PUSH1 0x40 MLOAD DUP1 PUSH1 0x40 ADD PUSH1 0x40 MSTORE DUP1 PUSH1 0x19 DUP2 MSTORE PUSH1 0x20 ADD PUSH32 0x596F7520646F6E27742068617665207665737465642051564500000000000000 DUP2 MSTORE POP SWAP1 PUSH2 0x65C JUMPI PUSH1 0x40 MLOAD PUSH32 0x8C379A000000000000000000000000000000000000000000000000000000000 DUP2 MSTORE PUSH1 0x4 ADD PUSH2 0x653 SWAP2 SWAP1 PUSH2 0x1490 JUMP JUMPDEST PUSH1 0x40 MLOAD DUP1 SWAP2 SUB SWAP1 REVERT JUMPDEST POP PUSH1 0x0 DUP2 PUSH1 0x0 ADD SLOAD TIMESTAMP PUSH2 0x66F SWAP2 SWAP1 PUSH2 0x1581 JUMP JUMPDEST LT ISZERO PUSH1 0x40 MLOAD DUP1 PUSH1 0x40 ADD PUSH1 0x40 MSTORE DUP1 PUSH1 0x1E DUP2 MSTORE PUSH1 0x20 ADD PUSH32 0x5765206861766520546F6B656E27732076657374696E6720706572696F640000 DUP2 MSTORE POP SWAP1 PUSH2 0x6E8 JUMPI PUSH1 0x40 MLOAD PUSH32 0x8C379A000000000000000000000000000000000000000000000000000000000 DUP2 MSTORE PUSH1 0x4 ADD PUSH2 0x6DF SWAP2 SWAP1 PUSH2 0x1490 JUMP JUMPDEST PUSH1 0x40 MLOAD DUP1 SWAP2 SUB SWAP1 REVERT JUMPDEST POP DUP1 PUSH1 0x2 ADD PUSH1 0x14 SWAP1 SLOAD SWAP1 PUSH2 0x100 EXP SWAP1 DIV PUSH1 0xFF AND ISZERO PUSH1 0x40 MLOAD DUP1 PUSH1 0x40 ADD PUSH1 0x40 MSTORE DUP1 PUSH1 0x18 DUP2 MSTORE PUSH1 0x20 ADD PUSH32 0x56657374696E6720616C72656164792072656C65617365640000000000000000 DUP2 MSTORE POP SWAP1 PUSH2 0x773 JUMPI PUSH1 0x40 MLOAD PUSH32 0x8C379A000000000000000000000000000000000000000000000000000000000 DUP2 MSTORE PUSH1 0x4 ADD PUSH2 0x76A SWAP2 SWAP1 PUSH2 0x1490 JUMP JUMPDEST PUSH1 0x40 MLOAD DUP1 SWAP2 SUB SWAP1 REVERT JUMPDEST POP PUSH2 0x77E DUP4 DUP4 PUSH2 0xC84 JUMP JUMPDEST POP PUSH1 0x3 PUSH1 0x0 SWAP1 SLOAD SWAP1 PUSH2 0x100 EXP SWAP1 DIV PUSH20 0xFFFFFFFFFFFFFFFFFFFFFFFFFFFFFFFFFFFFFFFF AND PUSH20 0xFFFFFFFFFFFFFFFFFFFFFFFFFFFFFFFFFFFFFFFF AND PUSH4 0xFC029C8F DUP3 PUSH1 0x1 ADD SLOAD ADDRESS PUSH1 0x40 MLOAD DUP4 PUSH4 0xFFFFFFFF AND PUSH1 0xE0 SHL DUP2 MSTORE PUSH1 0x4 ADD PUSH2 0x7E0 SWAP3 SWAP2 SWAP1 PUSH2 0x15B5 JUMP JUMPDEST PUSH1 0x20 PUSH1 0x40 MLOAD DUP1 DUP4 SUB DUP2 PUSH1 0x0 DUP8 GAS CALL ISZERO DUP1 ISZERO PUSH2 0x7FF JUMPI RETURNDATASIZE PUSH1 0x0 DUP1 RETURNDATACOPY RETURNDATASIZE PUSH1 0x0 REVERT JUMPDEST POP POP POP POP PUSH1 0x40 MLOAD RETURNDATASIZE PUSH1 0x1F NOT PUSH1 0x1F DUP3 ADD AND DUP3 ADD DUP1 PUSH1 0x40 MSTORE POP DUP2 ADD SWAP1 PUSH2 0x823 SWAP2 SWAP1 PUSH2 0x160A JUMP JUMPDEST POP PUSH2 0x830 DUP4 DUP4 PUSH1 0x1 PUSH2 0xD42 JUMP JUMPDEST POP DUP1 PUSH1 0x2 ADD PUSH1 0x0 SWAP1 SLOAD SWAP1 PUSH2 0x100 EXP SWAP1 DIV PUSH20 0xFFFFFFFFFFFFFFFFFFFFFFFFFFFFFFFFFFFFFFFF AND PUSH20 0xFFFFFFFFFFFFFFFFFFFFFFFFFFFFFFFFFFFFFFFF AND DUP4 PUSH32 0x295AC83A3C5CF518A125BA974BE97DCA6A668BAE6DD90B6902B2618CDFF1FCC6 DUP4 PUSH1 0x1 ADD SLOAD PUSH1 0x40 MLOAD PUSH2 0x8A0 SWAP2 SWAP1 PUSH2 0x118A JUMP JUMPDEST PUSH1 0x40 MLOAD DUP1 SWAP2 SUB SWAP1 LOG3 POP PUSH1 0x0 DUP1 PUSH1 0x0 PUSH2 0x100 EXP DUP2 SLOAD DUP2 PUSH1 0xFF MUL NOT AND SWAP1 DUP4 ISZERO ISZERO MUL OR SWAP1 SSTORE POP POP POP JUMP JUMPDEST PUSH1 0x5 PUSH1 0x20 MSTORE DUP2 PUSH1 0x0 MSTORE PUSH1 0x40 PUSH1 0x0 KECCAK256 DUP2 DUP2 SLOAD DUP2 LT PUSH2 0x8E3 JUMPI PUSH1 0x0 DUP1 REVERT JUMPDEST SWAP1 PUSH1 0x0 MSTORE PUSH1 0x20 PUSH1 0x0 KECCAK256 ADD PUSH1 0x0 SWAP2 POP SWAP2 POP POP SLOAD DUP2 JUMP JUMPDEST PUSH1 0x6 SLOAD DUP2 JUMP JUMPDEST PUSH1 0x0 PUSH1 0x4 PUSH1 0x0 DUP4 DUP2 MSTORE PUSH1 0x20 ADD SWAP1 DUP2 MSTORE PUSH1 0x20 ADD PUSH1 0x0 KECCAK256 PUSH1 0x1 ADD SLOAD SWAP1 POP SWAP2 SWAP1 POP JUMP JUMPDEST PUSH1 0x0 DUP1 PUSH1 0x0 SWAP1 SLOAD SWAP1 PUSH2 0x100 EXP SWAP1 DIV PUSH1 0xFF AND ISZERO PUSH2 0x96F JUMPI PUSH1 0x40 MLOAD PUSH32 0x8C379A000000000000000000000000000000000000000000000000000000000 DUP2 MSTORE PUSH1 0x4 ADD PUSH2 0x966 SWAP1 PUSH2 0x1561 JUMP JUMPDEST PUSH1 0x40 MLOAD DUP1 SWAP2 SUB SWAP1 REVERT JUMPDEST PUSH1 0x1 PUSH1 0x0 DUP1 PUSH2 0x100 EXP DUP2 SLOAD DUP2 PUSH1 0xFF MUL NOT AND SWAP1 DUP4 ISZERO ISZERO MUL OR SWAP1 SSTORE POP PUSH1 0x3 PUSH1 0x0 SWAP1 SLOAD SWAP1 PUSH2 0x100 EXP SWAP1 DIV PUSH20 0xFFFFFFFFFFFFFFFFFFFFFFFFFFFFFFFFFFFFFFFF AND PUSH20 0xFFFFFFFFFFFFFFFFFFFFFFFFFFFFFFFFFFFFFFFF AND PUSH4 0x469895C8 DUP4 ADDRESS DUP7 PUSH1 0x40 MLOAD DUP5 PUSH4 0xFFFFFFFF AND PUSH1 0xE0 SHL DUP2 MSTORE PUSH1 0x4 ADD PUSH2 0x9E8 SWAP4 SWAP3 SWAP2 SWAP1 PUSH2 0x1637 JUMP JUMPDEST PUSH1 0x20 PUSH1 0x40 MLOAD DUP1 DUP4 SUB DUP2 PUSH1 0x0 DUP8 GAS CALL ISZERO DUP1 ISZERO PUSH2 0xA07 JUMPI RETURNDATASIZE PUSH1 0x0 DUP1 RETURNDATACOPY RETURNDATASIZE PUSH1 0x0 REVERT JUMPDEST POP POP POP POP PUSH1 0x40 MLOAD RETURNDATASIZE PUSH1 0x1F NOT PUSH1 0x1F DUP3 ADD AND DUP3 ADD DUP1 PUSH1 0x40 MSTORE POP DUP2 ADD SWAP1 PUSH2 0xA2B SWAP2 SWAP1 PUSH2 0x160A JUMP JUMPDEST PUSH2 0xA34 JUMPI PUSH1 0x0 DUP1 REVERT JUMPDEST PUSH2 0xA49 DUP4 PUSH1 0x6 SLOAD PUSH2 0x1137 SWAP1 SWAP2 SWAP1 PUSH4 0xFFFFFFFF AND JUMP JUMPDEST PUSH1 0x6 DUP2 SWAP1 SSTORE POP PUSH1 0x40 MLOAD DUP1 PUSH1 0x80 ADD PUSH1 0x40 MSTORE DUP1 TIMESTAMP DUP2 MSTORE PUSH1 0x20 ADD DUP5 DUP2 MSTORE PUSH1 0x20 ADD DUP4 PUSH20 0xFFFFFFFFFFFFFFFFFFFFFFFFFFFFFFFFFFFFFFFF AND DUP2 MSTORE PUSH1 0x20 ADD PUSH1 0x0 ISZERO ISZERO DUP2 MSTORE POP PUSH1 0x4 PUSH1 0x0 PUSH2 0xA97 PUSH1 0x1 PUSH2 0x114D JUMP JUMPDEST DUP2 MSTORE PUSH1 0x20 ADD SWAP1 DUP2 MSTORE PUSH1 0x20 ADD PUSH1 0x0 KECCAK256 PUSH1 0x0 DUP3 ADD MLOAD DUP2 PUSH1 0x0 ADD SSTORE PUSH1 0x20 DUP3 ADD MLOAD DUP2 PUSH1 0x1 ADD SSTORE PUSH1 0x40 DUP3 ADD MLOAD DUP2 PUSH1 0x2 ADD PUSH1 0x0 PUSH2 0x100 EXP DUP2 SLOAD DUP2 PUSH20 0xFFFFFFFFFFFFFFFFFFFFFFFFFFFFFFFFFFFFFFFF MUL NOT AND SWAP1 DUP4 PUSH20 0xFFFFFFFFFFFFFFFFFFFFFFFFFFFFFFFFFFFFFFFF AND MUL OR SWAP1 SSTORE POP PUSH1 0x60 DUP3 ADD MLOAD DUP2 PUSH1 0x2 ADD PUSH1 0x14 PUSH2 0x100 EXP DUP2 SLOAD DUP2 PUSH1 0xFF MUL NOT AND SWAP1 DUP4 ISZERO ISZERO MUL OR SWAP1 SSTORE POP SWAP1 POP POP PUSH1 0x5 PUSH1 0x0 DUP4 PUSH20 0xFFFFFFFFFFFFFFFFFFFFFFFFFFFFFFFFFFFFFFFF AND PUSH20 0xFFFFFFFFFFFFFFFFFFFFFFFFFFFFFFFFFFFFFFFF AND DUP2 MSTORE PUSH1 0x20 ADD SWAP1 DUP2 MSTORE PUSH1 0x20 ADD PUSH1 0x0 KECCAK256 PUSH2 0xB6C PUSH1 0x1 PUSH2 0x114D JUMP JUMPDEST SWAP1 DUP1 PUSH1 0x1 DUP2 SLOAD ADD DUP1 DUP3 SSTORE DUP1 SWAP2 POP POP PUSH1 0x1 SWAP1 SUB SWAP1 PUSH1 0x0 MSTORE PUSH1 0x20 PUSH1 0x0 KECCAK256 ADD PUSH1 0x0 SWAP1 SWAP2 SWAP1 SWAP2 SWAP1 SWAP2 POP SSTORE DUP2 PUSH20 0xFFFFFFFFFFFFFFFFFFFFFFFFFFFFFFFFFFFFFFFF AND PUSH2 0xBB3 PUSH1 0x1 PUSH2 0x114D JUMP JUMPDEST PUSH32 0xFBD41C6118C5ED14F196C270A1793D95E8517E43031D9BB61AA71CB2A38BF557 DUP6 PUSH1 0x40 MLOAD PUSH2 0xBE2 SWAP2 SWAP1 PUSH2 0x118A JUMP JUMPDEST PUSH1 0x40 MLOAD DUP1 SWAP2 SUB SWAP1 LOG3 PUSH2 0xBF4 PUSH1 0x1 PUSH2 0x115B JUMP JUMPDEST PUSH1 0x1 SWAP1 POP PUSH1 0x0 DUP1 PUSH1 0x0 PUSH2 0x100 EXP DUP2 SLOAD DUP2 PUSH1 0xFF MUL NOT AND SWAP1 DUP4 ISZERO ISZERO MUL OR SWAP1 SSTORE POP SWAP3 SWAP2 POP POP JUMP JUMPDEST PUSH1 0x0 PUSH1 0x2 PUSH1 0x0 SWAP1 SLOAD SWAP1 PUSH2 0x100 EXP SWAP1 DIV PUSH20 0xFFFFFFFFFFFFFFFFFFFFFFFFFFFFFFFFFFFFFFFF AND SWAP1 POP SWAP1 JUMP JUMPDEST PUSH1 0x0 DUP2 DUP4 PUSH2 0xC50 SWAP2 SWAP1 PUSH2 0x1581 JUMP JUMPDEST SWAP1 POP SWAP3 SWAP2 POP POP JUMP JUMPDEST PUSH1 0x0 DUP2 DUP4 PUSH2 0xC66 SWAP2 SWAP1 PUSH2 0x166E JUMP JUMPDEST SWAP1 POP SWAP3 SWAP2 POP POP JUMP JUMPDEST PUSH1 0x0 DUP2 DUP4 PUSH2 0xC7C SWAP2 SWAP1 PUSH2 0x16DF JUMP JUMPDEST SWAP1 POP SWAP3 SWAP2 POP POP JUMP JUMPDEST PUSH1 0x0 PUSH1 0x2 PUSH1 0x0 SWAP1 SLOAD SWAP1 PUSH2 0x100 EXP SWAP1 DIV PUSH20 0xFFFFFFFFFFFFFFFFFFFFFFFFFFFFFFFFFFFFFFFF AND PUSH20 0xFFFFFFFFFFFFFFFFFFFFFFFFFFFFFFFFFFFFFFFF AND PUSH4 0x5F367B03 DUP4 PUSH2 0xCCF DUP7 DUP7 PUSH2 0x27C JUMP JUMPDEST PUSH1 0x40 MLOAD DUP4 PUSH4 0xFFFFFFFF AND PUSH1 0xE0 SHL DUP2 MSTORE PUSH1 0x4 ADD PUSH2 0xCEC SWAP3 SWAP2 SWAP1 PUSH2 0x1710 JUMP JUMPDEST PUSH1 0x20 PUSH1 0x40 MLOAD DUP1 DUP4 SUB DUP2 PUSH1 0x0 DUP8 GAS CALL ISZERO DUP1 ISZERO PUSH2 0xD0B JUMPI RETURNDATASIZE PUSH1 0x0 DUP1 RETURNDATACOPY RETURNDATASIZE PUSH1 0x0 REVERT JUMPDEST POP POP POP POP PUSH1 0x40 MLOAD RETURNDATASIZE PUSH1 0x1F NOT PUSH1 0x1F DUP3 ADD AND DUP3 ADD DUP1 PUSH1 0x40 MSTORE POP DUP2 ADD SWAP1 PUSH2 0xD2F SWAP2 SWAP1 PUSH2 0x160A JUMP JUMPDEST PUSH2 0xD38 JUMPI PUSH1 0x0 DUP1 REVERT JUMPDEST PUSH1 0x1 SWAP1 POP SWAP3 SWAP2 POP POP JUMP JUMPDEST PUSH1 0x0 DUP3 PUSH1 0x0 PUSH1 0x5 PUSH1 0x0 DUP4 PUSH20 0xFFFFFFFFFFFFFFFFFFFFFFFFFFFFFFFFFFFFFFFF AND PUSH20 0xFFFFFFFFFFFFFFFFFFFFFFFFFFFFFFFFFFFFFFFF AND DUP2 MSTORE PUSH1 0x20 ADD SWAP1 DUP2 MSTORE PUSH1 0x20 ADD PUSH1 0x0 KECCAK256 DUP1 SLOAD SWAP1 POP GT PUSH1 0x40 MLOAD DUP1 PUSH1 0x40 ADD PUSH1 0x40 MSTORE DUP1 PUSH1 0x19 DUP2 MSTORE PUSH1 0x20 ADD PUSH32 0x596F7520646F6E27742068617665207665737465642051564500000000000000 DUP2 MSTORE POP SWAP1 PUSH2 0xE02 JUMPI PUSH1 0x40 MLOAD PUSH32 0x8C379A000000000000000000000000000000000000000000000000000000000 DUP2 MSTORE PUSH1 0x4 ADD PUSH2 0xDF9 SWAP2 SWAP1 PUSH2 0x1490 JUMP JUMPDEST PUSH1 0x40 MLOAD DUP1 SWAP2 SUB SWAP1 REVERT JUMPDEST POP PUSH1 0x0 PUSH1 0x5 PUSH1 0x0 DUP7 PUSH20 0xFFFFFFFFFFFFFFFFFFFFFFFFFFFFFFFFFFFFFFFF AND PUSH20 0xFFFFFFFFFFFFFFFFFFFFFFFFFFFFFFFFFFFFFFFF AND DUP2 MSTORE PUSH1 0x20 ADD SWAP1 DUP2 MSTORE PUSH1 0x20 ADD PUSH1 0x0 KECCAK256 SWAP1 POP PUSH1 0x0 PUSH1 0x4 PUSH1 0x0 DUP9 DUP2 MSTORE PUSH1 0x20 ADD SWAP1 DUP2 MSTORE PUSH1 0x20 ADD PUSH1 0x0 KECCAK256 SWAP1 POP PUSH1 0x0 PUSH20 0xFFFFFFFFFFFFFFFFFFFFFFFFFFFFFFFFFFFFFFFF AND DUP2 PUSH1 0x2 ADD PUSH1 0x0 SWAP1 SLOAD SWAP1 PUSH2 0x100 EXP SWAP1 DIV PUSH20 0xFFFFFFFFFFFFFFFFFFFFFFFFFFFFFFFFFFFFFFFF AND PUSH20 0xFFFFFFFFFFFFFFFFFFFFFFFFFFFFFFFFFFFFFFFF AND EQ ISZERO PUSH1 0x40 MLOAD DUP1 PUSH1 0x40 ADD PUSH1 0x40 MSTORE DUP1 PUSH1 0x1B DUP2 MSTORE PUSH1 0x20 ADD PUSH32 0x496E76616C69642062656E656669636961727920616464726573730000000000 DUP2 MSTORE POP SWAP1 PUSH2 0xF29 JUMPI PUSH1 0x40 MLOAD PUSH32 0x8C379A000000000000000000000000000000000000000000000000000000000 DUP2 MSTORE PUSH1 0x4 ADD PUSH2 0xF20 SWAP2 SWAP1 PUSH2 0x1490 JUMP JUMPDEST PUSH1 0x40 MLOAD DUP1 SWAP2 SUB SWAP1 REVERT JUMPDEST POP DUP1 PUSH1 0x2 ADD PUSH1 0x14 SWAP1 SLOAD SWAP1 PUSH2 0x100 EXP SWAP1 DIV PUSH1 0xFF AND ISZERO PUSH1 0x40 MLOAD DUP1 PUSH1 0x40 ADD PUSH1 0x40 MSTORE DUP1 PUSH1 0x18 DUP2 MSTORE PUSH1 0x20 ADD PUSH32 0x56657374696E6720616C72656164792072656C65617365640000000000000000 DUP2 MSTORE POP SWAP1 PUSH2 0xFB4 JUMPI PUSH1 0x40 MLOAD PUSH32 0x8C379A000000000000000000000000000000000000000000000000000000000 DUP2 MSTORE PUSH1 0x4 ADD PUSH2 0xFAB SWAP2 SWAP1 PUSH2 0x1490 JUMP JUMPDEST PUSH1 0x40 MLOAD DUP1 SWAP2 SUB SWAP1 REVERT JUMPDEST POP PUSH2 0xFCE DUP2 PUSH1 0x1 ADD SLOAD PUSH1 0x6 SLOAD PUSH2 0xC42 SWAP1 SWAP2 SWAP1 PUSH4 0xFFFFFFFF AND JUMP JUMPDEST PUSH1 0x6 DUP2 SWAP1 SSTORE POP PUSH1 0x0 JUMPDEST DUP3 DUP1 SLOAD SWAP1 POP DUP2 LT ISZERO PUSH2 0x10B1 JUMPI DUP8 DUP4 DUP3 DUP2 SLOAD DUP2 LT PUSH2 0xFF7 JUMPI PUSH2 0xFF6 PUSH2 0x1739 JUMP JUMPDEST JUMPDEST SWAP1 PUSH1 0x0 MSTORE PUSH1 0x20 PUSH1 0x0 KECCAK256 ADD SLOAD SUB PUSH2 0x109E JUMPI DUP3 PUSH1 0x1 DUP5 DUP1 SLOAD SWAP1 POP PUSH2 0x1019 SWAP2 SWAP1 PUSH2 0x1581 JUMP JUMPDEST DUP2 SLOAD DUP2 LT PUSH2 0x102A JUMPI PUSH2 0x1029 PUSH2 0x1739 JUMP JUMPDEST JUMPDEST SWAP1 PUSH1 0x0 MSTORE PUSH1 0x20 PUSH1 0x0 KECCAK256 ADD SLOAD DUP4 DUP3 DUP2 SLOAD DUP2 LT PUSH2 0x1048 JUMPI PUSH2 0x1047 PUSH2 0x1739 JUMP JUMPDEST JUMPDEST SWAP1 PUSH1 0x0 MSTORE PUSH1 0x20 PUSH1 0x0 KECCAK256 ADD DUP2 SWAP1 SSTORE POP DUP3 DUP1 SLOAD DUP1 PUSH2 0x1067 JUMPI PUSH2 0x1066 PUSH2 0x1768 JUMP JUMPDEST JUMPDEST PUSH1 0x1 SWAP1 SUB DUP2 DUP2 SWAP1 PUSH1 0x0 MSTORE PUSH1 0x20 PUSH1 0x0 KECCAK256 ADD PUSH1 0x0 SWAP1 SSTORE SWAP1 SSTORE DUP6 DUP3 PUSH1 0x2 ADD PUSH1 0x14 PUSH2 0x100 EXP DUP2 SLOAD DUP2 PUSH1 0xFF MUL NOT AND SWAP1 DUP4 ISZERO ISZERO MUL OR SWAP1 SSTORE POP PUSH2 0x10B1 JUMP JUMPDEST DUP1 DUP1 PUSH2 0x10A9 SWAP1 PUSH2 0x1797 JUMP JUMPDEST SWAP2 POP POP PUSH2 0xFD7 JUMP JUMPDEST POP DUP1 PUSH1 0x2 ADD PUSH1 0x0 SWAP1 SLOAD SWAP1 PUSH2 0x100 EXP SWAP1 DIV PUSH20 0xFFFFFFFFFFFFFFFFFFFFFFFFFFFFFFFFFFFFFFFF AND PUSH20 0xFFFFFFFFFFFFFFFFFFFFFFFFFFFFFFFFFFFFFFFF AND DUP8 PUSH32 0xDC8B9C8CC0C8D05E10824E69EE88995716A539AF94A1C60FB9898367F613477C DUP4 PUSH1 0x1 ADD SLOAD PUSH1 0x40 MLOAD PUSH2 0x1121 SWAP2 SWAP1 PUSH2 0x118A JUMP JUMPDEST PUSH1 0x40 MLOAD DUP1 SWAP2 SUB SWAP1 LOG3 PUSH1 0x1 SWAP4 POP POP POP POP SWAP4 SWAP3 POP POP POP JUMP JUMPDEST PUSH1 0x0 DUP2 DUP4 PUSH2 0x1145 SWAP2 SWAP1 PUSH2 0x14E1 JUMP JUMPDEST SWAP1 POP SWAP3 SWAP2 POP POP JUMP JUMPDEST PUSH1 0x0 DUP2 PUSH1 0x0 ADD SLOAD SWAP1 POP SWAP2 SWAP1 POP JUMP JUMPDEST PUSH1 0x1 DUP2 PUSH1 0x0 ADD PUSH1 0x0 DUP3 DUP3 SLOAD ADD SWAP3 POP POP DUP2 SWAP1 SSTORE POP POP JUMP JUMPDEST PUSH1 0x0 DUP2 SWAP1 POP SWAP2 SWAP1 POP JUMP JUMPDEST PUSH2 0x1184 DUP2 PUSH2 0x1171 JUMP JUMPDEST DUP3 MSTORE POP POP JUMP JUMPDEST PUSH1 0x0 PUSH1 0x20 DUP3 ADD SWAP1 POP PUSH2 0x119F PUSH1 0x0 DUP4 ADD DUP5 PUSH2 0x117B JUMP JUMPDEST SWAP3 SWAP2 POP POP JUMP JUMPDEST PUSH1 0x0 DUP1 REVERT JUMPDEST PUSH2 0x11B3 DUP2 PUSH2 0x1171 JUMP JUMPDEST DUP2 EQ PUSH2 0x11BE JUMPI PUSH1 0x0 DUP1 REVERT JUMPDEST POP JUMP JUMPDEST PUSH1 0x0 DUP2 CALLDATALOAD SWAP1 POP PUSH2 0x11D0 DUP2 PUSH2 0x11AA JUMP JUMPDEST SWAP3 SWAP2 POP POP JUMP JUMPDEST PUSH1 0x0 PUSH20 0xFFFFFFFFFFFFFFFFFFFFFFFFFFFFFFFFFFFFFFFF DUP3 AND SWAP1 POP SWAP2 SWAP1 POP JUMP JUMPDEST PUSH1 0x0 PUSH2 0x1201 DUP3 PUSH2 0x11D6 JUMP JUMPDEST SWAP1 POP SWAP2 SWAP1 POP JUMP JUMPDEST PUSH2 0x1211 DUP2 PUSH2 0x11F6 JUMP JUMPDEST DUP2 EQ PUSH2 0x121C JUMPI PUSH1 0x0 DUP1 REVERT JUMPDEST POP JUMP JUMPDEST PUSH1 0x0 DUP2 CALLDATALOAD SWAP1 POP PUSH2 0x122E DUP2 PUSH2 0x1208 JUMP JUMPDEST SWAP3 SWAP2 POP POP JUMP JUMPDEST PUSH1 0x0 DUP1 PUSH1 0x40 DUP4 DUP6 SUB SLT ISZERO PUSH2 0x124B JUMPI PUSH2 0x124A PUSH2 0x11A5 JUMP JUMPDEST JUMPDEST PUSH1 0x0 PUSH2 0x1259 DUP6 DUP3 DUP7 ADD PUSH2 0x11C1 JUMP JUMPDEST SWAP3 POP POP PUSH1 0x20 PUSH2 0x126A DUP6 DUP3 DUP7 ADD PUSH2 0x121F JUMP JUMPDEST SWAP2 POP POP SWAP3 POP SWAP3 SWAP1 POP JUMP JUMPDEST PUSH1 0x0 PUSH1 0x20 DUP3 DUP5 SUB SLT ISZERO PUSH2 0x128A JUMPI PUSH2 0x1289 PUSH2 0x11A5 JUMP JUMPDEST JUMPDEST PUSH1 0x0 PUSH2 0x1298 DUP5 DUP3 DUP6 ADD PUSH2 0x11C1 JUMP JUMPDEST SWAP2 POP POP SWAP3 SWAP2 POP POP JUMP JUMPDEST PUSH2 0x12AA DUP2 PUSH2 0x11F6 JUMP JUMPDEST DUP3 MSTORE POP POP JUMP JUMPDEST PUSH1 0x0 PUSH1 0x20 DUP3 ADD SWAP1 POP PUSH2 0x12C5 PUSH1 0x0 DUP4 ADD DUP5 PUSH2 0x12A1 JUMP JUMPDEST SWAP3 SWAP2 POP POP JUMP JUMPDEST PUSH1 0x0 DUP2 ISZERO ISZERO SWAP1 POP SWAP2 SWAP1 POP JUMP JUMPDEST PUSH2 0x12E0 DUP2 PUSH2 0x12CB JUMP JUMPDEST DUP3 MSTORE POP POP JUMP JUMPDEST PUSH1 0x0 PUSH1 0x80 DUP3 ADD SWAP1 POP PUSH2 0x12FB PUSH1 0x0 DUP4 ADD DUP8 PUSH2 0x117B JUMP JUMPDEST PUSH2 0x1308 PUSH1 0x20 DUP4 ADD DUP7 PUSH2 0x117B JUMP JUMPDEST PUSH2 0x1315 PUSH1 0x40 DUP4 ADD DUP6 PUSH2 0x12A1 JUMP JUMPDEST PUSH2 0x1322 PUSH1 0x60 DUP4 ADD DUP5 PUSH2 0x12D7 JUMP JUMPDEST SWAP6 SWAP5 POP POP POP POP POP JUMP JUMPDEST PUSH1 0x0 DUP1 PUSH1 0x40 DUP4 DUP6 SUB SLT ISZERO PUSH2 0x1342 JUMPI PUSH2 0x1341 PUSH2 0x11A5 JUMP JUMPDEST JUMPDEST PUSH1 0x0 PUSH2 0x1350 DUP6 DUP3 DUP7 ADD PUSH2 0x121F JUMP JUMPDEST SWAP3 POP POP PUSH1 0x20 PUSH2 0x1361 DUP6 DUP3 DUP7 ADD PUSH2 0x11C1 JUMP JUMPDEST SWAP2 POP POP SWAP3 POP SWAP3 SWAP1 POP JUMP JUMPDEST PUSH1 0x0 PUSH1 0x20 DUP3 ADD SWAP1 POP PUSH2 0x1380 PUSH1 0x0 DUP4 ADD DUP5 PUSH2 0x12D7 JUMP JUMPDEST SWAP3 SWAP2 POP POP JUMP JUMPDEST PUSH1 0x0 DUP2 SWAP1 POP SWAP2 SWAP1 POP JUMP JUMPDEST PUSH1 0x0 PUSH2 0x13AB PUSH2 0x13A6 PUSH2 0x13A1 DUP5 PUSH2 0x11D6 JUMP JUMPDEST PUSH2 0x1386 JUMP JUMPDEST PUSH2 0x11D6 JUMP JUMPDEST SWAP1 POP SWAP2 SWAP1 POP JUMP JUMPDEST PUSH1 0x0 PUSH2 0x13BD DUP3 PUSH2 0x1390 JUMP JUMPDEST SWAP1 POP SWAP2 SWAP1 POP JUMP JUMPDEST PUSH1 0x0 PUSH2 0x13CF DUP3 PUSH2 0x13B2 JUMP JUMPDEST SWAP1 POP SWAP2 SWAP1 POP JUMP JUMPDEST PUSH2 0x13DF DUP2 PUSH2 0x13C4 JUMP JUMPDEST DUP3 MSTORE POP POP JUMP JUMPDEST PUSH1 0x0 PUSH1 0x20 DUP3 ADD SWAP1 POP PUSH2 0x13FA PUSH1 0x0 DUP4 ADD DUP5 PUSH2 0x13D6 JUMP JUMPDEST SWAP3 SWAP2 POP POP JUMP JUMPDEST PUSH1 0x0 DUP2 MLOAD SWAP1 POP SWAP2 SWAP1 POP JUMP JUMPDEST PUSH1 0x0 DUP3 DUP3 MSTORE PUSH1 0x20 DUP3 ADD SWAP1 POP SWAP3 SWAP2 POP POP JUMP JUMPDEST PUSH1 0x0 JUMPDEST DUP4 DUP2 LT ISZERO PUSH2 0x143A JUMPI DUP1 DUP3 ADD MLOAD DUP2 DUP5 ADD MSTORE PUSH1 0x20 DUP2 ADD SWAP1 POP PUSH2 0x141F JUMP JUMPDEST PUSH1 0x0 DUP5 DUP5 ADD MSTORE POP POP POP POP JUMP JUMPDEST PUSH1 0x0 PUSH1 0x1F NOT PUSH1 0x1F DUP4 ADD AND SWAP1 POP SWAP2 SWAP1 POP JUMP JUMPDEST PUSH1 0x0 PUSH2 0x1462 DUP3 PUSH2 0x1400 JUMP JUMPDEST PUSH2 0x146C DUP2 DUP6 PUSH2 0x140B JUMP JUMPDEST SWAP4 POP PUSH2 0x147C DUP2 DUP6 PUSH1 0x20 DUP7 ADD PUSH2 0x141C JUMP JUMPDEST PUSH2 0x1485 DUP2 PUSH2 0x1446 JUMP JUMPDEST DUP5 ADD SWAP2 POP POP SWAP3 SWAP2 POP POP JUMP JUMPDEST PUSH1 0x0 PUSH1 0x20 DUP3 ADD SWAP1 POP DUP2 DUP2 SUB PUSH1 0x0 DUP4 ADD MSTORE PUSH2 0x14AA DUP2 DUP5 PUSH2 0x1457 JUMP JUMPDEST SWAP1 POP SWAP3 SWAP2 POP POP JUMP JUMPDEST PUSH32 0x4E487B7100000000000000000000000000000000000000000000000000000000 PUSH1 0x0 MSTORE PUSH1 0x11 PUSH1 0x4 MSTORE PUSH1 0x24 PUSH1 0x0 REVERT JUMPDEST PUSH1 0x0 PUSH2 0x14EC DUP3 PUSH2 0x1171 JUMP JUMPDEST SWAP2 POP PUSH2 0x14F7 DUP4 PUSH2 0x1171 JUMP JUMPDEST SWAP3 POP DUP3 DUP3 ADD SWAP1 POP DUP1 DUP3 GT ISZERO PUSH2 0x150F JUMPI PUSH2 0x150E PUSH2 0x14B2 JUMP JUMPDEST JUMPDEST SWAP3 SWAP2 POP POP JUMP JUMPDEST PUSH32 0x4E6F205265456E7472616E637900000000000000000000000000000000000000 PUSH1 0x0 DUP3 ADD MSTORE POP JUMP JUMPDEST PUSH1 0x0 PUSH2 0x154B PUSH1 0xD DUP4 PUSH2 0x140B JUMP JUMPDEST SWAP2 POP PUSH2 0x1556 DUP3 PUSH2 0x1515 JUMP JUMPDEST PUSH1 0x20 DUP3 ADD SWAP1 POP SWAP2 SWAP1 POP JUMP JUMPDEST PUSH1 0x0 PUSH1 0x20 DUP3 ADD SWAP1 POP DUP2 DUP2 SUB PUSH1 0x0 DUP4 ADD MSTORE PUSH2 0x157A DUP2 PUSH2 0x153E JUMP JUMPDEST SWAP1 POP SWAP2 SWAP1 POP JUMP JUMPDEST PUSH1 0x0 PUSH2 0x158C DUP3 PUSH2 0x1171 JUMP JUMPDEST SWAP2 POP PUSH2 0x1597 DUP4 PUSH2 0x1171 JUMP JUMPDEST SWAP3 POP DUP3 DUP3 SUB SWAP1 POP DUP2 DUP2 GT ISZERO PUSH2 0x15AF JUMPI PUSH2 0x15AE PUSH2 0x14B2 JUMP JUMPDEST JUMPDEST SWAP3 SWAP2 POP POP JUMP JUMPDEST PUSH1 0x0 PUSH1 0x40 DUP3 ADD SWAP1 POP PUSH2 0x15CA PUSH1 0x0 DUP4 ADD DUP6 PUSH2 0x117B JUMP JUMPDEST PUSH2 0x15D7 PUSH1 0x20 DUP4 ADD DUP5 PUSH2 0x12A1 JUMP JUMPDEST SWAP4 SWAP3 POP POP POP JUMP JUMPDEST PUSH2 0x15E7 DUP2 PUSH2 0x12CB JUMP JUMPDEST DUP2 EQ PUSH2 0x15F2 JUMPI PUSH1 0x0 DUP1 REVERT JUMPDEST POP JUMP JUMPDEST PUSH1 0x0 DUP2 MLOAD SWAP1 POP PUSH2 0x1604 DUP2 PUSH2 0x15DE JUMP JUMPDEST SWAP3 SWAP2 POP POP JUMP JUMPDEST PUSH1 0x0 PUSH1 0x20 DUP3 DUP5 SUB SLT ISZERO PUSH2 0x1620 JUMPI PUSH2 0x161F PUSH2 0x11A5 JUMP JUMPDEST JUMPDEST PUSH1 0x0 PUSH2 0x162E DUP5 DUP3 DUP6 ADD PUSH2 0x15F5 JUMP JUMPDEST SWAP2 POP POP SWAP3 SWAP2 POP POP JUMP JUMPDEST PUSH1 0x0 PUSH1 0x60 DUP3 ADD SWAP1 POP PUSH2 0x164C PUSH1 0x0 DUP4 ADD DUP7 PUSH2 0x12A1 JUMP JUMPDEST PUSH2 0x1659 PUSH1 0x20 DUP4 ADD DUP6 PUSH2 0x12A1 JUMP JUMPDEST PUSH2 0x1666 PUSH1 0x40 DUP4 ADD DUP5 PUSH2 0x117B JUMP JUMPDEST SWAP5 SWAP4 POP POP POP POP JUMP JUMPDEST PUSH1 0x0 PUSH2 0x1679 DUP3 PUSH2 0x1171 JUMP JUMPDEST SWAP2 POP PUSH2 0x1684 DUP4 PUSH2 0x1171 JUMP JUMPDEST SWAP3 POP DUP3 DUP3 MUL PUSH2 0x1692 DUP2 PUSH2 0x1171 JUMP JUMPDEST SWAP2 POP DUP3 DUP3 DIV DUP5 EQ DUP4 ISZERO OR PUSH2 0x16A9 JUMPI PUSH2 0x16A8 PUSH2 0x14B2 JUMP JUMPDEST JUMPDEST POP SWAP3 SWAP2 POP POP JUMP JUMPDEST PUSH32 0x4E487B7100000000000000000000000000000000000000000000000000000000 PUSH1 0x0 MSTORE PUSH1 0x12 PUSH1 0x4 MSTORE PUSH1 0x24 PUSH1 0x0 REVERT JUMPDEST PUSH1 0x0 PUSH2 0x16EA DUP3 PUSH2 0x1171 JUMP JUMPDEST SWAP2 POP PUSH2 0x16F5 DUP4 PUSH2 0x1171 JUMP JUMPDEST SWAP3 POP DUP3 PUSH2 0x1705 JUMPI PUSH2 0x1704 PUSH2 0x16B0 JUMP JUMPDEST JUMPDEST DUP3 DUP3 DIV SWAP1 POP SWAP3 SWAP2 POP POP JUMP JUMPDEST PUSH1 0x0 PUSH1 0x40 DUP3 ADD SWAP1 POP PUSH2 0x1725 PUSH1 0x0 DUP4 ADD DUP6 PUSH2 0x12A1 JUMP JUMPDEST PUSH2 0x1732 PUSH1 0x20 DUP4 ADD DUP5 PUSH2 0x117B JUMP JUMPDEST SWAP4 SWAP3 POP POP POP JUMP JUMPDEST PUSH32 0x4E487B7100000000000000000000000000000000000000000000000000000000 PUSH1 0x0 MSTORE PUSH1 0x32 PUSH1 0x4 MSTORE PUSH1 0x24 PUSH1 0x0 REVERT JUMPDEST PUSH32 0x4E487B7100000000000000000000000000000000000000000000000000000000 PUSH1 0x0 MSTORE PUSH1 0x31 PUSH1 0x4 MSTORE PUSH1 0x24 PUSH1 0x0 REVERT JUMPDEST PUSH1 0x0 PUSH2 0x17A2 DUP3 PUSH2 0x1171 JUMP JUMPDEST SWAP2 POP PUSH32 0xFFFFFFFFFFFFFFFFFFFFFFFFFFFFFFFFFFFFFFFFFFFFFFFFFFFFFFFFFFFFFFFF DUP3 SUB PUSH2 0x17D4 JUMPI PUSH2 0x17D3 PUSH2 0x14B2 JUMP JUMPDEST JUMPDEST PUSH1 0x1 DUP3 ADD SWAP1 POP SWAP2 SWAP1 POP JUMP INVALID LOG2 PUSH5 0x6970667358 0x22 SLT KECCAK256 SHR 0xDE SWAP4 CALLER MLOAD 0xCD 0xAF CALLCODE SWAP1 PC SWAP3 0xD1 DUP10 SWAP13 0xAA 0xE8 0xAA INVALID DUP13 DUP7 SIGNEXTEND ADDMOD 0xB1 ORIGIN SWAP8 0xB6 0xBB 0x1F PUSH7 0xBD6AD264736F6C PUSH4 0x43000812 STOP CALLER "
		},
		"gasEstimates": {
			"creation": {
				"codeDepositCost": "1233000",
				"executionCost": "infinite",
				"totalCost": "infinite"
			},
			"external": {
				"VESTING_PERIOD()": "330",
				"addVesting(uint256,address)": "infinite",
				"getBeneficiary(uint256)": "2916",
				"getExpectedQVE(uint256,address)": "infinite",
				"getVestedTime(uint256)": "infinite",
				"getVestingAmount(uint256)": "infinite",
				"ownedVestings(address,uint256)": "infinite",
				"releaseVestedQVE(uint256,address)": "infinite",
				"token()": "infinite",
				"tokensToVest()": "2473",
				"vestings(uint256)": "infinite"
			},
			"internal": {
				"claimForQVE(uint256,address)": "infinite",
				"getVestingId(address)": "infinite",
				"removeVesting(uint256,address,bool)": "infinite"
			}
		},
		"methodIdentifiers": {
			"VESTING_PERIOD()": "0197d972",
			"addVesting(uint256,address)": "cdb51cdf",
			"getBeneficiary(uint256)": "302df083",
			"getExpectedQVE(uint256,address)": "1ea5c1cd",
			"getVestedTime(uint256)": "55f9ecba",
			"getVestingAmount(uint256)": "cbd09371",
			"ownedVestings(address,uint256)": "b1e6abc5",
			"releaseVestedQVE(uint256,address)": "8bf7d700",
			"token()": "fc0c546a",
			"tokensToVest()": "c4730d5d",
			"vestings(uint256)": "821bee73"
		}
	},
	"abi": [
		{
			"inputs": [
				{
					"internalType": "contract QVEtoken",
					"name": "_qveToken",
					"type": "address"
				},
				{
					"internalType": "contract QVEescrow",
					"name": "_qveEscrow",
					"type": "address"
				}
			],
			"stateMutability": "nonpayable",
			"type": "constructor"
		},
		{
			"anonymous": false,
			"inputs": [
				{
					"indexed": true,
					"internalType": "uint256",
					"name": "vesting",
					"type": "uint256"
				},
				{
					"indexed": true,
					"internalType": "address",
					"name": "beneficiary",
					"type": "address"
				},
				{
					"indexed": false,
					"internalType": "uint256",
					"name": "amount",
					"type": "uint256"
				}
			],
			"name": "TokenVestingAdded",
			"type": "event"
		},
		{
			"anonymous": false,
			"inputs": [
				{
					"indexed": true,
					"internalType": "uint256",
					"name": "vesting",
					"type": "uint256"
				},
				{
					"indexed": true,
					"internalType": "address",
					"name": "beneficiary",
					"type": "address"
				},
				{
					"indexed": false,
					"internalType": "uint256",
					"name": "amount",
					"type": "uint256"
				}
			],
			"name": "TokenVestingReleased",
			"type": "event"
		},
		{
			"anonymous": false,
			"inputs": [
				{
					"indexed": true,
					"internalType": "uint256",
					"name": "vesting",
					"type": "uint256"
				},
				{
					"indexed": true,
					"internalType": "address",
					"name": "beneficiary",
					"type": "address"
				},
				{
					"indexed": false,
					"internalType": "uint256",
					"name": "amount",
					"type": "uint256"
				}
			],
			"name": "TokenVestingRemoved",
			"type": "event"
		},
		{
			"inputs": [],
			"name": "VESTING_PERIOD",
			"outputs": [
				{
					"internalType": "uint256",
					"name": "",
					"type": "uint256"
				}
			],
			"stateMutability": "view",
			"type": "function"
		},
		{
			"inputs": [
				{
					"internalType": "uint256",
					"name": "_amount",
					"type": "uint256"
				},
				{
					"internalType": "address",
					"name": "sender",
					"type": "address"
				}
			],
			"name": "addVesting",
			"outputs": [
				{
					"internalType": "bool",
					"name": "",
					"type": "bool"
				}
			],
			"stateMutability": "nonpayable",
			"type": "function"
		},
		{
			"inputs": [
				{
					"internalType": "uint256",
					"name": "_vestingId",
					"type": "uint256"
				}
			],
			"name": "getBeneficiary",
			"outputs": [
				{
					"internalType": "address",
					"name": "",
					"type": "address"
				}
			],
			"stateMutability": "view",
			"type": "function"
		},
		{
			"inputs": [
				{
					"internalType": "uint256",
					"name": "_vestingId",
					"type": "uint256"
				},
				{
					"internalType": "address",
					"name": "sender",
					"type": "address"
				}
			],
			"name": "getExpectedQVE",
			"outputs": [
				{
					"internalType": "uint256",
					"name": "",
					"type": "uint256"
				}
			],
			"stateMutability": "view",
			"type": "function"
		},
		{
			"inputs": [
				{
					"internalType": "uint256",
					"name": "_vestingId",
					"type": "uint256"
				}
			],
			"name": "getVestedTime",
			"outputs": [
				{
					"internalType": "uint256",
					"name": "",
					"type": "uint256"
				}
			],
			"stateMutability": "view",
			"type": "function"
		},
		{
			"inputs": [
				{
					"internalType": "uint256",
					"name": "_vestingId",
					"type": "uint256"
				}
			],
			"name": "getVestingAmount",
			"outputs": [
				{
					"internalType": "uint256",
					"name": "",
					"type": "uint256"
				}
			],
			"stateMutability": "view",
			"type": "function"
		},
		{
			"inputs": [
				{
					"internalType": "address",
					"name": "",
					"type": "address"
				},
				{
					"internalType": "uint256",
					"name": "",
					"type": "uint256"
				}
			],
			"name": "ownedVestings",
			"outputs": [
				{
					"internalType": "uint256",
					"name": "",
					"type": "uint256"
				}
			],
			"stateMutability": "view",
			"type": "function"
		},
		{
			"inputs": [
				{
					"internalType": "uint256",
					"name": "_vestingId",
					"type": "uint256"
				},
				{
					"internalType": "address",
					"name": "sender",
					"type": "address"
				}
			],
			"name": "releaseVestedQVE",
			"outputs": [],
			"stateMutability": "nonpayable",
			"type": "function"
		},
		{
			"inputs": [],
			"name": "token",
			"outputs": [
				{
					"internalType": "contract ERC20",
					"name": "",
					"type": "address"
				}
			],
			"stateMutability": "view",
			"type": "function"
		},
		{
			"inputs": [],
			"name": "tokensToVest",
			"outputs": [
				{
					"internalType": "uint256",
					"name": "",
					"type": "uint256"
				}
			],
			"stateMutability": "view",
			"type": "function"
		},
		{
			"inputs": [
				{
					"internalType": "uint256",
					"name": "",
					"type": "uint256"
				}
			],
			"name": "vestings",
			"outputs": [
				{
					"internalType": "uint256",
					"name": "vestedTime",
					"type": "uint256"
				},
				{
					"internalType": "uint256",
					"name": "amount",
					"type": "uint256"
				},
				{
					"internalType": "address",
					"name": "beneficiary",
					"type": "address"
				},
				{
					"internalType": "bool",
					"name": "released",
					"type": "bool"
				}
			],
			"stateMutability": "view",
			"type": "function"
		}
	]
}