{
	"data": {
		"bytecode": {
			"linkReferences": {},
			"object": "608060405234801562000010575f80fd5b506040518060400160405280600381526020017f51564500000000000000000000000000000000000000000000000000000000008152506040518060400160405280600381526020017f515645000000000000000000000000000000000000000000000000000000000081525081600390816200008e91906200059a565b508060049081620000a091906200059a565b505050620000c3620000b7620000fd60201b60201c565b6200010460201b60201c565b633b9aca00600681905550620000f733670de0b6b3a7640000600654620000eb9190620006ab565b620001c760201b60201c565b620007d9565b5f33905090565b5f60055f9054906101000a900473ffffffffffffffffffffffffffffffffffffffff1690508160055f6101000a81548173ffffffffffffffffffffffffffffffffffffffff021916908373ffffffffffffffffffffffffffffffffffffffff1602179055508173ffffffffffffffffffffffffffffffffffffffff168173ffffffffffffffffffffffffffffffffffffffff167f8be0079c531659141344cd1fd0a4f28419497f9722a3daafe3b4186f6b6457e060405160405180910390a35050565b5f73ffffffffffffffffffffffffffffffffffffffff168273ffffffffffffffffffffffffffffffffffffffff160362000238576040517f08c379a00000000000000000000000000000000000000000000000000000000081526004016200022f9062000753565b60405180910390fd5b6200024b5f83836200032c60201b60201c565b8060025f8282546200025e919062000773565b92505081905550805f808473ffffffffffffffffffffffffffffffffffffffff1673ffffffffffffffffffffffffffffffffffffffff1681526020019081526020015f205f82825401925050819055508173ffffffffffffffffffffffffffffffffffffffff165f73ffffffffffffffffffffffffffffffffffffffff167fddf252ad1be2c89b69c2b068fc378daa952ba7f163c4a11628f55a4df523b3ef836040516200030d9190620007be565b60405180910390a3620003285f83836200033160201b60201c565b5050565b505050565b505050565b5f81519050919050565b7f4e487b71000000000000000000000000000000000000000000000000000000005f52604160045260245ffd5b7f4e487b71000000000000000000000000000000000000000000000000000000005f52602260045260245ffd5b5f6002820490506001821680620003b257607f821691505b602082108103620003c857620003c76200036d565b5b50919050565b5f819050815f5260205f209050919050565b5f6020601f8301049050919050565b5f82821b905092915050565b5f600883026200042c7fffffffffffffffffffffffffffffffffffffffffffffffffffffffffffffffff82620003ef565b620004388683620003ef565b95508019841693508086168417925050509392505050565b5f819050919050565b5f819050919050565b5f620004826200047c620004768462000450565b62000459565b62000450565b9050919050565b5f819050919050565b6200049d8362000462565b620004b5620004ac8262000489565b848454620003fb565b825550505050565b5f90565b620004cb620004bd565b620004d881848462000492565b505050565b5b81811015620004ff57620004f35f82620004c1565b600181019050620004de565b5050565b601f8211156200054e576200051881620003ce565b6200052384620003e0565b8101602085101562000533578190505b6200054b6200054285620003e0565b830182620004dd565b50505b505050565b5f82821c905092915050565b5f620005705f198460080262000553565b1980831691505092915050565b5f6200058a83836200055f565b9150826002028217905092915050565b620005a58262000336565b67ffffffffffffffff811115620005c157620005c062000340565b5b620005cd82546200039a565b620005da82828562000503565b5f60209050601f83116001811462000610575f8415620005fb578287015190505b6200060785826200057d565b86555062000676565b601f1984166200062086620003ce565b5f5b82811015620006495784890151825560018201915060208501945060208101905062000622565b8683101562000669578489015162000665601f8916826200055f565b8355505b6001600288020188555050505b505050505050565b7f4e487b71000000000000000000000000000000000000000000000000000000005f52601160045260245ffd5b5f620006b78262000450565b9150620006c48362000450565b9250828202620006d48162000450565b91508282048414831517620006ee57620006ed6200067e565b5b5092915050565b5f82825260208201905092915050565b7f45524332303a206d696e7420746f20746865207a65726f2061646472657373005f82015250565b5f6200073b601f83620006f5565b9150620007488262000705565b602082019050919050565b5f6020820190508181035f8301526200076c816200072d565b9050919050565b5f6200077f8262000450565b91506200078c8362000450565b9250828201905080821115620007a757620007a66200067e565b5b92915050565b620007b88162000450565b82525050565b5f602082019050620007d35f830184620007ad565b92915050565b611d3880620007e75f395ff3fe608060405234801561000f575f80fd5b506004361061012a575f3560e01c806370a08231116100ab578063a457c2d71161006f578063a457c2d714610344578063a9059cbb14610374578063d55681ba146103a4578063dd62ed3e146103d4578063f2fde38b146104045761012a565b806370a08231146102b2578063715018a6146102e257806379cc6790146102ec5780638da5cb5b1461030857806395d89b41146103265761012a565b8063378dc3dc116100f2578063378dc3dc146101e8578063395093511461020657806342966c6814610236578063469895c8146102525780635f367b03146102825761012a565b806306fdde031461012e578063095ea7b31461014c57806318160ddd1461017c57806323b872dd1461019a578063313ce567146101ca575b5f80fd5b610136610420565b604051610143919061131d565b60405180910390f35b610166600480360381019061016191906113ce565b6104b0565b6040516101739190611426565b60405180910390f35b6101846104d2565b604051610191919061144e565b60405180910390f35b6101b460048036038101906101af9190611467565b6104db565b6040516101c19190611426565b60405180910390f35b6101d2610509565b6040516101df91906114d2565b60405180910390f35b6101f0610511565b6040516101fd919061144e565b60405180910390f35b610220600480360381019061021b91906113ce565b610517565b60405161022d9190611426565b60405180910390f35b610250600480360381019061024b91906114eb565b61054d565b005b61026c60048036038101906102679190611467565b610561565b6040516102799190611426565b60405180910390f35b61029c600480360381019061029791906113ce565b6105fd565b6040516102a99190611426565b60405180910390f35b6102cc60048036038101906102c79190611516565b610697565b6040516102d9919061144e565b60405180910390f35b6102ea6106dc565b005b610306600480360381019061030191906113ce565b6106ef565b005b61031061070f565b60405161031d9190611550565b60405180910390f35b61032e610737565b60405161033b919061131d565b60405180910390f35b61035e600480360381019061035991906113ce565b6107c7565b60405161036b9190611426565b60405180910390f35b61038e600480360381019061038991906113ce565b61083c565b60405161039b9190611426565b60405180910390f35b6103be60048036038101906103b991906114eb565b61085e565b6040516103cb9190611426565b60405180910390f35b6103ee60048036038101906103e99190611569565b610872565b6040516103fb919061144e565b60405180910390f35b61041e60048036038101906104199190611516565b6108f4565b005b60606003805461042f906115d4565b80601f016020809104026020016040519081016040528092919081815260200182805461045b906115d4565b80156104a65780601f1061047d576101008083540402835291602001916104a6565b820191905f5260205f20905b81548152906001019060200180831161048957829003601f168201915b5050505050905090565b5f806104ba610976565b90506104c781858561097d565b600191505092915050565b5f600254905090565b5f806104e5610976565b90506104f2858285610b40565b6104fd858585610bcb565b60019150509392505050565b5f6012905090565b60065481565b5f80610521610976565b90506105428185856105338589610872565b61053d9190611631565b61097d565b600191505092915050565b61055e610558610976565b82610e37565b50565b5f600560149054906101000a900460ff16156105b2576040517f08c379a00000000000000000000000000000000000000000000000000000000081526004016105a9906116ae565b60405180910390fd5b6001600560146101000a81548160ff0219169083151502179055506105d8848484610bcb565b600190505f600560146101000a81548160ff0219169083151502179055509392505050565b5f600560149054906101000a900460ff161561064e576040517f08c379a0000000000000000000000000000000000000000000000000000000008152600401610645906116ae565b60405180910390fd5b6001600560146101000a81548160ff0219169083151502179055506106738383610ffa565b600190505f600560146101000a81548160ff02191690831515021790555092915050565b5f805f8373ffffffffffffffffffffffffffffffffffffffff1673ffffffffffffffffffffffffffffffffffffffff1681526020019081526020015f20549050919050565b6106e4611148565b6106ed5f6111c6565b565b610701826106fb610976565b83610b40565b61070b8282610e37565b5050565b5f60055f9054906101000a900473ffffffffffffffffffffffffffffffffffffffff16905090565b606060048054610746906115d4565b80601f0160208091040260200160405190810160405280929190818152602001828054610772906115d4565b80156107bd5780601f10610794576101008083540402835291602001916107bd565b820191905f5260205f20905b8154815290600101906020018083116107a057829003601f168201915b5050505050905090565b5f806107d1610976565b90505f6107de8286610872565b905083811015610823576040517f08c379a000000000000000000000000000000000000000000000000000000000815260040161081a9061173c565b60405180910390fd5b610830828686840361097d565b60019250505092915050565b5f80610846610976565b9050610853818585610bcb565b600191505092915050565b5f6108693383610e37565b60019050919050565b5f60015f8473ffffffffffffffffffffffffffffffffffffffff1673ffffffffffffffffffffffffffffffffffffffff1681526020019081526020015f205f8373ffffffffffffffffffffffffffffffffffffffff1673ffffffffffffffffffffffffffffffffffffffff1681526020019081526020015f2054905092915050565b6108fc611148565b5f73ffffffffffffffffffffffffffffffffffffffff168173ffffffffffffffffffffffffffffffffffffffff160361096a576040517f08c379a0000000000000000000000000000000000000000000000000000000008152600401610961906117ca565b60405180910390fd5b610973816111c6565b50565b5f33905090565b5f73ffffffffffffffffffffffffffffffffffffffff168373ffffffffffffffffffffffffffffffffffffffff16036109eb576040517f08c379a00000000000000000000000000000000000000000000000000000000081526004016109e290611858565b60405180910390fd5b5f73ffffffffffffffffffffffffffffffffffffffff168273ffffffffffffffffffffffffffffffffffffffff1603610a59576040517f08c379a0000000000000000000000000000000000000000000000000000000008152600401610a50906118e6565b60405180910390fd5b8060015f8573ffffffffffffffffffffffffffffffffffffffff1673ffffffffffffffffffffffffffffffffffffffff1681526020019081526020015f205f8473ffffffffffffffffffffffffffffffffffffffff1673ffffffffffffffffffffffffffffffffffffffff1681526020019081526020015f20819055508173ffffffffffffffffffffffffffffffffffffffff168373ffffffffffffffffffffffffffffffffffffffff167f8c5be1e5ebec7d5bd14f71427d1e84f3dd0314c0f7b2291e5b200ac8c7c3b92583604051610b33919061144e565b60405180910390a3505050565b5f610b4b8484610872565b90507fffffffffffffffffffffffffffffffffffffffffffffffffffffffffffffffff8114610bc55781811015610bb7576040517f08c379a0000000000000000000000000000000000000000000000000000000008152600401610bae9061194e565b60405180910390fd5b610bc4848484840361097d565b5b50505050565b5f73ffffffffffffffffffffffffffffffffffffffff168373ffffffffffffffffffffffffffffffffffffffff1603610c39576040517f08c379a0000000000000000000000000000000000000000000000000000000008152600401610c30906119dc565b60405180910390fd5b5f73ffffffffffffffffffffffffffffffffffffffff168273ffffffffffffffffffffffffffffffffffffffff1603610ca7576040517f08c379a0000000000000000000000000000000000000000000000000000000008152600401610c9e90611a6a565b60405180910390fd5b610cb2838383611289565b5f805f8573ffffffffffffffffffffffffffffffffffffffff1673ffffffffffffffffffffffffffffffffffffffff1681526020019081526020015f2054905081811015610d35576040517f08c379a0000000000000000000000000000000000000000000000000000000008152600401610d2c90611af8565b60405180910390fd5b8181035f808673ffffffffffffffffffffffffffffffffffffffff1673ffffffffffffffffffffffffffffffffffffffff1681526020019081526020015f2081905550815f808573ffffffffffffffffffffffffffffffffffffffff1673ffffffffffffffffffffffffffffffffffffffff1681526020019081526020015f205f82825401925050819055508273ffffffffffffffffffffffffffffffffffffffff168473ffffffffffffffffffffffffffffffffffffffff167fddf252ad1be2c89b69c2b068fc378daa952ba7f163c4a11628f55a4df523b3ef84604051610e1e919061144e565b60405180910390a3610e3184848461128e565b50505050565b5f73ffffffffffffffffffffffffffffffffffffffff168273ffffffffffffffffffffffffffffffffffffffff1603610ea5576040517f08c379a0000000000000000000000000000000000000000000000000000000008152600401610e9c90611b86565b60405180910390fd5b610eb0825f83611289565b5f805f8473ffffffffffffffffffffffffffffffffffffffff1673ffffffffffffffffffffffffffffffffffffffff1681526020019081526020015f2054905081811015610f33576040517f08c379a0000000000000000000000000000000000000000000000000000000008152600401610f2a90611c14565b60405180910390fd5b8181035f808573ffffffffffffffffffffffffffffffffffffffff1673ffffffffffffffffffffffffffffffffffffffff1681526020019081526020015f20819055508160025f82825403925050819055505f73ffffffffffffffffffffffffffffffffffffffff168373ffffffffffffffffffffffffffffffffffffffff167fddf252ad1be2c89b69c2b068fc378daa952ba7f163c4a11628f55a4df523b3ef84604051610fe2919061144e565b60405180910390a3610ff5835f8461128e565b505050565b5f73ffffffffffffffffffffffffffffffffffffffff168273ffffffffffffffffffffffffffffffffffffffff1603611068576040517f08c379a000000000000000000000000000000000000000000000000000000000815260040161105f90611c7c565b60405180910390fd5b6110735f8383611289565b8060025f8282546110849190611631565b92505081905550805f808473ffffffffffffffffffffffffffffffffffffffff1673ffffffffffffffffffffffffffffffffffffffff1681526020019081526020015f205f82825401925050819055508173ffffffffffffffffffffffffffffffffffffffff165f73ffffffffffffffffffffffffffffffffffffffff167fddf252ad1be2c89b69c2b068fc378daa952ba7f163c4a11628f55a4df523b3ef83604051611131919061144e565b60405180910390a36111445f838361128e565b5050565b611150610976565b73ffffffffffffffffffffffffffffffffffffffff1661116e61070f565b73ffffffffffffffffffffffffffffffffffffffff16146111c4576040517f08c379a00000000000000000000000000000000000000000000000000000000081526004016111bb90611ce4565b60405180910390fd5b565b5f60055f9054906101000a900473ffffffffffffffffffffffffffffffffffffffff1690508160055f6101000a81548173ffffffffffffffffffffffffffffffffffffffff021916908373ffffffffffffffffffffffffffffffffffffffff1602179055508173ffffffffffffffffffffffffffffffffffffffff168173ffffffffffffffffffffffffffffffffffffffff167f8be0079c531659141344cd1fd0a4f28419497f9722a3daafe3b4186f6b6457e060405160405180910390a35050565b505050565b505050565b5f81519050919050565b5f82825260208201905092915050565b5f5b838110156112ca5780820151818401526020810190506112af565b5f8484015250505050565b5f601f19601f8301169050919050565b5f6112ef82611293565b6112f9818561129d565b93506113098185602086016112ad565b611312816112d5565b840191505092915050565b5f6020820190508181035f83015261133581846112e5565b905092915050565b5f80fd5b5f73ffffffffffffffffffffffffffffffffffffffff82169050919050565b5f61136a82611341565b9050919050565b61137a81611360565b8114611384575f80fd5b50565b5f8135905061139581611371565b92915050565b5f819050919050565b6113ad8161139b565b81146113b7575f80fd5b50565b5f813590506113c8816113a4565b92915050565b5f80604083850312156113e4576113e361133d565b5b5f6113f185828601611387565b9250506020611402858286016113ba565b9150509250929050565b5f8115159050919050565b6114208161140c565b82525050565b5f6020820190506114395f830184611417565b92915050565b6114488161139b565b82525050565b5f6020820190506114615f83018461143f565b92915050565b5f805f6060848603121561147e5761147d61133d565b5b5f61148b86828701611387565b935050602061149c86828701611387565b92505060406114ad868287016113ba565b9150509250925092565b5f60ff82169050919050565b6114cc816114b7565b82525050565b5f6020820190506114e55f8301846114c3565b92915050565b5f60208284031215611500576114ff61133d565b5b5f61150d848285016113ba565b91505092915050565b5f6020828403121561152b5761152a61133d565b5b5f61153884828501611387565b91505092915050565b61154a81611360565b82525050565b5f6020820190506115635f830184611541565b92915050565b5f806040838503121561157f5761157e61133d565b5b5f61158c85828601611387565b925050602061159d85828601611387565b9150509250929050565b7f4e487b71000000000000000000000000000000000000000000000000000000005f52602260045260245ffd5b5f60028204905060018216806115eb57607f821691505b6020821081036115fe576115fd6115a7565b5b50919050565b7f4e487b71000000000000000000000000000000000000000000000000000000005f52601160045260245ffd5b5f61163b8261139b565b91506116468361139b565b925082820190508082111561165e5761165d611604565b5b92915050565b7f4e6f205265456e7472616e6379000000000000000000000000000000000000005f82015250565b5f611698600d8361129d565b91506116a382611664565b602082019050919050565b5f6020820190508181035f8301526116c58161168c565b9050919050565b7f45524332303a2064656372656173656420616c6c6f77616e63652062656c6f775f8201527f207a65726f000000000000000000000000000000000000000000000000000000602082015250565b5f61172660258361129d565b9150611731826116cc565b604082019050919050565b5f6020820190508181035f8301526117538161171a565b9050919050565b7f4f776e61626c653a206e6577206f776e657220697320746865207a65726f20615f8201527f6464726573730000000000000000000000000000000000000000000000000000602082015250565b5f6117b460268361129d565b91506117bf8261175a565b604082019050919050565b5f6020820190508181035f8301526117e1816117a8565b9050919050565b7f45524332303a20617070726f76652066726f6d20746865207a65726f206164645f8201527f7265737300000000000000000000000000000000000000000000000000000000602082015250565b5f61184260248361129d565b915061184d826117e8565b604082019050919050565b5f6020820190508181035f83015261186f81611836565b9050919050565b7f45524332303a20617070726f766520746f20746865207a65726f2061646472655f8201527f7373000000000000000000000000000000000000000000000000000000000000602082015250565b5f6118d060228361129d565b91506118db82611876565b604082019050919050565b5f6020820190508181035f8301526118fd816118c4565b9050919050565b7f45524332303a20696e73756666696369656e7420616c6c6f77616e63650000005f82015250565b5f611938601d8361129d565b915061194382611904565b602082019050919050565b5f6020820190508181035f8301526119658161192c565b9050919050565b7f45524332303a207472616e736665722066726f6d20746865207a65726f2061645f8201527f6472657373000000000000000000000000000000000000000000000000000000602082015250565b5f6119c660258361129d565b91506119d18261196c565b604082019050919050565b5f6020820190508181035f8301526119f3816119ba565b9050919050565b7f45524332303a207472616e7366657220746f20746865207a65726f20616464725f8201527f6573730000000000000000000000000000000000000000000000000000000000602082015250565b5f611a5460238361129d565b9150611a5f826119fa565b604082019050919050565b5f6020820190508181035f830152611a8181611a48565b9050919050565b7f45524332303a207472616e7366657220616d6f756e74206578636565647320625f8201527f616c616e63650000000000000000000000000000000000000000000000000000602082015250565b5f611ae260268361129d565b9150611aed82611a88565b604082019050919050565b5f6020820190508181035f830152611b0f81611ad6565b9050919050565b7f45524332303a206275726e2066726f6d20746865207a65726f206164647265735f8201527f7300000000000000000000000000000000000000000000000000000000000000602082015250565b5f611b7060218361129d565b9150611b7b82611b16565b604082019050919050565b5f6020820190508181035f830152611b9d81611b64565b9050919050565b7f45524332303a206275726e20616d6f756e7420657863656564732062616c616e5f8201527f6365000000000000000000000000000000000000000000000000000000000000602082015250565b5f611bfe60228361129d565b9150611c0982611ba4565b604082019050919050565b5f6020820190508181035f830152611c2b81611bf2565b9050919050565b7f45524332303a206d696e7420746f20746865207a65726f2061646472657373005f82015250565b5f611c66601f8361129d565b9150611c7182611c32565b602082019050919050565b5f6020820190508181035f830152611c9381611c5a565b9050919050565b7f4f776e61626c653a2063616c6c6572206973206e6f7420746865206f776e65725f82015250565b5f611cce60208361129d565b9150611cd982611c9a565b602082019050919050565b5f6020820190508181035f830152611cfb81611cc2565b905091905056fea264697066735822122090a5cf11e74bb3723022804911a109b727dd10d01ab4767e025c40f91026421464736f6c63430008150033",
			"opcodes": "PUSH1 0x80 PUSH1 0x40 MSTORE CALLVALUE DUP1 ISZERO PUSH3 0x10 JUMPI PUSH0 DUP1 REVERT JUMPDEST POP PUSH1 0x40 MLOAD DUP1 PUSH1 0x40 ADD PUSH1 0x40 MSTORE DUP1 PUSH1 0x3 DUP2 MSTORE PUSH1 0x20 ADD PUSH32 0x5156450000000000000000000000000000000000000000000000000000000000 DUP2 MSTORE POP PUSH1 0x40 MLOAD DUP1 PUSH1 0x40 ADD PUSH1 0x40 MSTORE DUP1 PUSH1 0x3 DUP2 MSTORE PUSH1 0x20 ADD PUSH32 0x5156450000000000000000000000000000000000000000000000000000000000 DUP2 MSTORE POP DUP2 PUSH1 0x3 SWAP1 DUP2 PUSH3 0x8E SWAP2 SWAP1 PUSH3 0x59A JUMP JUMPDEST POP DUP1 PUSH1 0x4 SWAP1 DUP2 PUSH3 0xA0 SWAP2 SWAP1 PUSH3 0x59A JUMP JUMPDEST POP POP POP PUSH3 0xC3 PUSH3 0xB7 PUSH3 0xFD PUSH1 0x20 SHL PUSH1 0x20 SHR JUMP JUMPDEST PUSH3 0x104 PUSH1 0x20 SHL PUSH1 0x20 SHR JUMP JUMPDEST PUSH4 0x3B9ACA00 PUSH1 0x6 DUP2 SWAP1 SSTORE POP PUSH3 0xF7 CALLER PUSH8 0xDE0B6B3A7640000 PUSH1 0x6 SLOAD PUSH3 0xEB SWAP2 SWAP1 PUSH3 0x6AB JUMP JUMPDEST PUSH3 0x1C7 PUSH1 0x20 SHL PUSH1 0x20 SHR JUMP JUMPDEST PUSH3 0x7D9 JUMP JUMPDEST PUSH0 CALLER SWAP1 POP SWAP1 JUMP JUMPDEST PUSH0 PUSH1 0x5 PUSH0 SWAP1 SLOAD SWAP1 PUSH2 0x100 EXP SWAP1 DIV PUSH20 0xFFFFFFFFFFFFFFFFFFFFFFFFFFFFFFFFFFFFFFFF AND SWAP1 POP DUP2 PUSH1 0x5 PUSH0 PUSH2 0x100 EXP DUP2 SLOAD DUP2 PUSH20 0xFFFFFFFFFFFFFFFFFFFFFFFFFFFFFFFFFFFFFFFF MUL NOT AND SWAP1 DUP4 PUSH20 0xFFFFFFFFFFFFFFFFFFFFFFFFFFFFFFFFFFFFFFFF AND MUL OR SWAP1 SSTORE POP DUP2 PUSH20 0xFFFFFFFFFFFFFFFFFFFFFFFFFFFFFFFFFFFFFFFF AND DUP2 PUSH20 0xFFFFFFFFFFFFFFFFFFFFFFFFFFFFFFFFFFFFFFFF AND PUSH32 0x8BE0079C531659141344CD1FD0A4F28419497F9722A3DAAFE3B4186F6B6457E0 PUSH1 0x40 MLOAD PUSH1 0x40 MLOAD DUP1 SWAP2 SUB SWAP1 LOG3 POP POP JUMP JUMPDEST PUSH0 PUSH20 0xFFFFFFFFFFFFFFFFFFFFFFFFFFFFFFFFFFFFFFFF AND DUP3 PUSH20 0xFFFFFFFFFFFFFFFFFFFFFFFFFFFFFFFFFFFFFFFF AND SUB PUSH3 0x238 JUMPI PUSH1 0x40 MLOAD PUSH32 0x8C379A000000000000000000000000000000000000000000000000000000000 DUP2 MSTORE PUSH1 0x4 ADD PUSH3 0x22F SWAP1 PUSH3 0x753 JUMP JUMPDEST PUSH1 0x40 MLOAD DUP1 SWAP2 SUB SWAP1 REVERT JUMPDEST PUSH3 0x24B PUSH0 DUP4 DUP4 PUSH3 0x32C PUSH1 0x20 SHL PUSH1 0x20 SHR JUMP JUMPDEST DUP1 PUSH1 0x2 PUSH0 DUP3 DUP3 SLOAD PUSH3 0x25E SWAP2 SWAP1 PUSH3 0x773 JUMP JUMPDEST SWAP3 POP POP DUP2 SWAP1 SSTORE POP DUP1 PUSH0 DUP1 DUP5 PUSH20 0xFFFFFFFFFFFFFFFFFFFFFFFFFFFFFFFFFFFFFFFF AND PUSH20 0xFFFFFFFFFFFFFFFFFFFFFFFFFFFFFFFFFFFFFFFF AND DUP2 MSTORE PUSH1 0x20 ADD SWAP1 DUP2 MSTORE PUSH1 0x20 ADD PUSH0 KECCAK256 PUSH0 DUP3 DUP3 SLOAD ADD SWAP3 POP POP DUP2 SWAP1 SSTORE POP DUP2 PUSH20 0xFFFFFFFFFFFFFFFFFFFFFFFFFFFFFFFFFFFFFFFF AND PUSH0 PUSH20 0xFFFFFFFFFFFFFFFFFFFFFFFFFFFFFFFFFFFFFFFF AND PUSH32 0xDDF252AD1BE2C89B69C2B068FC378DAA952BA7F163C4A11628F55A4DF523B3EF DUP4 PUSH1 0x40 MLOAD PUSH3 0x30D SWAP2 SWAP1 PUSH3 0x7BE JUMP JUMPDEST PUSH1 0x40 MLOAD DUP1 SWAP2 SUB SWAP1 LOG3 PUSH3 0x328 PUSH0 DUP4 DUP4 PUSH3 0x331 PUSH1 0x20 SHL PUSH1 0x20 SHR JUMP JUMPDEST POP POP JUMP JUMPDEST POP POP POP JUMP JUMPDEST POP POP POP JUMP JUMPDEST PUSH0 DUP2 MLOAD SWAP1 POP SWAP2 SWAP1 POP JUMP JUMPDEST PUSH32 0x4E487B7100000000000000000000000000000000000000000000000000000000 PUSH0 MSTORE PUSH1 0x41 PUSH1 0x4 MSTORE PUSH1 0x24 PUSH0 REVERT JUMPDEST PUSH32 0x4E487B7100000000000000000000000000000000000000000000000000000000 PUSH0 MSTORE PUSH1 0x22 PUSH1 0x4 MSTORE PUSH1 0x24 PUSH0 REVERT JUMPDEST PUSH0 PUSH1 0x2 DUP3 DIV SWAP1 POP PUSH1 0x1 DUP3 AND DUP1 PUSH3 0x3B2 JUMPI PUSH1 0x7F DUP3 AND SWAP2 POP JUMPDEST PUSH1 0x20 DUP3 LT DUP2 SUB PUSH3 0x3C8 JUMPI PUSH3 0x3C7 PUSH3 0x36D JUMP JUMPDEST JUMPDEST POP SWAP2 SWAP1 POP JUMP JUMPDEST PUSH0 DUP2 SWAP1 POP DUP2 PUSH0 MSTORE PUSH1 0x20 PUSH0 KECCAK256 SWAP1 POP SWAP2 SWAP1 POP JUMP JUMPDEST PUSH0 PUSH1 0x20 PUSH1 0x1F DUP4 ADD DIV SWAP1 POP SWAP2 SWAP1 POP JUMP JUMPDEST PUSH0 DUP3 DUP3 SHL SWAP1 POP SWAP3 SWAP2 POP POP JUMP JUMPDEST PUSH0 PUSH1 0x8 DUP4 MUL PUSH3 0x42C PUSH32 0xFFFFFFFFFFFFFFFFFFFFFFFFFFFFFFFFFFFFFFFFFFFFFFFFFFFFFFFFFFFFFFFF DUP3 PUSH3 0x3EF JUMP JUMPDEST PUSH3 0x438 DUP7 DUP4 PUSH3 0x3EF JUMP JUMPDEST SWAP6 POP DUP1 NOT DUP5 AND SWAP4 POP DUP1 DUP7 AND DUP5 OR SWAP3 POP POP POP SWAP4 SWAP3 POP POP POP JUMP JUMPDEST PUSH0 DUP2 SWAP1 POP SWAP2 SWAP1 POP JUMP JUMPDEST PUSH0 DUP2 SWAP1 POP SWAP2 SWAP1 POP JUMP JUMPDEST PUSH0 PUSH3 0x482 PUSH3 0x47C PUSH3 0x476 DUP5 PUSH3 0x450 JUMP JUMPDEST PUSH3 0x459 JUMP JUMPDEST PUSH3 0x450 JUMP JUMPDEST SWAP1 POP SWAP2 SWAP1 POP JUMP JUMPDEST PUSH0 DUP2 SWAP1 POP SWAP2 SWAP1 POP JUMP JUMPDEST PUSH3 0x49D DUP4 PUSH3 0x462 JUMP JUMPDEST PUSH3 0x4B5 PUSH3 0x4AC DUP3 PUSH3 0x489 JUMP JUMPDEST DUP5 DUP5 SLOAD PUSH3 0x3FB JUMP JUMPDEST DUP3 SSTORE POP POP POP POP JUMP JUMPDEST PUSH0 SWAP1 JUMP JUMPDEST PUSH3 0x4CB PUSH3 0x4BD JUMP JUMPDEST PUSH3 0x4D8 DUP2 DUP5 DUP5 PUSH3 0x492 JUMP JUMPDEST POP POP POP JUMP JUMPDEST JUMPDEST DUP2 DUP2 LT ISZERO PUSH3 0x4FF JUMPI PUSH3 0x4F3 PUSH0 DUP3 PUSH3 0x4C1 JUMP JUMPDEST PUSH1 0x1 DUP2 ADD SWAP1 POP PUSH3 0x4DE JUMP JUMPDEST POP POP JUMP JUMPDEST PUSH1 0x1F DUP3 GT ISZERO PUSH3 0x54E JUMPI PUSH3 0x518 DUP2 PUSH3 0x3CE JUMP JUMPDEST PUSH3 0x523 DUP5 PUSH3 0x3E0 JUMP JUMPDEST DUP2 ADD PUSH1 0x20 DUP6 LT ISZERO PUSH3 0x533 JUMPI DUP2 SWAP1 POP JUMPDEST PUSH3 0x54B PUSH3 0x542 DUP6 PUSH3 0x3E0 JUMP JUMPDEST DUP4 ADD DUP3 PUSH3 0x4DD JUMP JUMPDEST POP POP JUMPDEST POP POP POP JUMP JUMPDEST PUSH0 DUP3 DUP3 SHR SWAP1 POP SWAP3 SWAP2 POP POP JUMP JUMPDEST PUSH0 PUSH3 0x570 PUSH0 NOT DUP5 PUSH1 0x8 MUL PUSH3 0x553 JUMP JUMPDEST NOT DUP1 DUP4 AND SWAP2 POP POP SWAP3 SWAP2 POP POP JUMP JUMPDEST PUSH0 PUSH3 0x58A DUP4 DUP4 PUSH3 0x55F JUMP JUMPDEST SWAP2 POP DUP3 PUSH1 0x2 MUL DUP3 OR SWAP1 POP SWAP3 SWAP2 POP POP JUMP JUMPDEST PUSH3 0x5A5 DUP3 PUSH3 0x336 JUMP JUMPDEST PUSH8 0xFFFFFFFFFFFFFFFF DUP2 GT ISZERO PUSH3 0x5C1 JUMPI PUSH3 0x5C0 PUSH3 0x340 JUMP JUMPDEST JUMPDEST PUSH3 0x5CD DUP3 SLOAD PUSH3 0x39A JUMP JUMPDEST PUSH3 0x5DA DUP3 DUP3 DUP6 PUSH3 0x503 JUMP JUMPDEST PUSH0 PUSH1 0x20 SWAP1 POP PUSH1 0x1F DUP4 GT PUSH1 0x1 DUP2 EQ PUSH3 0x610 JUMPI PUSH0 DUP5 ISZERO PUSH3 0x5FB JUMPI DUP3 DUP8 ADD MLOAD SWAP1 POP JUMPDEST PUSH3 0x607 DUP6 DUP3 PUSH3 0x57D JUMP JUMPDEST DUP7 SSTORE POP PUSH3 0x676 JUMP JUMPDEST PUSH1 0x1F NOT DUP5 AND PUSH3 0x620 DUP7 PUSH3 0x3CE JUMP JUMPDEST PUSH0 JUMPDEST DUP3 DUP2 LT ISZERO PUSH3 0x649 JUMPI DUP5 DUP10 ADD MLOAD DUP3 SSTORE PUSH1 0x1 DUP3 ADD SWAP2 POP PUSH1 0x20 DUP6 ADD SWAP5 POP PUSH1 0x20 DUP2 ADD SWAP1 POP PUSH3 0x622 JUMP JUMPDEST DUP7 DUP4 LT ISZERO PUSH3 0x669 JUMPI DUP5 DUP10 ADD MLOAD PUSH3 0x665 PUSH1 0x1F DUP10 AND DUP3 PUSH3 0x55F JUMP JUMPDEST DUP4 SSTORE POP JUMPDEST PUSH1 0x1 PUSH1 0x2 DUP9 MUL ADD DUP9 SSTORE POP POP POP JUMPDEST POP POP POP POP POP POP JUMP JUMPDEST PUSH32 0x4E487B7100000000000000000000000000000000000000000000000000000000 PUSH0 MSTORE PUSH1 0x11 PUSH1 0x4 MSTORE PUSH1 0x24 PUSH0 REVERT JUMPDEST PUSH0 PUSH3 0x6B7 DUP3 PUSH3 0x450 JUMP JUMPDEST SWAP2 POP PUSH3 0x6C4 DUP4 PUSH3 0x450 JUMP JUMPDEST SWAP3 POP DUP3 DUP3 MUL PUSH3 0x6D4 DUP2 PUSH3 0x450 JUMP JUMPDEST SWAP2 POP DUP3 DUP3 DIV DUP5 EQ DUP4 ISZERO OR PUSH3 0x6EE JUMPI PUSH3 0x6ED PUSH3 0x67E JUMP JUMPDEST JUMPDEST POP SWAP3 SWAP2 POP POP JUMP JUMPDEST PUSH0 DUP3 DUP3 MSTORE PUSH1 0x20 DUP3 ADD SWAP1 POP SWAP3 SWAP2 POP POP JUMP JUMPDEST PUSH32 0x45524332303A206D696E7420746F20746865207A65726F206164647265737300 PUSH0 DUP3 ADD MSTORE POP JUMP JUMPDEST PUSH0 PUSH3 0x73B PUSH1 0x1F DUP4 PUSH3 0x6F5 JUMP JUMPDEST SWAP2 POP PUSH3 0x748 DUP3 PUSH3 0x705 JUMP JUMPDEST PUSH1 0x20 DUP3 ADD SWAP1 POP SWAP2 SWAP1 POP JUMP JUMPDEST PUSH0 PUSH1 0x20 DUP3 ADD SWAP1 POP DUP2 DUP2 SUB PUSH0 DUP4 ADD MSTORE PUSH3 0x76C DUP2 PUSH3 0x72D JUMP JUMPDEST SWAP1 POP SWAP2 SWAP1 POP JUMP JUMPDEST PUSH0 PUSH3 0x77F DUP3 PUSH3 0x450 JUMP JUMPDEST SWAP2 POP PUSH3 0x78C DUP4 PUSH3 0x450 JUMP JUMPDEST SWAP3 POP DUP3 DUP3 ADD SWAP1 POP DUP1 DUP3 GT ISZERO PUSH3 0x7A7 JUMPI PUSH3 0x7A6 PUSH3 0x67E JUMP JUMPDEST JUMPDEST SWAP3 SWAP2 POP POP JUMP JUMPDEST PUSH3 0x7B8 DUP2 PUSH3 0x450 JUMP JUMPDEST DUP3 MSTORE POP POP JUMP JUMPDEST PUSH0 PUSH1 0x20 DUP3 ADD SWAP1 POP PUSH3 0x7D3 PUSH0 DUP4 ADD DUP5 PUSH3 0x7AD JUMP JUMPDEST SWAP3 SWAP2 POP POP JUMP JUMPDEST PUSH2 0x1D38 DUP1 PUSH3 0x7E7 PUSH0 CODECOPY PUSH0 RETURN INVALID PUSH1 0x80 PUSH1 0x40 MSTORE CALLVALUE DUP1 ISZERO PUSH2 0xF JUMPI PUSH0 DUP1 REVERT JUMPDEST POP PUSH1 0x4 CALLDATASIZE LT PUSH2 0x12A JUMPI PUSH0 CALLDATALOAD PUSH1 0xE0 SHR DUP1 PUSH4 0x70A08231 GT PUSH2 0xAB JUMPI DUP1 PUSH4 0xA457C2D7 GT PUSH2 0x6F JUMPI DUP1 PUSH4 0xA457C2D7 EQ PUSH2 0x344 JUMPI DUP1 PUSH4 0xA9059CBB EQ PUSH2 0x374 JUMPI DUP1 PUSH4 0xD55681BA EQ PUSH2 0x3A4 JUMPI DUP1 PUSH4 0xDD62ED3E EQ PUSH2 0x3D4 JUMPI DUP1 PUSH4 0xF2FDE38B EQ PUSH2 0x404 JUMPI PUSH2 0x12A JUMP JUMPDEST DUP1 PUSH4 0x70A08231 EQ PUSH2 0x2B2 JUMPI DUP1 PUSH4 0x715018A6 EQ PUSH2 0x2E2 JUMPI DUP1 PUSH4 0x79CC6790 EQ PUSH2 0x2EC JUMPI DUP1 PUSH4 0x8DA5CB5B EQ PUSH2 0x308 JUMPI DUP1 PUSH4 0x95D89B41 EQ PUSH2 0x326 JUMPI PUSH2 0x12A JUMP JUMPDEST DUP1 PUSH4 0x378DC3DC GT PUSH2 0xF2 JUMPI DUP1 PUSH4 0x378DC3DC EQ PUSH2 0x1E8 JUMPI DUP1 PUSH4 0x39509351 EQ PUSH2 0x206 JUMPI DUP1 PUSH4 0x42966C68 EQ PUSH2 0x236 JUMPI DUP1 PUSH4 0x469895C8 EQ PUSH2 0x252 JUMPI DUP1 PUSH4 0x5F367B03 EQ PUSH2 0x282 JUMPI PUSH2 0x12A JUMP JUMPDEST DUP1 PUSH4 0x6FDDE03 EQ PUSH2 0x12E JUMPI DUP1 PUSH4 0x95EA7B3 EQ PUSH2 0x14C JUMPI DUP1 PUSH4 0x18160DDD EQ PUSH2 0x17C JUMPI DUP1 PUSH4 0x23B872DD EQ PUSH2 0x19A JUMPI DUP1 PUSH4 0x313CE567 EQ PUSH2 0x1CA JUMPI JUMPDEST PUSH0 DUP1 REVERT JUMPDEST PUSH2 0x136 PUSH2 0x420 JUMP JUMPDEST PUSH1 0x40 MLOAD PUSH2 0x143 SWAP2 SWAP1 PUSH2 0x131D JUMP JUMPDEST PUSH1 0x40 MLOAD DUP1 SWAP2 SUB SWAP1 RETURN JUMPDEST PUSH2 0x166 PUSH1 0x4 DUP1 CALLDATASIZE SUB DUP2 ADD SWAP1 PUSH2 0x161 SWAP2 SWAP1 PUSH2 0x13CE JUMP JUMPDEST PUSH2 0x4B0 JUMP JUMPDEST PUSH1 0x40 MLOAD PUSH2 0x173 SWAP2 SWAP1 PUSH2 0x1426 JUMP JUMPDEST PUSH1 0x40 MLOAD DUP1 SWAP2 SUB SWAP1 RETURN JUMPDEST PUSH2 0x184 PUSH2 0x4D2 JUMP JUMPDEST PUSH1 0x40 MLOAD PUSH2 0x191 SWAP2 SWAP1 PUSH2 0x144E JUMP JUMPDEST PUSH1 0x40 MLOAD DUP1 SWAP2 SUB SWAP1 RETURN JUMPDEST PUSH2 0x1B4 PUSH1 0x4 DUP1 CALLDATASIZE SUB DUP2 ADD SWAP1 PUSH2 0x1AF SWAP2 SWAP1 PUSH2 0x1467 JUMP JUMPDEST PUSH2 0x4DB JUMP JUMPDEST PUSH1 0x40 MLOAD PUSH2 0x1C1 SWAP2 SWAP1 PUSH2 0x1426 JUMP JUMPDEST PUSH1 0x40 MLOAD DUP1 SWAP2 SUB SWAP1 RETURN JUMPDEST PUSH2 0x1D2 PUSH2 0x509 JUMP JUMPDEST PUSH1 0x40 MLOAD PUSH2 0x1DF SWAP2 SWAP1 PUSH2 0x14D2 JUMP JUMPDEST PUSH1 0x40 MLOAD DUP1 SWAP2 SUB SWAP1 RETURN JUMPDEST PUSH2 0x1F0 PUSH2 0x511 JUMP JUMPDEST PUSH1 0x40 MLOAD PUSH2 0x1FD SWAP2 SWAP1 PUSH2 0x144E JUMP JUMPDEST PUSH1 0x40 MLOAD DUP1 SWAP2 SUB SWAP1 RETURN JUMPDEST PUSH2 0x220 PUSH1 0x4 DUP1 CALLDATASIZE SUB DUP2 ADD SWAP1 PUSH2 0x21B SWAP2 SWAP1 PUSH2 0x13CE JUMP JUMPDEST PUSH2 0x517 JUMP JUMPDEST PUSH1 0x40 MLOAD PUSH2 0x22D SWAP2 SWAP1 PUSH2 0x1426 JUMP JUMPDEST PUSH1 0x40 MLOAD DUP1 SWAP2 SUB SWAP1 RETURN JUMPDEST PUSH2 0x250 PUSH1 0x4 DUP1 CALLDATASIZE SUB DUP2 ADD SWAP1 PUSH2 0x24B SWAP2 SWAP1 PUSH2 0x14EB JUMP JUMPDEST PUSH2 0x54D JUMP JUMPDEST STOP JUMPDEST PUSH2 0x26C PUSH1 0x4 DUP1 CALLDATASIZE SUB DUP2 ADD SWAP1 PUSH2 0x267 SWAP2 SWAP1 PUSH2 0x1467 JUMP JUMPDEST PUSH2 0x561 JUMP JUMPDEST PUSH1 0x40 MLOAD PUSH2 0x279 SWAP2 SWAP1 PUSH2 0x1426 JUMP JUMPDEST PUSH1 0x40 MLOAD DUP1 SWAP2 SUB SWAP1 RETURN JUMPDEST PUSH2 0x29C PUSH1 0x4 DUP1 CALLDATASIZE SUB DUP2 ADD SWAP1 PUSH2 0x297 SWAP2 SWAP1 PUSH2 0x13CE JUMP JUMPDEST PUSH2 0x5FD JUMP JUMPDEST PUSH1 0x40 MLOAD PUSH2 0x2A9 SWAP2 SWAP1 PUSH2 0x1426 JUMP JUMPDEST PUSH1 0x40 MLOAD DUP1 SWAP2 SUB SWAP1 RETURN JUMPDEST PUSH2 0x2CC PUSH1 0x4 DUP1 CALLDATASIZE SUB DUP2 ADD SWAP1 PUSH2 0x2C7 SWAP2 SWAP1 PUSH2 0x1516 JUMP JUMPDEST PUSH2 0x697 JUMP JUMPDEST PUSH1 0x40 MLOAD PUSH2 0x2D9 SWAP2 SWAP1 PUSH2 0x144E JUMP JUMPDEST PUSH1 0x40 MLOAD DUP1 SWAP2 SUB SWAP1 RETURN JUMPDEST PUSH2 0x2EA PUSH2 0x6DC JUMP JUMPDEST STOP JUMPDEST PUSH2 0x306 PUSH1 0x4 DUP1 CALLDATASIZE SUB DUP2 ADD SWAP1 PUSH2 0x301 SWAP2 SWAP1 PUSH2 0x13CE JUMP JUMPDEST PUSH2 0x6EF JUMP JUMPDEST STOP JUMPDEST PUSH2 0x310 PUSH2 0x70F JUMP JUMPDEST PUSH1 0x40 MLOAD PUSH2 0x31D SWAP2 SWAP1 PUSH2 0x1550 JUMP JUMPDEST PUSH1 0x40 MLOAD DUP1 SWAP2 SUB SWAP1 RETURN JUMPDEST PUSH2 0x32E PUSH2 0x737 JUMP JUMPDEST PUSH1 0x40 MLOAD PUSH2 0x33B SWAP2 SWAP1 PUSH2 0x131D JUMP JUMPDEST PUSH1 0x40 MLOAD DUP1 SWAP2 SUB SWAP1 RETURN JUMPDEST PUSH2 0x35E PUSH1 0x4 DUP1 CALLDATASIZE SUB DUP2 ADD SWAP1 PUSH2 0x359 SWAP2 SWAP1 PUSH2 0x13CE JUMP JUMPDEST PUSH2 0x7C7 JUMP JUMPDEST PUSH1 0x40 MLOAD PUSH2 0x36B SWAP2 SWAP1 PUSH2 0x1426 JUMP JUMPDEST PUSH1 0x40 MLOAD DUP1 SWAP2 SUB SWAP1 RETURN JUMPDEST PUSH2 0x38E PUSH1 0x4 DUP1 CALLDATASIZE SUB DUP2 ADD SWAP1 PUSH2 0x389 SWAP2 SWAP1 PUSH2 0x13CE JUMP JUMPDEST PUSH2 0x83C JUMP JUMPDEST PUSH1 0x40 MLOAD PUSH2 0x39B SWAP2 SWAP1 PUSH2 0x1426 JUMP JUMPDEST PUSH1 0x40 MLOAD DUP1 SWAP2 SUB SWAP1 RETURN JUMPDEST PUSH2 0x3BE PUSH1 0x4 DUP1 CALLDATASIZE SUB DUP2 ADD SWAP1 PUSH2 0x3B9 SWAP2 SWAP1 PUSH2 0x14EB JUMP JUMPDEST PUSH2 0x85E JUMP JUMPDEST PUSH1 0x40 MLOAD PUSH2 0x3CB SWAP2 SWAP1 PUSH2 0x1426 JUMP JUMPDEST PUSH1 0x40 MLOAD DUP1 SWAP2 SUB SWAP1 RETURN JUMPDEST PUSH2 0x3EE PUSH1 0x4 DUP1 CALLDATASIZE SUB DUP2 ADD SWAP1 PUSH2 0x3E9 SWAP2 SWAP1 PUSH2 0x1569 JUMP JUMPDEST PUSH2 0x872 JUMP JUMPDEST PUSH1 0x40 MLOAD PUSH2 0x3FB SWAP2 SWAP1 PUSH2 0x144E JUMP JUMPDEST PUSH1 0x40 MLOAD DUP1 SWAP2 SUB SWAP1 RETURN JUMPDEST PUSH2 0x41E PUSH1 0x4 DUP1 CALLDATASIZE SUB DUP2 ADD SWAP1 PUSH2 0x419 SWAP2 SWAP1 PUSH2 0x1516 JUMP JUMPDEST PUSH2 0x8F4 JUMP JUMPDEST STOP JUMPDEST PUSH1 0x60 PUSH1 0x3 DUP1 SLOAD PUSH2 0x42F SWAP1 PUSH2 0x15D4 JUMP JUMPDEST DUP1 PUSH1 0x1F ADD PUSH1 0x20 DUP1 SWAP2 DIV MUL PUSH1 0x20 ADD PUSH1 0x40 MLOAD SWAP1 DUP2 ADD PUSH1 0x40 MSTORE DUP1 SWAP3 SWAP2 SWAP1 DUP2 DUP2 MSTORE PUSH1 0x20 ADD DUP3 DUP1 SLOAD PUSH2 0x45B SWAP1 PUSH2 0x15D4 JUMP JUMPDEST DUP1 ISZERO PUSH2 0x4A6 JUMPI DUP1 PUSH1 0x1F LT PUSH2 0x47D JUMPI PUSH2 0x100 DUP1 DUP4 SLOAD DIV MUL DUP4 MSTORE SWAP2 PUSH1 0x20 ADD SWAP2 PUSH2 0x4A6 JUMP JUMPDEST DUP3 ADD SWAP2 SWAP1 PUSH0 MSTORE PUSH1 0x20 PUSH0 KECCAK256 SWAP1 JUMPDEST DUP2 SLOAD DUP2 MSTORE SWAP1 PUSH1 0x1 ADD SWAP1 PUSH1 0x20 ADD DUP1 DUP4 GT PUSH2 0x489 JUMPI DUP3 SWAP1 SUB PUSH1 0x1F AND DUP3 ADD SWAP2 JUMPDEST POP POP POP POP POP SWAP1 POP SWAP1 JUMP JUMPDEST PUSH0 DUP1 PUSH2 0x4BA PUSH2 0x976 JUMP JUMPDEST SWAP1 POP PUSH2 0x4C7 DUP2 DUP6 DUP6 PUSH2 0x97D JUMP JUMPDEST PUSH1 0x1 SWAP2 POP POP SWAP3 SWAP2 POP POP JUMP JUMPDEST PUSH0 PUSH1 0x2 SLOAD SWAP1 POP SWAP1 JUMP JUMPDEST PUSH0 DUP1 PUSH2 0x4E5 PUSH2 0x976 JUMP JUMPDEST SWAP1 POP PUSH2 0x4F2 DUP6 DUP3 DUP6 PUSH2 0xB40 JUMP JUMPDEST PUSH2 0x4FD DUP6 DUP6 DUP6 PUSH2 0xBCB JUMP JUMPDEST PUSH1 0x1 SWAP2 POP POP SWAP4 SWAP3 POP POP POP JUMP JUMPDEST PUSH0 PUSH1 0x12 SWAP1 POP SWAP1 JUMP JUMPDEST PUSH1 0x6 SLOAD DUP2 JUMP JUMPDEST PUSH0 DUP1 PUSH2 0x521 PUSH2 0x976 JUMP JUMPDEST SWAP1 POP PUSH2 0x542 DUP2 DUP6 DUP6 PUSH2 0x533 DUP6 DUP10 PUSH2 0x872 JUMP JUMPDEST PUSH2 0x53D SWAP2 SWAP1 PUSH2 0x1631 JUMP JUMPDEST PUSH2 0x97D JUMP JUMPDEST PUSH1 0x1 SWAP2 POP POP SWAP3 SWAP2 POP POP JUMP JUMPDEST PUSH2 0x55E PUSH2 0x558 PUSH2 0x976 JUMP JUMPDEST DUP3 PUSH2 0xE37 JUMP JUMPDEST POP JUMP JUMPDEST PUSH0 PUSH1 0x5 PUSH1 0x14 SWAP1 SLOAD SWAP1 PUSH2 0x100 EXP SWAP1 DIV PUSH1 0xFF AND ISZERO PUSH2 0x5B2 JUMPI PUSH1 0x40 MLOAD PUSH32 0x8C379A000000000000000000000000000000000000000000000000000000000 DUP2 MSTORE PUSH1 0x4 ADD PUSH2 0x5A9 SWAP1 PUSH2 0x16AE JUMP JUMPDEST PUSH1 0x40 MLOAD DUP1 SWAP2 SUB SWAP1 REVERT JUMPDEST PUSH1 0x1 PUSH1 0x5 PUSH1 0x14 PUSH2 0x100 EXP DUP2 SLOAD DUP2 PUSH1 0xFF MUL NOT AND SWAP1 DUP4 ISZERO ISZERO MUL OR SWAP1 SSTORE POP PUSH2 0x5D8 DUP5 DUP5 DUP5 PUSH2 0xBCB JUMP JUMPDEST PUSH1 0x1 SWAP1 POP PUSH0 PUSH1 0x5 PUSH1 0x14 PUSH2 0x100 EXP DUP2 SLOAD DUP2 PUSH1 0xFF MUL NOT AND SWAP1 DUP4 ISZERO ISZERO MUL OR SWAP1 SSTORE POP SWAP4 SWAP3 POP POP POP JUMP JUMPDEST PUSH0 PUSH1 0x5 PUSH1 0x14 SWAP1 SLOAD SWAP1 PUSH2 0x100 EXP SWAP1 DIV PUSH1 0xFF AND ISZERO PUSH2 0x64E JUMPI PUSH1 0x40 MLOAD PUSH32 0x8C379A000000000000000000000000000000000000000000000000000000000 DUP2 MSTORE PUSH1 0x4 ADD PUSH2 0x645 SWAP1 PUSH2 0x16AE JUMP JUMPDEST PUSH1 0x40 MLOAD DUP1 SWAP2 SUB SWAP1 REVERT JUMPDEST PUSH1 0x1 PUSH1 0x5 PUSH1 0x14 PUSH2 0x100 EXP DUP2 SLOAD DUP2 PUSH1 0xFF MUL NOT AND SWAP1 DUP4 ISZERO ISZERO MUL OR SWAP1 SSTORE POP PUSH2 0x673 DUP4 DUP4 PUSH2 0xFFA JUMP JUMPDEST PUSH1 0x1 SWAP1 POP PUSH0 PUSH1 0x5 PUSH1 0x14 PUSH2 0x100 EXP DUP2 SLOAD DUP2 PUSH1 0xFF MUL NOT AND SWAP1 DUP4 ISZERO ISZERO MUL OR SWAP1 SSTORE POP SWAP3 SWAP2 POP POP JUMP JUMPDEST PUSH0 DUP1 PUSH0 DUP4 PUSH20 0xFFFFFFFFFFFFFFFFFFFFFFFFFFFFFFFFFFFFFFFF AND PUSH20 0xFFFFFFFFFFFFFFFFFFFFFFFFFFFFFFFFFFFFFFFF AND DUP2 MSTORE PUSH1 0x20 ADD SWAP1 DUP2 MSTORE PUSH1 0x20 ADD PUSH0 KECCAK256 SLOAD SWAP1 POP SWAP2 SWAP1 POP JUMP JUMPDEST PUSH2 0x6E4 PUSH2 0x1148 JUMP JUMPDEST PUSH2 0x6ED PUSH0 PUSH2 0x11C6 JUMP JUMPDEST JUMP JUMPDEST PUSH2 0x701 DUP3 PUSH2 0x6FB PUSH2 0x976 JUMP JUMPDEST DUP4 PUSH2 0xB40 JUMP JUMPDEST PUSH2 0x70B DUP3 DUP3 PUSH2 0xE37 JUMP JUMPDEST POP POP JUMP JUMPDEST PUSH0 PUSH1 0x5 PUSH0 SWAP1 SLOAD SWAP1 PUSH2 0x100 EXP SWAP1 DIV PUSH20 0xFFFFFFFFFFFFFFFFFFFFFFFFFFFFFFFFFFFFFFFF AND SWAP1 POP SWAP1 JUMP JUMPDEST PUSH1 0x60 PUSH1 0x4 DUP1 SLOAD PUSH2 0x746 SWAP1 PUSH2 0x15D4 JUMP JUMPDEST DUP1 PUSH1 0x1F ADD PUSH1 0x20 DUP1 SWAP2 DIV MUL PUSH1 0x20 ADD PUSH1 0x40 MLOAD SWAP1 DUP2 ADD PUSH1 0x40 MSTORE DUP1 SWAP3 SWAP2 SWAP1 DUP2 DUP2 MSTORE PUSH1 0x20 ADD DUP3 DUP1 SLOAD PUSH2 0x772 SWAP1 PUSH2 0x15D4 JUMP JUMPDEST DUP1 ISZERO PUSH2 0x7BD JUMPI DUP1 PUSH1 0x1F LT PUSH2 0x794 JUMPI PUSH2 0x100 DUP1 DUP4 SLOAD DIV MUL DUP4 MSTORE SWAP2 PUSH1 0x20 ADD SWAP2 PUSH2 0x7BD JUMP JUMPDEST DUP3 ADD SWAP2 SWAP1 PUSH0 MSTORE PUSH1 0x20 PUSH0 KECCAK256 SWAP1 JUMPDEST DUP2 SLOAD DUP2 MSTORE SWAP1 PUSH1 0x1 ADD SWAP1 PUSH1 0x20 ADD DUP1 DUP4 GT PUSH2 0x7A0 JUMPI DUP3 SWAP1 SUB PUSH1 0x1F AND DUP3 ADD SWAP2 JUMPDEST POP POP POP POP POP SWAP1 POP SWAP1 JUMP JUMPDEST PUSH0 DUP1 PUSH2 0x7D1 PUSH2 0x976 JUMP JUMPDEST SWAP1 POP PUSH0 PUSH2 0x7DE DUP3 DUP7 PUSH2 0x872 JUMP JUMPDEST SWAP1 POP DUP4 DUP2 LT ISZERO PUSH2 0x823 JUMPI PUSH1 0x40 MLOAD PUSH32 0x8C379A000000000000000000000000000000000000000000000000000000000 DUP2 MSTORE PUSH1 0x4 ADD PUSH2 0x81A SWAP1 PUSH2 0x173C JUMP JUMPDEST PUSH1 0x40 MLOAD DUP1 SWAP2 SUB SWAP1 REVERT JUMPDEST PUSH2 0x830 DUP3 DUP7 DUP7 DUP5 SUB PUSH2 0x97D JUMP JUMPDEST PUSH1 0x1 SWAP3 POP POP POP SWAP3 SWAP2 POP POP JUMP JUMPDEST PUSH0 DUP1 PUSH2 0x846 PUSH2 0x976 JUMP JUMPDEST SWAP1 POP PUSH2 0x853 DUP2 DUP6 DUP6 PUSH2 0xBCB JUMP JUMPDEST PUSH1 0x1 SWAP2 POP POP SWAP3 SWAP2 POP POP JUMP JUMPDEST PUSH0 PUSH2 0x869 CALLER DUP4 PUSH2 0xE37 JUMP JUMPDEST PUSH1 0x1 SWAP1 POP SWAP2 SWAP1 POP JUMP JUMPDEST PUSH0 PUSH1 0x1 PUSH0 DUP5 PUSH20 0xFFFFFFFFFFFFFFFFFFFFFFFFFFFFFFFFFFFFFFFF AND PUSH20 0xFFFFFFFFFFFFFFFFFFFFFFFFFFFFFFFFFFFFFFFF AND DUP2 MSTORE PUSH1 0x20 ADD SWAP1 DUP2 MSTORE PUSH1 0x20 ADD PUSH0 KECCAK256 PUSH0 DUP4 PUSH20 0xFFFFFFFFFFFFFFFFFFFFFFFFFFFFFFFFFFFFFFFF AND PUSH20 0xFFFFFFFFFFFFFFFFFFFFFFFFFFFFFFFFFFFFFFFF AND DUP2 MSTORE PUSH1 0x20 ADD SWAP1 DUP2 MSTORE PUSH1 0x20 ADD PUSH0 KECCAK256 SLOAD SWAP1 POP SWAP3 SWAP2 POP POP JUMP JUMPDEST PUSH2 0x8FC PUSH2 0x1148 JUMP JUMPDEST PUSH0 PUSH20 0xFFFFFFFFFFFFFFFFFFFFFFFFFFFFFFFFFFFFFFFF AND DUP2 PUSH20 0xFFFFFFFFFFFFFFFFFFFFFFFFFFFFFFFFFFFFFFFF AND SUB PUSH2 0x96A JUMPI PUSH1 0x40 MLOAD PUSH32 0x8C379A000000000000000000000000000000000000000000000000000000000 DUP2 MSTORE PUSH1 0x4 ADD PUSH2 0x961 SWAP1 PUSH2 0x17CA JUMP JUMPDEST PUSH1 0x40 MLOAD DUP1 SWAP2 SUB SWAP1 REVERT JUMPDEST PUSH2 0x973 DUP2 PUSH2 0x11C6 JUMP JUMPDEST POP JUMP JUMPDEST PUSH0 CALLER SWAP1 POP SWAP1 JUMP JUMPDEST PUSH0 PUSH20 0xFFFFFFFFFFFFFFFFFFFFFFFFFFFFFFFFFFFFFFFF AND DUP4 PUSH20 0xFFFFFFFFFFFFFFFFFFFFFFFFFFFFFFFFFFFFFFFF AND SUB PUSH2 0x9EB JUMPI PUSH1 0x40 MLOAD PUSH32 0x8C379A000000000000000000000000000000000000000000000000000000000 DUP2 MSTORE PUSH1 0x4 ADD PUSH2 0x9E2 SWAP1 PUSH2 0x1858 JUMP JUMPDEST PUSH1 0x40 MLOAD DUP1 SWAP2 SUB SWAP1 REVERT JUMPDEST PUSH0 PUSH20 0xFFFFFFFFFFFFFFFFFFFFFFFFFFFFFFFFFFFFFFFF AND DUP3 PUSH20 0xFFFFFFFFFFFFFFFFFFFFFFFFFFFFFFFFFFFFFFFF AND SUB PUSH2 0xA59 JUMPI PUSH1 0x40 MLOAD PUSH32 0x8C379A000000000000000000000000000000000000000000000000000000000 DUP2 MSTORE PUSH1 0x4 ADD PUSH2 0xA50 SWAP1 PUSH2 0x18E6 JUMP JUMPDEST PUSH1 0x40 MLOAD DUP1 SWAP2 SUB SWAP1 REVERT JUMPDEST DUP1 PUSH1 0x1 PUSH0 DUP6 PUSH20 0xFFFFFFFFFFFFFFFFFFFFFFFFFFFFFFFFFFFFFFFF AND PUSH20 0xFFFFFFFFFFFFFFFFFFFFFFFFFFFFFFFFFFFFFFFF AND DUP2 MSTORE PUSH1 0x20 ADD SWAP1 DUP2 MSTORE PUSH1 0x20 ADD PUSH0 KECCAK256 PUSH0 DUP5 PUSH20 0xFFFFFFFFFFFFFFFFFFFFFFFFFFFFFFFFFFFFFFFF AND PUSH20 0xFFFFFFFFFFFFFFFFFFFFFFFFFFFFFFFFFFFFFFFF AND DUP2 MSTORE PUSH1 0x20 ADD SWAP1 DUP2 MSTORE PUSH1 0x20 ADD PUSH0 KECCAK256 DUP2 SWAP1 SSTORE POP DUP2 PUSH20 0xFFFFFFFFFFFFFFFFFFFFFFFFFFFFFFFFFFFFFFFF AND DUP4 PUSH20 0xFFFFFFFFFFFFFFFFFFFFFFFFFFFFFFFFFFFFFFFF AND PUSH32 0x8C5BE1E5EBEC7D5BD14F71427D1E84F3DD0314C0F7B2291E5B200AC8C7C3B925 DUP4 PUSH1 0x40 MLOAD PUSH2 0xB33 SWAP2 SWAP1 PUSH2 0x144E JUMP JUMPDEST PUSH1 0x40 MLOAD DUP1 SWAP2 SUB SWAP1 LOG3 POP POP POP JUMP JUMPDEST PUSH0 PUSH2 0xB4B DUP5 DUP5 PUSH2 0x872 JUMP JUMPDEST SWAP1 POP PUSH32 0xFFFFFFFFFFFFFFFFFFFFFFFFFFFFFFFFFFFFFFFFFFFFFFFFFFFFFFFFFFFFFFFF DUP2 EQ PUSH2 0xBC5 JUMPI DUP2 DUP2 LT ISZERO PUSH2 0xBB7 JUMPI PUSH1 0x40 MLOAD PUSH32 0x8C379A000000000000000000000000000000000000000000000000000000000 DUP2 MSTORE PUSH1 0x4 ADD PUSH2 0xBAE SWAP1 PUSH2 0x194E JUMP JUMPDEST PUSH1 0x40 MLOAD DUP1 SWAP2 SUB SWAP1 REVERT JUMPDEST PUSH2 0xBC4 DUP5 DUP5 DUP5 DUP5 SUB PUSH2 0x97D JUMP JUMPDEST JUMPDEST POP POP POP POP JUMP JUMPDEST PUSH0 PUSH20 0xFFFFFFFFFFFFFFFFFFFFFFFFFFFFFFFFFFFFFFFF AND DUP4 PUSH20 0xFFFFFFFFFFFFFFFFFFFFFFFFFFFFFFFFFFFFFFFF AND SUB PUSH2 0xC39 JUMPI PUSH1 0x40 MLOAD PUSH32 0x8C379A000000000000000000000000000000000000000000000000000000000 DUP2 MSTORE PUSH1 0x4 ADD PUSH2 0xC30 SWAP1 PUSH2 0x19DC JUMP JUMPDEST PUSH1 0x40 MLOAD DUP1 SWAP2 SUB SWAP1 REVERT JUMPDEST PUSH0 PUSH20 0xFFFFFFFFFFFFFFFFFFFFFFFFFFFFFFFFFFFFFFFF AND DUP3 PUSH20 0xFFFFFFFFFFFFFFFFFFFFFFFFFFFFFFFFFFFFFFFF AND SUB PUSH2 0xCA7 JUMPI PUSH1 0x40 MLOAD PUSH32 0x8C379A000000000000000000000000000000000000000000000000000000000 DUP2 MSTORE PUSH1 0x4 ADD PUSH2 0xC9E SWAP1 PUSH2 0x1A6A JUMP JUMPDEST PUSH1 0x40 MLOAD DUP1 SWAP2 SUB SWAP1 REVERT JUMPDEST PUSH2 0xCB2 DUP4 DUP4 DUP4 PUSH2 0x1289 JUMP JUMPDEST PUSH0 DUP1 PUSH0 DUP6 PUSH20 0xFFFFFFFFFFFFFFFFFFFFFFFFFFFFFFFFFFFFFFFF AND PUSH20 0xFFFFFFFFFFFFFFFFFFFFFFFFFFFFFFFFFFFFFFFF AND DUP2 MSTORE PUSH1 0x20 ADD SWAP1 DUP2 MSTORE PUSH1 0x20 ADD PUSH0 KECCAK256 SLOAD SWAP1 POP DUP2 DUP2 LT ISZERO PUSH2 0xD35 JUMPI PUSH1 0x40 MLOAD PUSH32 0x8C379A000000000000000000000000000000000000000000000000000000000 DUP2 MSTORE PUSH1 0x4 ADD PUSH2 0xD2C SWAP1 PUSH2 0x1AF8 JUMP JUMPDEST PUSH1 0x40 MLOAD DUP1 SWAP2 SUB SWAP1 REVERT JUMPDEST DUP2 DUP2 SUB PUSH0 DUP1 DUP7 PUSH20 0xFFFFFFFFFFFFFFFFFFFFFFFFFFFFFFFFFFFFFFFF AND PUSH20 0xFFFFFFFFFFFFFFFFFFFFFFFFFFFFFFFFFFFFFFFF AND DUP2 MSTORE PUSH1 0x20 ADD SWAP1 DUP2 MSTORE PUSH1 0x20 ADD PUSH0 KECCAK256 DUP2 SWAP1 SSTORE POP DUP2 PUSH0 DUP1 DUP6 PUSH20 0xFFFFFFFFFFFFFFFFFFFFFFFFFFFFFFFFFFFFFFFF AND PUSH20 0xFFFFFFFFFFFFFFFFFFFFFFFFFFFFFFFFFFFFFFFF AND DUP2 MSTORE PUSH1 0x20 ADD SWAP1 DUP2 MSTORE PUSH1 0x20 ADD PUSH0 KECCAK256 PUSH0 DUP3 DUP3 SLOAD ADD SWAP3 POP POP DUP2 SWAP1 SSTORE POP DUP3 PUSH20 0xFFFFFFFFFFFFFFFFFFFFFFFFFFFFFFFFFFFFFFFF AND DUP5 PUSH20 0xFFFFFFFFFFFFFFFFFFFFFFFFFFFFFFFFFFFFFFFF AND PUSH32 0xDDF252AD1BE2C89B69C2B068FC378DAA952BA7F163C4A11628F55A4DF523B3EF DUP5 PUSH1 0x40 MLOAD PUSH2 0xE1E SWAP2 SWAP1 PUSH2 0x144E JUMP JUMPDEST PUSH1 0x40 MLOAD DUP1 SWAP2 SUB SWAP1 LOG3 PUSH2 0xE31 DUP5 DUP5 DUP5 PUSH2 0x128E JUMP JUMPDEST POP POP POP POP JUMP JUMPDEST PUSH0 PUSH20 0xFFFFFFFFFFFFFFFFFFFFFFFFFFFFFFFFFFFFFFFF AND DUP3 PUSH20 0xFFFFFFFFFFFFFFFFFFFFFFFFFFFFFFFFFFFFFFFF AND SUB PUSH2 0xEA5 JUMPI PUSH1 0x40 MLOAD PUSH32 0x8C379A000000000000000000000000000000000000000000000000000000000 DUP2 MSTORE PUSH1 0x4 ADD PUSH2 0xE9C SWAP1 PUSH2 0x1B86 JUMP JUMPDEST PUSH1 0x40 MLOAD DUP1 SWAP2 SUB SWAP1 REVERT JUMPDEST PUSH2 0xEB0 DUP3 PUSH0 DUP4 PUSH2 0x1289 JUMP JUMPDEST PUSH0 DUP1 PUSH0 DUP5 PUSH20 0xFFFFFFFFFFFFFFFFFFFFFFFFFFFFFFFFFFFFFFFF AND PUSH20 0xFFFFFFFFFFFFFFFFFFFFFFFFFFFFFFFFFFFFFFFF AND DUP2 MSTORE PUSH1 0x20 ADD SWAP1 DUP2 MSTORE PUSH1 0x20 ADD PUSH0 KECCAK256 SLOAD SWAP1 POP DUP2 DUP2 LT ISZERO PUSH2 0xF33 JUMPI PUSH1 0x40 MLOAD PUSH32 0x8C379A000000000000000000000000000000000000000000000000000000000 DUP2 MSTORE PUSH1 0x4 ADD PUSH2 0xF2A SWAP1 PUSH2 0x1C14 JUMP JUMPDEST PUSH1 0x40 MLOAD DUP1 SWAP2 SUB SWAP1 REVERT JUMPDEST DUP2 DUP2 SUB PUSH0 DUP1 DUP6 PUSH20 0xFFFFFFFFFFFFFFFFFFFFFFFFFFFFFFFFFFFFFFFF AND PUSH20 0xFFFFFFFFFFFFFFFFFFFFFFFFFFFFFFFFFFFFFFFF AND DUP2 MSTORE PUSH1 0x20 ADD SWAP1 DUP2 MSTORE PUSH1 0x20 ADD PUSH0 KECCAK256 DUP2 SWAP1 SSTORE POP DUP2 PUSH1 0x2 PUSH0 DUP3 DUP3 SLOAD SUB SWAP3 POP POP DUP2 SWAP1 SSTORE POP PUSH0 PUSH20 0xFFFFFFFFFFFFFFFFFFFFFFFFFFFFFFFFFFFFFFFF AND DUP4 PUSH20 0xFFFFFFFFFFFFFFFFFFFFFFFFFFFFFFFFFFFFFFFF AND PUSH32 0xDDF252AD1BE2C89B69C2B068FC378DAA952BA7F163C4A11628F55A4DF523B3EF DUP5 PUSH1 0x40 MLOAD PUSH2 0xFE2 SWAP2 SWAP1 PUSH2 0x144E JUMP JUMPDEST PUSH1 0x40 MLOAD DUP1 SWAP2 SUB SWAP1 LOG3 PUSH2 0xFF5 DUP4 PUSH0 DUP5 PUSH2 0x128E JUMP JUMPDEST POP POP POP JUMP JUMPDEST PUSH0 PUSH20 0xFFFFFFFFFFFFFFFFFFFFFFFFFFFFFFFFFFFFFFFF AND DUP3 PUSH20 0xFFFFFFFFFFFFFFFFFFFFFFFFFFFFFFFFFFFFFFFF AND SUB PUSH2 0x1068 JUMPI PUSH1 0x40 MLOAD PUSH32 0x8C379A000000000000000000000000000000000000000000000000000000000 DUP2 MSTORE PUSH1 0x4 ADD PUSH2 0x105F SWAP1 PUSH2 0x1C7C JUMP JUMPDEST PUSH1 0x40 MLOAD DUP1 SWAP2 SUB SWAP1 REVERT JUMPDEST PUSH2 0x1073 PUSH0 DUP4 DUP4 PUSH2 0x1289 JUMP JUMPDEST DUP1 PUSH1 0x2 PUSH0 DUP3 DUP3 SLOAD PUSH2 0x1084 SWAP2 SWAP1 PUSH2 0x1631 JUMP JUMPDEST SWAP3 POP POP DUP2 SWAP1 SSTORE POP DUP1 PUSH0 DUP1 DUP5 PUSH20 0xFFFFFFFFFFFFFFFFFFFFFFFFFFFFFFFFFFFFFFFF AND PUSH20 0xFFFFFFFFFFFFFFFFFFFFFFFFFFFFFFFFFFFFFFFF AND DUP2 MSTORE PUSH1 0x20 ADD SWAP1 DUP2 MSTORE PUSH1 0x20 ADD PUSH0 KECCAK256 PUSH0 DUP3 DUP3 SLOAD ADD SWAP3 POP POP DUP2 SWAP1 SSTORE POP DUP2 PUSH20 0xFFFFFFFFFFFFFFFFFFFFFFFFFFFFFFFFFFFFFFFF AND PUSH0 PUSH20 0xFFFFFFFFFFFFFFFFFFFFFFFFFFFFFFFFFFFFFFFF AND PUSH32 0xDDF252AD1BE2C89B69C2B068FC378DAA952BA7F163C4A11628F55A4DF523B3EF DUP4 PUSH1 0x40 MLOAD PUSH2 0x1131 SWAP2 SWAP1 PUSH2 0x144E JUMP JUMPDEST PUSH1 0x40 MLOAD DUP1 SWAP2 SUB SWAP1 LOG3 PUSH2 0x1144 PUSH0 DUP4 DUP4 PUSH2 0x128E JUMP JUMPDEST POP POP JUMP JUMPDEST PUSH2 0x1150 PUSH2 0x976 JUMP JUMPDEST PUSH20 0xFFFFFFFFFFFFFFFFFFFFFFFFFFFFFFFFFFFFFFFF AND PUSH2 0x116E PUSH2 0x70F JUMP JUMPDEST PUSH20 0xFFFFFFFFFFFFFFFFFFFFFFFFFFFFFFFFFFFFFFFF AND EQ PUSH2 0x11C4 JUMPI PUSH1 0x40 MLOAD PUSH32 0x8C379A000000000000000000000000000000000000000000000000000000000 DUP2 MSTORE PUSH1 0x4 ADD PUSH2 0x11BB SWAP1 PUSH2 0x1CE4 JUMP JUMPDEST PUSH1 0x40 MLOAD DUP1 SWAP2 SUB SWAP1 REVERT JUMPDEST JUMP JUMPDEST PUSH0 PUSH1 0x5 PUSH0 SWAP1 SLOAD SWAP1 PUSH2 0x100 EXP SWAP1 DIV PUSH20 0xFFFFFFFFFFFFFFFFFFFFFFFFFFFFFFFFFFFFFFFF AND SWAP1 POP DUP2 PUSH1 0x5 PUSH0 PUSH2 0x100 EXP DUP2 SLOAD DUP2 PUSH20 0xFFFFFFFFFFFFFFFFFFFFFFFFFFFFFFFFFFFFFFFF MUL NOT AND SWAP1 DUP4 PUSH20 0xFFFFFFFFFFFFFFFFFFFFFFFFFFFFFFFFFFFFFFFF AND MUL OR SWAP1 SSTORE POP DUP2 PUSH20 0xFFFFFFFFFFFFFFFFFFFFFFFFFFFFFFFFFFFFFFFF AND DUP2 PUSH20 0xFFFFFFFFFFFFFFFFFFFFFFFFFFFFFFFFFFFFFFFF AND PUSH32 0x8BE0079C531659141344CD1FD0A4F28419497F9722A3DAAFE3B4186F6B6457E0 PUSH1 0x40 MLOAD PUSH1 0x40 MLOAD DUP1 SWAP2 SUB SWAP1 LOG3 POP POP JUMP JUMPDEST POP POP POP JUMP JUMPDEST POP POP POP JUMP JUMPDEST PUSH0 DUP2 MLOAD SWAP1 POP SWAP2 SWAP1 POP JUMP JUMPDEST PUSH0 DUP3 DUP3 MSTORE PUSH1 0x20 DUP3 ADD SWAP1 POP SWAP3 SWAP2 POP POP JUMP JUMPDEST PUSH0 JUMPDEST DUP4 DUP2 LT ISZERO PUSH2 0x12CA JUMPI DUP1 DUP3 ADD MLOAD DUP2 DUP5 ADD MSTORE PUSH1 0x20 DUP2 ADD SWAP1 POP PUSH2 0x12AF JUMP JUMPDEST PUSH0 DUP5 DUP5 ADD MSTORE POP POP POP POP JUMP JUMPDEST PUSH0 PUSH1 0x1F NOT PUSH1 0x1F DUP4 ADD AND SWAP1 POP SWAP2 SWAP1 POP JUMP JUMPDEST PUSH0 PUSH2 0x12EF DUP3 PUSH2 0x1293 JUMP JUMPDEST PUSH2 0x12F9 DUP2 DUP6 PUSH2 0x129D JUMP JUMPDEST SWAP4 POP PUSH2 0x1309 DUP2 DUP6 PUSH1 0x20 DUP7 ADD PUSH2 0x12AD JUMP JUMPDEST PUSH2 0x1312 DUP2 PUSH2 0x12D5 JUMP JUMPDEST DUP5 ADD SWAP2 POP POP SWAP3 SWAP2 POP POP JUMP JUMPDEST PUSH0 PUSH1 0x20 DUP3 ADD SWAP1 POP DUP2 DUP2 SUB PUSH0 DUP4 ADD MSTORE PUSH2 0x1335 DUP2 DUP5 PUSH2 0x12E5 JUMP JUMPDEST SWAP1 POP SWAP3 SWAP2 POP POP JUMP JUMPDEST PUSH0 DUP1 REVERT JUMPDEST PUSH0 PUSH20 0xFFFFFFFFFFFFFFFFFFFFFFFFFFFFFFFFFFFFFFFF DUP3 AND SWAP1 POP SWAP2 SWAP1 POP JUMP JUMPDEST PUSH0 PUSH2 0x136A DUP3 PUSH2 0x1341 JUMP JUMPDEST SWAP1 POP SWAP2 SWAP1 POP JUMP JUMPDEST PUSH2 0x137A DUP2 PUSH2 0x1360 JUMP JUMPDEST DUP2 EQ PUSH2 0x1384 JUMPI PUSH0 DUP1 REVERT JUMPDEST POP JUMP JUMPDEST PUSH0 DUP2 CALLDATALOAD SWAP1 POP PUSH2 0x1395 DUP2 PUSH2 0x1371 JUMP JUMPDEST SWAP3 SWAP2 POP POP JUMP JUMPDEST PUSH0 DUP2 SWAP1 POP SWAP2 SWAP1 POP JUMP JUMPDEST PUSH2 0x13AD DUP2 PUSH2 0x139B JUMP JUMPDEST DUP2 EQ PUSH2 0x13B7 JUMPI PUSH0 DUP1 REVERT JUMPDEST POP JUMP JUMPDEST PUSH0 DUP2 CALLDATALOAD SWAP1 POP PUSH2 0x13C8 DUP2 PUSH2 0x13A4 JUMP JUMPDEST SWAP3 SWAP2 POP POP JUMP JUMPDEST PUSH0 DUP1 PUSH1 0x40 DUP4 DUP6 SUB SLT ISZERO PUSH2 0x13E4 JUMPI PUSH2 0x13E3 PUSH2 0x133D JUMP JUMPDEST JUMPDEST PUSH0 PUSH2 0x13F1 DUP6 DUP3 DUP7 ADD PUSH2 0x1387 JUMP JUMPDEST SWAP3 POP POP PUSH1 0x20 PUSH2 0x1402 DUP6 DUP3 DUP7 ADD PUSH2 0x13BA JUMP JUMPDEST SWAP2 POP POP SWAP3 POP SWAP3 SWAP1 POP JUMP JUMPDEST PUSH0 DUP2 ISZERO ISZERO SWAP1 POP SWAP2 SWAP1 POP JUMP JUMPDEST PUSH2 0x1420 DUP2 PUSH2 0x140C JUMP JUMPDEST DUP3 MSTORE POP POP JUMP JUMPDEST PUSH0 PUSH1 0x20 DUP3 ADD SWAP1 POP PUSH2 0x1439 PUSH0 DUP4 ADD DUP5 PUSH2 0x1417 JUMP JUMPDEST SWAP3 SWAP2 POP POP JUMP JUMPDEST PUSH2 0x1448 DUP2 PUSH2 0x139B JUMP JUMPDEST DUP3 MSTORE POP POP JUMP JUMPDEST PUSH0 PUSH1 0x20 DUP3 ADD SWAP1 POP PUSH2 0x1461 PUSH0 DUP4 ADD DUP5 PUSH2 0x143F JUMP JUMPDEST SWAP3 SWAP2 POP POP JUMP JUMPDEST PUSH0 DUP1 PUSH0 PUSH1 0x60 DUP5 DUP7 SUB SLT ISZERO PUSH2 0x147E JUMPI PUSH2 0x147D PUSH2 0x133D JUMP JUMPDEST JUMPDEST PUSH0 PUSH2 0x148B DUP7 DUP3 DUP8 ADD PUSH2 0x1387 JUMP JUMPDEST SWAP4 POP POP PUSH1 0x20 PUSH2 0x149C DUP7 DUP3 DUP8 ADD PUSH2 0x1387 JUMP JUMPDEST SWAP3 POP POP PUSH1 0x40 PUSH2 0x14AD DUP7 DUP3 DUP8 ADD PUSH2 0x13BA JUMP JUMPDEST SWAP2 POP POP SWAP3 POP SWAP3 POP SWAP3 JUMP JUMPDEST PUSH0 PUSH1 0xFF DUP3 AND SWAP1 POP SWAP2 SWAP1 POP JUMP JUMPDEST PUSH2 0x14CC DUP2 PUSH2 0x14B7 JUMP JUMPDEST DUP3 MSTORE POP POP JUMP JUMPDEST PUSH0 PUSH1 0x20 DUP3 ADD SWAP1 POP PUSH2 0x14E5 PUSH0 DUP4 ADD DUP5 PUSH2 0x14C3 JUMP JUMPDEST SWAP3 SWAP2 POP POP JUMP JUMPDEST PUSH0 PUSH1 0x20 DUP3 DUP5 SUB SLT ISZERO PUSH2 0x1500 JUMPI PUSH2 0x14FF PUSH2 0x133D JUMP JUMPDEST JUMPDEST PUSH0 PUSH2 0x150D DUP5 DUP3 DUP6 ADD PUSH2 0x13BA JUMP JUMPDEST SWAP2 POP POP SWAP3 SWAP2 POP POP JUMP JUMPDEST PUSH0 PUSH1 0x20 DUP3 DUP5 SUB SLT ISZERO PUSH2 0x152B JUMPI PUSH2 0x152A PUSH2 0x133D JUMP JUMPDEST JUMPDEST PUSH0 PUSH2 0x1538 DUP5 DUP3 DUP6 ADD PUSH2 0x1387 JUMP JUMPDEST SWAP2 POP POP SWAP3 SWAP2 POP POP JUMP JUMPDEST PUSH2 0x154A DUP2 PUSH2 0x1360 JUMP JUMPDEST DUP3 MSTORE POP POP JUMP JUMPDEST PUSH0 PUSH1 0x20 DUP3 ADD SWAP1 POP PUSH2 0x1563 PUSH0 DUP4 ADD DUP5 PUSH2 0x1541 JUMP JUMPDEST SWAP3 SWAP2 POP POP JUMP JUMPDEST PUSH0 DUP1 PUSH1 0x40 DUP4 DUP6 SUB SLT ISZERO PUSH2 0x157F JUMPI PUSH2 0x157E PUSH2 0x133D JUMP JUMPDEST JUMPDEST PUSH0 PUSH2 0x158C DUP6 DUP3 DUP7 ADD PUSH2 0x1387 JUMP JUMPDEST SWAP3 POP POP PUSH1 0x20 PUSH2 0x159D DUP6 DUP3 DUP7 ADD PUSH2 0x1387 JUMP JUMPDEST SWAP2 POP POP SWAP3 POP SWAP3 SWAP1 POP JUMP JUMPDEST PUSH32 0x4E487B7100000000000000000000000000000000000000000000000000000000 PUSH0 MSTORE PUSH1 0x22 PUSH1 0x4 MSTORE PUSH1 0x24 PUSH0 REVERT JUMPDEST PUSH0 PUSH1 0x2 DUP3 DIV SWAP1 POP PUSH1 0x1 DUP3 AND DUP1 PUSH2 0x15EB JUMPI PUSH1 0x7F DUP3 AND SWAP2 POP JUMPDEST PUSH1 0x20 DUP3 LT DUP2 SUB PUSH2 0x15FE JUMPI PUSH2 0x15FD PUSH2 0x15A7 JUMP JUMPDEST JUMPDEST POP SWAP2 SWAP1 POP JUMP JUMPDEST PUSH32 0x4E487B7100000000000000000000000000000000000000000000000000000000 PUSH0 MSTORE PUSH1 0x11 PUSH1 0x4 MSTORE PUSH1 0x24 PUSH0 REVERT JUMPDEST PUSH0 PUSH2 0x163B DUP3 PUSH2 0x139B JUMP JUMPDEST SWAP2 POP PUSH2 0x1646 DUP4 PUSH2 0x139B JUMP JUMPDEST SWAP3 POP DUP3 DUP3 ADD SWAP1 POP DUP1 DUP3 GT ISZERO PUSH2 0x165E JUMPI PUSH2 0x165D PUSH2 0x1604 JUMP JUMPDEST JUMPDEST SWAP3 SWAP2 POP POP JUMP JUMPDEST PUSH32 0x4E6F205265456E7472616E637900000000000000000000000000000000000000 PUSH0 DUP3 ADD MSTORE POP JUMP JUMPDEST PUSH0 PUSH2 0x1698 PUSH1 0xD DUP4 PUSH2 0x129D JUMP JUMPDEST SWAP2 POP PUSH2 0x16A3 DUP3 PUSH2 0x1664 JUMP JUMPDEST PUSH1 0x20 DUP3 ADD SWAP1 POP SWAP2 SWAP1 POP JUMP JUMPDEST PUSH0 PUSH1 0x20 DUP3 ADD SWAP1 POP DUP2 DUP2 SUB PUSH0 DUP4 ADD MSTORE PUSH2 0x16C5 DUP2 PUSH2 0x168C JUMP JUMPDEST SWAP1 POP SWAP2 SWAP1 POP JUMP JUMPDEST PUSH32 0x45524332303A2064656372656173656420616C6C6F77616E63652062656C6F77 PUSH0 DUP3 ADD MSTORE PUSH32 0x207A65726F000000000000000000000000000000000000000000000000000000 PUSH1 0x20 DUP3 ADD MSTORE POP JUMP JUMPDEST PUSH0 PUSH2 0x1726 PUSH1 0x25 DUP4 PUSH2 0x129D JUMP JUMPDEST SWAP2 POP PUSH2 0x1731 DUP3 PUSH2 0x16CC JUMP JUMPDEST PUSH1 0x40 DUP3 ADD SWAP1 POP SWAP2 SWAP1 POP JUMP JUMPDEST PUSH0 PUSH1 0x20 DUP3 ADD SWAP1 POP DUP2 DUP2 SUB PUSH0 DUP4 ADD MSTORE PUSH2 0x1753 DUP2 PUSH2 0x171A JUMP JUMPDEST SWAP1 POP SWAP2 SWAP1 POP JUMP JUMPDEST PUSH32 0x4F776E61626C653A206E6577206F776E657220697320746865207A65726F2061 PUSH0 DUP3 ADD MSTORE PUSH32 0x6464726573730000000000000000000000000000000000000000000000000000 PUSH1 0x20 DUP3 ADD MSTORE POP JUMP JUMPDEST PUSH0 PUSH2 0x17B4 PUSH1 0x26 DUP4 PUSH2 0x129D JUMP JUMPDEST SWAP2 POP PUSH2 0x17BF DUP3 PUSH2 0x175A JUMP JUMPDEST PUSH1 0x40 DUP3 ADD SWAP1 POP SWAP2 SWAP1 POP JUMP JUMPDEST PUSH0 PUSH1 0x20 DUP3 ADD SWAP1 POP DUP2 DUP2 SUB PUSH0 DUP4 ADD MSTORE PUSH2 0x17E1 DUP2 PUSH2 0x17A8 JUMP JUMPDEST SWAP1 POP SWAP2 SWAP1 POP JUMP JUMPDEST PUSH32 0x45524332303A20617070726F76652066726F6D20746865207A65726F20616464 PUSH0 DUP3 ADD MSTORE PUSH32 0x7265737300000000000000000000000000000000000000000000000000000000 PUSH1 0x20 DUP3 ADD MSTORE POP JUMP JUMPDEST PUSH0 PUSH2 0x1842 PUSH1 0x24 DUP4 PUSH2 0x129D JUMP JUMPDEST SWAP2 POP PUSH2 0x184D DUP3 PUSH2 0x17E8 JUMP JUMPDEST PUSH1 0x40 DUP3 ADD SWAP1 POP SWAP2 SWAP1 POP JUMP JUMPDEST PUSH0 PUSH1 0x20 DUP3 ADD SWAP1 POP DUP2 DUP2 SUB PUSH0 DUP4 ADD MSTORE PUSH2 0x186F DUP2 PUSH2 0x1836 JUMP JUMPDEST SWAP1 POP SWAP2 SWAP1 POP JUMP JUMPDEST PUSH32 0x45524332303A20617070726F766520746F20746865207A65726F206164647265 PUSH0 DUP3 ADD MSTORE PUSH32 0x7373000000000000000000000000000000000000000000000000000000000000 PUSH1 0x20 DUP3 ADD MSTORE POP JUMP JUMPDEST PUSH0 PUSH2 0x18D0 PUSH1 0x22 DUP4 PUSH2 0x129D JUMP JUMPDEST SWAP2 POP PUSH2 0x18DB DUP3 PUSH2 0x1876 JUMP JUMPDEST PUSH1 0x40 DUP3 ADD SWAP1 POP SWAP2 SWAP1 POP JUMP JUMPDEST PUSH0 PUSH1 0x20 DUP3 ADD SWAP1 POP DUP2 DUP2 SUB PUSH0 DUP4 ADD MSTORE PUSH2 0x18FD DUP2 PUSH2 0x18C4 JUMP JUMPDEST SWAP1 POP SWAP2 SWAP1 POP JUMP JUMPDEST PUSH32 0x45524332303A20696E73756666696369656E7420616C6C6F77616E6365000000 PUSH0 DUP3 ADD MSTORE POP JUMP JUMPDEST PUSH0 PUSH2 0x1938 PUSH1 0x1D DUP4 PUSH2 0x129D JUMP JUMPDEST SWAP2 POP PUSH2 0x1943 DUP3 PUSH2 0x1904 JUMP JUMPDEST PUSH1 0x20 DUP3 ADD SWAP1 POP SWAP2 SWAP1 POP JUMP JUMPDEST PUSH0 PUSH1 0x20 DUP3 ADD SWAP1 POP DUP2 DUP2 SUB PUSH0 DUP4 ADD MSTORE PUSH2 0x1965 DUP2 PUSH2 0x192C JUMP JUMPDEST SWAP1 POP SWAP2 SWAP1 POP JUMP JUMPDEST PUSH32 0x45524332303A207472616E736665722066726F6D20746865207A65726F206164 PUSH0 DUP3 ADD MSTORE PUSH32 0x6472657373000000000000000000000000000000000000000000000000000000 PUSH1 0x20 DUP3 ADD MSTORE POP JUMP JUMPDEST PUSH0 PUSH2 0x19C6 PUSH1 0x25 DUP4 PUSH2 0x129D JUMP JUMPDEST SWAP2 POP PUSH2 0x19D1 DUP3 PUSH2 0x196C JUMP JUMPDEST PUSH1 0x40 DUP3 ADD SWAP1 POP SWAP2 SWAP1 POP JUMP JUMPDEST PUSH0 PUSH1 0x20 DUP3 ADD SWAP1 POP DUP2 DUP2 SUB PUSH0 DUP4 ADD MSTORE PUSH2 0x19F3 DUP2 PUSH2 0x19BA JUMP JUMPDEST SWAP1 POP SWAP2 SWAP1 POP JUMP JUMPDEST PUSH32 0x45524332303A207472616E7366657220746F20746865207A65726F2061646472 PUSH0 DUP3 ADD MSTORE PUSH32 0x6573730000000000000000000000000000000000000000000000000000000000 PUSH1 0x20 DUP3 ADD MSTORE POP JUMP JUMPDEST PUSH0 PUSH2 0x1A54 PUSH1 0x23 DUP4 PUSH2 0x129D JUMP JUMPDEST SWAP2 POP PUSH2 0x1A5F DUP3 PUSH2 0x19FA JUMP JUMPDEST PUSH1 0x40 DUP3 ADD SWAP1 POP SWAP2 SWAP1 POP JUMP JUMPDEST PUSH0 PUSH1 0x20 DUP3 ADD SWAP1 POP DUP2 DUP2 SUB PUSH0 DUP4 ADD MSTORE PUSH2 0x1A81 DUP2 PUSH2 0x1A48 JUMP JUMPDEST SWAP1 POP SWAP2 SWAP1 POP JUMP JUMPDEST PUSH32 0x45524332303A207472616E7366657220616D6F756E7420657863656564732062 PUSH0 DUP3 ADD MSTORE PUSH32 0x616C616E63650000000000000000000000000000000000000000000000000000 PUSH1 0x20 DUP3 ADD MSTORE POP JUMP JUMPDEST PUSH0 PUSH2 0x1AE2 PUSH1 0x26 DUP4 PUSH2 0x129D JUMP JUMPDEST SWAP2 POP PUSH2 0x1AED DUP3 PUSH2 0x1A88 JUMP JUMPDEST PUSH1 0x40 DUP3 ADD SWAP1 POP SWAP2 SWAP1 POP JUMP JUMPDEST PUSH0 PUSH1 0x20 DUP3 ADD SWAP1 POP DUP2 DUP2 SUB PUSH0 DUP4 ADD MSTORE PUSH2 0x1B0F DUP2 PUSH2 0x1AD6 JUMP JUMPDEST SWAP1 POP SWAP2 SWAP1 POP JUMP JUMPDEST PUSH32 0x45524332303A206275726E2066726F6D20746865207A65726F20616464726573 PUSH0 DUP3 ADD MSTORE PUSH32 0x7300000000000000000000000000000000000000000000000000000000000000 PUSH1 0x20 DUP3 ADD MSTORE POP JUMP JUMPDEST PUSH0 PUSH2 0x1B70 PUSH1 0x21 DUP4 PUSH2 0x129D JUMP JUMPDEST SWAP2 POP PUSH2 0x1B7B DUP3 PUSH2 0x1B16 JUMP JUMPDEST PUSH1 0x40 DUP3 ADD SWAP1 POP SWAP2 SWAP1 POP JUMP JUMPDEST PUSH0 PUSH1 0x20 DUP3 ADD SWAP1 POP DUP2 DUP2 SUB PUSH0 DUP4 ADD MSTORE PUSH2 0x1B9D DUP2 PUSH2 0x1B64 JUMP JUMPDEST SWAP1 POP SWAP2 SWAP1 POP JUMP JUMPDEST PUSH32 0x45524332303A206275726E20616D6F756E7420657863656564732062616C616E PUSH0 DUP3 ADD MSTORE PUSH32 0x6365000000000000000000000000000000000000000000000000000000000000 PUSH1 0x20 DUP3 ADD MSTORE POP JUMP JUMPDEST PUSH0 PUSH2 0x1BFE PUSH1 0x22 DUP4 PUSH2 0x129D JUMP JUMPDEST SWAP2 POP PUSH2 0x1C09 DUP3 PUSH2 0x1BA4 JUMP JUMPDEST PUSH1 0x40 DUP3 ADD SWAP1 POP SWAP2 SWAP1 POP JUMP JUMPDEST PUSH0 PUSH1 0x20 DUP3 ADD SWAP1 POP DUP2 DUP2 SUB PUSH0 DUP4 ADD MSTORE PUSH2 0x1C2B DUP2 PUSH2 0x1BF2 JUMP JUMPDEST SWAP1 POP SWAP2 SWAP1 POP JUMP JUMPDEST PUSH32 0x45524332303A206D696E7420746F20746865207A65726F206164647265737300 PUSH0 DUP3 ADD MSTORE POP JUMP JUMPDEST PUSH0 PUSH2 0x1C66 PUSH1 0x1F DUP4 PUSH2 0x129D JUMP JUMPDEST SWAP2 POP PUSH2 0x1C71 DUP3 PUSH2 0x1C32 JUMP JUMPDEST PUSH1 0x20 DUP3 ADD SWAP1 POP SWAP2 SWAP1 POP JUMP JUMPDEST PUSH0 PUSH1 0x20 DUP3 ADD SWAP1 POP DUP2 DUP2 SUB PUSH0 DUP4 ADD MSTORE PUSH2 0x1C93 DUP2 PUSH2 0x1C5A JUMP JUMPDEST SWAP1 POP SWAP2 SWAP1 POP JUMP JUMPDEST PUSH32 0x4F776E61626C653A2063616C6C6572206973206E6F7420746865206F776E6572 PUSH0 DUP3 ADD MSTORE POP JUMP JUMPDEST PUSH0 PUSH2 0x1CCE PUSH1 0x20 DUP4 PUSH2 0x129D JUMP JUMPDEST SWAP2 POP PUSH2 0x1CD9 DUP3 PUSH2 0x1C9A JUMP JUMPDEST PUSH1 0x20 DUP3 ADD SWAP1 POP SWAP2 SWAP1 POP JUMP JUMPDEST PUSH0 PUSH1 0x20 DUP3 ADD SWAP1 POP DUP2 DUP2 SUB PUSH0 DUP4 ADD MSTORE PUSH2 0x1CFB DUP2 PUSH2 0x1CC2 JUMP JUMPDEST SWAP1 POP SWAP2 SWAP1 POP JUMP INVALID LOG2 PUSH5 0x6970667358 0x22 SLT KECCAK256 SWAP1 0xA5 0xCF GT 0xE7 0x4B 0xB3 PUSH19 0x3022804911A109B727DD10D01AB4767E025C40 0xF9 LT 0x26 TIMESTAMP EQ PUSH5 0x736F6C6343 STOP ADDMOD ISZERO STOP CALLER "
		},
		"gasEstimates": {
			"creation": {
				"codeDepositCost": "1496000",
				"executionCost": "infinite",
				"totalCost": "infinite"
			},
			"external": {
				"allowance(address,address)": "infinite",
				"approve(address,uint256)": "infinite",
				"balanceOf(address)": "2852",
				"burn(uint256)": "infinite",
				"burnFrom(address,uint256)": "infinite",
				"burnQVE(uint256)": "infinite",
				"decimals()": "450",
				"decreaseAllowance(address,uint256)": "infinite",
				"increaseAllowance(address,uint256)": "infinite",
				"initialSupply()": "2448",
				"name()": "infinite",
				"normal_mint(address,uint256)": "infinite",
				"normal_transfer(address,address,uint256)": "infinite",
				"owner()": "2604",
				"renounceOwnership()": "30435",
				"symbol()": "infinite",
				"totalSupply()": "2500",
				"transfer(address,uint256)": "infinite",
				"transferFrom(address,address,uint256)": "infinite",
				"transferOwnership(address)": "30841"
			}
		},
		"methodIdentifiers": {
			"allowance(address,address)": "dd62ed3e",
			"approve(address,uint256)": "095ea7b3",
			"balanceOf(address)": "70a08231",
			"burn(uint256)": "42966c68",
			"burnFrom(address,uint256)": "79cc6790",
			"burnQVE(uint256)": "d55681ba",
			"decimals()": "313ce567",
			"decreaseAllowance(address,uint256)": "a457c2d7",
			"increaseAllowance(address,uint256)": "39509351",
			"initialSupply()": "378dc3dc",
			"name()": "06fdde03",
			"normal_mint(address,uint256)": "5f367b03",
			"normal_transfer(address,address,uint256)": "469895c8",
			"owner()": "8da5cb5b",
			"renounceOwnership()": "715018a6",
			"symbol()": "95d89b41",
			"totalSupply()": "18160ddd",
			"transfer(address,uint256)": "a9059cbb",
			"transferFrom(address,address,uint256)": "23b872dd",
			"transferOwnership(address)": "f2fde38b"
		}
	},
	"abi": [
		{
			"inputs": [],
			"stateMutability": "nonpayable",
			"type": "constructor"
		},
		{
			"anonymous": false,
			"inputs": [
				{
					"indexed": true,
					"internalType": "address",
					"name": "owner",
					"type": "address"
				},
				{
					"indexed": true,
					"internalType": "address",
					"name": "spender",
					"type": "address"
				},
				{
					"indexed": false,
					"internalType": "uint256",
					"name": "value",
					"type": "uint256"
				}
			],
			"name": "Approval",
			"type": "event"
		},
		{
			"anonymous": false,
			"inputs": [
				{
					"indexed": true,
					"internalType": "address",
					"name": "previousOwner",
					"type": "address"
				},
				{
					"indexed": true,
					"internalType": "address",
					"name": "newOwner",
					"type": "address"
				}
			],
			"name": "OwnershipTransferred",
			"type": "event"
		},
		{
			"anonymous": false,
			"inputs": [
				{
					"indexed": true,
					"internalType": "address",
					"name": "from",
					"type": "address"
				},
				{
					"indexed": true,
					"internalType": "address",
					"name": "to",
					"type": "address"
				},
				{
					"indexed": false,
					"internalType": "uint256",
					"name": "value",
					"type": "uint256"
				}
			],
			"name": "Transfer",
			"type": "event"
		},
		{
			"inputs": [
				{
					"internalType": "address",
					"name": "owner",
					"type": "address"
				},
				{
					"internalType": "address",
					"name": "spender",
					"type": "address"
				}
			],
			"name": "allowance",
			"outputs": [
				{
					"internalType": "uint256",
					"name": "",
					"type": "uint256"
				}
			],
			"stateMutability": "view",
			"type": "function"
		},
		{
			"inputs": [
				{
					"internalType": "address",
					"name": "spender",
					"type": "address"
				},
				{
					"internalType": "uint256",
					"name": "amount",
					"type": "uint256"
				}
			],
			"name": "approve",
			"outputs": [
				{
					"internalType": "bool",
					"name": "",
					"type": "bool"
				}
			],
			"stateMutability": "nonpayable",
			"type": "function"
		},
		{
			"inputs": [
				{
					"internalType": "address",
					"name": "account",
					"type": "address"
				}
			],
			"name": "balanceOf",
			"outputs": [
				{
					"internalType": "uint256",
					"name": "",
					"type": "uint256"
				}
			],
			"stateMutability": "view",
			"type": "function"
		},
		{
			"inputs": [
				{
					"internalType": "uint256",
					"name": "amount",
					"type": "uint256"
				}
			],
			"name": "burn",
			"outputs": [],
			"stateMutability": "nonpayable",
			"type": "function"
		},
		{
			"inputs": [
				{
					"internalType": "address",
					"name": "account",
					"type": "address"
				},
				{
					"internalType": "uint256",
					"name": "amount",
					"type": "uint256"
				}
			],
			"name": "burnFrom",
			"outputs": [],
			"stateMutability": "nonpayable",
			"type": "function"
		},
		{
			"inputs": [
				{
					"internalType": "uint256",
					"name": "amount",
					"type": "uint256"
				}
			],
			"name": "burnQVE",
			"outputs": [
				{
					"internalType": "bool",
					"name": "",
					"type": "bool"
				}
			],
			"stateMutability": "nonpayable",
			"type": "function"
		},
		{
			"inputs": [],
			"name": "decimals",
			"outputs": [
				{
					"internalType": "uint8",
					"name": "",
					"type": "uint8"
				}
			],
			"stateMutability": "view",
			"type": "function"
		},
		{
			"inputs": [
				{
					"internalType": "address",
					"name": "spender",
					"type": "address"
				},
				{
					"internalType": "uint256",
					"name": "subtractedValue",
					"type": "uint256"
				}
			],
			"name": "decreaseAllowance",
			"outputs": [
				{
					"internalType": "bool",
					"name": "",
					"type": "bool"
				}
			],
			"stateMutability": "nonpayable",
			"type": "function"
		},
		{
			"inputs": [
				{
					"internalType": "address",
					"name": "spender",
					"type": "address"
				},
				{
					"internalType": "uint256",
					"name": "addedValue",
					"type": "uint256"
				}
			],
			"name": "increaseAllowance",
			"outputs": [
				{
					"internalType": "bool",
					"name": "",
					"type": "bool"
				}
			],
			"stateMutability": "nonpayable",
			"type": "function"
		},
		{
			"inputs": [],
			"name": "initialSupply",
			"outputs": [
				{
					"internalType": "uint256",
					"name": "",
					"type": "uint256"
				}
			],
			"stateMutability": "view",
			"type": "function"
		},
		{
			"inputs": [],
			"name": "name",
			"outputs": [
				{
					"internalType": "string",
					"name": "",
					"type": "string"
				}
			],
			"stateMutability": "view",
			"type": "function"
		},
		{
			"inputs": [
				{
					"internalType": "address",
					"name": "account",
					"type": "address"
				},
				{
					"internalType": "uint256",
					"name": "amount",
					"type": "uint256"
				}
			],
			"name": "normal_mint",
			"outputs": [
				{
					"internalType": "bool",
					"name": "",
					"type": "bool"
				}
			],
			"stateMutability": "nonpayable",
			"type": "function"
		},
		{
			"inputs": [
				{
					"internalType": "address",
					"name": "from",
					"type": "address"
				},
				{
					"internalType": "address",
					"name": "target",
					"type": "address"
				},
				{
					"internalType": "uint256",
					"name": "amount",
					"type": "uint256"
				}
			],
			"name": "normal_transfer",
			"outputs": [
				{
					"internalType": "bool",
					"name": "",
					"type": "bool"
				}
			],
			"stateMutability": "nonpayable",
			"type": "function"
		},
		{
			"inputs": [],
			"name": "owner",
			"outputs": [
				{
					"internalType": "address",
					"name": "",
					"type": "address"
				}
			],
			"stateMutability": "view",
			"type": "function"
		},
		{
			"inputs": [],
			"name": "renounceOwnership",
			"outputs": [],
			"stateMutability": "nonpayable",
			"type": "function"
		},
		{
			"inputs": [],
			"name": "symbol",
			"outputs": [
				{
					"internalType": "string",
					"name": "",
					"type": "string"
				}
			],
			"stateMutability": "view",
			"type": "function"
		},
		{
			"inputs": [],
			"name": "totalSupply",
			"outputs": [
				{
					"internalType": "uint256",
					"name": "",
					"type": "uint256"
				}
			],
			"stateMutability": "view",
			"type": "function"
		},
		{
			"inputs": [
				{
					"internalType": "address",
					"name": "to",
					"type": "address"
				},
				{
					"internalType": "uint256",
					"name": "amount",
					"type": "uint256"
				}
			],
			"name": "transfer",
			"outputs": [
				{
					"internalType": "bool",
					"name": "",
					"type": "bool"
				}
			],
			"stateMutability": "nonpayable",
			"type": "function"
		},
		{
			"inputs": [
				{
					"internalType": "address",
					"name": "from",
					"type": "address"
				},
				{
					"internalType": "address",
					"name": "to",
					"type": "address"
				},
				{
					"internalType": "uint256",
					"name": "amount",
					"type": "uint256"
				}
			],
			"name": "transferFrom",
			"outputs": [
				{
					"internalType": "bool",
					"name": "",
					"type": "bool"
				}
			],
			"stateMutability": "nonpayable",
			"type": "function"
		},
		{
			"inputs": [
				{
					"internalType": "address",
					"name": "newOwner",
					"type": "address"
				}
			],
			"name": "transferOwnership",
			"outputs": [],
			"stateMutability": "nonpayable",
			"type": "function"
		}
	]
}